{
  "address": "0xBA92B73287289b06Da58FDc3388619A86061fBb4",
  "abi": [
    {
      "inputs": [
        {
          "internalType": "address",
          "name": "_nileAMM",
          "type": "address"
        },
        {
          "internalType": "address",
          "name": "_zeroPriceFeed",
          "type": "address"
        },
        {
          "internalType": "address",
          "name": "_ethPriceFeed",
          "type": "address"
        }
      ],
      "stateMutability": "nonpayable",
      "type": "constructor"
    },
    {
      "inputs": [],
      "name": "ethPriceFeed",
      "outputs": [
        {
          "internalType": "contract IPythAggregatorV3",
          "name": "",
          "type": "address"
        }
      ],
      "stateMutability": "view",
      "type": "function"
    },
    {
      "inputs": [],
      "name": "getPrice",
      "outputs": [
        {
          "internalType": "uint256",
          "name": "price",
          "type": "uint256"
        }
      ],
      "stateMutability": "view",
      "type": "function"
    },
    {
      "inputs": [],
      "name": "latestAnswer",
      "outputs": [
        {
          "internalType": "int256",
          "name": "",
          "type": "int256"
        }
      ],
      "stateMutability": "view",
      "type": "function"
    },
    {
      "inputs": [],
      "name": "nileAMM",
      "outputs": [
        {
          "internalType": "contract INileAMM",
          "name": "",
          "type": "address"
        }
      ],
      "stateMutability": "view",
      "type": "function"
    },
    {
      "inputs": [
        {
          "internalType": "uint256",
          "name": "x",
          "type": "uint256"
        }
      ],
      "name": "sqrt",
      "outputs": [
        {
          "internalType": "uint256",
          "name": "y",
          "type": "uint256"
        }
      ],
      "stateMutability": "pure",
      "type": "function"
    },
    {
      "inputs": [],
      "name": "zeroPriceFeed",
      "outputs": [
        {
          "internalType": "contract IPythAggregatorV3",
          "name": "",
          "type": "address"
        }
      ],
      "stateMutability": "view",
      "type": "function"
    }
  ],
  "transactionHash": "0x6bddb493dc0fbc9c48ec4ba647ad07157c01b9e990632c2c52e3f296d14fc859",
  "args": [
    "0x6cDcb1C4A4D1C3C6d054b27AC5B77e89eAFb971d",
    "0x15Fc7b4982A11c5CB63379cD0b2CE57f3e9C08f9",
    "0x71041dddad3595F9CEd3DcCFBe3D1F4b0a16Bb70"
  ],
  "numDeployments": 3,
  "solcInputHash": "431994b6cdfb8adc62f53047f5321e7f",
  "bytecode": "0x60e060405234801561001057600080fd5b5060405161076438038061076483398101604081905261002f91610068565b6001600160a01b0392831660805290821660a0521660c0526100ab565b80516001600160a01b038116811461006357600080fd5b919050565b60008060006060848603121561007d57600080fd5b6100868461004c565b92506100946020850161004c565b91506100a26040850161004c565b90509250925092565b60805160a05160c0516106706100f46000396000818161012501526102f001526000818160aa015261025d01526000818160f6015281816101c701526103fd01526106706000f3fe608060405234801561001057600080fd5b50600436106100725760003560e01c806391ce579c1161005057806391ce579c146100f157806398d5fdca14610118578063af7665ce1461012057600080fd5b806350d25bcd14610077578063677342ce1461009257806389e402f1146100a5575b600080fd5b61007f610147565b6040519081526020015b60405180910390f35b61007f6100a03660046104f4565b610156565b6100cc7f000000000000000000000000000000000000000000000000000000000000000081565b60405173ffffffffffffffffffffffffffffffffffffffff9091168152602001610089565b6100cc7f000000000000000000000000000000000000000000000000000000000000000081565b61007f6101c0565b6100cc7f000000000000000000000000000000000000000000000000000000000000000081565b60006101516101c0565b905090565b60008160000361016857506000919050565b6000600261017784600161053c565b6101819190610555565b90508291505b818110156101ba5790508060028161019f8186610555565b6101a9919061053c565b6101b39190610555565b9050610187565b50919050565b60008060007f000000000000000000000000000000000000000000000000000000000000000073ffffffffffffffffffffffffffffffffffffffff16630902f1ac6040518163ffffffff1660e01b8152600401606060405180830381865afa158015610230573d6000803e3d6000fd5b505050506040513d601f19601f820116820180604052508101906102549190610590565b509150915060007f000000000000000000000000000000000000000000000000000000000000000073ffffffffffffffffffffffffffffffffffffffff166350d25bcd6040518163ffffffff1660e01b8152600401602060405180830381865afa1580156102c6573d6000803e3d6000fd5b505050506040513d601f19601f820116820180604052508101906102ea91906105be565b905060007f000000000000000000000000000000000000000000000000000000000000000073ffffffffffffffffffffffffffffffffffffffff166350d25bcd6040518163ffffffff1660e01b8152600401602060405180830381865afa158015610359573d6000803e3d6000fd5b505050506040513d601f19601f8201168201806040525081019061037d91906105be565b905060008213801561038f5750600081135b6103f9576040517f08c379a000000000000000000000000000000000000000000000000000000000815260206004820152600d60248201527f496e76616c696420507269636500000000000000000000000000000000000000604482015260640160405180910390fd5b60007f000000000000000000000000000000000000000000000000000000000000000073ffffffffffffffffffffffffffffffffffffffff166318160ddd6040518163ffffffff1660e01b8152600401602060405180830381865afa158015610466573d6000803e3d6000fd5b505050506040513d601f19601f8201168201806040525081019061048a91906105be565b6104976100a086886105d7565b6104a990670de0b6b3a76400006105d7565b6104b39190610555565b9050670de0b6b3a76400006104cb6100a084866105ee565b6104d68360026105d7565b6104e091906105d7565b6104ea9190610555565b9550505050505090565b60006020828403121561050657600080fd5b5035919050565b7f4e487b7100000000000000000000000000000000000000000000000000000000600052601160045260246000fd5b8082018082111561054f5761054f61050d565b92915050565b60008261058b577f4e487b7100000000000000000000000000000000000000000000000000000000600052601260045260246000fd5b500490565b6000806000606084860312156105a557600080fd5b8351925060208401519150604084015190509250925092565b6000602082840312156105d057600080fd5b5051919050565b808202811582820484141761054f5761054f61050d565b808202600082127f8000000000000000000000000000000000000000000000000000000000000000841416156106265761062661050d565b818105831482151761054f5761054f61050d56fea26469706673582212208c9913b96197cede86f88a6b6d7f673167bcb66f0029498110038c8b1b306f2164736f6c63430008140033",
  "devdoc": {
    "details": "This contract interacts with the INileAMM interface to fetch reserves and calculate prices.Reference from https://github.com/AlphaFinanceLab/alpha-homora-v2-contract/blob/master/contracts/oracle/UniswapV2Oracle.sol",
    "kind": "dev",
    "methods": {
      "constructor": {
        "params": {
          "_nileAMM": "The address of the Nile AMM contract."
        }
      },
      "getPrice()": {
        "details": "This function fetches reserves from the Nile AMM and uses a pre-defined price for tokens to calculate the LP token price.",
        "returns": {
          "price": "The price of the liquidity pool token."
        }
      },
      "sqrt(uint256)": {
        "details": "This function uses an iterative method to compute the square root of a number.",
        "params": {
          "x": "The number to compute the square root of."
        },
        "returns": {
          "y": "The square root of the given number."
        }
      }
    },
    "title": "LPOracle",
    "version": 1
  },
  "userdoc": {
    "kind": "user",
    "methods": {
      "constructor": {
        "notice": "Constructor sets the address of the Nile AMM contract."
      },
      "getPrice()": {
        "notice": "Gets the price of the liquidity pool token."
      },
      "latestAnswer()": {
        "notice": "Gets the latest price of the liquidity pool token."
      },
      "sqrt(uint256)": {
        "notice": "Computes the square root of a given number using the Babylonian method."
      }
    },
    "notice": "This contract provides a price oracle for the liquidity pool tokens in a Nile AMM.",
    "version": 1
  },
  "storageLayout": {
    "storage": [],
    "types": null
  }
}