{
  "address": "0x96682C05add374ea33D5b2c447a26456E72d7DF3",
  "abi": [
    {
      "inputs": [],
      "stateMutability": "nonpayable",
      "type": "constructor"
    },
    {
      "inputs": [
        {
          "internalType": "address",
          "name": "target",
          "type": "address"
        }
      ],
      "name": "AddressEmptyCode",
      "type": "error"
    },
    {
      "inputs": [
        {
          "internalType": "address",
          "name": "account",
          "type": "address"
        }
      ],
      "name": "AddressInsufficientBalance",
      "type": "error"
    },
    {
      "inputs": [],
      "name": "ClaimDurationOver",
      "type": "error"
    },
    {
      "inputs": [],
      "name": "ClaimNotReady",
      "type": "error"
    },
    {
      "inputs": [],
      "name": "FailedInnerCall",
      "type": "error"
    },
    {
      "inputs": [],
      "name": "InvalidAddress",
      "type": "error"
    },
    {
      "inputs": [],
      "name": "InvalidInitialization",
      "type": "error"
    },
    {
      "inputs": [],
      "name": "InvalidLockDuration",
      "type": "error"
    },
    {
      "inputs": [
        {
          "internalType": "bytes32[]",
          "name": "",
          "type": "bytes32[]"
        }
      ],
      "name": "InvalidMerkleProof",
      "type": "error"
    },
    {
      "inputs": [],
      "name": "NotInitializing",
      "type": "error"
    },
    {
      "inputs": [
        {
          "internalType": "address",
          "name": "owner",
          "type": "address"
        }
      ],
      "name": "OwnableInvalidOwner",
      "type": "error"
    },
    {
      "inputs": [
        {
          "internalType": "address",
          "name": "account",
          "type": "address"
        }
      ],
      "name": "OwnableUnauthorizedAccount",
      "type": "error"
    },
    {
      "inputs": [],
      "name": "RewardsAlreadyClaimed",
      "type": "error"
    },
    {
      "inputs": [
        {
          "internalType": "address",
          "name": "token",
          "type": "address"
        }
      ],
      "name": "SafeERC20FailedOperation",
      "type": "error"
    },
    {
      "anonymous": false,
      "inputs": [
        {
          "indexed": false,
          "internalType": "uint64",
          "name": "version",
          "type": "uint64"
        }
      ],
      "name": "Initialized",
      "type": "event"
    },
    {
      "anonymous": false,
      "inputs": [
        {
          "indexed": false,
          "internalType": "address",
          "name": "oldLocker",
          "type": "address"
        },
        {
          "indexed": false,
          "internalType": "address",
          "name": "newLocker",
          "type": "address"
        }
      ],
      "name": "LockerSet",
      "type": "event"
    },
    {
      "anonymous": false,
      "inputs": [
        {
          "indexed": false,
          "internalType": "bytes32",
          "name": "oldMerkleRoot",
          "type": "bytes32"
        },
        {
          "indexed": false,
          "internalType": "bytes32",
          "name": "newMerkleRoot",
          "type": "bytes32"
        }
      ],
      "name": "MerkleRootSet",
      "type": "event"
    },
    {
      "anonymous": false,
      "inputs": [
        {
          "indexed": true,
          "internalType": "address",
          "name": "previousOwner",
          "type": "address"
        },
        {
          "indexed": true,
          "internalType": "address",
          "name": "newOwner",
          "type": "address"
        }
      ],
      "name": "OwnershipTransferred",
      "type": "event"
    },
    {
      "anonymous": false,
      "inputs": [],
      "name": "RewardTerminated",
      "type": "event"
    },
    {
      "anonymous": false,
      "inputs": [
        {
          "indexed": false,
          "internalType": "address",
          "name": "oldRewardToken",
          "type": "address"
        },
        {
          "indexed": false,
          "internalType": "address",
          "name": "newRewardToken",
          "type": "address"
        }
      ],
      "name": "RewardTokenSet",
      "type": "event"
    },
    {
      "anonymous": false,
      "inputs": [
        {
          "indexed": false,
          "internalType": "address",
          "name": "_user",
          "type": "address"
        },
        {
          "indexed": false,
          "internalType": "uint256",
          "name": "_rewardsAmount",
          "type": "uint256"
        }
      ],
      "name": "RewardsClaimed",
      "type": "event"
    },
    {
      "anonymous": false,
      "inputs": [
        {
          "indexed": false,
          "internalType": "address",
          "name": "_user",
          "type": "address"
        },
        {
          "indexed": false,
          "internalType": "uint256",
          "name": "_transferAmount",
          "type": "uint256"
        }
      ],
      "name": "RewardsTransferred",
      "type": "event"
    },
    {
      "anonymous": false,
      "inputs": [
        {
          "indexed": false,
          "internalType": "address",
          "name": "_user",
          "type": "address"
        },
        {
          "indexed": false,
          "internalType": "uint256",
          "name": "_lockAmount",
          "type": "uint256"
        }
      ],
      "name": "RewardsVested",
      "type": "event"
    },
    {
      "inputs": [],
      "name": "adminWithdrawal",
      "outputs": [],
      "stateMutability": "nonpayable",
      "type": "function"
    },
    {
      "inputs": [
        {
          "internalType": "address",
          "name": "_user",
          "type": "address"
        },
        {
          "internalType": "uint256",
          "name": "_claimAmount",
          "type": "uint256"
        },
        {
          "internalType": "bytes32[]",
          "name": "_merkleProofs",
          "type": "bytes32[]"
        }
      ],
      "name": "claim",
      "outputs": [],
      "stateMutability": "nonpayable",
      "type": "function"
    },
    {
      "inputs": [],
      "name": "endDate",
      "outputs": [
        {
          "internalType": "uint256",
          "name": "",
          "type": "uint256"
        }
      ],
      "stateMutability": "view",
      "type": "function"
    },
    {
      "inputs": [
        {
          "internalType": "address",
          "name": "_rewardToken",
          "type": "address"
        },
        {
          "internalType": "address",
          "name": "_vestedZeroNFT",
          "type": "address"
        },
        {
          "internalType": "uint256",
          "name": "_unlockDate",
          "type": "uint256"
        },
        {
          "internalType": "uint256",
          "name": "_endDate",
          "type": "uint256"
        },
        {
          "internalType": "address",
          "name": "_owner",
          "type": "address"
        },
        {
          "internalType": "address[]",
          "name": "vestRewardsForUsers",
          "type": "address[]"
        }
      ],
      "name": "initialize",
      "outputs": [],
      "stateMutability": "nonpayable",
      "type": "function"
    },
    {
      "inputs": [],
      "name": "owner",
      "outputs": [
        {
          "internalType": "address",
          "name": "",
          "type": "address"
        }
      ],
      "stateMutability": "view",
      "type": "function"
    },
    {
      "inputs": [],
      "name": "pauseClaims",
      "outputs": [],
      "stateMutability": "nonpayable",
      "type": "function"
    },
    {
      "inputs": [],
      "name": "paused",
      "outputs": [
        {
          "internalType": "bool",
          "name": "",
          "type": "bool"
        }
      ],
      "stateMutability": "view",
      "type": "function"
    },
    {
      "inputs": [],
      "name": "renounceOwnership",
      "outputs": [],
      "stateMutability": "nonpayable",
      "type": "function"
    },
    {
      "inputs": [],
      "name": "rewardToken",
      "outputs": [
        {
          "internalType": "contract ERC20Upgradeable",
          "name": "",
          "type": "address"
        }
      ],
      "stateMutability": "view",
      "type": "function"
    },
    {
      "inputs": [
        {
          "internalType": "address",
          "name": "",
          "type": "address"
        }
      ],
      "name": "rewardsClaimed",
      "outputs": [
        {
          "internalType": "bool",
          "name": "",
          "type": "bool"
        }
      ],
      "stateMutability": "view",
      "type": "function"
    },
    {
      "inputs": [
        {
          "internalType": "bytes32",
          "name": "_merkleRoot",
          "type": "bytes32"
        }
      ],
      "name": "setMerkleRoot",
      "outputs": [],
      "stateMutability": "nonpayable",
      "type": "function"
    },
    {
      "inputs": [
        {
          "internalType": "address",
          "name": "_rewardToken",
          "type": "address"
        }
      ],
      "name": "setRewardToken",
      "outputs": [],
      "stateMutability": "nonpayable",
      "type": "function"
    },
    {
      "inputs": [
        {
          "internalType": "address[]",
          "name": "_user",
          "type": "address[]"
        },
        {
          "internalType": "bool",
          "name": "_vest",
          "type": "bool"
        }
      ],
      "name": "setVestForUsers",
      "outputs": [],
      "stateMutability": "nonpayable",
      "type": "function"
    },
    {
      "inputs": [
        {
          "internalType": "address",
          "name": "_vestedZeroNFT",
          "type": "address"
        }
      ],
      "name": "setVestedZeroNFT",
      "outputs": [],
      "stateMutability": "nonpayable",
      "type": "function"
    },
    {
      "inputs": [
        {
          "internalType": "address",
          "name": "newOwner",
          "type": "address"
        }
      ],
      "name": "transferOwnership",
      "outputs": [],
      "stateMutability": "nonpayable",
      "type": "function"
    },
    {
      "inputs": [],
      "name": "unlockDate",
      "outputs": [
        {
          "internalType": "uint256",
          "name": "",
          "type": "uint256"
        }
      ],
      "stateMutability": "view",
      "type": "function"
    },
    {
      "inputs": [],
      "name": "unpauseClaims",
      "outputs": [],
      "stateMutability": "nonpayable",
      "type": "function"
    },
    {
      "inputs": [
        {
          "internalType": "address",
          "name": "",
          "type": "address"
        }
      ],
      "name": "vestRewards",
      "outputs": [
        {
          "internalType": "bool",
          "name": "",
          "type": "bool"
        }
      ],
      "stateMutability": "view",
      "type": "function"
    },
    {
      "inputs": [],
      "name": "vestedZeroNFT",
      "outputs": [
        {
          "internalType": "contract IVestedZeroNFT",
          "name": "",
          "type": "address"
        }
      ],
      "stateMutability": "view",
      "type": "function"
    }
  ],
  "transactionHash": "0x3df14e48e278901e13657d9f76bbca51cf6160172d615041bcedf0dcc06ddbb7",
  "args": [],
  "numDeployments": 1,
  "solcInputHash": "2f8a01d89dffed9313a8331e507d25f8",
  "bytecode": "0x608060405234801561001057600080fd5b5061001961001e565b6100d0565b7ff0c57e16840df040f15088dc2f81fe391c3923bec73e23a9662efc9c229c6a00805468010000000000000000900460ff161561006e5760405163f92ee8a960e01b815260040160405180910390fd5b80546001600160401b03908116146100cd5780546001600160401b0319166001600160401b0390811782556040519081527fc7f505b2f371ae2175ee4913f4499e1f2633a7b5936321eed1cdaeb6115181d29060200160405180910390a15b50565b6118ad806100df6000396000f3fe608060405234801561001057600080fd5b50600436106101515760003560e01c80638aee8127116100cd578063ddeaf60711610081578063efcf97f211610066578063efcf97f2146102dd578063f2fde38b146102f0578063f7c618c11461030357600080fd5b8063ddeaf607146102b7578063e6c309ba146102ca57600080fd5b8063b7ea2ab1116100b2578063b7ea2ab11461026b578063c24a0f8b1461028b578063d3f730fd1461029457600080fd5b80638aee8127146101fa5780638da5cb5b1461020d57600080fd5b80635c975abb1161012457806369ac57211161010957806369ac5721146101c8578063715018a6146101df5780637cb64759146101e757600080fd5b80635c975abb146101b357806363ffe7e3146101c057600080fd5b80630f3314e71461015657806337bc7c7f146101605780633d13f874146101985780633d8f6806146101ab575b600080fd5b61015e610323565b005b61018361016e366004611412565b60026020526000908152604090205460ff1681565b60405190151581526020015b60405180910390f35b61015e6101a636600461142d565b610358565b61015e6108b1565b6007546101839060ff1681565b61015e6108e3565b6101d160055481565b60405190815260200161018f565b61015e6109cc565b61015e6101f53660046114b7565b6109e0565b61015e610208366004611412565b610a2a565b7f9016d09d72d40fdae2fd8ceac6b6234c7706214fd39c1cd1e609a0528c1993005473ffffffffffffffffffffffffffffffffffffffff165b60405173ffffffffffffffffffffffffffffffffffffffff909116815260200161018f565b6004546102469073ffffffffffffffffffffffffffffffffffffffff1681565b6101d160065481565b6101836102a2366004611412565b60016020526000908152604090205460ff1681565b61015e6102c53660046115bf565b610b1a565b61015e6102d836600461164e565b610d92565b61015e6102eb366004611412565b610e31565b61015e6102fe366004611412565b610ecd565b6003546102469073ffffffffffffffffffffffffffffffffffffffff1681565b61032b610f31565b600780547fffffffffffffffffffffffffffffffffffffffffffffffffffffffffffffff00166001179055565b60075460ff16156103f0576040517f08c379a000000000000000000000000000000000000000000000000000000000815260206004820152602260248201527f41697264726f7052657761726465723a20436c61696d7320617265207061757360448201527f656400000000000000000000000000000000000000000000000000000000000060648201526084015b60405180910390fd5b73ffffffffffffffffffffffffffffffffffffffff841661043d576040517fe6c4247b00000000000000000000000000000000000000000000000000000000815260040160405180910390fd5b600554421015610479576040517f57155ae300000000000000000000000000000000000000000000000000000000815260040160405180910390fd5b6006544211156104b5576040517f8810a20000000000000000000000000000000000000000000000000000000000815260040160405180910390fd5b6040517fffffffffffffffffffffffffffffffffffffffff000000000000000000000000606086901b166020820152603481018490526000906054016040516020818303038152906040528051906020012090506105488383808060200260200160405190810160405280939291908181526020018383602002808284376000920182905250549250859150610fbf9050565b6105825782826040517f3269cd150000000000000000000000000000000000000000000000000000000081526004016103e79291906116a0565b73ffffffffffffffffffffffffffffffffffffffff851660009081526001602052604090205460ff16156105e2576040517faa6a15b500000000000000000000000000000000000000000000000000000000815260040160405180910390fd5b73ffffffffffffffffffffffffffffffffffffffff8516600090815260016020818152604080842080547fffffffffffffffffffffffffffffffffffffffffffffffffffffffffffffff00169093179092556002905290205460ff16156107e757600354600480546040517f095ea7b300000000000000000000000000000000000000000000000000000000815273ffffffffffffffffffffffffffffffffffffffff91821692810192909252602482018790529091169063095ea7b3906044016020604051808303816000875af11580156106c2573d6000803e3d6000fd5b505050506040513d601f19601f820116820180604052508101906106e691906116f2565b50600480546040517fd9e2f2d400000000000000000000000000000000000000000000000000000000815273ffffffffffffffffffffffffffffffffffffffff9091169163d9e2f2d49161074f91899189916000916228de80918391829182916003910161170f565b6020604051808303816000875af115801561076e573d6000803e3d6000fd5b505050506040513d601f19601f8201168201806040525081019061079291906117a1565b506040805173ffffffffffffffffffffffffffffffffffffffff87168152602081018690527facea123f8434fb380d75d36c9908548ac7b1804b1f1ce4b2396a3e167e64e6a0910160405180910390a161085b565b60035461080b9073ffffffffffffffffffffffffffffffffffffffff168686610fd7565b6040805173ffffffffffffffffffffffffffffffffffffffff87168152602081018690527f586b2e63a21a7a4e1402e36f48ce10cb1ec94684fea254c186b76d1f98ecf130910160405180910390a15b6040805173ffffffffffffffffffffffffffffffffffffffff87168152602081018690527ffc30cddea38e2bf4d6ea7d3f9ed3b6ad7f176419f4963bd81318067a4aee73fe910160405180910390a15050505050565b6108b9610f31565b600780547fffffffffffffffffffffffffffffffffffffffffffffffffffffffffffffff00169055565b6108eb610f31565b6109a1336003546040517f70a0823100000000000000000000000000000000000000000000000000000000815230600482015273ffffffffffffffffffffffffffffffffffffffff909116906370a0823190602401602060405180830381865afa15801561095d573d6000803e3d6000fd5b505050506040513d601f19601f8201168201806040525081019061098191906117a1565b60035473ffffffffffffffffffffffffffffffffffffffff169190610fd7565b6040517f5612c6fa172a2e465ed7755a280adc45104edcd6ea32f498a6473f8a9686609290600090a1565b6109d4610f31565b6109de6000611064565b565b6109e8610f31565b6000546040805183815260208101929092527f4983a335d43faab715b8e7c23f104092b464c1b553f3f4aa3fc33c473b45dd49910160405180910390a1600055565b610a32610f31565b73ffffffffffffffffffffffffffffffffffffffff8116610a7f576040517fe6c4247b00000000000000000000000000000000000000000000000000000000815260040160405180910390fd5b6003546040805173ffffffffffffffffffffffffffffffffffffffff928316815291831660208301527f327ea7ac6c8d64c471a5261e5af88d6da3caeb804a8a5f96f1c335815a4f331d910160405180910390a1600380547fffffffffffffffffffffffff00000000000000000000000000000000000000001673ffffffffffffffffffffffffffffffffffffffff92909216919091179055565b7ff0c57e16840df040f15088dc2f81fe391c3923bec73e23a9662efc9c229c6a00805468010000000000000000810460ff16159067ffffffffffffffff16600081158015610b655750825b905060008267ffffffffffffffff166001148015610b825750303b155b905081158015610b90575080155b15610bc7576040517ff92ee8a900000000000000000000000000000000000000000000000000000000815260040160405180910390fd5b84547fffffffffffffffffffffffffffffffffffffffffffffffff00000000000000001660011785558315610c285784547fffffffffffffffffffffffffffffffffffffffffffffff00ffffffffffffffff16680100000000000000001785555b610c31876110fa565b600589905560068890556004805473ffffffffffffffffffffffffffffffffffffffff808d167fffffffffffffffffffffffff00000000000000000000000000000000000000009283161790925560038054928e169290911691909117905560005b8651811015610d2357600160026000898481518110610cb457610cb46117ba565b60209081029190910181015173ffffffffffffffffffffffffffffffffffffffff16825281019190915260400160002080547fffffffffffffffffffffffffffffffffffffffffffffffffffffffffffffff001691151591909117905580610d1b816117e9565b915050610c93565b508315610d855784547fffffffffffffffffffffffffffffffffffffffffffffff00ffffffffffffffff168555604051600181527fc7f505b2f371ae2175ee4913f4499e1f2633a7b5936321eed1cdaeb6115181d29060200160405180910390a15b5050505050505050505050565b610d9a610f31565b60005b8251811015610e2c578160026000858481518110610dbd57610dbd6117ba565b60209081029190910181015173ffffffffffffffffffffffffffffffffffffffff16825281019190915260400160002080547fffffffffffffffffffffffffffffffffffffffffffffffffffffffffffffff001691151591909117905580610e24816117e9565b915050610d9d565b505050565b610e39610f31565b73ffffffffffffffffffffffffffffffffffffffff8116610e86576040517fe6c4247b00000000000000000000000000000000000000000000000000000000815260040160405180910390fd5b600480547fffffffffffffffffffffffff00000000000000000000000000000000000000001673ffffffffffffffffffffffffffffffffffffffff92909216919091179055565b610ed5610f31565b73ffffffffffffffffffffffffffffffffffffffff8116610f25576040517f1e4fbdf7000000000000000000000000000000000000000000000000000000008152600060048201526024016103e7565b610f2e81611064565b50565b33610f707f9016d09d72d40fdae2fd8ceac6b6234c7706214fd39c1cd1e609a0528c1993005473ffffffffffffffffffffffffffffffffffffffff1690565b73ffffffffffffffffffffffffffffffffffffffff16146109de576040517f118cdaa70000000000000000000000000000000000000000000000000000000081523360048201526024016103e7565b600082610fcc858461110b565b1490505b9392505050565b6040805173ffffffffffffffffffffffffffffffffffffffff8416602482015260448082018490528251808303909101815260649091019091526020810180517bffffffffffffffffffffffffffffffffffffffffffffffffffffffff167fa9059cbb00000000000000000000000000000000000000000000000000000000179052610e2c908490611158565b7f9016d09d72d40fdae2fd8ceac6b6234c7706214fd39c1cd1e609a0528c19930080547fffffffffffffffffffffffff0000000000000000000000000000000000000000811673ffffffffffffffffffffffffffffffffffffffff848116918217845560405192169182907f8be0079c531659141344cd1fd0a4f28419497f9722a3daafe3b4186f6b6457e090600090a3505050565b6111026111ee565b610f2e81611255565b600081815b84518110156111505761113c8286838151811061112f5761112f6117ba565b602002602001015161125d565b915080611148816117e9565b915050611110565b509392505050565b600061117a73ffffffffffffffffffffffffffffffffffffffff841683611289565b9050805160001415801561119f57508080602001905181019061119d91906116f2565b155b15610e2c576040517f5274afe700000000000000000000000000000000000000000000000000000000815273ffffffffffffffffffffffffffffffffffffffff841660048201526024016103e7565b7ff0c57e16840df040f15088dc2f81fe391c3923bec73e23a9662efc9c229c6a005468010000000000000000900460ff166109de576040517fd7e6bcf800000000000000000000000000000000000000000000000000000000815260040160405180910390fd5b610ed56111ee565b6000818310611279576000828152602084905260409020610fd0565b5060009182526020526040902090565b6060610fd083836000846000808573ffffffffffffffffffffffffffffffffffffffff1684866040516112bc9190611848565b60006040518083038185875af1925050503d80600081146112f9576040519150601f19603f3d011682016040523d82523d6000602084013e6112fe565b606091505b509150915061130e868383611318565b9695505050505050565b60608261132d57611328826113a7565b610fd0565b8151158015611351575073ffffffffffffffffffffffffffffffffffffffff84163b155b156113a0576040517f9996b31500000000000000000000000000000000000000000000000000000000815273ffffffffffffffffffffffffffffffffffffffff851660048201526024016103e7565b5080610fd0565b8051156113b75780518082602001fd5b6040517f1425ea4200000000000000000000000000000000000000000000000000000000815260040160405180910390fd5b803573ffffffffffffffffffffffffffffffffffffffff8116811461140d57600080fd5b919050565b60006020828403121561142457600080fd5b610fd0826113e9565b6000806000806060858703121561144357600080fd5b61144c856113e9565b935060208501359250604085013567ffffffffffffffff8082111561147057600080fd5b818701915087601f83011261148457600080fd5b81358181111561149357600080fd5b8860208260051b85010111156114a857600080fd5b95989497505060200194505050565b6000602082840312156114c957600080fd5b5035919050565b7f4e487b7100000000000000000000000000000000000000000000000000000000600052604160045260246000fd5b600082601f83011261151057600080fd5b8135602067ffffffffffffffff8083111561152d5761152d6114d0565b8260051b6040517fffffffffffffffffffffffffffffffffffffffffffffffffffffffffffffffe0603f83011681018181108482111715611570576115706114d0565b60405293845285810183019383810192508785111561158e57600080fd5b83870191505b848210156115b4576115a5826113e9565b83529183019190830190611594565b979650505050505050565b60008060008060008060c087890312156115d857600080fd5b6115e1876113e9565b95506115ef602088016113e9565b9450604087013593506060870135925061160b608088016113e9565b915060a087013567ffffffffffffffff81111561162757600080fd5b61163389828a016114ff565b9150509295509295509295565b8015158114610f2e57600080fd5b6000806040838503121561166157600080fd5b823567ffffffffffffffff81111561167857600080fd5b611684858286016114ff565b925050602083013561169581611640565b809150509250929050565b6020815281602082015260007f07ffffffffffffffffffffffffffffffffffffffffffffffffffffffffffffff8311156116d957600080fd5b8260051b80856040850137919091016040019392505050565b60006020828403121561170457600080fd5b8151610fd081611640565b60006101008201905073ffffffffffffffffffffffffffffffffffffffff8a1682528860208301528760408301528660608301528560808301528460a083015283151560c08301526004831061178e577f4e487b7100000000000000000000000000000000000000000000000000000000600052602160045260246000fd5b8260e08301529998505050505050505050565b6000602082840312156117b357600080fd5b5051919050565b7f4e487b7100000000000000000000000000000000000000000000000000000000600052603260045260246000fd5b60007fffffffffffffffffffffffffffffffffffffffffffffffffffffffffffffffff8203611841577f4e487b7100000000000000000000000000000000000000000000000000000000600052601160045260246000fd5b5060010190565b6000825160005b81811015611869576020818601810151858301520161184f565b50600092019182525091905056fea2646970667358221220c0a2ea71501b75639f289e2008766047346aae86e040a96e925586833aca5df864736f6c63430008140033",
  "devdoc": {
    "errors": {
      "AddressEmptyCode(address)": [
        {
          "details": "There's no code at `target` (it is not a contract)."
        }
      ],
      "AddressInsufficientBalance(address)": [
        {
          "details": "The ETH balance of the account is not enough to perform the operation."
        }
      ],
      "FailedInnerCall()": [
        {
          "details": "A call to an address target failed. The target may have reverted."
        }
      ],
      "InvalidInitialization()": [
        {
          "details": "The contract is already initialized."
        }
      ],
      "NotInitializing()": [
        {
          "details": "The contract is not initializing."
        }
      ],
      "OwnableInvalidOwner(address)": [
        {
          "details": "The owner is not a valid owner account. (eg. `address(0)`)"
        }
      ],
      "OwnableUnauthorizedAccount(address)": [
        {
          "details": "The caller account is not authorized to perform an operation."
        }
      ],
      "SafeERC20FailedOperation(address)": [
        {
          "details": "An operation with an ERC20 token failed."
        }
      ]
    },
    "events": {
      "Initialized(uint64)": {
        "details": "Triggered when the contract has been initialized or reinitialized."
      }
    },
    "kind": "dev",
    "methods": {
      "owner()": {
        "details": "Returns the address of the current owner."
      },
      "renounceOwnership()": {
        "details": "Leaves the contract without owner. It will not be possible to call `onlyOwner` functions. Can only be called by the current owner. NOTE: Renouncing ownership will leave the contract without an owner, thereby disabling any functionality that is only available to the owner."
      },
      "transferOwnership(address)": {
        "details": "Transfers ownership of the contract to a new account (`newOwner`). Can only be called by the current owner."
      }
    },
    "version": 1
  },
  "userdoc": {
    "kind": "user",
    "methods": {},
    "version": 1
  },
  "storageLayout": {
    "storage": [
      {
        "astId": 2492,
        "contract": "contracts/airdrop/AirdropRewarderS2.sol:AirdropRewarderS2",
        "label": "merkleRoot",
        "offset": 0,
        "slot": "0",
        "type": "t_bytes32"
      },
      {
        "astId": 2496,
        "contract": "contracts/airdrop/AirdropRewarderS2.sol:AirdropRewarderS2",
        "label": "rewardsClaimed",
        "offset": 0,
        "slot": "1",
        "type": "t_mapping(t_address,t_bool)"
      },
      {
        "astId": 2500,
        "contract": "contracts/airdrop/AirdropRewarderS2.sol:AirdropRewarderS2",
        "label": "vestRewards",
        "offset": 0,
        "slot": "2",
        "type": "t_mapping(t_address,t_bool)"
      },
      {
        "astId": 2503,
        "contract": "contracts/airdrop/AirdropRewarderS2.sol:AirdropRewarderS2",
        "label": "rewardToken",
        "offset": 0,
        "slot": "3",
        "type": "t_contract(ERC20Upgradeable)1065"
      },
      {
        "astId": 2506,
        "contract": "contracts/airdrop/AirdropRewarderS2.sol:AirdropRewarderS2",
        "label": "vestedZeroNFT",
        "offset": 0,
        "slot": "4",
        "type": "t_contract(IVestedZeroNFT)3075"
      },
      {
        "astId": 2508,
        "contract": "contracts/airdrop/AirdropRewarderS2.sol:AirdropRewarderS2",
        "label": "unlockDate",
        "offset": 0,
        "slot": "5",
        "type": "t_uint256"
      },
      {
        "astId": 2510,
        "contract": "contracts/airdrop/AirdropRewarderS2.sol:AirdropRewarderS2",
        "label": "endDate",
        "offset": 0,
        "slot": "6",
        "type": "t_uint256"
      },
      {
        "astId": 2512,
        "contract": "contracts/airdrop/AirdropRewarderS2.sol:AirdropRewarderS2",
        "label": "paused",
        "offset": 0,
        "slot": "7",
        "type": "t_bool"
      }
    ],
    "types": {
      "t_address": {
        "encoding": "inplace",
        "label": "address",
        "numberOfBytes": "20"
      },
      "t_bool": {
        "encoding": "inplace",
        "label": "bool",
        "numberOfBytes": "1"
      },
      "t_bytes32": {
        "encoding": "inplace",
        "label": "bytes32",
        "numberOfBytes": "32"
      },
      "t_contract(ERC20Upgradeable)1065": {
        "encoding": "inplace",
        "label": "contract ERC20Upgradeable",
        "numberOfBytes": "20"
      },
      "t_contract(IVestedZeroNFT)3075": {
        "encoding": "inplace",
        "label": "contract IVestedZeroNFT",
        "numberOfBytes": "20"
      },
      "t_mapping(t_address,t_bool)": {
        "encoding": "mapping",
        "key": "t_address",
        "label": "mapping(address => bool)",
        "numberOfBytes": "32",
        "value": "t_bool"
      },
      "t_uint256": {
        "encoding": "inplace",
        "label": "uint256",
        "numberOfBytes": "32"
      }
    }
  }
}