{
  "address": "0xC275c4741dc1C171Da08B13e532C70E300fA7A0d",
  "abi": [
    {
      "inputs": [],
      "name": "ERC721EnumerableForbiddenBatchMint",
      "type": "error"
    },
    {
      "inputs": [
        {
          "internalType": "address",
          "name": "sender",
          "type": "address"
        },
        {
          "internalType": "uint256",
          "name": "tokenId",
          "type": "uint256"
        },
        {
          "internalType": "address",
          "name": "owner",
          "type": "address"
        }
      ],
      "name": "ERC721IncorrectOwner",
      "type": "error"
    },
    {
      "inputs": [
        {
          "internalType": "address",
          "name": "operator",
          "type": "address"
        },
        {
          "internalType": "uint256",
          "name": "tokenId",
          "type": "uint256"
        }
      ],
      "name": "ERC721InsufficientApproval",
      "type": "error"
    },
    {
      "inputs": [
        {
          "internalType": "address",
          "name": "approver",
          "type": "address"
        }
      ],
      "name": "ERC721InvalidApprover",
      "type": "error"
    },
    {
      "inputs": [
        {
          "internalType": "address",
          "name": "operator",
          "type": "address"
        }
      ],
      "name": "ERC721InvalidOperator",
      "type": "error"
    },
    {
      "inputs": [
        {
          "internalType": "address",
          "name": "owner",
          "type": "address"
        }
      ],
      "name": "ERC721InvalidOwner",
      "type": "error"
    },
    {
      "inputs": [
        {
          "internalType": "address",
          "name": "receiver",
          "type": "address"
        }
      ],
      "name": "ERC721InvalidReceiver",
      "type": "error"
    },
    {
      "inputs": [
        {
          "internalType": "address",
          "name": "sender",
          "type": "address"
        }
      ],
      "name": "ERC721InvalidSender",
      "type": "error"
    },
    {
      "inputs": [
        {
          "internalType": "uint256",
          "name": "tokenId",
          "type": "uint256"
        }
      ],
      "name": "ERC721NonexistentToken",
      "type": "error"
    },
    {
      "inputs": [
        {
          "internalType": "address",
          "name": "owner",
          "type": "address"
        },
        {
          "internalType": "uint256",
          "name": "index",
          "type": "uint256"
        }
      ],
      "name": "ERC721OutOfBoundsIndex",
      "type": "error"
    },
    {
      "inputs": [],
      "name": "InvalidInitialization",
      "type": "error"
    },
    {
      "inputs": [],
      "name": "NotInitializing",
      "type": "error"
    },
    {
      "inputs": [
        {
          "internalType": "address",
          "name": "owner",
          "type": "address"
        }
      ],
      "name": "OwnableInvalidOwner",
      "type": "error"
    },
    {
      "inputs": [
        {
          "internalType": "address",
          "name": "account",
          "type": "address"
        }
      ],
      "name": "OwnableUnauthorizedAccount",
      "type": "error"
    },
    {
      "inputs": [],
      "name": "ReentrancyGuardReentrantCall",
      "type": "error"
    },
    {
      "anonymous": false,
      "inputs": [
        {
          "indexed": true,
          "internalType": "address",
          "name": "owner",
          "type": "address"
        },
        {
          "indexed": true,
          "internalType": "address",
          "name": "approved",
          "type": "address"
        },
        {
          "indexed": true,
          "internalType": "uint256",
          "name": "tokenId",
          "type": "uint256"
        }
      ],
      "name": "Approval",
      "type": "event"
    },
    {
      "anonymous": false,
      "inputs": [
        {
          "indexed": true,
          "internalType": "address",
          "name": "owner",
          "type": "address"
        },
        {
          "indexed": true,
          "internalType": "address",
          "name": "operator",
          "type": "address"
        },
        {
          "indexed": false,
          "internalType": "bool",
          "name": "approved",
          "type": "bool"
        }
      ],
      "name": "ApprovalForAll",
      "type": "event"
    },
    {
      "anonymous": false,
      "inputs": [
        {
          "indexed": true,
          "internalType": "address",
          "name": "provider",
          "type": "address"
        },
        {
          "indexed": false,
          "internalType": "uint256",
          "name": "tokenId",
          "type": "uint256"
        },
        {
          "indexed": false,
          "internalType": "uint256",
          "name": "value",
          "type": "uint256"
        },
        {
          "indexed": true,
          "internalType": "uint256",
          "name": "locktime",
          "type": "uint256"
        },
        {
          "indexed": false,
          "internalType": "enum IZeroLocker.DepositType",
          "name": "deposit_type",
          "type": "uint8"
        },
        {
          "indexed": false,
          "internalType": "uint256",
          "name": "ts",
          "type": "uint256"
        }
      ],
      "name": "Deposit",
      "type": "event"
    },
    {
      "anonymous": false,
      "inputs": [
        {
          "indexed": false,
          "internalType": "uint64",
          "name": "version",
          "type": "uint64"
        }
      ],
      "name": "Initialized",
      "type": "event"
    },
    {
      "anonymous": false,
      "inputs": [
        {
          "indexed": true,
          "internalType": "address",
          "name": "previousOwner",
          "type": "address"
        },
        {
          "indexed": true,
          "internalType": "address",
          "name": "newOwner",
          "type": "address"
        }
      ],
      "name": "OwnershipTransferred",
      "type": "event"
    },
    {
      "anonymous": false,
      "inputs": [
        {
          "indexed": true,
          "internalType": "address",
          "name": "oldStaking",
          "type": "address"
        },
        {
          "indexed": true,
          "internalType": "address",
          "name": "newStaking",
          "type": "address"
        }
      ],
      "name": "StakingAddressSet",
      "type": "event"
    },
    {
      "anonymous": false,
      "inputs": [
        {
          "indexed": true,
          "internalType": "address",
          "name": "oldStakingBonus",
          "type": "address"
        },
        {
          "indexed": true,
          "internalType": "address",
          "name": "newStakingBonus",
          "type": "address"
        }
      ],
      "name": "StakingBonusAddressSet",
      "type": "event"
    },
    {
      "anonymous": false,
      "inputs": [
        {
          "indexed": false,
          "internalType": "uint256",
          "name": "prevSupply",
          "type": "uint256"
        },
        {
          "indexed": false,
          "internalType": "uint256",
          "name": "supply",
          "type": "uint256"
        }
      ],
      "name": "Supply",
      "type": "event"
    },
    {
      "anonymous": false,
      "inputs": [
        {
          "indexed": true,
          "internalType": "address",
          "name": "oldToken",
          "type": "address"
        },
        {
          "indexed": true,
          "internalType": "address",
          "name": "newToken",
          "type": "address"
        }
      ],
      "name": "TokenAddressSet",
      "type": "event"
    },
    {
      "anonymous": false,
      "inputs": [
        {
          "indexed": true,
          "internalType": "address",
          "name": "from",
          "type": "address"
        },
        {
          "indexed": true,
          "internalType": "address",
          "name": "to",
          "type": "address"
        },
        {
          "indexed": true,
          "internalType": "uint256",
          "name": "tokenId",
          "type": "uint256"
        }
      ],
      "name": "Transfer",
      "type": "event"
    },
    {
      "anonymous": false,
      "inputs": [
        {
          "indexed": true,
          "internalType": "address",
          "name": "provider",
          "type": "address"
        },
        {
          "indexed": false,
          "internalType": "uint256",
          "name": "tokenId",
          "type": "uint256"
        },
        {
          "indexed": false,
          "internalType": "uint256",
          "name": "value",
          "type": "uint256"
        },
        {
          "indexed": false,
          "internalType": "uint256",
          "name": "ts",
          "type": "uint256"
        }
      ],
      "name": "Withdraw",
      "type": "event"
    },
    {
      "inputs": [
        {
          "internalType": "address",
          "name": "to",
          "type": "address"
        },
        {
          "internalType": "uint256",
          "name": "tokenId",
          "type": "uint256"
        }
      ],
      "name": "approve",
      "outputs": [],
      "stateMutability": "nonpayable",
      "type": "function"
    },
    {
      "inputs": [
        {
          "internalType": "address",
          "name": "owner",
          "type": "address"
        }
      ],
      "name": "balanceOf",
      "outputs": [
        {
          "internalType": "uint256",
          "name": "",
          "type": "uint256"
        }
      ],
      "stateMutability": "view",
      "type": "function"
    },
    {
      "inputs": [
        {
          "internalType": "uint256",
          "name": "_tokenId",
          "type": "uint256"
        }
      ],
      "name": "balanceOfNFT",
      "outputs": [
        {
          "internalType": "uint256",
          "name": "",
          "type": "uint256"
        }
      ],
      "stateMutability": "view",
      "type": "function"
    },
    {
      "inputs": [
        {
          "internalType": "uint256",
          "name": "_value",
          "type": "uint256"
        },
        {
          "internalType": "uint256",
          "name": "_lockDuration",
          "type": "uint256"
        },
        {
          "internalType": "bool",
          "name": "_stakeNFT",
          "type": "bool"
        }
      ],
      "name": "createLock",
      "outputs": [
        {
          "internalType": "uint256",
          "name": "",
          "type": "uint256"
        }
      ],
      "stateMutability": "nonpayable",
      "type": "function"
    },
    {
      "inputs": [
        {
          "internalType": "uint256",
          "name": "_value",
          "type": "uint256"
        },
        {
          "internalType": "uint256",
          "name": "_lockDuration",
          "type": "uint256"
        },
        {
          "internalType": "address",
          "name": "_to",
          "type": "address"
        },
        {
          "internalType": "bool",
          "name": "_stakeNFT",
          "type": "bool"
        }
      ],
      "name": "createLockFor",
      "outputs": [
        {
          "internalType": "uint256",
          "name": "",
          "type": "uint256"
        }
      ],
      "stateMutability": "nonpayable",
      "type": "function"
    },
    {
      "inputs": [],
      "name": "decimals",
      "outputs": [
        {
          "internalType": "uint8",
          "name": "",
          "type": "uint8"
        }
      ],
      "stateMutability": "view",
      "type": "function"
    },
    {
      "inputs": [
        {
          "internalType": "uint256",
          "name": "_tokenId",
          "type": "uint256"
        },
        {
          "internalType": "uint256",
          "name": "_value",
          "type": "uint256"
        }
      ],
      "name": "depositFor",
      "outputs": [],
      "stateMutability": "nonpayable",
      "type": "function"
    },
    {
      "inputs": [
        {
          "internalType": "uint256",
          "name": "tokenId",
          "type": "uint256"
        }
      ],
      "name": "getApproved",
      "outputs": [
        {
          "internalType": "address",
          "name": "",
          "type": "address"
        }
      ],
      "stateMutability": "view",
      "type": "function"
    },
    {
      "inputs": [
        {
          "internalType": "uint256",
          "name": "_tokenId",
          "type": "uint256"
        },
        {
          "internalType": "uint256",
          "name": "_value",
          "type": "uint256"
        }
      ],
      "name": "increaseAmount",
      "outputs": [],
      "stateMutability": "nonpayable",
      "type": "function"
    },
    {
      "inputs": [
        {
          "internalType": "uint256",
          "name": "_tokenId",
          "type": "uint256"
        },
        {
          "internalType": "uint256",
          "name": "_lockDuration",
          "type": "uint256"
        }
      ],
      "name": "increaseUnlockTime",
      "outputs": [],
      "stateMutability": "nonpayable",
      "type": "function"
    },
    {
      "inputs": [
        {
          "internalType": "address",
          "name": "_token",
          "type": "address"
        },
        {
          "internalType": "address",
          "name": "_staking",
          "type": "address"
        }
      ],
      "name": "init",
      "outputs": [],
      "stateMutability": "nonpayable",
      "type": "function"
    },
    {
      "inputs": [
        {
          "internalType": "address",
          "name": "owner",
          "type": "address"
        },
        {
          "internalType": "address",
          "name": "operator",
          "type": "address"
        }
      ],
      "name": "isApprovedForAll",
      "outputs": [
        {
          "internalType": "bool",
          "name": "",
          "type": "bool"
        }
      ],
      "stateMutability": "view",
      "type": "function"
    },
    {
      "inputs": [
        {
          "internalType": "uint256",
          "name": "",
          "type": "uint256"
        }
      ],
      "name": "locked",
      "outputs": [
        {
          "internalType": "uint256",
          "name": "amount",
          "type": "uint256"
        },
        {
          "internalType": "uint256",
          "name": "end",
          "type": "uint256"
        },
        {
          "internalType": "uint256",
          "name": "start",
          "type": "uint256"
        },
        {
          "internalType": "uint256",
          "name": "power",
          "type": "uint256"
        }
      ],
      "stateMutability": "view",
      "type": "function"
    },
    {
      "inputs": [
        {
          "internalType": "uint256",
          "name": "_tokenId",
          "type": "uint256"
        }
      ],
      "name": "lockedEnd",
      "outputs": [
        {
          "internalType": "uint256",
          "name": "",
          "type": "uint256"
        }
      ],
      "stateMutability": "view",
      "type": "function"
    },
    {
      "inputs": [
        {
          "internalType": "uint256",
          "name": "_from",
          "type": "uint256"
        },
        {
          "internalType": "uint256",
          "name": "_to",
          "type": "uint256"
        }
      ],
      "name": "merge",
      "outputs": [],
      "stateMutability": "nonpayable",
      "type": "function"
    },
    {
      "inputs": [],
      "name": "name",
      "outputs": [
        {
          "internalType": "string",
          "name": "",
          "type": "string"
        }
      ],
      "stateMutability": "view",
      "type": "function"
    },
    {
      "inputs": [],
      "name": "owner",
      "outputs": [
        {
          "internalType": "address",
          "name": "",
          "type": "address"
        }
      ],
      "stateMutability": "view",
      "type": "function"
    },
    {
      "inputs": [
        {
          "internalType": "uint256",
          "name": "tokenId",
          "type": "uint256"
        }
      ],
      "name": "ownerOf",
      "outputs": [
        {
          "internalType": "address",
          "name": "",
          "type": "address"
        }
      ],
      "stateMutability": "view",
      "type": "function"
    },
    {
      "inputs": [],
      "name": "renounceOwnership",
      "outputs": [],
      "stateMutability": "nonpayable",
      "type": "function"
    },
    {
      "inputs": [
        {
          "internalType": "address",
          "name": "from",
          "type": "address"
        },
        {
          "internalType": "address",
          "name": "to",
          "type": "address"
        },
        {
          "internalType": "uint256",
          "name": "tokenId",
          "type": "uint256"
        }
      ],
      "name": "safeTransferFrom",
      "outputs": [],
      "stateMutability": "nonpayable",
      "type": "function"
    },
    {
      "inputs": [
        {
          "internalType": "address",
          "name": "from",
          "type": "address"
        },
        {
          "internalType": "address",
          "name": "to",
          "type": "address"
        },
        {
          "internalType": "uint256",
          "name": "tokenId",
          "type": "uint256"
        },
        {
          "internalType": "bytes",
          "name": "data",
          "type": "bytes"
        }
      ],
      "name": "safeTransferFrom",
      "outputs": [],
      "stateMutability": "nonpayable",
      "type": "function"
    },
    {
      "inputs": [
        {
          "internalType": "address",
          "name": "operator",
          "type": "address"
        },
        {
          "internalType": "bool",
          "name": "approved",
          "type": "bool"
        }
      ],
      "name": "setApprovalForAll",
      "outputs": [],
      "stateMutability": "nonpayable",
      "type": "function"
    },
    {
      "inputs": [
        {
          "internalType": "address",
          "name": "_staking",
          "type": "address"
        }
      ],
      "name": "setStakingAddress",
      "outputs": [],
      "stateMutability": "nonpayable",
      "type": "function"
    },
    {
      "inputs": [
        {
          "internalType": "address",
          "name": "_token",
          "type": "address"
        }
      ],
      "name": "setTokenAddress",
      "outputs": [],
      "stateMutability": "nonpayable",
      "type": "function"
    },
    {
      "inputs": [],
      "name": "staking",
      "outputs": [
        {
          "internalType": "contract IOmnichainStaking",
          "name": "",
          "type": "address"
        }
      ],
      "stateMutability": "view",
      "type": "function"
    },
    {
      "inputs": [],
      "name": "supply",
      "outputs": [
        {
          "internalType": "uint256",
          "name": "",
          "type": "uint256"
        }
      ],
      "stateMutability": "view",
      "type": "function"
    },
    {
      "inputs": [
        {
          "internalType": "bytes4",
          "name": "_interfaceID",
          "type": "bytes4"
        }
      ],
      "name": "supportsInterface",
      "outputs": [
        {
          "internalType": "bool",
          "name": "",
          "type": "bool"
        }
      ],
      "stateMutability": "view",
      "type": "function"
    },
    {
      "inputs": [],
      "name": "symbol",
      "outputs": [
        {
          "internalType": "string",
          "name": "",
          "type": "string"
        }
      ],
      "stateMutability": "view",
      "type": "function"
    },
    {
      "inputs": [
        {
          "internalType": "uint256",
          "name": "index",
          "type": "uint256"
        }
      ],
      "name": "tokenByIndex",
      "outputs": [
        {
          "internalType": "uint256",
          "name": "",
          "type": "uint256"
        }
      ],
      "stateMutability": "view",
      "type": "function"
    },
    {
      "inputs": [
        {
          "internalType": "address",
          "name": "owner",
          "type": "address"
        },
        {
          "internalType": "uint256",
          "name": "index",
          "type": "uint256"
        }
      ],
      "name": "tokenOfOwnerByIndex",
      "outputs": [
        {
          "internalType": "uint256",
          "name": "",
          "type": "uint256"
        }
      ],
      "stateMutability": "view",
      "type": "function"
    },
    {
      "inputs": [
        {
          "internalType": "uint256",
          "name": "",
          "type": "uint256"
        }
      ],
      "name": "tokenURI",
      "outputs": [
        {
          "internalType": "string",
          "name": "",
          "type": "string"
        }
      ],
      "stateMutability": "view",
      "type": "function"
    },
    {
      "inputs": [],
      "name": "totalSupply",
      "outputs": [
        {
          "internalType": "uint256",
          "name": "",
          "type": "uint256"
        }
      ],
      "stateMutability": "view",
      "type": "function"
    },
    {
      "inputs": [
        {
          "internalType": "address",
          "name": "from",
          "type": "address"
        },
        {
          "internalType": "address",
          "name": "to",
          "type": "address"
        },
        {
          "internalType": "uint256",
          "name": "tokenId",
          "type": "uint256"
        }
      ],
      "name": "transferFrom",
      "outputs": [],
      "stateMutability": "nonpayable",
      "type": "function"
    },
    {
      "inputs": [
        {
          "internalType": "address",
          "name": "newOwner",
          "type": "address"
        }
      ],
      "name": "transferOwnership",
      "outputs": [],
      "stateMutability": "nonpayable",
      "type": "function"
    },
    {
      "inputs": [],
      "name": "underlying",
      "outputs": [
        {
          "internalType": "contract IERC20",
          "name": "",
          "type": "address"
        }
      ],
      "stateMutability": "view",
      "type": "function"
    },
    {
      "inputs": [],
      "name": "version",
      "outputs": [
        {
          "internalType": "string",
          "name": "",
          "type": "string"
        }
      ],
      "stateMutability": "view",
      "type": "function"
    },
    {
      "inputs": [
        {
          "internalType": "address",
          "name": "_owner",
          "type": "address"
        }
      ],
      "name": "votingPowerOf",
      "outputs": [
        {
          "internalType": "uint256",
          "name": "_power",
          "type": "uint256"
        }
      ],
      "stateMutability": "view",
      "type": "function"
    },
    {
      "inputs": [
        {
          "internalType": "uint256",
          "name": "_tokenId",
          "type": "uint256"
        }
      ],
      "name": "withdraw",
      "outputs": [],
      "stateMutability": "nonpayable",
      "type": "function"
    },
    {
      "inputs": [
        {
          "internalType": "address",
          "name": "_user",
          "type": "address"
        }
      ],
      "name": "withdraw",
      "outputs": [],
      "stateMutability": "nonpayable",
      "type": "function"
    },
    {
      "inputs": [
        {
          "internalType": "uint256[]",
          "name": "_tokenIds",
          "type": "uint256[]"
        }
      ],
      "name": "withdraw",
      "outputs": [],
      "stateMutability": "nonpayable",
      "type": "function"
    }
  ],
  "transactionHash": "0x93fdd17c572f483de2d57e0b389c24cb6745ffc90e66680ee9054439c6bf916e",
  "args": [],
  "numDeployments": 1,
  "solcInputHash": "681e3e7006e077022f672818166bcbf6",
  "bytecode": "0x608060405234801561001057600080fd5b50613e2c806100206000396000f3fe608060405234801561001057600080fd5b50600436106102c85760003560e01c80636f307dc31161017b578063b88d4fde116100d8578063e7e242d41161008c578063f09a401611610071578063f09a4016146106d6578063f2fde38b146106e9578063f4e0d9ac146106fc57600080fd5b8063e7e242d41461064b578063e985e9c51461066e57600080fd5b8063c87b56dd116100bd578063c87b56dd14610604578063d1c2babb14610625578063d60371a71461063857600080fd5b8063b88d4fde146105de578063bcc3f3bd146105f157600080fd5b8063983d95ce1161012f578063a22cb46511610114578063a22cb46514610563578063b2383e5514610576578063b45a3c0e1461058957600080fd5b8063983d95ce1461053d5780639d507b8b1461055057600080fd5b8063715018a611610160578063715018a6146104f05780638da5cb5b146104f857806395d89b411461053557600080fd5b80636f307dc3146104bd57806370a08231146104dd57600080fd5b80632e1a7d4d116102295780634f6ccce7116101dd57806354fd4d50116101c257806354fd4d501461047f578063626944df146104875780636352211e146104aa57600080fd5b80634f6ccce71461045957806351cff8d91461046c57600080fd5b8063313ce5671161020e578063313ce5671461040757806342842e0e146104265780634cf088d91461043957600080fd5b80632e1a7d4d146103e15780632f745c59146103f457600080fd5b80630a2abdb31161028057806318160ddd1161026557806318160ddd1461039457806323b872dd146103bb57806326a4e8d2146103ce57600080fd5b80630a2abdb31461036e5780630ec84dda1461038157600080fd5b806306fdde03116102b157806306fdde031461030c578063081812fc14610321578063095ea7b31461035957600080fd5b806301ffc9a7146102cd578063047fc9aa146102f5575b600080fd5b6102e06102db3660046135ce565b61070f565b60405190151581526020015b60405180910390f35b6102fe60035481565b6040519081526020016102ec565b610314610720565b6040516102ec919061364f565b61033461032f366004613662565b6107d6565b60405173ffffffffffffffffffffffffffffffffffffffff90911681526020016102ec565b61036c6103673660046136a4565b61082b565b005b6102fe61037c3660046136dc565b61083a565b61036c61038f366004613724565b610883565b7f645e039705490088daad89bae25049a34f4a9072d398537b1ab2425f24cbed02546102fe565b61036c6103c9366004613746565b610a46565b61036c6103dc366004613782565b610b37565b61036c6103ef366004613662565b610bb6565b6102fe6104023660046136a4565b610e9d565b6006546104149060ff1681565b60405160ff90911681526020016102ec565b61036c610434366004613746565b610f56565b6009546103349073ffffffffffffffffffffffffffffffffffffffff1681565b6102fe610467366004613662565b610f76565b61036c61047a366004613782565b61102b565b610314611096565b6102fe610495366004613662565b60009081526004602052604090206001015490565b6103346104b8366004613662565b611124565b6008546103349073ffffffffffffffffffffffffffffffffffffffff1681565b6102fe6104eb366004613782565b61112f565b61036c6111d0565b7f9016d09d72d40fdae2fd8ceac6b6234c7706214fd39c1cd1e609a0528c1993005473ffffffffffffffffffffffffffffffffffffffff16610334565b6103146111e4565b61036c61054b36600461379d565b611235565b61036c61055e366004613724565b61129d565b61036c610571366004613812565b6115c4565b61036c610584366004613724565b6115cf565b6105be610597366004613662565b60046020526000908152604090208054600182015460028301546003909301549192909184565b6040805194855260208501939093529183015260608201526080016102ec565b61036c6105ec366004613878565b6117bc565b6102fe6105ff366004613782565b6117d3565b610314610612366004613662565b5060408051602081019091526000815290565b61036c610633366004613724565b61182e565b6102fe610646366004613972565b611a7e565b6102fe610659366004613662565b60009081526004602052604090206003015490565b6102e061067c3660046139ab565b73ffffffffffffffffffffffffffffffffffffffff91821660009081527f80bb2b638cc20bc4d0a60d66940f3ab4a00c1d7b313497ca82fb0b4ab00793056020908152604080832093909416825291909152205460ff1690565b61036c6106e43660046139ab565b611ac6565b61036c6106f7366004613782565b611cba565b61036c61070a366004613782565b611d1b565b600061071a82611d9a565b92915050565b7f80bb2b638cc20bc4d0a60d66940f3ab4a00c1d7b313497ca82fb0b4ab00793008054606091908190610752906139de565b80601f016020809104026020016040519081016040528092919081815260200182805461077e906139de565b80156107cb5780601f106107a0576101008083540402835291602001916107cb565b820191906000526020600020905b8154815290600101906020018083116107ae57829003601f168201915b505050505091505090565b60006107e182611df0565b5060008281527f80bb2b638cc20bc4d0a60d66940f3ab4a00c1d7b313497ca82fb0b4ab0079304602052604090205473ffffffffffffffffffffffffffffffffffffffff1661071a565b610836828233611e6e565b5050565b6000610844611e7b565b61085085858585611efc565b905061087b60017f9b779b17422d0df92223018b32b4d1fa46e071723d6817e2486d003becc55f0055565b949350505050565b61088b611e7b565b600082815260046020908152604091829020825160808101845281548152600182015492810192909252600281015492820192909252600390910154606082015281610938576040517f08c379a000000000000000000000000000000000000000000000000000000000815260206004820152600960248201527f76616c7565203d2030000000000000000000000000000000000000000000000060448201526064015b60405180910390fd5b80516109a0576040517f08c379a000000000000000000000000000000000000000000000000000000000815260206004820152601660248201527f4e6f206578697374696e67206c6f636b20666f756e6400000000000000000000604482015260640161092f565b42816020015111610a0d576040517f08c379a000000000000000000000000000000000000000000000000000000000815260206004820152601b60248201527f43616e6e6f742061646420746f2065787069726564206c6f636b2e0000000000604482015260640161092f565b610a1c838360008460006121da565b5061083660017f9b779b17422d0df92223018b32b4d1fa46e071723d6817e2486d003becc55f0055565b73ffffffffffffffffffffffffffffffffffffffff8216610a96576040517f64a0ae920000000000000000000000000000000000000000000000000000000081526000600482015260240161092f565b6000610aa383833361242e565b90508373ffffffffffffffffffffffffffffffffffffffff168173ffffffffffffffffffffffffffffffffffffffff1614610b31576040517f64283d7b00000000000000000000000000000000000000000000000000000000815273ffffffffffffffffffffffffffffffffffffffff8086166004830152602482018490528216604482015260640161092f565b50505050565b610b3f612587565b6008805473ffffffffffffffffffffffffffffffffffffffff8381167fffffffffffffffffffffffff0000000000000000000000000000000000000000831681179093556040519116919082907f24b80abab34e4313f6fa818b4b740b32c9c113adccd46db535dbc92567953cdf90600090a35050565b610bbe611e7b565b610bd1610bca82611124565b3383612615565b610c37576040517f08c379a000000000000000000000000000000000000000000000000000000000815260206004820181905260248201527f63616c6c6572206973206e6f74206f776e6572206e6f7220617070726f766564604482015260640161092f565b6000818152600460209081526040918290208251608081018452815481526001820154928101839052600282015493810193909352600301546060830152421015610cde576040517f08c379a000000000000000000000000000000000000000000000000000000000815260206004820152601660248201527f546865206c6f636b206469646e27742065787069726500000000000000000000604482015260640161092f565b8051604080516080810182526000808252602080830182815283850183815260608501848152898552600490935294909220925183559051600183015591516002820155905160039182015554610d358282613a5a565b6003556008546040517fa9059cbb0000000000000000000000000000000000000000000000000000000081523360048201526024810184905273ffffffffffffffffffffffffffffffffffffffff9091169063a9059cbb906044016020604051808303816000875af1158015610daf573d6000803e3d6000fd5b505050506040513d601f19601f82011682018060405250810190610dd39190613a6d565b610ddf57610ddf613a8a565b610de884612717565b60408051858152602081018490524281830152905133917f02f25270a4d87bea75db541cdfe559334a275b4a233520ed6c0a2429667cca94919081900360600190a27f5e2aa66efd74cce82b21852e317e5490d9ecc9e6bb953ae24d90851258cc2f5c81610e568482613a5a565b6040805192835260208301919091520160405180910390a1505050610e9a60017f9b779b17422d0df92223018b32b4d1fa46e071723d6817e2486d003becc55f0055565b50565b60007f645e039705490088daad89bae25049a34f4a9072d398537b1ab2425f24cbed00610ec98461112f565b8310610f20576040517fa57d13dc00000000000000000000000000000000000000000000000000000000815273ffffffffffffffffffffffffffffffffffffffff851660048201526024810184905260440161092f565b73ffffffffffffffffffffffffffffffffffffffff84166000908152602091825260408082208583529092522054905092915050565b610f71838383604051806020016040528060008152506117bc565b505050565b60007f645e039705490088daad89bae25049a34f4a9072d398537b1ab2425f24cbed00610fc17f645e039705490088daad89bae25049a34f4a9072d398537b1ab2425f24cbed025490565b8310611003576040517fa57d13dc000000000000000000000000000000000000000000000000000000008152600060048201526024810184905260440161092f565b80600201838154811061101857611018613ab9565b9060005260206000200154915050919050565b611033611e7b565b600061103e8261112f565b905060005b8181101561106b5760006110578483610e9d565b905061106281610bb6565b50600101611043565b5050610e9a60017f9b779b17422d0df92223018b32b4d1fa46e071723d6817e2486d003becc55f0055565b600580546110a3906139de565b80601f01602080910402602001604051908101604052809291908181526020018280546110cf906139de565b801561111c5780601f106110f15761010080835404028352916020019161111c565b820191906000526020600020905b8154815290600101906020018083116110ff57829003601f168201915b505050505081565b600061071a82611df0565b60007f80bb2b638cc20bc4d0a60d66940f3ab4a00c1d7b313497ca82fb0b4ab007930073ffffffffffffffffffffffffffffffffffffffff83166111a2576040517f89c62b640000000000000000000000000000000000000000000000000000000081526000600482015260240161092f565b73ffffffffffffffffffffffffffffffffffffffff9092166000908152600390920160205250604090205490565b6111d8612587565b6111e26000612778565b565b7f80bb2b638cc20bc4d0a60d66940f3ab4a00c1d7b313497ca82fb0b4ab007930180546060917f80bb2b638cc20bc4d0a60d66940f3ab4a00c1d7b313497ca82fb0b4ab007930091610752906139de565b61123d611e7b565b8060005b818110156112725761126a84848381811061125e5761125e613ab9565b90506020020135610bb6565b600101611241565b505061083660017f9b779b17422d0df92223018b32b4d1fa46e071723d6817e2486d003becc55f0055565b6112a5611e7b565b6112b86112b183611124565b3384612615565b61131e576040517f08c379a000000000000000000000000000000000000000000000000000000000815260206004820181905260248201527f63616c6c6572206973206e6f74206f776e6572206e6f7220617070726f766564604482015260640161092f565b600082815260046020908152604080832081516080810183528154815260018201549381019390935260028101549183019190915260030154606082015281549091908061136c8542613ae8565b6113769190613afb565b6113809190613b36565b9050428260200151116113ef576040517f08c379a000000000000000000000000000000000000000000000000000000000815260206004820152600c60248201527f4c6f636b20657870697265640000000000000000000000000000000000000000604482015260640161092f565b8151611457576040517f08c379a000000000000000000000000000000000000000000000000000000000815260206004820152601160248201527f4e6f7468696e67206973206c6f636b6564000000000000000000000000000000604482015260640161092f565b816020015181116114c4576040517f08c379a000000000000000000000000000000000000000000000000000000000815260206004820152601f60248201527f43616e206f6e6c7920696e637265617365206c6f636b206475726174696f6e00604482015260640161092f565b6001546114d19042613ae8565b81111561153a576040517f08c379a000000000000000000000000000000000000000000000000000000000815260206004820152601e60248201527f566f74696e67206c6f636b2063616e2062652034207965617273206d61780000604482015260640161092f565b600154826040015161154c9190613ae8565b8111156115b5576040517f08c379a000000000000000000000000000000000000000000000000000000000815260206004820152601e60248201527f566f74696e67206c6f636b2063616e2062652034207965617273206d61780000604482015260640161092f565b611272846000838560036121da565b61083633838361280e565b6115d7611e7b565b60008281527f80bb2b638cc20bc4d0a60d66940f3ab4a00c1d7b313497ca82fb0b4ab007930260205260409020546116249073ffffffffffffffffffffffffffffffffffffffff166112b1565b61168a576040517f08c379a000000000000000000000000000000000000000000000000000000000815260206004820181905260248201527f63616c6c6572206973206e6f74206f776e6572206e6f7220617070726f766564604482015260640161092f565b6000828152600460209081526040918290208251608081018452815481526001820154928101929092526002810154928201929092526003909101546060820152816116d8576116d8613a8a565b8051611740576040517f08c379a000000000000000000000000000000000000000000000000000000000815260206004820152601660248201527f4e6f206578697374696e67206c6f636b20666f756e6400000000000000000000604482015260640161092f565b428160200151116117ad576040517f08c379a000000000000000000000000000000000000000000000000000000000815260206004820152601b60248201527f43616e6e6f742061646420746f2065787069726564206c6f636b2e0000000000604482015260640161092f565b610a1c838360008460026121da565b6117c7848484610a46565b610b318484848461292f565b6000805b6117e08361112f565b8110156118285760006117f38483610e9d565b6000818152600460205260409020600301549091506118129084613ae8565b925050808061182090613b4d565b9150506117d7565b50919050565b808203611897576040517f08c379a000000000000000000000000000000000000000000000000000000000815260206004820152600860248201527f73616d65206e6674000000000000000000000000000000000000000000000000604482015260640161092f565b6118a36112b183611124565b611909576040517f08c379a000000000000000000000000000000000000000000000000000000000815260206004820152601160248201527f66726f6d206e6f7420617070726f766564000000000000000000000000000000604482015260640161092f565b611915610bca82611124565b61197b576040517f08c379a000000000000000000000000000000000000000000000000000000000815260206004820152600f60248201527f746f206e6f7420617070726f7665640000000000000000000000000000000000604482015260640161092f565b600082815260046020818152604080842081516080808201845282548252600180840154838701908152600280860154858801526003958601546060808701919091528b8b52988852868a208751948501885280548552928301549784018890528201549583019590955290920154948201949094528351915193949093919290911015611a0d578260200151611a13565b83602001515b6040805160808101825260008082526020808301828152838501838152606085018481528d855260049093529490922092518355905160018301559151600282015590516003909101559050611a6886612717565b611a768583838660046121da565b505050505050565b6000611a88611e7b565b611a9484843385611efc565b9050611abf60017f9b779b17422d0df92223018b32b4d1fa46e071723d6817e2486d003becc55f0055565b9392505050565b7ff0c57e16840df040f15088dc2f81fe391c3923bec73e23a9662efc9c229c6a00805468010000000000000000810460ff16159067ffffffffffffffff16600081158015611b115750825b905060008267ffffffffffffffff166001148015611b2e5750303b155b905081158015611b3c575080155b15611b73576040517ff92ee8a900000000000000000000000000000000000000000000000000000000815260040160405180910390fd5b84547fffffffffffffffffffffffffffffffffffffffffffffffff00000000000000001660011785558315611bd45784547fffffffffffffffffffffffffffffffffffffffffffffff00ffffffffffffffff16680100000000000000001785555b611c506040518060400160405280601281526020017f4c6f636b6564205a45524f2f455448204c5000000000000000000000000000008152506040518060400160405280600781526020017f4c502d5a45524f0000000000000000000000000000000000000000000000000081525089896301e1338033612b26565b8315611cb15784547fffffffffffffffffffffffffffffffffffffffffffffff00ffffffffffffffff168555604051600181527fc7f505b2f371ae2175ee4913f4499e1f2633a7b5936321eed1cdaeb6115181d29060200160405180910390a15b50505050505050565b611cc2612587565b73ffffffffffffffffffffffffffffffffffffffff8116611d12576040517f1e4fbdf70000000000000000000000000000000000000000000000000000000081526000600482015260240161092f565b610e9a81612778565b611d23612587565b6009805473ffffffffffffffffffffffffffffffffffffffff8381167fffffffffffffffffffffffff0000000000000000000000000000000000000000831681179093556040519116919082907f705cd0c010fe71835c798c37a9b8ba0340aa60d9dcd5e8981ea2dfd48803686890600090a35050565b60007fffffffff0000000000000000000000000000000000000000000000000000000082167f780e9d6300000000000000000000000000000000000000000000000000000000148061071a575061071a82612c27565b60008181527f80bb2b638cc20bc4d0a60d66940f3ab4a00c1d7b313497ca82fb0b4ab0079302602052604081205473ffffffffffffffffffffffffffffffffffffffff168061071a576040517f7e2732890000000000000000000000000000000000000000000000000000000081526004810184905260240161092f565b610f718383836001612d0a565b7f9b779b17422d0df92223018b32b4d1fa46e071723d6817e2486d003becc55f0080547ffffffffffffffffffffffffffffffffffffffffffffffffffffffffffffffffe01611ef6576040517f3ee5aeb500000000000000000000000000000000000000000000000000000000815260040160405180910390fd5b60029055565b60008054819080611f0d8742613ae8565b611f179190613afb565b611f219190613b36565b905060008611611f8d576040517f08c379a000000000000000000000000000000000000000000000000000000000815260206004820152600960248201527f76616c7565203d20300000000000000000000000000000000000000000000000604482015260640161092f565b428111611ff6576040517f08c379a000000000000000000000000000000000000000000000000000000000815260206004820152601b60248201527f43616e206f6e6c79206c6f636b20696e20746865206675747572650000000000604482015260640161092f565b6001546120039042613ae8565b81111561206c576040517f08c379a000000000000000000000000000000000000000000000000000000000815260206004820152601e60248201527f566f74696e67206c6f636b2063616e2062652034207965617273206d61780000604482015260640161092f565b60076000815461207b90613b4d565b90915550600754600081815260046020908152604091829020825160808101845281548152600180830154938201939093526002820154938101939093526003015460608301526120d19183918a9186916121da565b83156121a0576120e13082612f16565b60408051851515602082015273ffffffffffffffffffffffffffffffffffffffff8781168284015260608083018a90528351808403909101815260808301938490526009547fb88d4fde0000000000000000000000000000000000000000000000000000000090945292309263b88d4fde9261216892859291169087908790608401613b85565b600060405180830381600087803b15801561218257600080fd5b505af1158015612196573d6000803e3d6000fd5b50505050506121aa565b6121aa8582612f16565b9695505050505050565b60017f9b779b17422d0df92223018b32b4d1fa46e071723d6817e2486d003becc55f0055565b60035482906121e98682613ae8565b60038190555061221a6040518060800160405280600081526020016000815260200160008152602001600081525090565b825160208085015160608087015190850152908301528152825187908490612243908390613ae8565b905250851561225457602083018690525b600184600481111561226857612268613bc4565b03612274574260408401525b61227d83612fc7565b6060840190815260008981526004602090815260409182902086518155908601516001820155908501516002820155905160039091015586158015906122d5575060048460048111156122d2576122d2613bc4565b14155b15612387576008546040517f23b872dd0000000000000000000000000000000000000000000000000000000081523360048201523060248201526044810189905273ffffffffffffffffffffffffffffffffffffffff909116906323b872dd906064016020604051808303816000875af1158015612357573d6000803e3d6000fd5b505050506040513d601f19601f8201168201806040525081019061237b9190613a6d565b61238757612387613a8a565b82602001513373ffffffffffffffffffffffffffffffffffffffff167fff04ccafc360e16b67d682d17bd9503c4c6b9a131f6be6325762dc9ffc7de6248a8a88426040516123d89493929190613bf3565b60405180910390a37f5e2aa66efd74cce82b21852e317e5490d9ecc9e6bb953ae24d90851258cc2f5c8261240c8982613ae8565b6040805192835260208301919091520160405180910390a15050505050505050565b60008061243c858585612ff9565b905073ffffffffffffffffffffffffffffffffffffffff81166124e4576124df847f645e039705490088daad89bae25049a34f4a9072d398537b1ab2425f24cbed02805460008381527f645e039705490088daad89bae25049a34f4a9072d398537b1ab2425f24cbed0360205260408120829055600182018355919091527fa42f15e5d656f8155fd7419d740a6073999f19cd6e061449ce4a257150545bf20155565b612521565b8473ffffffffffffffffffffffffffffffffffffffff168173ffffffffffffffffffffffffffffffffffffffff16146125215761252181856131be565b73ffffffffffffffffffffffffffffffffffffffff851661254a576125458461328e565b61087b565b8473ffffffffffffffffffffffffffffffffffffffff168173ffffffffffffffffffffffffffffffffffffffff161461087b5761087b8585613389565b336125c67f9016d09d72d40fdae2fd8ceac6b6234c7706214fd39c1cd1e609a0528c1993005473ffffffffffffffffffffffffffffffffffffffff1690565b73ffffffffffffffffffffffffffffffffffffffff16146111e2576040517f118cdaa700000000000000000000000000000000000000000000000000000000815233600482015260240161092f565b600073ffffffffffffffffffffffffffffffffffffffff83161580159061087b57508273ffffffffffffffffffffffffffffffffffffffff168473ffffffffffffffffffffffffffffffffffffffff1614806126c2575073ffffffffffffffffffffffffffffffffffffffff80851660009081527f80bb2b638cc20bc4d0a60d66940f3ab4a00c1d7b313497ca82fb0b4ab0079305602090815260408083209387168352929052205460ff165b8061087b57505060009081527f80bb2b638cc20bc4d0a60d66940f3ab4a00c1d7b313497ca82fb0b4ab0079304602052604090205473ffffffffffffffffffffffffffffffffffffffff908116911614919050565b6000612726600083600061242e565b905073ffffffffffffffffffffffffffffffffffffffff8116610836576040517f7e2732890000000000000000000000000000000000000000000000000000000081526004810183905260240161092f565b7f9016d09d72d40fdae2fd8ceac6b6234c7706214fd39c1cd1e609a0528c19930080547fffffffffffffffffffffffff0000000000000000000000000000000000000000811673ffffffffffffffffffffffffffffffffffffffff848116918217845560405192169182907f8be0079c531659141344cd1fd0a4f28419497f9722a3daafe3b4186f6b6457e090600090a3505050565b7f80bb2b638cc20bc4d0a60d66940f3ab4a00c1d7b313497ca82fb0b4ab007930073ffffffffffffffffffffffffffffffffffffffff8316612894576040517f5b08ba1800000000000000000000000000000000000000000000000000000000815273ffffffffffffffffffffffffffffffffffffffff8416600482015260240161092f565b73ffffffffffffffffffffffffffffffffffffffff848116600081815260058401602090815260408083209488168084529482529182902080547fffffffffffffffffffffffffffffffffffffffffffffffffffffffffffffff001687151590811790915591519182527f17307eab39ab6107e8899845ad3d59bd9653f200f220920489ca2b5937696c31910160405180910390a350505050565b73ffffffffffffffffffffffffffffffffffffffff83163b15610b31576040517f150b7a0200000000000000000000000000000000000000000000000000000000815273ffffffffffffffffffffffffffffffffffffffff84169063150b7a02906129a4903390889087908790600401613b85565b6020604051808303816000875af19250505080156129fd575060408051601f3d9081017fffffffffffffffffffffffffffffffffffffffffffffffffffffffffffffffe01682019092526129fa91810190613c4a565b60015b612a8c573d808015612a2b576040519150601f19603f3d011682016040523d82523d6000602084013e612a30565b606091505b508051600003612a84576040517f64a0ae9200000000000000000000000000000000000000000000000000000000815273ffffffffffffffffffffffffffffffffffffffff8516600482015260240161092f565b805181602001fd5b7fffffffff0000000000000000000000000000000000000000000000000000000081167f150b7a020000000000000000000000000000000000000000000000000000000014612b1f576040517f64a0ae9200000000000000000000000000000000000000000000000000000000815273ffffffffffffffffffffffffffffffffffffffff8516600482015260240161092f565b5050505050565b612b308686613403565b612b3981613415565b612b41613426565b6040805180820190915260058082527f312e302e30000000000000000000000000000000000000000000000000000000602083015290612b819082613cad565b50600680547fffffffffffffffffffffffffffffffffffffffffffffffffffffffffffffff0016601217905562093a806000556001828155670de0b6b3a76400006002556009805473ffffffffffffffffffffffffffffffffffffffff8087167fffffffffffffffffffffffff0000000000000000000000000000000000000000928316179092556008805492881692909116919091179055611a76903090859061280e565b60007fffffffff0000000000000000000000000000000000000000000000000000000082167f80ac58cd000000000000000000000000000000000000000000000000000000001480612cba57507fffffffff0000000000000000000000000000000000000000000000000000000082167f5b5e139f00000000000000000000000000000000000000000000000000000000145b8061071a57507f01ffc9a7000000000000000000000000000000000000000000000000000000007fffffffff0000000000000000000000000000000000000000000000000000000083161461071a565b7f80bb2b638cc20bc4d0a60d66940f3ab4a00c1d7b313497ca82fb0b4ab00793008180612d4c575073ffffffffffffffffffffffffffffffffffffffff831615155b15612ec0576000612d5c85611df0565b905073ffffffffffffffffffffffffffffffffffffffff841615801590612daf57508373ffffffffffffffffffffffffffffffffffffffff168173ffffffffffffffffffffffffffffffffffffffff1614155b8015612e0d575073ffffffffffffffffffffffffffffffffffffffff80821660009081527f80bb2b638cc20bc4d0a60d66940f3ab4a00c1d7b313497ca82fb0b4ab0079305602090815260408083209388168352929052205460ff16155b15612e5c576040517fa9fbf51f00000000000000000000000000000000000000000000000000000000815273ffffffffffffffffffffffffffffffffffffffff8516600482015260240161092f565b8215612ebe57848673ffffffffffffffffffffffffffffffffffffffff168273ffffffffffffffffffffffffffffffffffffffff167f8c5be1e5ebec7d5bd14f71427d1e84f3dd0314c0f7b2291e5b200ac8c7c3b92560405160405180910390a45b505b600093845260040160205250506040902080547fffffffffffffffffffffffff00000000000000000000000000000000000000001673ffffffffffffffffffffffffffffffffffffffff92909216919091179055565b73ffffffffffffffffffffffffffffffffffffffff8216612f66576040517f64a0ae920000000000000000000000000000000000000000000000000000000081526000600482015260240161092f565b6000612f748383600061242e565b905073ffffffffffffffffffffffffffffffffffffffff811615610f71576040517f73c6ac6e0000000000000000000000000000000000000000000000000000000081526000600482015260240161092f565b6000600154826000015183604001518460200151612fe59190613a5a565b612fef9190613b36565b61071a9190613afb565b60008281527f80bb2b638cc20bc4d0a60d66940f3ab4a00c1d7b313497ca82fb0b4ab007930260205260408120547f80bb2b638cc20bc4d0a60d66940f3ab4a00c1d7b313497ca82fb0b4ab00793009073ffffffffffffffffffffffffffffffffffffffff9081169084161561307457613074818587613436565b73ffffffffffffffffffffffffffffffffffffffff8116156130ec5761309e600086600080612d0a565b73ffffffffffffffffffffffffffffffffffffffff81166000908152600383016020526040902080547fffffffffffffffffffffffffffffffffffffffffffffffffffffffffffffffff0190555b73ffffffffffffffffffffffffffffffffffffffff8616156131375773ffffffffffffffffffffffffffffffffffffffff861660009081526003830160205260409020805460010190555b600085815260028301602052604080822080547fffffffffffffffffffffffff00000000000000000000000000000000000000001673ffffffffffffffffffffffffffffffffffffffff8a811691821790925591518893918516917fddf252ad1be2c89b69c2b068fc378daa952ba7f163c4a11628f55a4df523b3ef91a495945050505050565b7f645e039705490088daad89bae25049a34f4a9072d398537b1ab2425f24cbed0060006131ea8461112f565b600084815260018401602052604090205490915080821461324c5773ffffffffffffffffffffffffffffffffffffffff851660009081526020848152604080832085845282528083205484845281842081905583526001860190915290208190555b506000928352600182016020908152604080852085905573ffffffffffffffffffffffffffffffffffffffff9095168452918252838320908352905290812055565b7f645e039705490088daad89bae25049a34f4a9072d398537b1ab2425f24cbed02547f645e039705490088daad89bae25049a34f4a9072d398537b1ab2425f24cbed00906000906132e190600190613a5a565b600084815260038401602052604081205460028501805493945090928490811061330d5761330d613ab9565b906000526020600020015490508084600201838154811061333057613330613ab9565b60009182526020808320909101929092558281526003860190915260408082208490558682528120556002840180548061336c5761336c613dc7565b600190038181906000526020600020016000905590555050505050565b7f645e039705490088daad89bae25049a34f4a9072d398537b1ab2425f24cbed00600060016133b78561112f565b6133c19190613a5a565b73ffffffffffffffffffffffffffffffffffffffff90941660009081526020838152604080832087845282528083208690559482526001909301909252502055565b61340b6134e6565b610836828261354d565b61341d6134e6565b610e9a81613590565b61342e6134e6565b6111e2613598565b613441838383612615565b610f715773ffffffffffffffffffffffffffffffffffffffff8316613495576040517f7e2732890000000000000000000000000000000000000000000000000000000081526004810182905260240161092f565b6040517f177e802f00000000000000000000000000000000000000000000000000000000815273ffffffffffffffffffffffffffffffffffffffff831660048201526024810182905260440161092f565b7ff0c57e16840df040f15088dc2f81fe391c3923bec73e23a9662efc9c229c6a005468010000000000000000900460ff166111e2576040517fd7e6bcf800000000000000000000000000000000000000000000000000000000815260040160405180910390fd5b6135556134e6565b7f80bb2b638cc20bc4d0a60d66940f3ab4a00c1d7b313497ca82fb0b4ab0079300806135818482613cad565b5060018101610b318382613cad565b611cc26134e6565b6121b46134e6565b7fffffffff0000000000000000000000000000000000000000000000000000000081168114610e9a57600080fd5b6000602082840312156135e057600080fd5b8135611abf816135a0565b6000815180845260005b81811015613611576020818501810151868301820152016135f5565b5060006020828601015260207fffffffffffffffffffffffffffffffffffffffffffffffffffffffffffffffe0601f83011685010191505092915050565b602081526000611abf60208301846135eb565b60006020828403121561367457600080fd5b5035919050565b803573ffffffffffffffffffffffffffffffffffffffff8116811461369f57600080fd5b919050565b600080604083850312156136b757600080fd5b6136c08361367b565b946020939093013593505050565b8015158114610e9a57600080fd5b600080600080608085870312156136f257600080fd5b84359350602085013592506137096040860161367b565b91506060850135613719816136ce565b939692955090935050565b6000806040838503121561373757600080fd5b50508035926020909101359150565b60008060006060848603121561375b57600080fd5b6137648461367b565b92506137726020850161367b565b9150604084013590509250925092565b60006020828403121561379457600080fd5b611abf8261367b565b600080602083850312156137b057600080fd5b823567ffffffffffffffff808211156137c857600080fd5b818501915085601f8301126137dc57600080fd5b8135818111156137eb57600080fd5b8660208260051b850101111561380057600080fd5b60209290920196919550909350505050565b6000806040838503121561382557600080fd5b61382e8361367b565b9150602083013561383e816136ce565b809150509250929050565b7f4e487b7100000000000000000000000000000000000000000000000000000000600052604160045260246000fd5b6000806000806080858703121561388e57600080fd5b6138978561367b565b93506138a56020860161367b565b925060408501359150606085013567ffffffffffffffff808211156138c957600080fd5b818701915087601f8301126138dd57600080fd5b8135818111156138ef576138ef613849565b604051601f82017fffffffffffffffffffffffffffffffffffffffffffffffffffffffffffffffe0908116603f0116810190838211818310171561393557613935613849565b816040528281528a602084870101111561394e57600080fd5b82602086016020830137600060208483010152809550505050505092959194509250565b60008060006060848603121561398757600080fd5b833592506020840135915060408401356139a0816136ce565b809150509250925092565b600080604083850312156139be57600080fd5b6139c78361367b565b91506139d56020840161367b565b90509250929050565b600181811c908216806139f257607f821691505b602082108103611828577f4e487b7100000000000000000000000000000000000000000000000000000000600052602260045260246000fd5b7f4e487b7100000000000000000000000000000000000000000000000000000000600052601160045260246000fd5b8181038181111561071a5761071a613a2b565b600060208284031215613a7f57600080fd5b8151611abf816136ce565b7f4e487b7100000000000000000000000000000000000000000000000000000000600052600160045260246000fd5b7f4e487b7100000000000000000000000000000000000000000000000000000000600052603260045260246000fd5b8082018082111561071a5761071a613a2b565b600082613b31577f4e487b7100000000000000000000000000000000000000000000000000000000600052601260045260246000fd5b500490565b808202811582820484141761071a5761071a613a2b565b60007fffffffffffffffffffffffffffffffffffffffffffffffffffffffffffffffff8203613b7e57613b7e613a2b565b5060010190565b600073ffffffffffffffffffffffffffffffffffffffff8087168352808616602084015250836040830152608060608301526121aa60808301846135eb565b7f4e487b7100000000000000000000000000000000000000000000000000000000600052602160045260246000fd5b848152602081018490526080810160058410613c38577f4e487b7100000000000000000000000000000000000000000000000000000000600052602160045260246000fd5b60408201939093526060015292915050565b600060208284031215613c5c57600080fd5b8151611abf816135a0565b601f821115610f7157600081815260208120601f850160051c81016020861015613c8e5750805b601f850160051c820191505b81811015611a7657828155600101613c9a565b815167ffffffffffffffff811115613cc757613cc7613849565b613cdb81613cd584546139de565b84613c67565b602080601f831160018114613d2e5760008415613cf85750858301515b7fffffffffffffffffffffffffffffffffffffffffffffffffffffffffffffffff600386901b1c1916600185901b178555611a76565b6000858152602081207fffffffffffffffffffffffffffffffffffffffffffffffffffffffffffffffe08616915b82811015613d7b57888601518255948401946001909101908401613d5c565b5085821015613db757878501517fffffffffffffffffffffffffffffffffffffffffffffffffffffffffffffffff600388901b60f8161c191681555b5050505050600190811b01905550565b7f4e487b7100000000000000000000000000000000000000000000000000000000600052603160045260246000fdfea2646970667358221220a8693f7ce38c09802c4ee25a1e7103084735151508ae8cfe57aedd3677c3924564736f6c63430008140033",
  "devdoc": {
    "errors": {
      "ERC721EnumerableForbiddenBatchMint()": [
        {
          "details": "Batch mint is not allowed."
        }
      ],
      "ERC721IncorrectOwner(address,uint256,address)": [
        {
          "details": "Indicates an error related to the ownership over a particular token. Used in transfers.",
          "params": {
            "owner": "Address of the current owner of a token.",
            "sender": "Address whose tokens are being transferred.",
            "tokenId": "Identifier number of a token."
          }
        }
      ],
      "ERC721InsufficientApproval(address,uint256)": [
        {
          "details": "Indicates a failure with the `operator`s approval. Used in transfers.",
          "params": {
            "operator": "Address that may be allowed to operate on tokens without being their owner.",
            "tokenId": "Identifier number of a token."
          }
        }
      ],
      "ERC721InvalidApprover(address)": [
        {
          "details": "Indicates a failure with the `approver` of a token to be approved. Used in approvals.",
          "params": {
            "approver": "Address initiating an approval operation."
          }
        }
      ],
      "ERC721InvalidOperator(address)": [
        {
          "details": "Indicates a failure with the `operator` to be approved. Used in approvals.",
          "params": {
            "operator": "Address that may be allowed to operate on tokens without being their owner."
          }
        }
      ],
      "ERC721InvalidOwner(address)": [
        {
          "details": "Indicates that an address can't be an owner. For example, `address(0)` is a forbidden owner in EIP-20. Used in balance queries.",
          "params": {
            "owner": "Address of the current owner of a token."
          }
        }
      ],
      "ERC721InvalidReceiver(address)": [
        {
          "details": "Indicates a failure with the token `receiver`. Used in transfers.",
          "params": {
            "receiver": "Address to which tokens are being transferred."
          }
        }
      ],
      "ERC721InvalidSender(address)": [
        {
          "details": "Indicates a failure with the token `sender`. Used in transfers.",
          "params": {
            "sender": "Address whose tokens are being transferred."
          }
        }
      ],
      "ERC721NonexistentToken(uint256)": [
        {
          "details": "Indicates a `tokenId` whose `owner` is the zero address.",
          "params": {
            "tokenId": "Identifier number of a token."
          }
        }
      ],
      "ERC721OutOfBoundsIndex(address,uint256)": [
        {
          "details": "An `owner`'s token query was out of bounds for `index`. NOTE: The owner being `address(0)` indicates a global out of bounds index."
        }
      ],
      "InvalidInitialization()": [
        {
          "details": "The contract is already initialized."
        }
      ],
      "NotInitializing()": [
        {
          "details": "The contract is not initializing."
        }
      ],
      "OwnableInvalidOwner(address)": [
        {
          "details": "The owner is not a valid owner account. (eg. `address(0)`)"
        }
      ],
      "OwnableUnauthorizedAccount(address)": [
        {
          "details": "The caller account is not authorized to perform an operation."
        }
      ],
      "ReentrancyGuardReentrantCall()": [
        {
          "details": "Unauthorized reentrant call."
        }
      ]
    },
    "events": {
      "Approval(address,address,uint256)": {
        "details": "Emitted when `owner` enables `approved` to manage the `tokenId` token."
      },
      "ApprovalForAll(address,address,bool)": {
        "details": "Emitted when `owner` enables or disables (`approved`) `operator` to manage all of its assets."
      },
      "Initialized(uint64)": {
        "details": "Triggered when the contract has been initialized or reinitialized."
      },
      "Transfer(address,address,uint256)": {
        "details": "Emitted when `tokenId` token is transferred from `from` to `to`."
      }
    },
    "kind": "dev",
    "methods": {
      "approve(address,uint256)": {
        "details": "See {IERC721-approve}."
      },
      "balanceOf(address)": {
        "details": "See {IERC721-balanceOf}."
      },
      "createLock(uint256,uint256,bool)": {
        "params": {
          "_lockDuration": "Number of seconds to lock tokens for (rounded down to nearest week)",
          "_stakeNFT": "Should we also stake the NFT as well?",
          "_value": "Amount to deposit"
        }
      },
      "createLockFor(uint256,uint256,address,bool)": {
        "params": {
          "_lockDuration": "Number of seconds to lock tokens for (rounded down to nearest week)",
          "_to": "Address to deposit",
          "_value": "Amount to deposit"
        }
      },
      "depositFor(uint256,uint256)": {
        "details": "Anyone (even a smart contract) can deposit for someone else, but      cannot extend their locktime and deposit for a brand new user",
        "params": {
          "_tokenId": "lock NFT",
          "_value": "Amount to add to user's lock"
        }
      },
      "getApproved(uint256)": {
        "details": "See {IERC721-getApproved}."
      },
      "increaseAmount(uint256,uint256)": {
        "params": {
          "_value": "Amount of tokens to deposit and add to the lock"
        }
      },
      "increaseUnlockTime(uint256,uint256)": {
        "params": {
          "_lockDuration": "New number of seconds until tokens unlock"
        }
      },
      "isApprovedForAll(address,address)": {
        "details": "See {IERC721-isApprovedForAll}."
      },
      "lockedEnd(uint256)": {
        "params": {
          "_tokenId": "User NFT"
        },
        "returns": {
          "_0": "Epoch time of the lock end"
        }
      },
      "name()": {
        "details": "See {IERC721Metadata-name}."
      },
      "owner()": {
        "details": "Returns the address of the current owner."
      },
      "ownerOf(uint256)": {
        "details": "See {IERC721-ownerOf}."
      },
      "renounceOwnership()": {
        "details": "Leaves the contract without owner. It will not be possible to call `onlyOwner` functions. Can only be called by the current owner. NOTE: Renouncing ownership will leave the contract without an owner, thereby disabling any functionality that is only available to the owner."
      },
      "safeTransferFrom(address,address,uint256)": {
        "details": "See {IERC721-safeTransferFrom}."
      },
      "safeTransferFrom(address,address,uint256,bytes)": {
        "details": "See {IERC721-safeTransferFrom}."
      },
      "setApprovalForAll(address,bool)": {
        "details": "See {IERC721-setApprovalForAll}."
      },
      "setStakingAddress(address)": {
        "params": {
          "_staking": "The new staking contract address"
        }
      },
      "setTokenAddress(address)": {
        "params": {
          "_token": "The new token address"
        }
      },
      "supportsInterface(bytes4)": {
        "details": "Interface identification is specified in ERC-165.",
        "params": {
          "_interfaceID": "Id of the interface"
        }
      },
      "symbol()": {
        "details": "See {IERC721Metadata-symbol}."
      },
      "tokenByIndex(uint256)": {
        "details": "See {IERC721Enumerable-tokenByIndex}."
      },
      "tokenOfOwnerByIndex(address,uint256)": {
        "details": "See {IERC721Enumerable-tokenOfOwnerByIndex}."
      },
      "totalSupply()": {
        "details": "See {IERC721Enumerable-totalSupply}."
      },
      "transferFrom(address,address,uint256)": {
        "details": "See {IERC721-transferFrom}."
      },
      "transferOwnership(address)": {
        "details": "Transfers ownership of the contract to a new account (`newOwner`). Can only be called by the current owner."
      },
      "votingPowerOf(address)": {
        "details": "Returns the voting power of the `_owner`.      Throws if `_owner` is the zero address. NFTs assigned to the zero address are considered invalid.",
        "params": {
          "_owner": "Address for whom to query the voting power of."
        }
      },
      "withdraw(uint256)": {
        "details": "Only possible if the lock has expired"
      }
    },
    "version": 1
  },
  "userdoc": {
    "kind": "user",
    "methods": {
      "createLock(uint256,uint256,bool)": {
        "notice": "Deposit `_value` tokens for `msg.sender` and lock for `_lockDuration`"
      },
      "createLockFor(uint256,uint256,address,bool)": {
        "notice": "Deposit `_value` tokens for `_to` and lock for `_lockDuration`"
      },
      "depositFor(uint256,uint256)": {
        "notice": "Deposit `_value` tokens for `_tokenId` and add to the lock"
      },
      "increaseAmount(uint256,uint256)": {
        "notice": "Deposit `_value` additional tokens for `_tokenId` without modifying the unlock time"
      },
      "increaseUnlockTime(uint256,uint256)": {
        "notice": "Extend the unlock time for `_tokenId`"
      },
      "lockedEnd(uint256)": {
        "notice": "Get timestamp when `_tokenId`'s lock finishes"
      },
      "setStakingAddress(address)": {
        "notice": "Sets the staking contract address"
      },
      "setTokenAddress(address)": {
        "notice": "Sets the underlying token address"
      },
      "withdraw(uint256)": {
        "notice": "Withdraw all tokens for `_tokenId`"
      }
    },
    "version": 1
  },
  "storageLayout": {
    "storage": [
      {
        "astId": 14731,
        "contract": "contracts/locker/LockerLP.sol:LockerLP",
        "label": "WEEK",
        "offset": 0,
        "slot": "0",
        "type": "t_uint256"
      },
      {
        "astId": 14733,
        "contract": "contracts/locker/LockerLP.sol:LockerLP",
        "label": "MAXTIME",
        "offset": 0,
        "slot": "1",
        "type": "t_uint256"
      },
      {
        "astId": 14735,
        "contract": "contracts/locker/LockerLP.sol:LockerLP",
        "label": "MULTIPLIER",
        "offset": 0,
        "slot": "2",
        "type": "t_uint256"
      },
      {
        "astId": 14737,
        "contract": "contracts/locker/LockerLP.sol:LockerLP",
        "label": "supply",
        "offset": 0,
        "slot": "3",
        "type": "t_uint256"
      },
      {
        "astId": 14742,
        "contract": "contracts/locker/LockerLP.sol:LockerLP",
        "label": "locked",
        "offset": 0,
        "slot": "4",
        "type": "t_mapping(t_uint256,t_struct(LockedBalance)14655_storage)"
      },
      {
        "astId": 14744,
        "contract": "contracts/locker/LockerLP.sol:LockerLP",
        "label": "version",
        "offset": 0,
        "slot": "5",
        "type": "t_string_storage"
      },
      {
        "astId": 14746,
        "contract": "contracts/locker/LockerLP.sol:LockerLP",
        "label": "decimals",
        "offset": 0,
        "slot": "6",
        "type": "t_uint8"
      },
      {
        "astId": 14749,
        "contract": "contracts/locker/LockerLP.sol:LockerLP",
        "label": "tokenId",
        "offset": 0,
        "slot": "7",
        "type": "t_uint256"
      },
      {
        "astId": 14752,
        "contract": "contracts/locker/LockerLP.sol:LockerLP",
        "label": "underlying",
        "offset": 0,
        "slot": "8",
        "type": "t_contract(IERC20)5366"
      },
      {
        "astId": 14755,
        "contract": "contracts/locker/LockerLP.sol:LockerLP",
        "label": "staking",
        "offset": 0,
        "slot": "9",
        "type": "t_contract(IOmnichainStaking)14105"
      }
    ],
    "types": {
      "t_contract(IERC20)5366": {
        "encoding": "inplace",
        "label": "contract IERC20",
        "numberOfBytes": "20"
      },
      "t_contract(IOmnichainStaking)14105": {
        "encoding": "inplace",
        "label": "contract IOmnichainStaking",
        "numberOfBytes": "20"
      },
      "t_mapping(t_uint256,t_struct(LockedBalance)14655_storage)": {
        "encoding": "mapping",
        "key": "t_uint256",
        "label": "mapping(uint256 => struct IZeroLocker.LockedBalance)",
        "numberOfBytes": "32",
        "value": "t_struct(LockedBalance)14655_storage"
      },
      "t_string_storage": {
        "encoding": "bytes",
        "label": "string",
        "numberOfBytes": "32"
      },
      "t_struct(LockedBalance)14655_storage": {
        "encoding": "inplace",
        "label": "struct IZeroLocker.LockedBalance",
        "members": [
          {
            "astId": 14648,
            "contract": "contracts/locker/LockerLP.sol:LockerLP",
            "label": "amount",
            "offset": 0,
            "slot": "0",
            "type": "t_uint256"
          },
          {
            "astId": 14650,
            "contract": "contracts/locker/LockerLP.sol:LockerLP",
            "label": "end",
            "offset": 0,
            "slot": "1",
            "type": "t_uint256"
          },
          {
            "astId": 14652,
            "contract": "contracts/locker/LockerLP.sol:LockerLP",
            "label": "start",
            "offset": 0,
            "slot": "2",
            "type": "t_uint256"
          },
          {
            "astId": 14654,
            "contract": "contracts/locker/LockerLP.sol:LockerLP",
            "label": "power",
            "offset": 0,
            "slot": "3",
            "type": "t_uint256"
          }
        ],
        "numberOfBytes": "128"
      },
      "t_uint256": {
        "encoding": "inplace",
        "label": "uint256",
        "numberOfBytes": "32"
      },
      "t_uint8": {
        "encoding": "inplace",
        "label": "uint8",
        "numberOfBytes": "1"
      }
    }
  }
}