{
  "address": "0xE0b6b5Cd805A078bce744AEfE91e972445db59ca",
  "abi": [
    {
      "inputs": [],
      "name": "ERC721EnumerableForbiddenBatchMint",
      "type": "error"
    },
    {
      "inputs": [
        {
          "internalType": "address",
          "name": "sender",
          "type": "address"
        },
        {
          "internalType": "uint256",
          "name": "tokenId",
          "type": "uint256"
        },
        {
          "internalType": "address",
          "name": "owner",
          "type": "address"
        }
      ],
      "name": "ERC721IncorrectOwner",
      "type": "error"
    },
    {
      "inputs": [
        {
          "internalType": "address",
          "name": "operator",
          "type": "address"
        },
        {
          "internalType": "uint256",
          "name": "tokenId",
          "type": "uint256"
        }
      ],
      "name": "ERC721InsufficientApproval",
      "type": "error"
    },
    {
      "inputs": [
        {
          "internalType": "address",
          "name": "approver",
          "type": "address"
        }
      ],
      "name": "ERC721InvalidApprover",
      "type": "error"
    },
    {
      "inputs": [
        {
          "internalType": "address",
          "name": "operator",
          "type": "address"
        }
      ],
      "name": "ERC721InvalidOperator",
      "type": "error"
    },
    {
      "inputs": [
        {
          "internalType": "address",
          "name": "owner",
          "type": "address"
        }
      ],
      "name": "ERC721InvalidOwner",
      "type": "error"
    },
    {
      "inputs": [
        {
          "internalType": "address",
          "name": "receiver",
          "type": "address"
        }
      ],
      "name": "ERC721InvalidReceiver",
      "type": "error"
    },
    {
      "inputs": [
        {
          "internalType": "address",
          "name": "sender",
          "type": "address"
        }
      ],
      "name": "ERC721InvalidSender",
      "type": "error"
    },
    {
      "inputs": [
        {
          "internalType": "uint256",
          "name": "tokenId",
          "type": "uint256"
        }
      ],
      "name": "ERC721NonexistentToken",
      "type": "error"
    },
    {
      "inputs": [
        {
          "internalType": "address",
          "name": "owner",
          "type": "address"
        },
        {
          "internalType": "uint256",
          "name": "index",
          "type": "uint256"
        }
      ],
      "name": "ERC721OutOfBoundsIndex",
      "type": "error"
    },
    {
      "inputs": [],
      "name": "InvalidInitialization",
      "type": "error"
    },
    {
      "inputs": [],
      "name": "NotInitializing",
      "type": "error"
    },
    {
      "inputs": [],
      "name": "ReentrancyGuardReentrantCall",
      "type": "error"
    },
    {
      "anonymous": false,
      "inputs": [
        {
          "indexed": true,
          "internalType": "address",
          "name": "owner",
          "type": "address"
        },
        {
          "indexed": true,
          "internalType": "address",
          "name": "approved",
          "type": "address"
        },
        {
          "indexed": true,
          "internalType": "uint256",
          "name": "tokenId",
          "type": "uint256"
        }
      ],
      "name": "Approval",
      "type": "event"
    },
    {
      "anonymous": false,
      "inputs": [
        {
          "indexed": true,
          "internalType": "address",
          "name": "owner",
          "type": "address"
        },
        {
          "indexed": true,
          "internalType": "address",
          "name": "operator",
          "type": "address"
        },
        {
          "indexed": false,
          "internalType": "bool",
          "name": "approved",
          "type": "bool"
        }
      ],
      "name": "ApprovalForAll",
      "type": "event"
    },
    {
      "anonymous": false,
      "inputs": [
        {
          "indexed": true,
          "internalType": "address",
          "name": "provider",
          "type": "address"
        },
        {
          "indexed": false,
          "internalType": "uint256",
          "name": "tokenId",
          "type": "uint256"
        },
        {
          "indexed": false,
          "internalType": "uint256",
          "name": "value",
          "type": "uint256"
        },
        {
          "indexed": true,
          "internalType": "uint256",
          "name": "locktime",
          "type": "uint256"
        },
        {
          "indexed": false,
          "internalType": "enum IZeroLocker.DepositType",
          "name": "deposit_type",
          "type": "uint8"
        },
        {
          "indexed": false,
          "internalType": "uint256",
          "name": "ts",
          "type": "uint256"
        }
      ],
      "name": "Deposit",
      "type": "event"
    },
    {
      "anonymous": false,
      "inputs": [
        {
          "indexed": false,
          "internalType": "uint64",
          "name": "version",
          "type": "uint64"
        }
      ],
      "name": "Initialized",
      "type": "event"
    },
    {
      "anonymous": false,
      "inputs": [
        {
          "indexed": true,
          "internalType": "address",
          "name": "oldStaking",
          "type": "address"
        },
        {
          "indexed": true,
          "internalType": "address",
          "name": "newStaking",
          "type": "address"
        }
      ],
      "name": "StakingAddressSet",
      "type": "event"
    },
    {
      "anonymous": false,
      "inputs": [
        {
          "indexed": true,
          "internalType": "address",
          "name": "oldStakingBonus",
          "type": "address"
        },
        {
          "indexed": true,
          "internalType": "address",
          "name": "newStakingBonus",
          "type": "address"
        }
      ],
      "name": "StakingBonusAddressSet",
      "type": "event"
    },
    {
      "anonymous": false,
      "inputs": [
        {
          "indexed": false,
          "internalType": "uint256",
          "name": "prevSupply",
          "type": "uint256"
        },
        {
          "indexed": false,
          "internalType": "uint256",
          "name": "supply",
          "type": "uint256"
        }
      ],
      "name": "Supply",
      "type": "event"
    },
    {
      "anonymous": false,
      "inputs": [
        {
          "indexed": true,
          "internalType": "address",
          "name": "oldToken",
          "type": "address"
        },
        {
          "indexed": true,
          "internalType": "address",
          "name": "newToken",
          "type": "address"
        }
      ],
      "name": "TokenAddressSet",
      "type": "event"
    },
    {
      "anonymous": false,
      "inputs": [
        {
          "indexed": true,
          "internalType": "address",
          "name": "from",
          "type": "address"
        },
        {
          "indexed": true,
          "internalType": "address",
          "name": "to",
          "type": "address"
        },
        {
          "indexed": true,
          "internalType": "uint256",
          "name": "tokenId",
          "type": "uint256"
        }
      ],
      "name": "Transfer",
      "type": "event"
    },
    {
      "anonymous": false,
      "inputs": [
        {
          "indexed": true,
          "internalType": "address",
          "name": "provider",
          "type": "address"
        },
        {
          "indexed": false,
          "internalType": "uint256",
          "name": "tokenId",
          "type": "uint256"
        },
        {
          "indexed": false,
          "internalType": "uint256",
          "name": "value",
          "type": "uint256"
        },
        {
          "indexed": false,
          "internalType": "uint256",
          "name": "ts",
          "type": "uint256"
        }
      ],
      "name": "Withdraw",
      "type": "event"
    },
    {
      "inputs": [
        {
          "internalType": "address",
          "name": "to",
          "type": "address"
        },
        {
          "internalType": "uint256",
          "name": "tokenId",
          "type": "uint256"
        }
      ],
      "name": "approve",
      "outputs": [],
      "stateMutability": "nonpayable",
      "type": "function"
    },
    {
      "inputs": [
        {
          "internalType": "address",
          "name": "owner",
          "type": "address"
        }
      ],
      "name": "balanceOf",
      "outputs": [
        {
          "internalType": "uint256",
          "name": "",
          "type": "uint256"
        }
      ],
      "stateMutability": "view",
      "type": "function"
    },
    {
      "inputs": [
        {
          "internalType": "uint256",
          "name": "_tokenId",
          "type": "uint256"
        }
      ],
      "name": "balanceOfNFT",
      "outputs": [
        {
          "internalType": "uint256",
          "name": "",
          "type": "uint256"
        }
      ],
      "stateMutability": "view",
      "type": "function"
    },
    {
      "inputs": [
        {
          "internalType": "uint256",
          "name": "_value",
          "type": "uint256"
        },
        {
          "internalType": "uint256",
          "name": "_lockDuration",
          "type": "uint256"
        },
        {
          "internalType": "bool",
          "name": "_stakeNFT",
          "type": "bool"
        }
      ],
      "name": "createLock",
      "outputs": [
        {
          "internalType": "uint256",
          "name": "",
          "type": "uint256"
        }
      ],
      "stateMutability": "nonpayable",
      "type": "function"
    },
    {
      "inputs": [
        {
          "internalType": "uint256",
          "name": "_value",
          "type": "uint256"
        },
        {
          "internalType": "uint256",
          "name": "_lockDuration",
          "type": "uint256"
        },
        {
          "internalType": "address",
          "name": "_to",
          "type": "address"
        },
        {
          "internalType": "bool",
          "name": "_stakeNFT",
          "type": "bool"
        }
      ],
      "name": "createLockFor",
      "outputs": [
        {
          "internalType": "uint256",
          "name": "",
          "type": "uint256"
        }
      ],
      "stateMutability": "nonpayable",
      "type": "function"
    },
    {
      "inputs": [],
      "name": "decimals",
      "outputs": [
        {
          "internalType": "uint8",
          "name": "",
          "type": "uint8"
        }
      ],
      "stateMutability": "view",
      "type": "function"
    },
    {
      "inputs": [
        {
          "internalType": "uint256",
          "name": "_tokenId",
          "type": "uint256"
        },
        {
          "internalType": "uint256",
          "name": "_value",
          "type": "uint256"
        }
      ],
      "name": "depositFor",
      "outputs": [],
      "stateMutability": "nonpayable",
      "type": "function"
    },
    {
      "inputs": [
        {
          "internalType": "uint256",
          "name": "tokenId",
          "type": "uint256"
        }
      ],
      "name": "getApproved",
      "outputs": [
        {
          "internalType": "address",
          "name": "",
          "type": "address"
        }
      ],
      "stateMutability": "view",
      "type": "function"
    },
    {
      "inputs": [
        {
          "internalType": "uint256",
          "name": "_tokenId",
          "type": "uint256"
        },
        {
          "internalType": "uint256",
          "name": "_value",
          "type": "uint256"
        }
      ],
      "name": "increaseAmount",
      "outputs": [],
      "stateMutability": "nonpayable",
      "type": "function"
    },
    {
      "inputs": [
        {
          "internalType": "uint256",
          "name": "_tokenId",
          "type": "uint256"
        },
        {
          "internalType": "uint256",
          "name": "_lockDuration",
          "type": "uint256"
        }
      ],
      "name": "increaseUnlockTime",
      "outputs": [],
      "stateMutability": "nonpayable",
      "type": "function"
    },
    {
      "inputs": [
        {
          "internalType": "address",
          "name": "_token",
          "type": "address"
        },
        {
          "internalType": "address",
          "name": "_staking",
          "type": "address"
        }
      ],
      "name": "init",
      "outputs": [],
      "stateMutability": "nonpayable",
      "type": "function"
    },
    {
      "inputs": [
        {
          "internalType": "address",
          "name": "owner",
          "type": "address"
        },
        {
          "internalType": "address",
          "name": "operator",
          "type": "address"
        }
      ],
      "name": "isApprovedForAll",
      "outputs": [
        {
          "internalType": "bool",
          "name": "",
          "type": "bool"
        }
      ],
      "stateMutability": "view",
      "type": "function"
    },
    {
      "inputs": [
        {
          "internalType": "uint256",
          "name": "",
          "type": "uint256"
        }
      ],
      "name": "locked",
      "outputs": [
        {
          "internalType": "uint256",
          "name": "amount",
          "type": "uint256"
        },
        {
          "internalType": "uint256",
          "name": "end",
          "type": "uint256"
        },
        {
          "internalType": "uint256",
          "name": "start",
          "type": "uint256"
        },
        {
          "internalType": "uint256",
          "name": "power",
          "type": "uint256"
        }
      ],
      "stateMutability": "view",
      "type": "function"
    },
    {
      "inputs": [
        {
          "internalType": "uint256",
          "name": "_tokenId",
          "type": "uint256"
        }
      ],
      "name": "lockedEnd",
      "outputs": [
        {
          "internalType": "uint256",
          "name": "",
          "type": "uint256"
        }
      ],
      "stateMutability": "view",
      "type": "function"
    },
    {
      "inputs": [
        {
          "internalType": "uint256",
          "name": "_from",
          "type": "uint256"
        },
        {
          "internalType": "uint256",
          "name": "_to",
          "type": "uint256"
        }
      ],
      "name": "merge",
      "outputs": [],
      "stateMutability": "nonpayable",
      "type": "function"
    },
    {
      "inputs": [],
      "name": "name",
      "outputs": [
        {
          "internalType": "string",
          "name": "",
          "type": "string"
        }
      ],
      "stateMutability": "view",
      "type": "function"
    },
    {
      "inputs": [
        {
          "internalType": "uint256",
          "name": "tokenId",
          "type": "uint256"
        }
      ],
      "name": "ownerOf",
      "outputs": [
        {
          "internalType": "address",
          "name": "",
          "type": "address"
        }
      ],
      "stateMutability": "view",
      "type": "function"
    },
    {
      "inputs": [
        {
          "internalType": "address",
          "name": "from",
          "type": "address"
        },
        {
          "internalType": "address",
          "name": "to",
          "type": "address"
        },
        {
          "internalType": "uint256",
          "name": "tokenId",
          "type": "uint256"
        }
      ],
      "name": "safeTransferFrom",
      "outputs": [],
      "stateMutability": "nonpayable",
      "type": "function"
    },
    {
      "inputs": [
        {
          "internalType": "address",
          "name": "from",
          "type": "address"
        },
        {
          "internalType": "address",
          "name": "to",
          "type": "address"
        },
        {
          "internalType": "uint256",
          "name": "tokenId",
          "type": "uint256"
        },
        {
          "internalType": "bytes",
          "name": "data",
          "type": "bytes"
        }
      ],
      "name": "safeTransferFrom",
      "outputs": [],
      "stateMutability": "nonpayable",
      "type": "function"
    },
    {
      "inputs": [
        {
          "internalType": "address",
          "name": "operator",
          "type": "address"
        },
        {
          "internalType": "bool",
          "name": "approved",
          "type": "bool"
        }
      ],
      "name": "setApprovalForAll",
      "outputs": [],
      "stateMutability": "nonpayable",
      "type": "function"
    },
    {
      "inputs": [],
      "name": "staking",
      "outputs": [
        {
          "internalType": "contract IOmnichainStaking",
          "name": "",
          "type": "address"
        }
      ],
      "stateMutability": "view",
      "type": "function"
    },
    {
      "inputs": [],
      "name": "supply",
      "outputs": [
        {
          "internalType": "uint256",
          "name": "",
          "type": "uint256"
        }
      ],
      "stateMutability": "view",
      "type": "function"
    },
    {
      "inputs": [
        {
          "internalType": "bytes4",
          "name": "_interfaceID",
          "type": "bytes4"
        }
      ],
      "name": "supportsInterface",
      "outputs": [
        {
          "internalType": "bool",
          "name": "",
          "type": "bool"
        }
      ],
      "stateMutability": "view",
      "type": "function"
    },
    {
      "inputs": [],
      "name": "symbol",
      "outputs": [
        {
          "internalType": "string",
          "name": "",
          "type": "string"
        }
      ],
      "stateMutability": "view",
      "type": "function"
    },
    {
      "inputs": [
        {
          "internalType": "uint256",
          "name": "index",
          "type": "uint256"
        }
      ],
      "name": "tokenByIndex",
      "outputs": [
        {
          "internalType": "uint256",
          "name": "",
          "type": "uint256"
        }
      ],
      "stateMutability": "view",
      "type": "function"
    },
    {
      "inputs": [
        {
          "internalType": "address",
          "name": "owner",
          "type": "address"
        },
        {
          "internalType": "uint256",
          "name": "index",
          "type": "uint256"
        }
      ],
      "name": "tokenOfOwnerByIndex",
      "outputs": [
        {
          "internalType": "uint256",
          "name": "",
          "type": "uint256"
        }
      ],
      "stateMutability": "view",
      "type": "function"
    },
    {
      "inputs": [
        {
          "internalType": "uint256",
          "name": "",
          "type": "uint256"
        }
      ],
      "name": "tokenURI",
      "outputs": [
        {
          "internalType": "string",
          "name": "",
          "type": "string"
        }
      ],
      "stateMutability": "view",
      "type": "function"
    },
    {
      "inputs": [],
      "name": "totalSupply",
      "outputs": [
        {
          "internalType": "uint256",
          "name": "",
          "type": "uint256"
        }
      ],
      "stateMutability": "view",
      "type": "function"
    },
    {
      "inputs": [
        {
          "internalType": "address",
          "name": "from",
          "type": "address"
        },
        {
          "internalType": "address",
          "name": "to",
          "type": "address"
        },
        {
          "internalType": "uint256",
          "name": "tokenId",
          "type": "uint256"
        }
      ],
      "name": "transferFrom",
      "outputs": [],
      "stateMutability": "nonpayable",
      "type": "function"
    },
    {
      "inputs": [],
      "name": "underlying",
      "outputs": [
        {
          "internalType": "contract IERC20",
          "name": "",
          "type": "address"
        }
      ],
      "stateMutability": "view",
      "type": "function"
    },
    {
      "inputs": [],
      "name": "version",
      "outputs": [
        {
          "internalType": "string",
          "name": "",
          "type": "string"
        }
      ],
      "stateMutability": "view",
      "type": "function"
    },
    {
      "inputs": [
        {
          "internalType": "address",
          "name": "_owner",
          "type": "address"
        }
      ],
      "name": "votingPowerOf",
      "outputs": [
        {
          "internalType": "uint256",
          "name": "_power",
          "type": "uint256"
        }
      ],
      "stateMutability": "view",
      "type": "function"
    },
    {
      "inputs": [
        {
          "internalType": "uint256",
          "name": "_tokenId",
          "type": "uint256"
        }
      ],
      "name": "withdraw",
      "outputs": [],
      "stateMutability": "nonpayable",
      "type": "function"
    },
    {
      "inputs": [
        {
          "internalType": "address",
          "name": "_user",
          "type": "address"
        }
      ],
      "name": "withdraw",
      "outputs": [],
      "stateMutability": "nonpayable",
      "type": "function"
    },
    {
      "inputs": [
        {
          "internalType": "uint256[]",
          "name": "_tokenIds",
          "type": "uint256[]"
        }
      ],
      "name": "withdraw",
      "outputs": [],
      "stateMutability": "nonpayable",
      "type": "function"
    }
  ],
  "transactionHash": "0xbda89c6908704aa49dfb3f065ce1ebf972d7bef6c30aaf14ec3d8c42632674e5",
  "args": [],
  "numDeployments": 1,
  "solcInputHash": "e87c5c56fb736c350f8aba99c6517653",
  "bytecode": "0x608060405234801561001057600080fd5b50613a6f806100206000396000f3fe608060405234801561001057600080fd5b50600436106102415760003560e01c8063626944df11610145578063b45a3c0e116100bd578063d1c2babb1161008c578063e7e242d411610071578063e7e242d41461056c578063e985e9c51461058f578063f09a4016146105f757600080fd5b8063d1c2babb14610546578063d60371a71461055957600080fd5b8063b45a3c0e146104aa578063b88d4fde146104ff578063bcc3f3bd14610512578063c87b56dd1461052557600080fd5b806395d89b41116101145780639d507b8b116100f95780639d507b8b14610471578063a22cb46514610484578063b2383e551461049757600080fd5b806395d89b4114610456578063983d95ce1461045e57600080fd5b8063626944df146103ed5780636352211e146104105780636f307dc31461042357806370a082311461044357600080fd5b806323b872dd116101d857806342842e0e116101a75780634f6ccce71161018c5780634f6ccce7146103bf57806351cff8d9146103d257806354fd4d50146103e557600080fd5b806342842e0e1461038c5780634cf088d91461039f57600080fd5b806323b872dd146103345780632e1a7d4d146103475780632f745c591461035a578063313ce5671461036d57600080fd5b8063095ea7b311610214578063095ea7b3146102d25780630a2abdb3146102e75780630ec84dda146102fa57806318160ddd1461030d57600080fd5b806301ffc9a714610246578063047fc9aa1461026e57806306fdde0314610285578063081812fc1461029a575b600080fd5b610259610254366004613211565b61060a565b60405190151581526020015b60405180910390f35b61027760035481565b604051908152602001610265565b61028d61061b565b6040516102659190613292565b6102ad6102a83660046132a5565b6106d1565b60405173ffffffffffffffffffffffffffffffffffffffff9091168152602001610265565b6102e56102e03660046132e7565b610726565b005b6102776102f536600461331f565b610735565b6102e5610308366004613367565b61077e565b7f645e039705490088daad89bae25049a34f4a9072d398537b1ab2425f24cbed0254610277565b6102e5610342366004613389565b610941565b6102e56103553660046132a5565b610a32565b6102776103683660046132e7565b610d19565b60065461037a9060ff1681565b60405160ff9091168152602001610265565b6102e561039a366004613389565b610dd2565b6009546102ad9073ffffffffffffffffffffffffffffffffffffffff1681565b6102776103cd3660046132a5565b610df2565b6102e56103e03660046133c5565b610ea7565b61028d610f12565b6102776103fb3660046132a5565b60009081526004602052604090206001015490565b6102ad61041e3660046132a5565b610fa0565b6008546102ad9073ffffffffffffffffffffffffffffffffffffffff1681565b6102776104513660046133c5565b610fab565b61028d61104c565b6102e561046c3660046133e0565b61109d565b6102e561047f366004613367565b611105565b6102e5610492366004613455565b61142c565b6102e56104a5366004613367565b611437565b6104df6104b83660046132a5565b60046020526000908152604090208054600182015460028301546003909301549192909184565b604080519485526020850193909352918301526060820152608001610265565b6102e561050d3660046134bb565b611624565b6102776105203660046133c5565b61163b565b61028d6105333660046132a5565b5060408051602081019091526000815290565b6102e5610554366004613367565b611696565b6102776105673660046135b5565b6118e6565b61027761057a3660046132a5565b60009081526004602052604090206003015490565b61025961059d3660046135ee565b73ffffffffffffffffffffffffffffffffffffffff91821660009081527f80bb2b638cc20bc4d0a60d66940f3ab4a00c1d7b313497ca82fb0b4ab00793056020908152604080832093909416825291909152205460ff1690565b6102e56106053660046135ee565b61192e565b600061061582611b21565b92915050565b7f80bb2b638cc20bc4d0a60d66940f3ab4a00c1d7b313497ca82fb0b4ab0079300805460609190819061064d90613621565b80601f016020809104026020016040519081016040528092919081815260200182805461067990613621565b80156106c65780601f1061069b576101008083540402835291602001916106c6565b820191906000526020600020905b8154815290600101906020018083116106a957829003601f168201915b505050505091505090565b60006106dc82611b77565b5060008281527f80bb2b638cc20bc4d0a60d66940f3ab4a00c1d7b313497ca82fb0b4ab0079304602052604090205473ffffffffffffffffffffffffffffffffffffffff16610615565b610731828233611bf5565b5050565b600061073f611c02565b61074b85858585611c83565b905061077660017f9b779b17422d0df92223018b32b4d1fa46e071723d6817e2486d003becc55f0055565b949350505050565b610786611c02565b600082815260046020908152604091829020825160808101845281548152600182015492810192909252600281015492820192909252600390910154606082015281610833576040517f08c379a000000000000000000000000000000000000000000000000000000000815260206004820152600960248201527f76616c7565203d2030000000000000000000000000000000000000000000000060448201526064015b60405180910390fd5b805161089b576040517f08c379a000000000000000000000000000000000000000000000000000000000815260206004820152601660248201527f4e6f206578697374696e67206c6f636b20666f756e6400000000000000000000604482015260640161082a565b42816020015111610908576040517f08c379a000000000000000000000000000000000000000000000000000000000815260206004820152601b60248201527f43616e6e6f742061646420746f2065787069726564206c6f636b2e0000000000604482015260640161082a565b61091783836000846000611f61565b5061073160017f9b779b17422d0df92223018b32b4d1fa46e071723d6817e2486d003becc55f0055565b73ffffffffffffffffffffffffffffffffffffffff8216610991576040517f64a0ae920000000000000000000000000000000000000000000000000000000081526000600482015260240161082a565b600061099e8383336121b5565b90508373ffffffffffffffffffffffffffffffffffffffff168173ffffffffffffffffffffffffffffffffffffffff1614610a2c576040517f64283d7b00000000000000000000000000000000000000000000000000000000815273ffffffffffffffffffffffffffffffffffffffff8086166004830152602482018490528216604482015260640161082a565b50505050565b610a3a611c02565b610a4d610a4682610fa0565b338361230e565b610ab3576040517f08c379a000000000000000000000000000000000000000000000000000000000815260206004820181905260248201527f63616c6c6572206973206e6f74206f776e6572206e6f7220617070726f766564604482015260640161082a565b6000818152600460209081526040918290208251608081018452815481526001820154928101839052600282015493810193909352600301546060830152421015610b5a576040517f08c379a000000000000000000000000000000000000000000000000000000000815260206004820152601660248201527f546865206c6f636b206469646e27742065787069726500000000000000000000604482015260640161082a565b8051604080516080810182526000808252602080830182815283850183815260608501848152898552600490935294909220925183559051600183015591516002820155905160039182015554610bb1828261369d565b6003556008546040517fa9059cbb0000000000000000000000000000000000000000000000000000000081523360048201526024810184905273ffffffffffffffffffffffffffffffffffffffff9091169063a9059cbb906044016020604051808303816000875af1158015610c2b573d6000803e3d6000fd5b505050506040513d601f19601f82011682018060405250810190610c4f91906136b0565b610c5b57610c5b6136cd565b610c6484612410565b60408051858152602081018490524281830152905133917f02f25270a4d87bea75db541cdfe559334a275b4a233520ed6c0a2429667cca94919081900360600190a27f5e2aa66efd74cce82b21852e317e5490d9ecc9e6bb953ae24d90851258cc2f5c81610cd2848261369d565b6040805192835260208301919091520160405180910390a1505050610d1660017f9b779b17422d0df92223018b32b4d1fa46e071723d6817e2486d003becc55f0055565b50565b60007f645e039705490088daad89bae25049a34f4a9072d398537b1ab2425f24cbed00610d4584610fab565b8310610d9c576040517fa57d13dc00000000000000000000000000000000000000000000000000000000815273ffffffffffffffffffffffffffffffffffffffff851660048201526024810184905260440161082a565b73ffffffffffffffffffffffffffffffffffffffff84166000908152602091825260408082208583529092522054905092915050565b610ded83838360405180602001604052806000815250611624565b505050565b60007f645e039705490088daad89bae25049a34f4a9072d398537b1ab2425f24cbed00610e3d7f645e039705490088daad89bae25049a34f4a9072d398537b1ab2425f24cbed025490565b8310610e7f576040517fa57d13dc000000000000000000000000000000000000000000000000000000008152600060048201526024810184905260440161082a565b806002018381548110610e9457610e946136fc565b9060005260206000200154915050919050565b610eaf611c02565b6000610eba82610fab565b905060005b81811015610ee7576000610ed38483610d19565b9050610ede81610a32565b50600101610ebf565b5050610d1660017f9b779b17422d0df92223018b32b4d1fa46e071723d6817e2486d003becc55f0055565b60058054610f1f90613621565b80601f0160208091040260200160405190810160405280929190818152602001828054610f4b90613621565b8015610f985780601f10610f6d57610100808354040283529160200191610f98565b820191906000526020600020905b815481529060010190602001808311610f7b57829003601f168201915b505050505081565b600061061582611b77565b60007f80bb2b638cc20bc4d0a60d66940f3ab4a00c1d7b313497ca82fb0b4ab007930073ffffffffffffffffffffffffffffffffffffffff831661101e576040517f89c62b640000000000000000000000000000000000000000000000000000000081526000600482015260240161082a565b73ffffffffffffffffffffffffffffffffffffffff9092166000908152600390920160205250604090205490565b7f80bb2b638cc20bc4d0a60d66940f3ab4a00c1d7b313497ca82fb0b4ab007930180546060917f80bb2b638cc20bc4d0a60d66940f3ab4a00c1d7b313497ca82fb0b4ab00793009161064d90613621565b6110a5611c02565b8060005b818110156110da576110d28484838181106110c6576110c66136fc565b90506020020135610a32565b6001016110a9565b505061073160017f9b779b17422d0df92223018b32b4d1fa46e071723d6817e2486d003becc55f0055565b61110d611c02565b61112061111983610fa0565b338461230e565b611186576040517f08c379a000000000000000000000000000000000000000000000000000000000815260206004820181905260248201527f63616c6c6572206973206e6f74206f776e6572206e6f7220617070726f766564604482015260640161082a565b60008281526004602090815260408083208151608081018352815481526001820154938101939093526002810154918301919091526003015460608201528154909190806111d4854261372b565b6111de919061373e565b6111e89190613779565b905042826020015111611257576040517f08c379a000000000000000000000000000000000000000000000000000000000815260206004820152600c60248201527f4c6f636b20657870697265640000000000000000000000000000000000000000604482015260640161082a565b81516112bf576040517f08c379a000000000000000000000000000000000000000000000000000000000815260206004820152601160248201527f4e6f7468696e67206973206c6f636b6564000000000000000000000000000000604482015260640161082a565b8160200151811161132c576040517f08c379a000000000000000000000000000000000000000000000000000000000815260206004820152601f60248201527f43616e206f6e6c7920696e637265617365206c6f636b206475726174696f6e00604482015260640161082a565b600154611339904261372b565b8111156113a2576040517f08c379a000000000000000000000000000000000000000000000000000000000815260206004820152601e60248201527f566f74696e67206c6f636b2063616e2062652034207965617273206d61780000604482015260640161082a565b60015482604001516113b4919061372b565b81111561141d576040517f08c379a000000000000000000000000000000000000000000000000000000000815260206004820152601e60248201527f566f74696e67206c6f636b2063616e2062652034207965617273206d61780000604482015260640161082a565b6110da84600083856003611f61565b610731338383612471565b61143f611c02565b60008281527f80bb2b638cc20bc4d0a60d66940f3ab4a00c1d7b313497ca82fb0b4ab0079302602052604090205461148c9073ffffffffffffffffffffffffffffffffffffffff16611119565b6114f2576040517f08c379a000000000000000000000000000000000000000000000000000000000815260206004820181905260248201527f63616c6c6572206973206e6f74206f776e6572206e6f7220617070726f766564604482015260640161082a565b600082815260046020908152604091829020825160808101845281548152600182015492810192909252600281015492820192909252600390910154606082015281611540576115406136cd565b80516115a8576040517f08c379a000000000000000000000000000000000000000000000000000000000815260206004820152601660248201527f4e6f206578697374696e67206c6f636b20666f756e6400000000000000000000604482015260640161082a565b42816020015111611615576040517f08c379a000000000000000000000000000000000000000000000000000000000815260206004820152601b60248201527f43616e6e6f742061646420746f2065787069726564206c6f636b2e0000000000604482015260640161082a565b61091783836000846002611f61565b61162f848484610941565b610a2c84848484612592565b6000805b61164883610fab565b81101561169057600061165b8483610d19565b60008181526004602052604090206003015490915061167a908461372b565b925050808061168890613790565b91505061163f565b50919050565b8082036116ff576040517f08c379a000000000000000000000000000000000000000000000000000000000815260206004820152600860248201527f73616d65206e6674000000000000000000000000000000000000000000000000604482015260640161082a565b61170b61111983610fa0565b611771576040517f08c379a000000000000000000000000000000000000000000000000000000000815260206004820152601160248201527f66726f6d206e6f7420617070726f766564000000000000000000000000000000604482015260640161082a565b61177d610a4682610fa0565b6117e3576040517f08c379a000000000000000000000000000000000000000000000000000000000815260206004820152600f60248201527f746f206e6f7420617070726f7665640000000000000000000000000000000000604482015260640161082a565b600082815260046020818152604080842081516080808201845282548252600180840154838701908152600280860154858801526003958601546060808701919091528b8b52988852868a20875194850188528054855292830154978401889052820154958301959095529092015494820194909452835191519394909391929091101561187557826020015161187b565b83602001515b6040805160808101825260008082526020808301828152838501838152606085018481528d8552600490935294909220925183559051600183015591516002820155905160039091015590506118d086612410565b6118de858383866004611f61565b505050505050565b60006118f0611c02565b6118fc84843385611c83565b905061192760017f9b779b17422d0df92223018b32b4d1fa46e071723d6817e2486d003becc55f0055565b9392505050565b7ff0c57e16840df040f15088dc2f81fe391c3923bec73e23a9662efc9c229c6a00805468010000000000000000810460ff16159067ffffffffffffffff166000811580156119795750825b905060008267ffffffffffffffff1660011480156119965750303b155b9050811580156119a4575080155b156119db576040517ff92ee8a900000000000000000000000000000000000000000000000000000000815260040160405180910390fd5b84547fffffffffffffffffffffffffffffffffffffffffffffffff00000000000000001660011785558315611a3c5784547fffffffffffffffffffffffffffffffffffffffffffffff00ffffffffffffffff16680100000000000000001785555b611ab76040518060400160405280601281526020017f4c6f636b6564205a45524f2f455448204c5000000000000000000000000000008152506040518060400160405280600781526020017f4c502d5a45524f0000000000000000000000000000000000000000000000000081525089896301e13380612789565b8315611b185784547fffffffffffffffffffffffffffffffffffffffffffffff00ffffffffffffffff168555604051600181527fc7f505b2f371ae2175ee4913f4499e1f2633a7b5936321eed1cdaeb6115181d29060200160405180910390a15b50505050505050565b60007fffffffff0000000000000000000000000000000000000000000000000000000082167f780e9d63000000000000000000000000000000000000000000000000000000001480610615575061061582612881565b60008181527f80bb2b638cc20bc4d0a60d66940f3ab4a00c1d7b313497ca82fb0b4ab0079302602052604081205473ffffffffffffffffffffffffffffffffffffffff1680610615576040517f7e2732890000000000000000000000000000000000000000000000000000000081526004810184905260240161082a565b610ded8383836001612964565b7f9b779b17422d0df92223018b32b4d1fa46e071723d6817e2486d003becc55f0080547ffffffffffffffffffffffffffffffffffffffffffffffffffffffffffffffffe01611c7d576040517f3ee5aeb500000000000000000000000000000000000000000000000000000000815260040160405180910390fd5b60029055565b60008054819080611c94874261372b565b611c9e919061373e565b611ca89190613779565b905060008611611d14576040517f08c379a000000000000000000000000000000000000000000000000000000000815260206004820152600960248201527f76616c7565203d20300000000000000000000000000000000000000000000000604482015260640161082a565b428111611d7d576040517f08c379a000000000000000000000000000000000000000000000000000000000815260206004820152601b60248201527f43616e206f6e6c79206c6f636b20696e20746865206675747572650000000000604482015260640161082a565b600154611d8a904261372b565b811115611df3576040517f08c379a000000000000000000000000000000000000000000000000000000000815260206004820152601e60248201527f566f74696e67206c6f636b2063616e2062652034207965617273206d61780000604482015260640161082a565b600760008154611e0290613790565b9091555060075460008181526004602090815260409182902082516080810184528154815260018083015493820193909352600282015493810193909352600301546060830152611e589183918a918691611f61565b8315611f2757611e683082612b70565b60408051851515602082015273ffffffffffffffffffffffffffffffffffffffff8781168284015260608083018a90528351808403909101815260808301938490526009547fb88d4fde0000000000000000000000000000000000000000000000000000000090945292309263b88d4fde92611eef928592911690879087906084016137c8565b600060405180830381600087803b158015611f0957600080fd5b505af1158015611f1d573d6000803e3d6000fd5b5050505050611f31565b611f318582612b70565b9695505050505050565b60017f9b779b17422d0df92223018b32b4d1fa46e071723d6817e2486d003becc55f0055565b6003548290611f70868261372b565b600381905550611fa16040518060800160405280600081526020016000815260200160008152602001600081525090565b825160208085015160608087015190850152908301528152825187908490611fca90839061372b565b9052508515611fdb57602083018690525b6001846004811115611fef57611fef613807565b03611ffb574260408401525b61200483612c21565b60608401908152600089815260046020908152604091829020865181559086015160018201559085015160028201559051600390910155861580159061205c5750600484600481111561205957612059613807565b14155b1561210e576008546040517f23b872dd0000000000000000000000000000000000000000000000000000000081523360048201523060248201526044810189905273ffffffffffffffffffffffffffffffffffffffff909116906323b872dd906064016020604051808303816000875af11580156120de573d6000803e3d6000fd5b505050506040513d601f19601f8201168201806040525081019061210291906136b0565b61210e5761210e6136cd565b82602001513373ffffffffffffffffffffffffffffffffffffffff167fff04ccafc360e16b67d682d17bd9503c4c6b9a131f6be6325762dc9ffc7de6248a8a884260405161215f9493929190613836565b60405180910390a37f5e2aa66efd74cce82b21852e317e5490d9ecc9e6bb953ae24d90851258cc2f5c82612193898261372b565b6040805192835260208301919091520160405180910390a15050505050505050565b6000806121c3858585612c53565b905073ffffffffffffffffffffffffffffffffffffffff811661226b57612266847f645e039705490088daad89bae25049a34f4a9072d398537b1ab2425f24cbed02805460008381527f645e039705490088daad89bae25049a34f4a9072d398537b1ab2425f24cbed0360205260408120829055600182018355919091527fa42f15e5d656f8155fd7419d740a6073999f19cd6e061449ce4a257150545bf20155565b6122a8565b8473ffffffffffffffffffffffffffffffffffffffff168173ffffffffffffffffffffffffffffffffffffffff16146122a8576122a88185612e18565b73ffffffffffffffffffffffffffffffffffffffff85166122d1576122cc84612ee8565b610776565b8473ffffffffffffffffffffffffffffffffffffffff168173ffffffffffffffffffffffffffffffffffffffff1614610776576107768585612fe3565b600073ffffffffffffffffffffffffffffffffffffffff83161580159061077657508273ffffffffffffffffffffffffffffffffffffffff168473ffffffffffffffffffffffffffffffffffffffff1614806123bb575073ffffffffffffffffffffffffffffffffffffffff80851660009081527f80bb2b638cc20bc4d0a60d66940f3ab4a00c1d7b313497ca82fb0b4ab0079305602090815260408083209387168352929052205460ff165b8061077657505060009081527f80bb2b638cc20bc4d0a60d66940f3ab4a00c1d7b313497ca82fb0b4ab0079304602052604090205473ffffffffffffffffffffffffffffffffffffffff908116911614919050565b600061241f60008360006121b5565b905073ffffffffffffffffffffffffffffffffffffffff8116610731576040517f7e2732890000000000000000000000000000000000000000000000000000000081526004810183905260240161082a565b7f80bb2b638cc20bc4d0a60d66940f3ab4a00c1d7b313497ca82fb0b4ab007930073ffffffffffffffffffffffffffffffffffffffff83166124f7576040517f5b08ba1800000000000000000000000000000000000000000000000000000000815273ffffffffffffffffffffffffffffffffffffffff8416600482015260240161082a565b73ffffffffffffffffffffffffffffffffffffffff848116600081815260058401602090815260408083209488168084529482529182902080547fffffffffffffffffffffffffffffffffffffffffffffffffffffffffffffff001687151590811790915591519182527f17307eab39ab6107e8899845ad3d59bd9653f200f220920489ca2b5937696c31910160405180910390a350505050565b73ffffffffffffffffffffffffffffffffffffffff83163b15610a2c576040517f150b7a0200000000000000000000000000000000000000000000000000000000815273ffffffffffffffffffffffffffffffffffffffff84169063150b7a02906126079033908890879087906004016137c8565b6020604051808303816000875af1925050508015612660575060408051601f3d9081017fffffffffffffffffffffffffffffffffffffffffffffffffffffffffffffffe016820190925261265d9181019061388d565b60015b6126ef573d80801561268e576040519150601f19603f3d011682016040523d82523d6000602084013e612693565b606091505b5080516000036126e7576040517f64a0ae9200000000000000000000000000000000000000000000000000000000815273ffffffffffffffffffffffffffffffffffffffff8516600482015260240161082a565b805181602001fd5b7fffffffff0000000000000000000000000000000000000000000000000000000081167f150b7a020000000000000000000000000000000000000000000000000000000014612782576040517f64a0ae9200000000000000000000000000000000000000000000000000000000815273ffffffffffffffffffffffffffffffffffffffff8516600482015260240161082a565b5050505050565b612793858561305d565b61279b61306f565b6040805180820190915260058082527f312e302e300000000000000000000000000000000000000000000000000000006020830152906127db90826138f0565b50600680547fffffffffffffffffffffffffffffffffffffffffffffffffffffffffffffff0016601217905562093a806000556001818155670de0b6b3a76400006002556009805473ffffffffffffffffffffffffffffffffffffffff8086167fffffffffffffffffffffffff00000000000000000000000000000000000000009283161790925560088054928716929091169190911790556127829030908490612471565b60007fffffffff0000000000000000000000000000000000000000000000000000000082167f80ac58cd00000000000000000000000000000000000000000000000000000000148061291457507fffffffff0000000000000000000000000000000000000000000000000000000082167f5b5e139f00000000000000000000000000000000000000000000000000000000145b8061061557507f01ffc9a7000000000000000000000000000000000000000000000000000000007fffffffff00000000000000000000000000000000000000000000000000000000831614610615565b7f80bb2b638cc20bc4d0a60d66940f3ab4a00c1d7b313497ca82fb0b4ab007930081806129a6575073ffffffffffffffffffffffffffffffffffffffff831615155b15612b1a5760006129b685611b77565b905073ffffffffffffffffffffffffffffffffffffffff841615801590612a0957508373ffffffffffffffffffffffffffffffffffffffff168173ffffffffffffffffffffffffffffffffffffffff1614155b8015612a67575073ffffffffffffffffffffffffffffffffffffffff80821660009081527f80bb2b638cc20bc4d0a60d66940f3ab4a00c1d7b313497ca82fb0b4ab0079305602090815260408083209388168352929052205460ff16155b15612ab6576040517fa9fbf51f00000000000000000000000000000000000000000000000000000000815273ffffffffffffffffffffffffffffffffffffffff8516600482015260240161082a565b8215612b1857848673ffffffffffffffffffffffffffffffffffffffff168273ffffffffffffffffffffffffffffffffffffffff167f8c5be1e5ebec7d5bd14f71427d1e84f3dd0314c0f7b2291e5b200ac8c7c3b92560405160405180910390a45b505b600093845260040160205250506040902080547fffffffffffffffffffffffff00000000000000000000000000000000000000001673ffffffffffffffffffffffffffffffffffffffff92909216919091179055565b73ffffffffffffffffffffffffffffffffffffffff8216612bc0576040517f64a0ae920000000000000000000000000000000000000000000000000000000081526000600482015260240161082a565b6000612bce838360006121b5565b905073ffffffffffffffffffffffffffffffffffffffff811615610ded576040517f73c6ac6e0000000000000000000000000000000000000000000000000000000081526000600482015260240161082a565b6000600154826000015183604001518460200151612c3f919061369d565b612c499190613779565b610615919061373e565b60008281527f80bb2b638cc20bc4d0a60d66940f3ab4a00c1d7b313497ca82fb0b4ab007930260205260408120547f80bb2b638cc20bc4d0a60d66940f3ab4a00c1d7b313497ca82fb0b4ab00793009073ffffffffffffffffffffffffffffffffffffffff90811690841615612cce57612cce818587613081565b73ffffffffffffffffffffffffffffffffffffffff811615612d4657612cf8600086600080612964565b73ffffffffffffffffffffffffffffffffffffffff81166000908152600383016020526040902080547fffffffffffffffffffffffffffffffffffffffffffffffffffffffffffffffff0190555b73ffffffffffffffffffffffffffffffffffffffff861615612d915773ffffffffffffffffffffffffffffffffffffffff861660009081526003830160205260409020805460010190555b600085815260028301602052604080822080547fffffffffffffffffffffffff00000000000000000000000000000000000000001673ffffffffffffffffffffffffffffffffffffffff8a811691821790925591518893918516917fddf252ad1be2c89b69c2b068fc378daa952ba7f163c4a11628f55a4df523b3ef91a495945050505050565b7f645e039705490088daad89bae25049a34f4a9072d398537b1ab2425f24cbed006000612e4484610fab565b6000848152600184016020526040902054909150808214612ea65773ffffffffffffffffffffffffffffffffffffffff851660009081526020848152604080832085845282528083205484845281842081905583526001860190915290208190555b506000928352600182016020908152604080852085905573ffffffffffffffffffffffffffffffffffffffff9095168452918252838320908352905290812055565b7f645e039705490088daad89bae25049a34f4a9072d398537b1ab2425f24cbed02547f645e039705490088daad89bae25049a34f4a9072d398537b1ab2425f24cbed0090600090612f3b9060019061369d565b6000848152600384016020526040812054600285018054939450909284908110612f6757612f676136fc565b9060005260206000200154905080846002018381548110612f8a57612f8a6136fc565b600091825260208083209091019290925582815260038601909152604080822084905586825281205560028401805480612fc657612fc6613a0a565b600190038181906000526020600020016000905590555050505050565b7f645e039705490088daad89bae25049a34f4a9072d398537b1ab2425f24cbed006000600161301185610fab565b61301b919061369d565b73ffffffffffffffffffffffffffffffffffffffff90941660009081526020838152604080832087845282528083208690559482526001909301909252502055565b613065613131565b6107318282613198565b613077613131565b61307f6131db565b565b61308c83838361230e565b610ded5773ffffffffffffffffffffffffffffffffffffffff83166130e0576040517f7e2732890000000000000000000000000000000000000000000000000000000081526004810182905260240161082a565b6040517f177e802f00000000000000000000000000000000000000000000000000000000815273ffffffffffffffffffffffffffffffffffffffff831660048201526024810182905260440161082a565b7ff0c57e16840df040f15088dc2f81fe391c3923bec73e23a9662efc9c229c6a005468010000000000000000900460ff1661307f576040517fd7e6bcf800000000000000000000000000000000000000000000000000000000815260040160405180910390fd5b6131a0613131565b7f80bb2b638cc20bc4d0a60d66940f3ab4a00c1d7b313497ca82fb0b4ab0079300806131cc84826138f0565b5060018101610a2c83826138f0565b611f3b613131565b7fffffffff0000000000000000000000000000000000000000000000000000000081168114610d1657600080fd5b60006020828403121561322357600080fd5b8135611927816131e3565b6000815180845260005b8181101561325457602081850181015186830182015201613238565b5060006020828601015260207fffffffffffffffffffffffffffffffffffffffffffffffffffffffffffffffe0601f83011685010191505092915050565b602081526000611927602083018461322e565b6000602082840312156132b757600080fd5b5035919050565b803573ffffffffffffffffffffffffffffffffffffffff811681146132e257600080fd5b919050565b600080604083850312156132fa57600080fd5b613303836132be565b946020939093013593505050565b8015158114610d1657600080fd5b6000806000806080858703121561333557600080fd5b843593506020850135925061334c604086016132be565b9150606085013561335c81613311565b939692955090935050565b6000806040838503121561337a57600080fd5b50508035926020909101359150565b60008060006060848603121561339e57600080fd5b6133a7846132be565b92506133b5602085016132be565b9150604084013590509250925092565b6000602082840312156133d757600080fd5b611927826132be565b600080602083850312156133f357600080fd5b823567ffffffffffffffff8082111561340b57600080fd5b818501915085601f83011261341f57600080fd5b81358181111561342e57600080fd5b8660208260051b850101111561344357600080fd5b60209290920196919550909350505050565b6000806040838503121561346857600080fd5b613471836132be565b9150602083013561348181613311565b809150509250929050565b7f4e487b7100000000000000000000000000000000000000000000000000000000600052604160045260246000fd5b600080600080608085870312156134d157600080fd5b6134da856132be565b93506134e8602086016132be565b925060408501359150606085013567ffffffffffffffff8082111561350c57600080fd5b818701915087601f83011261352057600080fd5b8135818111156135325761353261348c565b604051601f82017fffffffffffffffffffffffffffffffffffffffffffffffffffffffffffffffe0908116603f011681019083821181831017156135785761357861348c565b816040528281528a602084870101111561359157600080fd5b82602086016020830137600060208483010152809550505050505092959194509250565b6000806000606084860312156135ca57600080fd5b833592506020840135915060408401356135e381613311565b809150509250925092565b6000806040838503121561360157600080fd5b61360a836132be565b9150613618602084016132be565b90509250929050565b600181811c9082168061363557607f821691505b602082108103611690577f4e487b7100000000000000000000000000000000000000000000000000000000600052602260045260246000fd5b7f4e487b7100000000000000000000000000000000000000000000000000000000600052601160045260246000fd5b818103818111156106155761061561366e565b6000602082840312156136c257600080fd5b815161192781613311565b7f4e487b7100000000000000000000000000000000000000000000000000000000600052600160045260246000fd5b7f4e487b7100000000000000000000000000000000000000000000000000000000600052603260045260246000fd5b808201808211156106155761061561366e565b600082613774577f4e487b7100000000000000000000000000000000000000000000000000000000600052601260045260246000fd5b500490565b80820281158282048414176106155761061561366e565b60007fffffffffffffffffffffffffffffffffffffffffffffffffffffffffffffffff82036137c1576137c161366e565b5060010190565b600073ffffffffffffffffffffffffffffffffffffffff808716835280861660208401525083604083015260806060830152611f31608083018461322e565b7f4e487b7100000000000000000000000000000000000000000000000000000000600052602160045260246000fd5b84815260208101849052608081016005841061387b577f4e487b7100000000000000000000000000000000000000000000000000000000600052602160045260246000fd5b60408201939093526060015292915050565b60006020828403121561389f57600080fd5b8151611927816131e3565b601f821115610ded57600081815260208120601f850160051c810160208610156138d15750805b601f850160051c820191505b818110156118de578281556001016138dd565b815167ffffffffffffffff81111561390a5761390a61348c565b61391e816139188454613621565b846138aa565b602080601f831160018114613971576000841561393b5750858301515b7fffffffffffffffffffffffffffffffffffffffffffffffffffffffffffffffff600386901b1c1916600185901b1785556118de565b6000858152602081207fffffffffffffffffffffffffffffffffffffffffffffffffffffffffffffffe08616915b828110156139be5788860151825594840194600190910190840161399f565b50858210156139fa57878501517fffffffffffffffffffffffffffffffffffffffffffffffffffffffffffffffff600388901b60f8161c191681555b5050505050600190811b01905550565b7f4e487b7100000000000000000000000000000000000000000000000000000000600052603160045260246000fdfea2646970667358221220c8a8b2b01f570c9bf511dc6483c03274fe046b60f67aa03fd8c16e11ab49fb3c64736f6c63430008140033",
  "devdoc": {
    "errors": {
      "ERC721EnumerableForbiddenBatchMint()": [
        {
          "details": "Batch mint is not allowed."
        }
      ],
      "ERC721IncorrectOwner(address,uint256,address)": [
        {
          "details": "Indicates an error related to the ownership over a particular token. Used in transfers.",
          "params": {
            "owner": "Address of the current owner of a token.",
            "sender": "Address whose tokens are being transferred.",
            "tokenId": "Identifier number of a token."
          }
        }
      ],
      "ERC721InsufficientApproval(address,uint256)": [
        {
          "details": "Indicates a failure with the `operator`s approval. Used in transfers.",
          "params": {
            "operator": "Address that may be allowed to operate on tokens without being their owner.",
            "tokenId": "Identifier number of a token."
          }
        }
      ],
      "ERC721InvalidApprover(address)": [
        {
          "details": "Indicates a failure with the `approver` of a token to be approved. Used in approvals.",
          "params": {
            "approver": "Address initiating an approval operation."
          }
        }
      ],
      "ERC721InvalidOperator(address)": [
        {
          "details": "Indicates a failure with the `operator` to be approved. Used in approvals.",
          "params": {
            "operator": "Address that may be allowed to operate on tokens without being their owner."
          }
        }
      ],
      "ERC721InvalidOwner(address)": [
        {
          "details": "Indicates that an address can't be an owner. For example, `address(0)` is a forbidden owner in EIP-20. Used in balance queries.",
          "params": {
            "owner": "Address of the current owner of a token."
          }
        }
      ],
      "ERC721InvalidReceiver(address)": [
        {
          "details": "Indicates a failure with the token `receiver`. Used in transfers.",
          "params": {
            "receiver": "Address to which tokens are being transferred."
          }
        }
      ],
      "ERC721InvalidSender(address)": [
        {
          "details": "Indicates a failure with the token `sender`. Used in transfers.",
          "params": {
            "sender": "Address whose tokens are being transferred."
          }
        }
      ],
      "ERC721NonexistentToken(uint256)": [
        {
          "details": "Indicates a `tokenId` whose `owner` is the zero address.",
          "params": {
            "tokenId": "Identifier number of a token."
          }
        }
      ],
      "ERC721OutOfBoundsIndex(address,uint256)": [
        {
          "details": "An `owner`'s token query was out of bounds for `index`. NOTE: The owner being `address(0)` indicates a global out of bounds index."
        }
      ],
      "InvalidInitialization()": [
        {
          "details": "The contract is already initialized."
        }
      ],
      "NotInitializing()": [
        {
          "details": "The contract is not initializing."
        }
      ],
      "ReentrancyGuardReentrantCall()": [
        {
          "details": "Unauthorized reentrant call."
        }
      ]
    },
    "events": {
      "Approval(address,address,uint256)": {
        "details": "Emitted when `owner` enables `approved` to manage the `tokenId` token."
      },
      "ApprovalForAll(address,address,bool)": {
        "details": "Emitted when `owner` enables or disables (`approved`) `operator` to manage all of its assets."
      },
      "Initialized(uint64)": {
        "details": "Triggered when the contract has been initialized or reinitialized."
      },
      "Transfer(address,address,uint256)": {
        "details": "Emitted when `tokenId` token is transferred from `from` to `to`."
      }
    },
    "kind": "dev",
    "methods": {
      "approve(address,uint256)": {
        "details": "See {IERC721-approve}."
      },
      "balanceOf(address)": {
        "details": "See {IERC721-balanceOf}."
      },
      "createLock(uint256,uint256,bool)": {
        "params": {
          "_lockDuration": "Number of seconds to lock tokens for (rounded down to nearest week)",
          "_stakeNFT": "Should we also stake the NFT as well?",
          "_value": "Amount to deposit"
        }
      },
      "createLockFor(uint256,uint256,address,bool)": {
        "params": {
          "_lockDuration": "Number of seconds to lock tokens for (rounded down to nearest week)",
          "_to": "Address to deposit",
          "_value": "Amount to deposit"
        }
      },
      "depositFor(uint256,uint256)": {
        "details": "Anyone (even a smart contract) can deposit for someone else, but      cannot extend their locktime and deposit for a brand new user",
        "params": {
          "_tokenId": "lock NFT",
          "_value": "Amount to add to user's lock"
        }
      },
      "getApproved(uint256)": {
        "details": "See {IERC721-getApproved}."
      },
      "increaseAmount(uint256,uint256)": {
        "params": {
          "_value": "Amount of tokens to deposit and add to the lock"
        }
      },
      "increaseUnlockTime(uint256,uint256)": {
        "params": {
          "_lockDuration": "New number of seconds until tokens unlock"
        }
      },
      "isApprovedForAll(address,address)": {
        "details": "See {IERC721-isApprovedForAll}."
      },
      "lockedEnd(uint256)": {
        "params": {
          "_tokenId": "User NFT"
        },
        "returns": {
          "_0": "Epoch time of the lock end"
        }
      },
      "name()": {
        "details": "See {IERC721Metadata-name}."
      },
      "ownerOf(uint256)": {
        "details": "See {IERC721-ownerOf}."
      },
      "safeTransferFrom(address,address,uint256)": {
        "details": "See {IERC721-safeTransferFrom}."
      },
      "safeTransferFrom(address,address,uint256,bytes)": {
        "details": "See {IERC721-safeTransferFrom}."
      },
      "setApprovalForAll(address,bool)": {
        "details": "See {IERC721-setApprovalForAll}."
      },
      "supportsInterface(bytes4)": {
        "details": "Interface identification is specified in ERC-165.",
        "params": {
          "_interfaceID": "Id of the interface"
        }
      },
      "symbol()": {
        "details": "See {IERC721Metadata-symbol}."
      },
      "tokenByIndex(uint256)": {
        "details": "See {IERC721Enumerable-tokenByIndex}."
      },
      "tokenOfOwnerByIndex(address,uint256)": {
        "details": "See {IERC721Enumerable-tokenOfOwnerByIndex}."
      },
      "totalSupply()": {
        "details": "See {IERC721Enumerable-totalSupply}."
      },
      "transferFrom(address,address,uint256)": {
        "details": "See {IERC721-transferFrom}."
      },
      "votingPowerOf(address)": {
        "details": "Returns the voting power of the `_owner`.      Throws if `_owner` is the zero address. NFTs assigned to the zero address are considered invalid.",
        "params": {
          "_owner": "Address for whom to query the voting power of."
        }
      },
      "withdraw(uint256)": {
        "details": "Only possible if the lock has expired"
      }
    },
    "version": 1
  },
  "userdoc": {
    "kind": "user",
    "methods": {
      "createLock(uint256,uint256,bool)": {
        "notice": "Deposit `_value` tokens for `msg.sender` and lock for `_lockDuration`"
      },
      "createLockFor(uint256,uint256,address,bool)": {
        "notice": "Deposit `_value` tokens for `_to` and lock for `_lockDuration`"
      },
      "depositFor(uint256,uint256)": {
        "notice": "Deposit `_value` tokens for `_tokenId` and add to the lock"
      },
      "increaseAmount(uint256,uint256)": {
        "notice": "Deposit `_value` additional tokens for `_tokenId` without modifying the unlock time"
      },
      "increaseUnlockTime(uint256,uint256)": {
        "notice": "Extend the unlock time for `_tokenId`"
      },
      "lockedEnd(uint256)": {
        "notice": "Get timestamp when `_tokenId`'s lock finishes"
      },
      "withdraw(uint256)": {
        "notice": "Withdraw all tokens for `_tokenId`"
      }
    },
    "version": 1
  },
  "storageLayout": {
    "storage": [
      {
        "astId": 12464,
        "contract": "contracts/locker/LockerLP.sol:LockerLP",
        "label": "WEEK",
        "offset": 0,
        "slot": "0",
        "type": "t_uint256"
      },
      {
        "astId": 12466,
        "contract": "contracts/locker/LockerLP.sol:LockerLP",
        "label": "MAXTIME",
        "offset": 0,
        "slot": "1",
        "type": "t_uint256"
      },
      {
        "astId": 12468,
        "contract": "contracts/locker/LockerLP.sol:LockerLP",
        "label": "MULTIPLIER",
        "offset": 0,
        "slot": "2",
        "type": "t_uint256"
      },
      {
        "astId": 12470,
        "contract": "contracts/locker/LockerLP.sol:LockerLP",
        "label": "supply",
        "offset": 0,
        "slot": "3",
        "type": "t_uint256"
      },
      {
        "astId": 12475,
        "contract": "contracts/locker/LockerLP.sol:LockerLP",
        "label": "locked",
        "offset": 0,
        "slot": "4",
        "type": "t_mapping(t_uint256,t_struct(LockedBalance)12392_storage)"
      },
      {
        "astId": 12477,
        "contract": "contracts/locker/LockerLP.sol:LockerLP",
        "label": "version",
        "offset": 0,
        "slot": "5",
        "type": "t_string_storage"
      },
      {
        "astId": 12479,
        "contract": "contracts/locker/LockerLP.sol:LockerLP",
        "label": "decimals",
        "offset": 0,
        "slot": "6",
        "type": "t_uint8"
      },
      {
        "astId": 12482,
        "contract": "contracts/locker/LockerLP.sol:LockerLP",
        "label": "tokenId",
        "offset": 0,
        "slot": "7",
        "type": "t_uint256"
      },
      {
        "astId": 12485,
        "contract": "contracts/locker/LockerLP.sol:LockerLP",
        "label": "underlying",
        "offset": 0,
        "slot": "8",
        "type": "t_contract(IERC20)5359"
      },
      {
        "astId": 12488,
        "contract": "contracts/locker/LockerLP.sol:LockerLP",
        "label": "staking",
        "offset": 0,
        "slot": "9",
        "type": "t_contract(IOmnichainStaking)11894"
      }
    ],
    "types": {
      "t_contract(IERC20)5359": {
        "encoding": "inplace",
        "label": "contract IERC20",
        "numberOfBytes": "20"
      },
      "t_contract(IOmnichainStaking)11894": {
        "encoding": "inplace",
        "label": "contract IOmnichainStaking",
        "numberOfBytes": "20"
      },
      "t_mapping(t_uint256,t_struct(LockedBalance)12392_storage)": {
        "encoding": "mapping",
        "key": "t_uint256",
        "label": "mapping(uint256 => struct IZeroLocker.LockedBalance)",
        "numberOfBytes": "32",
        "value": "t_struct(LockedBalance)12392_storage"
      },
      "t_string_storage": {
        "encoding": "bytes",
        "label": "string",
        "numberOfBytes": "32"
      },
      "t_struct(LockedBalance)12392_storage": {
        "encoding": "inplace",
        "label": "struct IZeroLocker.LockedBalance",
        "members": [
          {
            "astId": 12385,
            "contract": "contracts/locker/LockerLP.sol:LockerLP",
            "label": "amount",
            "offset": 0,
            "slot": "0",
            "type": "t_uint256"
          },
          {
            "astId": 12387,
            "contract": "contracts/locker/LockerLP.sol:LockerLP",
            "label": "end",
            "offset": 0,
            "slot": "1",
            "type": "t_uint256"
          },
          {
            "astId": 12389,
            "contract": "contracts/locker/LockerLP.sol:LockerLP",
            "label": "start",
            "offset": 0,
            "slot": "2",
            "type": "t_uint256"
          },
          {
            "astId": 12391,
            "contract": "contracts/locker/LockerLP.sol:LockerLP",
            "label": "power",
            "offset": 0,
            "slot": "3",
            "type": "t_uint256"
          }
        ],
        "numberOfBytes": "128"
      },
      "t_uint256": {
        "encoding": "inplace",
        "label": "uint256",
        "numberOfBytes": "32"
      },
      "t_uint8": {
        "encoding": "inplace",
        "label": "uint8",
        "numberOfBytes": "1"
      }
    }
  }
}