{
  "address": "0x303598dddebB8A48CE0132b3Ba6c2fDC14986647",
  "abi": [
    {
      "inputs": [
        {
          "internalType": "address",
          "name": "_nileAMM",
          "type": "address"
        },
        {
          "internalType": "address",
          "name": "_zeroPriceFeed",
          "type": "address"
        },
        {
          "internalType": "address",
          "name": "_ethPriceFeed",
          "type": "address"
        }
      ],
      "stateMutability": "nonpayable",
      "type": "constructor"
    },
    {
      "inputs": [],
      "name": "ethPriceFeed",
      "outputs": [
        {
          "internalType": "contract IPythAggregatorV3",
          "name": "",
          "type": "address"
        }
      ],
      "stateMutability": "view",
      "type": "function"
    },
    {
      "inputs": [],
      "name": "getPrice",
      "outputs": [
        {
          "internalType": "uint256",
          "name": "price",
          "type": "uint256"
        }
      ],
      "stateMutability": "view",
      "type": "function"
    },
    {
      "inputs": [],
      "name": "nileAMM",
      "outputs": [
        {
          "internalType": "contract INileAMM",
          "name": "",
          "type": "address"
        }
      ],
      "stateMutability": "view",
      "type": "function"
    },
    {
      "inputs": [
        {
          "internalType": "uint256",
          "name": "x",
          "type": "uint256"
        }
      ],
      "name": "sqrt",
      "outputs": [
        {
          "internalType": "uint256",
          "name": "y",
          "type": "uint256"
        }
      ],
      "stateMutability": "pure",
      "type": "function"
    },
    {
      "inputs": [],
      "name": "zeroPriceFeed",
      "outputs": [
        {
          "internalType": "contract IPythAggregatorV3",
          "name": "",
          "type": "address"
        }
      ],
      "stateMutability": "view",
      "type": "function"
    }
  ],
  "transactionHash": "0x1bc15b039ee605790e25e8d21c07762c1839a5eaa5db9d4d59fe1c70d8472246",
  "args": [
    "0x0040F36784dDA0821E74BA67f86E084D70d67a3A",
    "0x130cc6e0301B58ab46504fb6F83BEE97Eb733054",
    "0x3c6Cd9Cc7c7a4c2Cf5a82734CD249D7D593354dA"
  ],
  "numDeployments": 1,
  "solcInputHash": "29723ad90cd56cc264b45c3cd9ddc651",
  "bytecode": "0x60e060405234801561001057600080fd5b5060405161074238038061074283398101604081905261002f91610068565b6001600160a01b0392831660805290821660a0521660c0526100ab565b80516001600160a01b038116811461006357600080fd5b919050565b60008060006060848603121561007d57600080fd5b6100868461004c565b92506100946020850161004c565b91506100a26040850161004c565b90509250925092565b60805160a05160c05161064e6100f46000396000818161011201526102ce0152600081816097015261023b01526000818160e3015281816101a501526103db015261064e6000f3fe608060405234801561001057600080fd5b50600436106100675760003560e01c806391ce579c1161005057806391ce579c146100de57806398d5fdca14610105578063af7665ce1461010d57600080fd5b8063677342ce1461006c57806389e402f114610092575b600080fd5b61007f61007a3660046104d2565b610134565b6040519081526020015b60405180910390f35b6100b97f000000000000000000000000000000000000000000000000000000000000000081565b60405173ffffffffffffffffffffffffffffffffffffffff9091168152602001610089565b6100b97f000000000000000000000000000000000000000000000000000000000000000081565b61007f61019e565b6100b97f000000000000000000000000000000000000000000000000000000000000000081565b60008160000361014657506000919050565b6000600261015584600161051a565b61015f9190610533565b90508291505b818110156101985790508060028161017d8186610533565b610187919061051a565b6101919190610533565b9050610165565b50919050565b60008060007f000000000000000000000000000000000000000000000000000000000000000073ffffffffffffffffffffffffffffffffffffffff16630902f1ac6040518163ffffffff1660e01b8152600401606060405180830381865afa15801561020e573d6000803e3d6000fd5b505050506040513d601f19601f82011682018060405250810190610232919061056e565b509150915060007f000000000000000000000000000000000000000000000000000000000000000073ffffffffffffffffffffffffffffffffffffffff166350d25bcd6040518163ffffffff1660e01b8152600401602060405180830381865afa1580156102a4573d6000803e3d6000fd5b505050506040513d601f19601f820116820180604052508101906102c8919061059c565b905060007f000000000000000000000000000000000000000000000000000000000000000073ffffffffffffffffffffffffffffffffffffffff166350d25bcd6040518163ffffffff1660e01b8152600401602060405180830381865afa158015610337573d6000803e3d6000fd5b505050506040513d601f19601f8201168201806040525081019061035b919061059c565b905060008213801561036d5750600081135b6103d7576040517f08c379a000000000000000000000000000000000000000000000000000000000815260206004820152600d60248201527f496e76616c696420507269636500000000000000000000000000000000000000604482015260640160405180910390fd5b60007f000000000000000000000000000000000000000000000000000000000000000073ffffffffffffffffffffffffffffffffffffffff166318160ddd6040518163ffffffff1660e01b8152600401602060405180830381865afa158015610444573d6000803e3d6000fd5b505050506040513d601f19601f82011682018060405250810190610468919061059c565b61047561007a86886105b5565b61048790670de0b6b3a76400006105b5565b6104919190610533565b9050670de0b6b3a76400006104a961007a84866105cc565b6104b48360026105b5565b6104be91906105b5565b6104c89190610533565b9550505050505090565b6000602082840312156104e457600080fd5b5035919050565b7f4e487b7100000000000000000000000000000000000000000000000000000000600052601160045260246000fd5b8082018082111561052d5761052d6104eb565b92915050565b600082610569577f4e487b7100000000000000000000000000000000000000000000000000000000600052601260045260246000fd5b500490565b60008060006060848603121561058357600080fd5b8351925060208401519150604084015190509250925092565b6000602082840312156105ae57600080fd5b5051919050565b808202811582820484141761052d5761052d6104eb565b808202600082127f800000000000000000000000000000000000000000000000000000000000000084141615610604576106046104eb565b818105831482151761052d5761052d6104eb56fea2646970667358221220625cce5e544166c2b790ff25bdccda94b56b789584aee526a72986c8bba2ef6264736f6c63430008140033",
  "devdoc": {
    "details": "This contract interacts with the INileAMM interface to fetch reserves and calculate prices.",
    "kind": "dev",
    "methods": {
      "constructor": {
        "params": {
          "_nileAMM": "The address of the Nile AMM contract."
        }
      },
      "getPrice()": {
        "details": "This function fetches reserves from the Nile AMM and uses a pre-defined price for tokens to calculate the LP token price.",
        "returns": {
          "price": "The price of the liquidity pool token."
        }
      },
      "sqrt(uint256)": {
        "details": "This function uses an iterative method to compute the square root of a number.",
        "params": {
          "x": "The number to compute the square root of."
        },
        "returns": {
          "y": "The square root of the given number."
        }
      }
    },
    "title": "LPOracle",
    "version": 1
  },
  "userdoc": {
    "kind": "user",
    "methods": {
      "constructor": {
        "notice": "Constructor sets the address of the Nile AMM contract."
      },
      "getPrice()": {
        "notice": "Gets the price of the liquidity pool token."
      },
      "sqrt(uint256)": {
        "notice": "Computes the square root of a given number using the Babylonian method."
      }
    },
    "notice": "This contract provides a price oracle for the liquidity pool tokens in a Nile AMM.",
    "version": 1
  },
  "storageLayout": {
    "storage": [],
    "types": null
  }
}