{
  "address": "0x4435e83A28a293b4209A11CBDDb61CdFc844188E",
  "abi": [
    {
      "inputs": [],
      "name": "CheckpointUnorderedInsertion",
      "type": "error"
    },
    {
      "inputs": [],
      "name": "ECDSAInvalidSignature",
      "type": "error"
    },
    {
      "inputs": [
        {
          "internalType": "uint256",
          "name": "length",
          "type": "uint256"
        }
      ],
      "name": "ECDSAInvalidSignatureLength",
      "type": "error"
    },
    {
      "inputs": [
        {
          "internalType": "bytes32",
          "name": "s",
          "type": "bytes32"
        }
      ],
      "name": "ECDSAInvalidSignatureS",
      "type": "error"
    },
    {
      "inputs": [
        {
          "internalType": "uint256",
          "name": "increasedSupply",
          "type": "uint256"
        },
        {
          "internalType": "uint256",
          "name": "cap",
          "type": "uint256"
        }
      ],
      "name": "ERC20ExceededSafeSupply",
      "type": "error"
    },
    {
      "inputs": [
        {
          "internalType": "address",
          "name": "spender",
          "type": "address"
        },
        {
          "internalType": "uint256",
          "name": "allowance",
          "type": "uint256"
        },
        {
          "internalType": "uint256",
          "name": "needed",
          "type": "uint256"
        }
      ],
      "name": "ERC20InsufficientAllowance",
      "type": "error"
    },
    {
      "inputs": [
        {
          "internalType": "address",
          "name": "sender",
          "type": "address"
        },
        {
          "internalType": "uint256",
          "name": "balance",
          "type": "uint256"
        },
        {
          "internalType": "uint256",
          "name": "needed",
          "type": "uint256"
        }
      ],
      "name": "ERC20InsufficientBalance",
      "type": "error"
    },
    {
      "inputs": [
        {
          "internalType": "address",
          "name": "approver",
          "type": "address"
        }
      ],
      "name": "ERC20InvalidApprover",
      "type": "error"
    },
    {
      "inputs": [
        {
          "internalType": "address",
          "name": "receiver",
          "type": "address"
        }
      ],
      "name": "ERC20InvalidReceiver",
      "type": "error"
    },
    {
      "inputs": [
        {
          "internalType": "address",
          "name": "sender",
          "type": "address"
        }
      ],
      "name": "ERC20InvalidSender",
      "type": "error"
    },
    {
      "inputs": [
        {
          "internalType": "address",
          "name": "spender",
          "type": "address"
        }
      ],
      "name": "ERC20InvalidSpender",
      "type": "error"
    },
    {
      "inputs": [
        {
          "internalType": "uint256",
          "name": "timepoint",
          "type": "uint256"
        },
        {
          "internalType": "uint48",
          "name": "clock",
          "type": "uint48"
        }
      ],
      "name": "ERC5805FutureLookup",
      "type": "error"
    },
    {
      "inputs": [],
      "name": "ERC6372InconsistentClock",
      "type": "error"
    },
    {
      "inputs": [
        {
          "internalType": "address",
          "name": "account",
          "type": "address"
        },
        {
          "internalType": "uint256",
          "name": "currentNonce",
          "type": "uint256"
        }
      ],
      "name": "InvalidAccountNonce",
      "type": "error"
    },
    {
      "inputs": [],
      "name": "InvalidInitialization",
      "type": "error"
    },
    {
      "inputs": [
        {
          "internalType": "address",
          "name": "",
          "type": "address"
        },
        {
          "internalType": "address",
          "name": "",
          "type": "address"
        }
      ],
      "name": "InvalidUnstaker",
      "type": "error"
    },
    {
      "inputs": [],
      "name": "NotInitializing",
      "type": "error"
    },
    {
      "inputs": [
        {
          "internalType": "address",
          "name": "owner",
          "type": "address"
        }
      ],
      "name": "OwnableInvalidOwner",
      "type": "error"
    },
    {
      "inputs": [
        {
          "internalType": "address",
          "name": "account",
          "type": "address"
        }
      ],
      "name": "OwnableUnauthorizedAccount",
      "type": "error"
    },
    {
      "inputs": [],
      "name": "ReentrancyGuardReentrantCall",
      "type": "error"
    },
    {
      "inputs": [
        {
          "internalType": "uint8",
          "name": "bits",
          "type": "uint8"
        },
        {
          "internalType": "uint256",
          "name": "value",
          "type": "uint256"
        }
      ],
      "name": "SafeCastOverflowedUintDowncast",
      "type": "error"
    },
    {
      "inputs": [
        {
          "internalType": "uint256",
          "name": "expiry",
          "type": "uint256"
        }
      ],
      "name": "VotesExpiredSignature",
      "type": "error"
    },
    {
      "anonymous": false,
      "inputs": [
        {
          "indexed": true,
          "internalType": "address",
          "name": "owner",
          "type": "address"
        },
        {
          "indexed": true,
          "internalType": "address",
          "name": "spender",
          "type": "address"
        },
        {
          "indexed": false,
          "internalType": "uint256",
          "name": "value",
          "type": "uint256"
        }
      ],
      "name": "Approval",
      "type": "event"
    },
    {
      "anonymous": false,
      "inputs": [
        {
          "indexed": true,
          "internalType": "address",
          "name": "delegator",
          "type": "address"
        },
        {
          "indexed": true,
          "internalType": "address",
          "name": "fromDelegate",
          "type": "address"
        },
        {
          "indexed": true,
          "internalType": "address",
          "name": "toDelegate",
          "type": "address"
        }
      ],
      "name": "DelegateChanged",
      "type": "event"
    },
    {
      "anonymous": false,
      "inputs": [
        {
          "indexed": true,
          "internalType": "address",
          "name": "delegate",
          "type": "address"
        },
        {
          "indexed": false,
          "internalType": "uint256",
          "name": "previousVotes",
          "type": "uint256"
        },
        {
          "indexed": false,
          "internalType": "uint256",
          "name": "newVotes",
          "type": "uint256"
        }
      ],
      "name": "DelegateVotesChanged",
      "type": "event"
    },
    {
      "anonymous": false,
      "inputs": [],
      "name": "EIP712DomainChanged",
      "type": "event"
    },
    {
      "anonymous": false,
      "inputs": [
        {
          "indexed": false,
          "internalType": "uint64",
          "name": "version",
          "type": "uint64"
        }
      ],
      "name": "Initialized",
      "type": "event"
    },
    {
      "anonymous": false,
      "inputs": [
        {
          "indexed": true,
          "internalType": "address",
          "name": "oldLpOracle",
          "type": "address"
        },
        {
          "indexed": true,
          "internalType": "address",
          "name": "newLpOracle",
          "type": "address"
        }
      ],
      "name": "LpOracleSet",
      "type": "event"
    },
    {
      "anonymous": false,
      "inputs": [
        {
          "indexed": true,
          "internalType": "address",
          "name": "previousOwner",
          "type": "address"
        },
        {
          "indexed": true,
          "internalType": "address",
          "name": "newOwner",
          "type": "address"
        }
      ],
      "name": "OwnershipTransferred",
      "type": "event"
    },
    {
      "anonymous": false,
      "inputs": [
        {
          "indexed": false,
          "internalType": "address",
          "name": "previousVoter",
          "type": "address"
        },
        {
          "indexed": false,
          "internalType": "address",
          "name": "_poolVoter",
          "type": "address"
        }
      ],
      "name": "PoolVoterUpdated",
      "type": "event"
    },
    {
      "anonymous": false,
      "inputs": [
        {
          "indexed": false,
          "internalType": "address",
          "name": "token",
          "type": "address"
        },
        {
          "indexed": false,
          "internalType": "uint256",
          "name": "amount",
          "type": "uint256"
        }
      ],
      "name": "Recovered",
      "type": "event"
    },
    {
      "anonymous": false,
      "inputs": [
        {
          "indexed": false,
          "internalType": "uint256",
          "name": "reward",
          "type": "uint256"
        }
      ],
      "name": "RewardAdded",
      "type": "event"
    },
    {
      "anonymous": false,
      "inputs": [
        {
          "indexed": true,
          "internalType": "address",
          "name": "user",
          "type": "address"
        },
        {
          "indexed": false,
          "internalType": "uint256",
          "name": "reward",
          "type": "uint256"
        }
      ],
      "name": "RewardPaid",
      "type": "event"
    },
    {
      "anonymous": false,
      "inputs": [
        {
          "indexed": false,
          "internalType": "uint256",
          "name": "newDuration",
          "type": "uint256"
        }
      ],
      "name": "RewardsDurationUpdated",
      "type": "event"
    },
    {
      "anonymous": false,
      "inputs": [
        {
          "indexed": false,
          "internalType": "address",
          "name": "previousToken",
          "type": "address"
        },
        {
          "indexed": false,
          "internalType": "address",
          "name": "_zeroToken",
          "type": "address"
        }
      ],
      "name": "RewardsTokenUpdated",
      "type": "event"
    },
    {
      "anonymous": false,
      "inputs": [
        {
          "indexed": false,
          "internalType": "address",
          "name": "previousLocker",
          "type": "address"
        },
        {
          "indexed": false,
          "internalType": "address",
          "name": "_tokenLocker",
          "type": "address"
        }
      ],
      "name": "TokenLockerUpdated",
      "type": "event"
    },
    {
      "anonymous": false,
      "inputs": [
        {
          "indexed": true,
          "internalType": "address",
          "name": "from",
          "type": "address"
        },
        {
          "indexed": true,
          "internalType": "address",
          "name": "to",
          "type": "address"
        },
        {
          "indexed": false,
          "internalType": "uint256",
          "name": "value",
          "type": "uint256"
        }
      ],
      "name": "Transfer",
      "type": "event"
    },
    {
      "anonymous": false,
      "inputs": [
        {
          "indexed": true,
          "internalType": "address",
          "name": "oldZeroAggregator",
          "type": "address"
        },
        {
          "indexed": true,
          "internalType": "address",
          "name": "newZeroAggregator",
          "type": "address"
        }
      ],
      "name": "ZeroAggregatorSet",
      "type": "event"
    },
    {
      "inputs": [],
      "name": "CLOCK_MODE",
      "outputs": [
        {
          "internalType": "string",
          "name": "",
          "type": "string"
        }
      ],
      "stateMutability": "view",
      "type": "function"
    },
    {
      "inputs": [
        {
          "internalType": "address",
          "name": "owner",
          "type": "address"
        },
        {
          "internalType": "address",
          "name": "spender",
          "type": "address"
        }
      ],
      "name": "allowance",
      "outputs": [
        {
          "internalType": "uint256",
          "name": "",
          "type": "uint256"
        }
      ],
      "stateMutability": "view",
      "type": "function"
    },
    {
      "inputs": [
        {
          "internalType": "address",
          "name": "spender",
          "type": "address"
        },
        {
          "internalType": "uint256",
          "name": "value",
          "type": "uint256"
        }
      ],
      "name": "approve",
      "outputs": [
        {
          "internalType": "bool",
          "name": "",
          "type": "bool"
        }
      ],
      "stateMutability": "nonpayable",
      "type": "function"
    },
    {
      "inputs": [
        {
          "internalType": "address",
          "name": "account",
          "type": "address"
        }
      ],
      "name": "balanceOf",
      "outputs": [
        {
          "internalType": "uint256",
          "name": "",
          "type": "uint256"
        }
      ],
      "stateMutability": "view",
      "type": "function"
    },
    {
      "inputs": [
        {
          "internalType": "address",
          "name": "account",
          "type": "address"
        },
        {
          "internalType": "uint32",
          "name": "pos",
          "type": "uint32"
        }
      ],
      "name": "checkpoints",
      "outputs": [
        {
          "components": [
            {
              "internalType": "uint48",
              "name": "_key",
              "type": "uint48"
            },
            {
              "internalType": "uint208",
              "name": "_value",
              "type": "uint208"
            }
          ],
          "internalType": "struct Checkpoints.Checkpoint208",
          "name": "",
          "type": "tuple"
        }
      ],
      "stateMutability": "view",
      "type": "function"
    },
    {
      "inputs": [],
      "name": "clock",
      "outputs": [
        {
          "internalType": "uint48",
          "name": "",
          "type": "uint48"
        }
      ],
      "stateMutability": "view",
      "type": "function"
    },
    {
      "inputs": [],
      "name": "decimals",
      "outputs": [
        {
          "internalType": "uint8",
          "name": "",
          "type": "uint8"
        }
      ],
      "stateMutability": "view",
      "type": "function"
    },
    {
      "inputs": [
        {
          "internalType": "address",
          "name": "delegatee",
          "type": "address"
        }
      ],
      "name": "delegate",
      "outputs": [],
      "stateMutability": "nonpayable",
      "type": "function"
    },
    {
      "inputs": [
        {
          "internalType": "address",
          "name": "delegatee",
          "type": "address"
        },
        {
          "internalType": "uint256",
          "name": "nonce",
          "type": "uint256"
        },
        {
          "internalType": "uint256",
          "name": "expiry",
          "type": "uint256"
        },
        {
          "internalType": "uint8",
          "name": "v",
          "type": "uint8"
        },
        {
          "internalType": "bytes32",
          "name": "r",
          "type": "bytes32"
        },
        {
          "internalType": "bytes32",
          "name": "s",
          "type": "bytes32"
        }
      ],
      "name": "delegateBySig",
      "outputs": [],
      "stateMutability": "nonpayable",
      "type": "function"
    },
    {
      "inputs": [
        {
          "internalType": "address",
          "name": "account",
          "type": "address"
        }
      ],
      "name": "delegates",
      "outputs": [
        {
          "internalType": "address",
          "name": "",
          "type": "address"
        }
      ],
      "stateMutability": "view",
      "type": "function"
    },
    {
      "inputs": [
        {
          "internalType": "uint256",
          "name": "chainId",
          "type": "uint256"
        },
        {
          "internalType": "uint256",
          "name": "tokenId",
          "type": "uint256"
        }
      ],
      "name": "deletePowerOnChain",
      "outputs": [],
      "stateMutability": "nonpayable",
      "type": "function"
    },
    {
      "inputs": [
        {
          "internalType": "address",
          "name": "account",
          "type": "address"
        }
      ],
      "name": "earned",
      "outputs": [
        {
          "internalType": "uint256",
          "name": "",
          "type": "uint256"
        }
      ],
      "stateMutability": "view",
      "type": "function"
    },
    {
      "inputs": [],
      "name": "eip712Domain",
      "outputs": [
        {
          "internalType": "bytes1",
          "name": "fields",
          "type": "bytes1"
        },
        {
          "internalType": "string",
          "name": "name",
          "type": "string"
        },
        {
          "internalType": "string",
          "name": "version",
          "type": "string"
        },
        {
          "internalType": "uint256",
          "name": "chainId",
          "type": "uint256"
        },
        {
          "internalType": "address",
          "name": "verifyingContract",
          "type": "address"
        },
        {
          "internalType": "bytes32",
          "name": "salt",
          "type": "bytes32"
        },
        {
          "internalType": "uint256[]",
          "name": "extensions",
          "type": "uint256[]"
        }
      ],
      "stateMutability": "view",
      "type": "function"
    },
    {
      "inputs": [
        {
          "internalType": "address",
          "name": "_user",
          "type": "address"
        }
      ],
      "name": "getLockedNftDetails",
      "outputs": [
        {
          "internalType": "uint256[]",
          "name": "",
          "type": "uint256[]"
        },
        {
          "components": [
            {
              "internalType": "uint256",
              "name": "amount",
              "type": "uint256"
            },
            {
              "internalType": "uint256",
              "name": "end",
              "type": "uint256"
            },
            {
              "internalType": "uint256",
              "name": "start",
              "type": "uint256"
            },
            {
              "internalType": "uint256",
              "name": "power",
              "type": "uint256"
            }
          ],
          "internalType": "struct ILocker.LockedBalance[]",
          "name": "",
          "type": "tuple[]"
        }
      ],
      "stateMutability": "view",
      "type": "function"
    },
    {
      "inputs": [
        {
          "internalType": "uint256",
          "name": "timepoint",
          "type": "uint256"
        }
      ],
      "name": "getPastTotalSupply",
      "outputs": [
        {
          "internalType": "uint256",
          "name": "",
          "type": "uint256"
        }
      ],
      "stateMutability": "view",
      "type": "function"
    },
    {
      "inputs": [
        {
          "internalType": "address",
          "name": "account",
          "type": "address"
        },
        {
          "internalType": "uint256",
          "name": "timepoint",
          "type": "uint256"
        }
      ],
      "name": "getPastVotes",
      "outputs": [
        {
          "internalType": "uint256",
          "name": "",
          "type": "uint256"
        }
      ],
      "stateMutability": "view",
      "type": "function"
    },
    {
      "inputs": [],
      "name": "getReward",
      "outputs": [],
      "stateMutability": "nonpayable",
      "type": "function"
    },
    {
      "inputs": [
        {
          "internalType": "uint256",
          "name": "amount",
          "type": "uint256"
        }
      ],
      "name": "getTokenPower",
      "outputs": [
        {
          "internalType": "uint256",
          "name": "power",
          "type": "uint256"
        }
      ],
      "stateMutability": "view",
      "type": "function"
    },
    {
      "inputs": [
        {
          "internalType": "address",
          "name": "account",
          "type": "address"
        }
      ],
      "name": "getVotes",
      "outputs": [
        {
          "internalType": "uint256",
          "name": "",
          "type": "uint256"
        }
      ],
      "stateMutability": "view",
      "type": "function"
    },
    {
      "inputs": [
        {
          "internalType": "uint256",
          "name": "tokenId",
          "type": "uint256"
        },
        {
          "internalType": "uint256",
          "name": "newLockAmount",
          "type": "uint256"
        }
      ],
      "name": "increaseLockAmount",
      "outputs": [],
      "stateMutability": "nonpayable",
      "type": "function"
    },
    {
      "inputs": [
        {
          "internalType": "uint256",
          "name": "tokenId",
          "type": "uint256"
        },
        {
          "internalType": "uint256",
          "name": "newLockDuration",
          "type": "uint256"
        }
      ],
      "name": "increaseLockDuration",
      "outputs": [],
      "stateMutability": "nonpayable",
      "type": "function"
    },
    {
      "inputs": [
        {
          "internalType": "address",
          "name": "_locker",
          "type": "address"
        },
        {
          "internalType": "address",
          "name": "_zeroToken",
          "type": "address"
        },
        {
          "internalType": "address",
          "name": "_poolVoter",
          "type": "address"
        },
        {
          "internalType": "uint256",
          "name": "_rewardsDuration",
          "type": "uint256"
        },
        {
          "internalType": "address",
          "name": "_lpOracle",
          "type": "address"
        },
        {
          "internalType": "address",
          "name": "_zeroPythAggregator",
          "type": "address"
        }
      ],
      "name": "init",
      "outputs": [],
      "stateMutability": "nonpayable",
      "type": "function"
    },
    {
      "inputs": [],
      "name": "lastTimeRewardApplicable",
      "outputs": [
        {
          "internalType": "uint256",
          "name": "",
          "type": "uint256"
        }
      ],
      "stateMutability": "view",
      "type": "function"
    },
    {
      "inputs": [],
      "name": "lastUpdateTime",
      "outputs": [
        {
          "internalType": "uint256",
          "name": "",
          "type": "uint256"
        }
      ],
      "stateMutability": "view",
      "type": "function"
    },
    {
      "inputs": [
        {
          "internalType": "uint256",
          "name": "",
          "type": "uint256"
        }
      ],
      "name": "lockedByToken",
      "outputs": [
        {
          "internalType": "address",
          "name": "",
          "type": "address"
        }
      ],
      "stateMutability": "view",
      "type": "function"
    },
    {
      "inputs": [
        {
          "internalType": "address",
          "name": "",
          "type": "address"
        },
        {
          "internalType": "uint256",
          "name": "",
          "type": "uint256"
        }
      ],
      "name": "lockedTokenIdNfts",
      "outputs": [
        {
          "internalType": "uint256",
          "name": "",
          "type": "uint256"
        }
      ],
      "stateMutability": "view",
      "type": "function"
    },
    {
      "inputs": [],
      "name": "locker",
      "outputs": [
        {
          "internalType": "contract ILocker",
          "name": "",
          "type": "address"
        }
      ],
      "stateMutability": "view",
      "type": "function"
    },
    {
      "inputs": [],
      "name": "lpOracle",
      "outputs": [
        {
          "internalType": "contract ILPOracle",
          "name": "",
          "type": "address"
        }
      ],
      "stateMutability": "view",
      "type": "function"
    },
    {
      "inputs": [
        {
          "internalType": "uint256",
          "name": "",
          "type": "uint256"
        }
      ],
      "name": "lpPower",
      "outputs": [
        {
          "internalType": "uint256",
          "name": "",
          "type": "uint256"
        }
      ],
      "stateMutability": "view",
      "type": "function"
    },
    {
      "inputs": [],
      "name": "name",
      "outputs": [
        {
          "internalType": "string",
          "name": "",
          "type": "string"
        }
      ],
      "stateMutability": "view",
      "type": "function"
    },
    {
      "inputs": [
        {
          "internalType": "address",
          "name": "owner",
          "type": "address"
        }
      ],
      "name": "nonces",
      "outputs": [
        {
          "internalType": "uint256",
          "name": "",
          "type": "uint256"
        }
      ],
      "stateMutability": "view",
      "type": "function"
    },
    {
      "inputs": [
        {
          "internalType": "uint256",
          "name": "reward",
          "type": "uint256"
        }
      ],
      "name": "notifyRewardAmount",
      "outputs": [],
      "stateMutability": "nonpayable",
      "type": "function"
    },
    {
      "inputs": [
        {
          "internalType": "address",
          "name": "account",
          "type": "address"
        }
      ],
      "name": "numCheckpoints",
      "outputs": [
        {
          "internalType": "uint32",
          "name": "",
          "type": "uint32"
        }
      ],
      "stateMutability": "view",
      "type": "function"
    },
    {
      "inputs": [
        {
          "internalType": "address",
          "name": "to",
          "type": "address"
        },
        {
          "internalType": "address",
          "name": "from",
          "type": "address"
        },
        {
          "internalType": "uint256",
          "name": "tokenId",
          "type": "uint256"
        },
        {
          "internalType": "bytes",
          "name": "data",
          "type": "bytes"
        }
      ],
      "name": "onERC721Received",
      "outputs": [
        {
          "internalType": "bytes4",
          "name": "",
          "type": "bytes4"
        }
      ],
      "stateMutability": "nonpayable",
      "type": "function"
    },
    {
      "inputs": [],
      "name": "owner",
      "outputs": [
        {
          "internalType": "address",
          "name": "",
          "type": "address"
        }
      ],
      "stateMutability": "view",
      "type": "function"
    },
    {
      "inputs": [],
      "name": "periodFinish",
      "outputs": [
        {
          "internalType": "uint256",
          "name": "",
          "type": "uint256"
        }
      ],
      "stateMutability": "view",
      "type": "function"
    },
    {
      "inputs": [],
      "name": "poolVoter",
      "outputs": [
        {
          "internalType": "contract IPoolVoter",
          "name": "",
          "type": "address"
        }
      ],
      "stateMutability": "view",
      "type": "function"
    },
    {
      "inputs": [
        {
          "internalType": "address",
          "name": "tokenAddress",
          "type": "address"
        },
        {
          "internalType": "uint256",
          "name": "tokenAmount",
          "type": "uint256"
        }
      ],
      "name": "recoverERC20",
      "outputs": [],
      "stateMutability": "nonpayable",
      "type": "function"
    },
    {
      "inputs": [],
      "name": "renounceOwnership",
      "outputs": [],
      "stateMutability": "nonpayable",
      "type": "function"
    },
    {
      "inputs": [],
      "name": "rewardPerToken",
      "outputs": [
        {
          "internalType": "uint256",
          "name": "",
          "type": "uint256"
        }
      ],
      "stateMutability": "view",
      "type": "function"
    },
    {
      "inputs": [],
      "name": "rewardPerTokenStored",
      "outputs": [
        {
          "internalType": "uint256",
          "name": "",
          "type": "uint256"
        }
      ],
      "stateMutability": "view",
      "type": "function"
    },
    {
      "inputs": [],
      "name": "rewardRate",
      "outputs": [
        {
          "internalType": "uint256",
          "name": "",
          "type": "uint256"
        }
      ],
      "stateMutability": "view",
      "type": "function"
    },
    {
      "inputs": [
        {
          "internalType": "address",
          "name": "",
          "type": "address"
        }
      ],
      "name": "rewards",
      "outputs": [
        {
          "internalType": "uint256",
          "name": "",
          "type": "uint256"
        }
      ],
      "stateMutability": "view",
      "type": "function"
    },
    {
      "inputs": [],
      "name": "rewardsDuration",
      "outputs": [
        {
          "internalType": "uint256",
          "name": "",
          "type": "uint256"
        }
      ],
      "stateMutability": "view",
      "type": "function"
    },
    {
      "inputs": [],
      "name": "rewardsToken",
      "outputs": [
        {
          "internalType": "contract IZeroLend",
          "name": "",
          "type": "address"
        }
      ],
      "stateMutability": "view",
      "type": "function"
    },
    {
      "inputs": [],
      "name": "symbol",
      "outputs": [
        {
          "internalType": "string",
          "name": "",
          "type": "string"
        }
      ],
      "stateMutability": "view",
      "type": "function"
    },
    {
      "inputs": [
        {
          "internalType": "uint256",
          "name": "",
          "type": "uint256"
        }
      ],
      "name": "tokenPower",
      "outputs": [
        {
          "internalType": "uint256",
          "name": "",
          "type": "uint256"
        }
      ],
      "stateMutability": "view",
      "type": "function"
    },
    {
      "inputs": [],
      "name": "totalSupply",
      "outputs": [
        {
          "internalType": "uint256",
          "name": "",
          "type": "uint256"
        }
      ],
      "stateMutability": "view",
      "type": "function"
    },
    {
      "inputs": [
        {
          "internalType": "address",
          "name": "",
          "type": "address"
        },
        {
          "internalType": "uint256",
          "name": "",
          "type": "uint256"
        }
      ],
      "name": "transfer",
      "outputs": [
        {
          "internalType": "bool",
          "name": "",
          "type": "bool"
        }
      ],
      "stateMutability": "pure",
      "type": "function"
    },
    {
      "inputs": [
        {
          "internalType": "address",
          "name": "",
          "type": "address"
        },
        {
          "internalType": "address",
          "name": "",
          "type": "address"
        },
        {
          "internalType": "uint256",
          "name": "",
          "type": "uint256"
        }
      ],
      "name": "transferFrom",
      "outputs": [
        {
          "internalType": "bool",
          "name": "",
          "type": "bool"
        }
      ],
      "stateMutability": "pure",
      "type": "function"
    },
    {
      "inputs": [
        {
          "internalType": "address",
          "name": "newOwner",
          "type": "address"
        }
      ],
      "name": "transferOwnership",
      "outputs": [],
      "stateMutability": "nonpayable",
      "type": "function"
    },
    {
      "inputs": [
        {
          "internalType": "uint256",
          "name": "tokenId",
          "type": "uint256"
        }
      ],
      "name": "unstakeToken",
      "outputs": [],
      "stateMutability": "nonpayable",
      "type": "function"
    },
    {
      "inputs": [
        {
          "internalType": "uint256",
          "name": "chainId",
          "type": "uint256"
        },
        {
          "internalType": "uint256",
          "name": "tokenId",
          "type": "uint256"
        }
      ],
      "name": "updatePowerOnChain",
      "outputs": [],
      "stateMutability": "nonpayable",
      "type": "function"
    },
    {
      "inputs": [
        {
          "internalType": "address",
          "name": "account",
          "type": "address"
        }
      ],
      "name": "updateRewardFor",
      "outputs": [],
      "stateMutability": "nonpayable",
      "type": "function"
    },
    {
      "inputs": [],
      "name": "updateSupplyFromLZ",
      "outputs": [],
      "stateMutability": "nonpayable",
      "type": "function"
    },
    {
      "inputs": [],
      "name": "updateSupplyToMainnetViaLZ",
      "outputs": [],
      "stateMutability": "nonpayable",
      "type": "function"
    },
    {
      "inputs": [
        {
          "internalType": "address",
          "name": "",
          "type": "address"
        }
      ],
      "name": "userRewardPerTokenPaid",
      "outputs": [
        {
          "internalType": "uint256",
          "name": "",
          "type": "uint256"
        }
      ],
      "stateMutability": "view",
      "type": "function"
    },
    {
      "inputs": [],
      "name": "zeroAggregator",
      "outputs": [
        {
          "internalType": "contract IPythAggregatorV3",
          "name": "",
          "type": "address"
        }
      ],
      "stateMutability": "view",
      "type": "function"
    }
  ],
  "transactionHash": "0x87814bfbfde009d73eb96633b75edd8d61fb4a73afb5278491a9d5e2d354d3a9",
  "args": [],
  "numDeployments": 1,
  "solcInputHash": "681e3e7006e077022f672818166bcbf6",
  "bytecode": "0x60806040523480156200001157600080fd5b506200001c62000022565b620000d6565b7ff0c57e16840df040f15088dc2f81fe391c3923bec73e23a9662efc9c229c6a00805468010000000000000000900460ff1615620000735760405163f92ee8a960e01b815260040160405180910390fd5b80546001600160401b0390811614620000d35780546001600160401b0319166001600160401b0390811782556040519081527fc7f505b2f371ae2175ee4913f4499e1f2633a7b5936321eed1cdaeb6115181d29060200160405180910390a15b50565b6150d080620000e66000396000f3fe608060405234801561001057600080fd5b506004361061038d5760003560e01c80637b0a47ee116101de5780639ab24eb01161010f578063cd3daf9d116100ad578063df136d651161007c578063df136d6514610917578063ebe2b12b14610920578063f1127ed814610929578063f2fde38b1461097b57600080fd5b8063cd3daf9d1461086a578063d1af0c7d14610872578063d7b96d4e14610892578063dd62ed3e146108b257600080fd5b8063a9059cbb116100e9578063a9059cbb1461081a578063aa8815161461082d578063c3cda5201461084e578063c8f33c911461086157600080fd5b80639ab24eb0146107d45780639ee91fea146107e75780639fb55e0e146107fa57600080fd5b80638980f11f1161017c5780638e539e8c116101565780638e539e8c1461079a57806391ddadf4146107ad578063958a62141461062a57806395d89b41146107cc57600080fd5b80638980f11f1461072a5780638b8763471461073d5780638da5cb5b1461075d57600080fd5b8063819b434c116101b8578063819b434c146106d657806381b72684146106e957806384b0196e146106fc57806387c5d8321461071757600080fd5b80637b0a47ee146106b25780637ecebe00146106bb57806380faa57d146106ce57600080fd5b8063313ce567116102c357806356981ac5116102615780636fcfff45116102305780636fcfff451461064f57806370a0823114610677578063715018a61461068a57806371b02ca31461069257600080fd5b806356981ac51461059c578063587cde1e146105d257806359c84d361461062a5780635c19a95c1461063c57600080fd5b80633b6240321161029d5780633b624032146105665780633c6b16ab146105795780633d18b9121461058c5780634bf5d7e91461059457600080fd5b8063313ce5671461053b578063386a95251461054a5780633a46b1a81461055357600080fd5b80630987b4141161033057806318160ddd1161030a57806318160ddd146104db5780631fd54bde1461050257806323b872dd146105155780632cfb66881461052857600080fd5b80630987b414146104325780630e52f04c14610477578063150b7a021461049757600080fd5b80630700037d1161036c5780630700037d1461041257806307ca13201461043257806308fab5cc14610434578063095ea7b31461045457600080fd5b80628cc26214610392578063062b032f146103b857806306fdde03146103fd575b600080fd5b6103a56103a036600461478a565b61098e565b6040519081526020015b60405180910390f35b600e546103d89073ffffffffffffffffffffffffffffffffffffffff1681565b60405173ffffffffffffffffffffffffffffffffffffffff90911681526020016103af565b610405610a08565b6040516103af919061480b565b6103a561042036600461478a565b600d6020526000908152604090205481565b005b6103a561044236600461481e565b60086020526000908152604090205481565b610467610462366004614837565b610ac5565b60405190151581526020016103af565b6001546103d89073ffffffffffffffffffffffffffffffffffffffff1681565b6104aa6104a5366004614863565b610add565b6040517fffffffff0000000000000000000000000000000000000000000000000000000090911681526020016103af565b7f52c63247e1f47db19d5ce0460030c497f067ca4cebf71ba98eeadabe20bace02546103a5565b6103a5610510366004614837565b610af6565b610467610523366004614902565b610b27565b61043261053636600461481e565b610b91565b604051601281526020016103af565b6103a560055481565b6103a5610561366004614837565b610f08565b610432610574366004614943565b610fe6565b61043261058736600461481e565b6113e8565b610432611621565b6104056117c4565b6103d86105aa36600461481e565b600a6020526000908152604090205473ffffffffffffffffffffffffffffffffffffffff1681565b6103d86105e036600461478a565b73ffffffffffffffffffffffffffffffffffffffff90811660009081527fe8b26c30fad74198956032a3533d903385d56dd795af560196f9c78d4af40d0060205260409020541690565b610432610638366004614943565b5050565b61043261064a36600461478a565b611855565b61066261065d36600461478a565b611860565b60405163ffffffff90911681526020016103af565b6103a561068536600461478a565b61186b565b6104326118bd565b600f546103d89073ffffffffffffffffffffffffffffffffffffffff1681565b6103a560045481565b6103a56106c936600461478a565b6118cf565b6103a56118f8565b6104326106e4366004614965565b611913565b6104326106f736600461478a565b611b5d565b610704611bd4565b6040516103af9796959493929190614a19565b6103a561072536600461481e565b611cd0565b610432610738366004614837565b611e8e565b6103a561074b36600461478a565b600c6020526000908152604090205481565b7f9016d09d72d40fdae2fd8ceac6b6234c7706214fd39c1cd1e609a0528c1993005473ffffffffffffffffffffffffffffffffffffffff166103d8565b6103a56107a836600461481e565b612085565b6107b561213f565b60405165ffffffffffff90911681526020016103af565b61040561214e565b6103a56107e236600461478a565b61219f565b6104326107f5366004614943565b612231565b6103a561080836600461481e565b60096020526000908152604090205481565b610467610828366004614837565b612386565b61084061083b36600461478a565b6123eb565b6040516103af929190614ab0565b61043261085c366004614b26565b612639565b6103a560065481565b6103a5612713565b6002546103d89073ffffffffffffffffffffffffffffffffffffffff1681565b6000546103d89073ffffffffffffffffffffffffffffffffffffffff1681565b6103a56108c0366004614b88565b73ffffffffffffffffffffffffffffffffffffffff91821660009081527f52c63247e1f47db19d5ce0460030c497f067ca4cebf71ba98eeadabe20bace016020908152604080832093909416825291909152205490565b6103a560075481565b6103a560035481565b61093c610937366004614bc1565b6127ce565b60408051825165ffffffffffff16815260209283015179ffffffffffffffffffffffffffffffffffffffffffffffffffff1692810192909252016103af565b61043261098936600461478a565b6127f3565b73ffffffffffffffffffffffffffffffffffffffff81166000908152600d6020908152604080832054600c909252822054670de0b6b3a7640000906109d1612713565b6109db9190614c27565b6109e48561186b565b6109ee9190614c3a565b6109f89190614c80565b610a029190614cbb565b92915050565b606060007f52c63247e1f47db19d5ce0460030c497f067ca4cebf71ba98eeadabe20bace005b9050806003018054610a3f90614cce565b80601f0160208091040260200160405190810160405280929190818152602001828054610a6b90614cce565b8015610ab85780601f10610a8d57610100808354040283529160200191610ab8565b820191906000526020600020905b815481529060010190602001808311610a9b57829003601f168201915b505050505091505090565b565b600033610ad3818585612854565b5060019392505050565b6000610aec8686868686612866565b9695505050505050565b600b6020528160005260406000208181548110610b1257600080fd5b90600052602060002001600091509150505481565b6040517f08c379a000000000000000000000000000000000000000000000000000000000815260206004820152601560248201527f7472616e7366657246726f6d2064697361626c6564000000000000000000000060448201526000906064015b60405180910390fd5b33610b9a612713565b600755610ba56118f8565b60065573ffffffffffffffffffffffffffffffffffffffff811615610c0657610bcd8161098e565b73ffffffffffffffffffffffffffffffffffffffff82166000908152600d6020908152604080832093909355600754600c909152919020555b6000828152600a602052604090205473ffffffffffffffffffffffffffffffffffffffff16610c91576040517f08c379a000000000000000000000000000000000000000000000000000000000815260206004820152600860248201527f21746f6b656e49640000000000000000000000000000000000000000000000006044820152606401610b88565b6000828152600a602052604090205473ffffffffffffffffffffffffffffffffffffffff16338114610d0d576040517f8e6324b000000000000000000000000000000000000000000000000000000000815233600482015273ffffffffffffffffffffffffffffffffffffffff82166024820152604401610b88565b6000838152600a6020908152604080832080547fffffffffffffffffffffffff0000000000000000000000000000000000000000169055338352600b8252918290208054835181840281018401909452808452610d9f9392830182828015610d9457602002820191906000526020600020905b815481526020019060010190808311610d80575b505050505084612a3a565b336000908152600b602090815260409091208251610dc39391929190910190614711565b50600083815260096020526040902054610dde903390612b62565b6000838152600960205260408082209190915560015490517f6b8ab97d00000000000000000000000000000000000000000000000000000000815233600482015273ffffffffffffffffffffffffffffffffffffffff90911690636b8ab97d90602401600060405180830381600087803b158015610e5b57600080fd5b505af1158015610e6f573d6000803e3d6000fd5b50506000546040517f42842e0e0000000000000000000000000000000000000000000000000000000081523060048201523360248201526044810187905273ffffffffffffffffffffffffffffffffffffffff90911692506342842e0e9150606401600060405180830381600087803b158015610eeb57600080fd5b505af1158015610eff573d6000803e3d6000fd5b50505050505050565b60007fe8b26c30fad74198956032a3533d903385d56dd795af560196f9c78d4af40d0081610f3461213f565b90508065ffffffffffff168410610f88576040517fecd3f81e0000000000000000000000000000000000000000000000000000000081526004810185905265ffffffffffff82166024820152604401610b88565b610fc1610f9485612bbe565b73ffffffffffffffffffffffffffffffffffffffff87166000908152600185016020526040902090612c0e565b79ffffffffffffffffffffffffffffffffffffffffffffffffffff1695945050505050565b60008111611050576040517f08c379a000000000000000000000000000000000000000000000000000000000815260206004820152600e60248201527f216e65774c6f636b416d6f756e740000000000000000000000000000000000006044820152606401610b88565b6000828152600a602052604090205473ffffffffffffffffffffffffffffffffffffffff1633146110dd576040517f08c379a000000000000000000000000000000000000000000000000000000000815260206004820152600860248201527f21746f6b656e49640000000000000000000000000000000000000000000000006044820152606401610b88565b60008054906101000a900473ffffffffffffffffffffffffffffffffffffffff1673ffffffffffffffffffffffffffffffffffffffff16636f307dc36040518163ffffffff1660e01b8152600401602060405180830381865afa158015611148573d6000803e3d6000fd5b505050506040513d601f19601f8201168201806040525081019061116c9190614d21565b6040517f23b872dd0000000000000000000000000000000000000000000000000000000081523360048201523060248201526044810183905273ffffffffffffffffffffffffffffffffffffffff91909116906323b872dd906064016020604051808303816000875af11580156111e7573d6000803e3d6000fd5b505050506040513d601f19601f8201168201806040525081019061120b9190614d4c565b506000546040517fb2383e55000000000000000000000000000000000000000000000000000000008152600481018490526024810183905273ffffffffffffffffffffffffffffffffffffffff9091169063b2383e55906044015b600060405180830381600087803b15801561128057600080fd5b505af1158015611294573d6000803e3d6000fd5b5050506000838152600960205260409020546112b291503390612b62565b6000546040517fe7e242d40000000000000000000000000000000000000000000000000000000081526004810184905273ffffffffffffffffffffffffffffffffffffffff9091169063e7e242d490602401602060405180830381865afa158015611321573d6000803e3d6000fd5b505050506040513d601f19601f820116820180604052508101906113459190614d69565b6000838152600960205260409020819055611361903390612cda565b6001546040517f6b8ab97d00000000000000000000000000000000000000000000000000000000815233600482015273ffffffffffffffffffffffffffffffffffffffff90911690636b8ab97d90602401600060405180830381600087803b1580156113cc57600080fd5b505af11580156113e0573d6000803e3d6000fd5b505050505050565b6113f0612d36565b60006113fa612713565b6007556114056118f8565b60065573ffffffffffffffffffffffffffffffffffffffff8116156114665761142d8161098e565b73ffffffffffffffffffffffffffffffffffffffff82166000908152600d6020908152604080832093909355600754600c909152919020555b60035442106114845760055461147c9083614c80565b6004556114c6565b6000426003546114949190614c27565b90506000600454826114a69190614c3a565b6005549091506114b68286614cbb565b6114c09190614c80565b60045550505b6002546040517f70a0823100000000000000000000000000000000000000000000000000000000815230600482015260009173ffffffffffffffffffffffffffffffffffffffff16906370a0823190602401602060405180830381865afa158015611535573d6000803e3d6000fd5b505050506040513d601f19601f820116820180604052508101906115599190614d69565b9050600554816115699190614c80565b60045411156115d4576040517f08c379a000000000000000000000000000000000000000000000000000000000815260206004820152601860248201527f50726f76696465642072657761726420746f6f206869676800000000000000006044820152606401610b88565b4260068190556005546115e691614cbb565b6003556040518381527fde88a922e0d3b88b24e9623efeb464919c6bf9f66857a65e2bfcf2ce87a9433d9060200160405180910390a1505050565b611629612dc4565b33611632612713565b60075561163d6118f8565b60065573ffffffffffffffffffffffffffffffffffffffff81161561169e576116658161098e565b73ffffffffffffffffffffffffffffffffffffffff82166000908152600d6020908152604080832093909355600754600c909152919020555b336000908152600d6020526040902054801561179957336000818152600d60205260408082209190915560025490517fa9059cbb00000000000000000000000000000000000000000000000000000000815260048101929092526024820183905273ffffffffffffffffffffffffffffffffffffffff169063a9059cbb906044016020604051808303816000875af115801561173e573d6000803e3d6000fd5b505050506040513d601f19601f820116820180604052508101906117629190614d4c565b5060405181815233907fe2403640ba68fed3a2f88b7557551d1993f84b99bb10ff833f0cf8db0c5e04869060200160405180910390a25b5050610ac360017f9b779b17422d0df92223018b32b4d1fa46e071723d6817e2486d003becc55f0055565b60606117ce612e6b565b65ffffffffffff166117de61213f565b65ffffffffffff161461181d576040517f6ff0714000000000000000000000000000000000000000000000000000000000815260040160405180910390fd5b5060408051808201909152601d81527f6d6f64653d626c6f636b6e756d6265722666726f6d3d64656661756c74000000602082015290565b336106388183612e76565b6000610a0282612f82565b6000807f52c63247e1f47db19d5ce0460030c497f067ca4cebf71ba98eeadabe20bace005b73ffffffffffffffffffffffffffffffffffffffff90931660009081526020939093525050604090205490565b6118c5612d36565b610ac36000612ff2565b6000807f5ab42ced628888259c08ac98db1eb0cf702fc1501344311d8b100cd1bfe4bb00611890565b600080600354421061190c57600354610a02565b4292915050565b7ff0c57e16840df040f15088dc2f81fe391c3923bec73e23a9662efc9c229c6a00805468010000000000000000810460ff16159067ffffffffffffffff1660008115801561195e5750825b905060008267ffffffffffffffff16600114801561197b5750303b155b905081158015611989575080155b156119c0576040517ff92ee8a900000000000000000000000000000000000000000000000000000000815260040160405180910390fd5b84547fffffffffffffffffffffffffffffffffffffffffffffffff00000000000000001660011785558315611a215784547fffffffffffffffffffffffffffffffffffffffffffffff00ffffffffffffffff16680100000000000000001785555b611a996040518060400160405280601481526020017f5a45524f204c5020566f74696e6720506f7765720000000000000000000000008152506040518060400160405280600981526020017f5a45524f76702d4c5000000000000000000000000000000000000000000000008152508d8d8d8d613088565b600e805473ffffffffffffffffffffffffffffffffffffffff808a167fffffffffffffffffffffffff000000000000000000000000000000000000000092831617909255600f8054928916929091169190911790558315611b505784547fffffffffffffffffffffffffffffffffffffffffffffff00ffffffffffffffff168555604051600181527fc7f505b2f371ae2175ee4913f4499e1f2633a7b5936321eed1cdaeb6115181d2906020015b60405180910390a15b5050505050505050505050565b611b65612713565b600755611b706118f8565b60065573ffffffffffffffffffffffffffffffffffffffff811615611bd157611b988161098e565b73ffffffffffffffffffffffffffffffffffffffff82166000908152600d6020908152604080832093909355600754600c909152919020555b50565b600060608082808083817fa16a46d94261c7517cc8ff89f61c0ce93598e3c849801011dee649a6a557d1008054909150158015611c1357506001810154155b611c79576040517f08c379a000000000000000000000000000000000000000000000000000000000815260206004820152601560248201527f4549503731323a20556e696e697469616c697a656400000000000000000000006044820152606401610b88565b611c816133ae565b611c896133ff565b604080516000808252602082019092527f0f000000000000000000000000000000000000000000000000000000000000009c939b5091995046985030975095509350915050565b600080600e60009054906101000a900473ffffffffffffffffffffffffffffffffffffffff1673ffffffffffffffffffffffffffffffffffffffff166398d5fdca6040518163ffffffff1660e01b8152600401602060405180830381865afa158015611d40573d6000803e3d6000fd5b505050506040513d601f19601f82011682018060405250810190611d649190614d69565b90506000600f60009054906101000a900473ffffffffffffffffffffffffffffffffffffffff1673ffffffffffffffffffffffffffffffffffffffff166350d25bcd6040518163ffffffff1660e01b8152600401602060405180830381865afa158015611dd5573d6000803e3d6000fd5b505050506040513d601f19601f82011682018060405250810190611df99190614d69565b9050600081138015611e0b5750600082115b611e71576040517f08c379a000000000000000000000000000000000000000000000000000000000815260206004820152600660248201527f21707269636500000000000000000000000000000000000000000000000000006044820152606401610b88565b80611e7c8584614c3a565b611e869190614c80565b949350505050565b611e96612d36565b60025473ffffffffffffffffffffffffffffffffffffffff90811690831603611f41576040517f08c379a000000000000000000000000000000000000000000000000000000000815260206004820152602160248201527f43616e6e6f7420776974686472617720746865207374616b696e6720746f6b6560448201527f6e000000000000000000000000000000000000000000000000000000000000006064820152608401610b88565b8173ffffffffffffffffffffffffffffffffffffffff1663a9059cbb611f9b7f9016d09d72d40fdae2fd8ceac6b6234c7706214fd39c1cd1e609a0528c1993005473ffffffffffffffffffffffffffffffffffffffff1690565b6040517fffffffff0000000000000000000000000000000000000000000000000000000060e084901b16815273ffffffffffffffffffffffffffffffffffffffff9091166004820152602481018490526044016020604051808303816000875af115801561200d573d6000803e3d6000fd5b505050506040513d601f19601f820116820180604052508101906120319190614d4c565b506040805173ffffffffffffffffffffffffffffffffffffffff84168152602081018390527f8c1256b8896378cd5044f80c202f9772b9d77dc85c8a6eb51967210b09bfaa28910160405180910390a15050565b60007fe8b26c30fad74198956032a3533d903385d56dd795af560196f9c78d4af40d00816120b161213f565b90508065ffffffffffff168410612105576040517fecd3f81e0000000000000000000000000000000000000000000000000000000081526004810185905265ffffffffffff82166024820152604401610b88565b61211b61211185612bbe565b6002840190612c0e565b79ffffffffffffffffffffffffffffffffffffffffffffffffffff16949350505050565b6000612149612e6b565b905090565b7f52c63247e1f47db19d5ce0460030c497f067ca4cebf71ba98eeadabe20bace0480546060917f52c63247e1f47db19d5ce0460030c497f067ca4cebf71ba98eeadabe20bace0091610a3f90614cce565b73ffffffffffffffffffffffffffffffffffffffff811660009081527fe8b26c30fad74198956032a3533d903385d56dd795af560196f9c78d4af40d01602052604081207fe8b26c30fad74198956032a3533d903385d56dd795af560196f9c78d4af40d009061220e90613429565b79ffffffffffffffffffffffffffffffffffffffffffffffffffff169392505050565b6000811161229b576040517f08c379a000000000000000000000000000000000000000000000000000000000815260206004820152600e60248201527f216e65774c6f636b416d6f756e740000000000000000000000000000000000006044820152606401610b88565b6000828152600a602052604090205473ffffffffffffffffffffffffffffffffffffffff163314612328576040517f08c379a000000000000000000000000000000000000000000000000000000000815260206004820152600860248201527f21746f6b656e49640000000000000000000000000000000000000000000000006044820152606401610b88565b6000546040517f9d507b8b000000000000000000000000000000000000000000000000000000008152600481018490526024810183905273ffffffffffffffffffffffffffffffffffffffff90911690639d507b8b90604401611266565b6040517f08c379a000000000000000000000000000000000000000000000000000000000815260206004820152601160248201527f7472616e736665722064697361626c65640000000000000000000000000000006044820152600090606401610b88565b73ffffffffffffffffffffffffffffffffffffffff81166000908152600b6020908152604080832080548251818502810185019093528083526060948594919390929091849083018282801561246057602002820191906000526020600020905b81548152602001906001019080831161244c575b5050505050905060008267ffffffffffffffff81111561248257612482614d82565b6040519080825280602002602001820160405280156124ab578160200160208202803683370190505b50905060008367ffffffffffffffff8111156124c9576124c9614d82565b60405190808252806020026020018201604052801561252557816020015b6125126040518060800160405280600081526020016000815260200160008152602001600081525090565b8152602001906001900390816124e75790505b50905060005b8481101561262c57600054845173ffffffffffffffffffffffffffffffffffffffff9091169063b45a3c0e9086908490811061256957612569614db1565b60200260200101516040518263ffffffff1660e01b815260040161258f91815260200190565b608060405180830381865afa1580156125ac573d6000803e3d6000fd5b505050506040513d601f19601f820116820180604052508101906125d09190614de0565b8282815181106125e2576125e2614db1565b60200260200101819052508381815181106125ff576125ff614db1565b602002602001015183828151811061261957612619614db1565b602090810291909101015260010161252b565b5090969095509350505050565b83421115612676576040517f4683af0e00000000000000000000000000000000000000000000000000000000815260048101859052602401610b88565b604080517fe48329057bfd03d55e49b547132e39cffd9c1820ad7b9d4c5307691425d15adf602082015273ffffffffffffffffffffffffffffffffffffffff88169181019190915260608101869052608081018590526000906126fd906126f59060a00160405160208183030381529060405280519060200120613478565b8585856134c0565b905061270981876134e2565b610eff8188612e76565b600061273d7f52c63247e1f47db19d5ce0460030c497f067ca4cebf71ba98eeadabe20bace025490565b60000361274b575060075490565b60006006546127586118f8565b6127629190614c27565b9050600061278e7f52c63247e1f47db19d5ce0460030c497f067ca4cebf71ba98eeadabe20bace025490565b60045461279b9084614c3a565b6127ad90670de0b6b3a7640000614c3a565b6127b79190614c80565b9050806007546127c79190614cbb565b9250505090565b60408051808201909152600080825260208201526127ec8383613587565b9392505050565b6127fb612d36565b73ffffffffffffffffffffffffffffffffffffffff811661284b576040517f1e4fbdf700000000000000000000000000000000000000000000000000000000815260006004820152602401610b88565b611bd181612ff2565b6128618383836001613609565b505050565b6000805473ffffffffffffffffffffffffffffffffffffffff1633146128e8576040517f08c379a000000000000000000000000000000000000000000000000000000000815260206004820152600b60248201527f6f6e6c79206c6f636b65720000000000000000000000000000000000000000006044820152606401610b88565b81156128ff576128fa82840184614e46565b509550505b61290885611b5d565b6000848152600a6020908152604080832080547fffffffffffffffffffffffff00000000000000000000000000000000000000001673ffffffffffffffffffffffffffffffffffffffff8a81169182179092558452600b83528184208054600181018255908552928420909201879055915491517fe7e242d40000000000000000000000000000000000000000000000000000000081526004810187905291169063e7e242d490602401602060405180830381865afa1580156129cf573d6000803e3d6000fd5b505050506040513d601f19601f820116820180604052508101906129f39190614d69565b6000858152600960205260409020819055612a0f908690612cda565b507f150b7a020000000000000000000000000000000000000000000000000000000095945050505050565b81516060906000805b82811015612a8b5784868281518110612a5e57612a5e614db1565b602002602001015114612a795781612a7581614e66565b9250505b80612a8381614e66565b915050612a43565b5060008167ffffffffffffffff811115612aa757612aa7614d82565b604051908082528060200260200182016040528015612ad0578160200160208202803683370190505b5090506000805b84811015612b565786888281518110612af257612af2614db1565b602002602001015114612b4457878181518110612b1157612b11614db1565b6020026020010151838381518110612b2b57612b2b614db1565b602090810291909101015281612b4081614e66565b9250505b80612b4e81614e66565b915050612ad7565b50909695505050505050565b73ffffffffffffffffffffffffffffffffffffffff8216612bb2576040517f96c6fd1e00000000000000000000000000000000000000000000000000000000815260006004820152602401610b88565b61063882600083613776565b600065ffffffffffff821115612c0a576040517f6dfcc6500000000000000000000000000000000000000000000000000000000081526030600482015260248101839052604401610b88565b5090565b815460009081816005811115612c6d576000612c2984613835565b612c339085614c27565b60008881526020902090915081015465ffffffffffff9081169087161015612c5d57809150612c6b565b612c68816001614cbb565b92505b505b6000612c7b8787858561391d565b90508015612ccc57612ca087612c92600184614c27565b600091825260209091200190565b546601000000000000900479ffffffffffffffffffffffffffffffffffffffffffffffffffff16612ccf565b60005b979650505050505050565b73ffffffffffffffffffffffffffffffffffffffff8216612d2a576040517fec442f0500000000000000000000000000000000000000000000000000000000815260006004820152602401610b88565b61063860008383613776565b33612d757f9016d09d72d40fdae2fd8ceac6b6234c7706214fd39c1cd1e609a0528c1993005473ffffffffffffffffffffffffffffffffffffffff1690565b73ffffffffffffffffffffffffffffffffffffffff1614610ac3576040517f118cdaa7000000000000000000000000000000000000000000000000000000008152336004820152602401610b88565b7f9b779b17422d0df92223018b32b4d1fa46e071723d6817e2486d003becc55f0080547ffffffffffffffffffffffffffffffffffffffffffffffffffffffffffffffffe01612e3f576040517f3ee5aeb500000000000000000000000000000000000000000000000000000000815260040160405180910390fd5b60029055565b60017f9b779b17422d0df92223018b32b4d1fa46e071723d6817e2486d003becc55f0055565b600061214943612bbe565b7fe8b26c30fad74198956032a3533d903385d56dd795af560196f9c78d4af40d006000612ee78473ffffffffffffffffffffffffffffffffffffffff90811660009081527fe8b26c30fad74198956032a3533d903385d56dd795af560196f9c78d4af40d0060205260409020541690565b73ffffffffffffffffffffffffffffffffffffffff85811660008181526020869052604080822080547fffffffffffffffffffffffff000000000000000000000000000000000000000016898616908117909155905194955093928516927f3134e8a2e6d97e929a7e54011ea5485d7d196dd5f0ba4d4ef95803e8e3fc257f9190a4612f7c8184612f778761397f565b61398a565b50505050565b73ffffffffffffffffffffffffffffffffffffffff811660009081527fe8b26c30fad74198956032a3533d903385d56dd795af560196f9c78d4af40d0160205260408120547fe8b26c30fad74198956032a3533d903385d56dd795af560196f9c78d4af40d00906127ec90613bbd565b7f9016d09d72d40fdae2fd8ceac6b6234c7706214fd39c1cd1e609a0528c19930080547fffffffffffffffffffffffff0000000000000000000000000000000000000000811673ffffffffffffffffffffffffffffffffffffffff848116918217845560405192169182907f8be0079c531659141344cd1fd0a4f28419497f9722a3daafe3b4186f6b6457e090600090a3505050565b7ff0c57e16840df040f15088dc2f81fe391c3923bec73e23a9662efc9c229c6a00805468010000000000000000810460ff16159067ffffffffffffffff166000811580156130d35750825b905060008267ffffffffffffffff1660011480156130f05750303b155b9050811580156130fe575080155b15613135576040517ff92ee8a900000000000000000000000000000000000000000000000000000000815260040160405180910390fd5b84547fffffffffffffffffffffffffffffffffffffffffffffffff000000000000000016600117855583156131965784547fffffffffffffffffffffffffffffffffffffffffffffff00ffffffffffffffff16680100000000000000001785555b61319e613c07565b6131a733613c0f565b6131af613c20565b6131b98b8b613c30565b6000805473ffffffffffffffffffffffffffffffffffffffff808c167fffffffffffffffffffffffff00000000000000000000000000000000000000009283168117909355600180548b831690841617905560028054918c16919092161790556005879055604080517f6f307dc30000000000000000000000000000000000000000000000000000000081529051636f307dc3916004808201926020929091908290030181865afa158015613272573d6000803e3d6000fd5b505050506040513d601f19601f820116820180604052508101906132969190614d21565b6040517f095ea7b300000000000000000000000000000000000000000000000000000000815273ffffffffffffffffffffffffffffffffffffffff8b811660048301527fffffffffffffffffffffffffffffffffffffffffffffffffffffffffffffffff6024830152919091169063095ea7b3906044016020604051808303816000875af115801561332c573d6000803e3d6000fd5b505050506040513d601f19601f820116820180604052508101906133509190614d4c565b508315611b505784547fffffffffffffffffffffffffffffffffffffffffffffff00ffffffffffffffff168555604051600181527fc7f505b2f371ae2175ee4913f4499e1f2633a7b5936321eed1cdaeb6115181d290602001611b47565b7fa16a46d94261c7517cc8ff89f61c0ce93598e3c849801011dee649a6a557d10280546060917fa16a46d94261c7517cc8ff89f61c0ce93598e3c849801011dee649a6a557d10091610a3f90614cce565b606060007fa16a46d94261c7517cc8ff89f61c0ce93598e3c849801011dee649a6a557d100610a2e565b8054600090801561346f5761344383612c92600184614c27565b546601000000000000900479ffffffffffffffffffffffffffffffffffffffffffffffffffff166127ec565b60009392505050565b6000610a02613485613c42565b836040517f19010000000000000000000000000000000000000000000000000000000000008152600281019290925260228201526042902090565b6000806000806134d288888888613c4c565b925092509250612b568282613d46565b73ffffffffffffffffffffffffffffffffffffffff821660009081527f5ab42ced628888259c08ac98db1eb0cf702fc1501344311d8b100cd1bfe4bb0060205260409020805460018101909155818114612861576040517f752d88c000000000000000000000000000000000000000000000000000000000815273ffffffffffffffffffffffffffffffffffffffff8416600482015260248101829052604401610b88565b6040805180820182526000808252602080830182905273ffffffffffffffffffffffffffffffffffffffff861682527fe8b26c30fad74198956032a3533d903385d56dd795af560196f9c78d4af40d019052919091207fe8b26c30fad74198956032a3533d903385d56dd795af560196f9c78d4af40d0090611e869084613e4a565b7f52c63247e1f47db19d5ce0460030c497f067ca4cebf71ba98eeadabe20bace0073ffffffffffffffffffffffffffffffffffffffff851661367a576040517fe602df0500000000000000000000000000000000000000000000000000000000815260006004820152602401610b88565b73ffffffffffffffffffffffffffffffffffffffff84166136ca576040517f94280d6200000000000000000000000000000000000000000000000000000000815260006004820152602401610b88565b73ffffffffffffffffffffffffffffffffffffffff80861660009081526001830160209081526040808320938816835292905220839055811561376f578373ffffffffffffffffffffffffffffffffffffffff168573ffffffffffffffffffffffffffffffffffffffff167f8c5be1e5ebec7d5bd14f71427d1e84f3dd0314c0f7b2291e5b200ac8c7c3b9258560405161376691815260200190565b60405180910390a35b5050505050565b613781838383613ed0565b73ffffffffffffffffffffffffffffffffffffffff831661382a5760006137c67f52c63247e1f47db19d5ce0460030c497f067ca4cebf71ba98eeadabe20bace025490565b905079ffffffffffffffffffffffffffffffffffffffffffffffffffff80821115613827576040517f1cb15d260000000000000000000000000000000000000000000000000000000081526004810183905260248101829052604401610b88565b50505b6128618383836140a1565b60008160000361384757506000919050565b6000600161385484614182565b901c6001901b9050600181848161386d5761386d614c51565b048201901c9050600181848161388557613885614c51565b048201901c9050600181848161389d5761389d614c51565b048201901c905060018184816138b5576138b5614c51565b048201901c905060018184816138cd576138cd614c51565b048201901c905060018184816138e5576138e5614c51565b048201901c905060018184816138fd576138fd614c51565b048201901c90506127ec8182858161391757613917614c51565b04614216565b60005b81831015613977576000613934848461422c565b60008781526020902090915065ffffffffffff86169082015465ffffffffffff16111561396357809250613971565b61396e816001614cbb565b93505b50613920565b509392505050565b6000610a028261186b565b7fe8b26c30fad74198956032a3533d903385d56dd795af560196f9c78d4af40d0073ffffffffffffffffffffffffffffffffffffffff848116908416148015906139d45750600082115b15612f7c5773ffffffffffffffffffffffffffffffffffffffff841615613acb5773ffffffffffffffffffffffffffffffffffffffff8416600090815260018201602052604081208190613a3390614247613a2e87614253565b6142b3565b79ffffffffffffffffffffffffffffffffffffffffffffffffffff16915079ffffffffffffffffffffffffffffffffffffffffffffffffffff1691508573ffffffffffffffffffffffffffffffffffffffff167fdec2bacdd2f05b59de34da9b523dff8be42e5e38e818c82fdb0bae774387a7248383604051613ac0929190918252602082015260400190565b60405180910390a250505b73ffffffffffffffffffffffffffffffffffffffff831615612f7c5773ffffffffffffffffffffffffffffffffffffffff8316600090815260018201602052604081208190613b20906142ec613a2e87614253565b79ffffffffffffffffffffffffffffffffffffffffffffffffffff16915079ffffffffffffffffffffffffffffffffffffffffffffffffffff1691508473ffffffffffffffffffffffffffffffffffffffff167fdec2bacdd2f05b59de34da9b523dff8be42e5e38e818c82fdb0bae774387a7248383604051613bad929190918252602082015260400190565b60405180910390a2505050505050565b600063ffffffff821115612c0a576040517f6dfcc6500000000000000000000000000000000000000000000000000000000081526020600482015260248101839052604401610b88565b610ac36142f8565b613c176142f8565b611bd18161435f565b613c286142f8565b610ac3614367565b613c386142f8565b610638828261436f565b60006121496143d2565b600080807f7fffffffffffffffffffffffffffffff5d576e7357a4501ddfe92f46681b20a0841115613c875750600091506003905082613d3c565b604080516000808252602082018084528a905260ff891692820192909252606081018790526080810186905260019060a0016020604051602081039080840390855afa158015613cdb573d6000803e3d6000fd5b50506040517fffffffffffffffffffffffffffffffffffffffffffffffffffffffffffffffe0015191505073ffffffffffffffffffffffffffffffffffffffff8116613d3257506000925060019150829050613d3c565b9250600091508190505b9450945094915050565b6000826003811115613d5a57613d5a614e9e565b03613d63575050565b6001826003811115613d7757613d77614e9e565b03613dae576040517ff645eedf00000000000000000000000000000000000000000000000000000000815260040160405180910390fd5b6002826003811115613dc257613dc2614e9e565b03613dfc576040517ffce698f700000000000000000000000000000000000000000000000000000000815260048101829052602401610b88565b6003826003811115613e1057613e10614e9e565b03610638576040517fd78bce0c00000000000000000000000000000000000000000000000000000000815260048101829052602401610b88565b6040805180820190915260008082526020820152826000018263ffffffff1681548110613e7957613e79614db1565b60009182526020918290206040805180820190915291015465ffffffffffff811682526601000000000000900479ffffffffffffffffffffffffffffffffffffffffffffffffffff16918101919091529392505050565b7f52c63247e1f47db19d5ce0460030c497f067ca4cebf71ba98eeadabe20bace0073ffffffffffffffffffffffffffffffffffffffff8416613f2b5781816002016000828254613f209190614cbb565b90915550613fdd9050565b73ffffffffffffffffffffffffffffffffffffffff841660009081526020829052604090205482811015613fb1576040517fe450d38c00000000000000000000000000000000000000000000000000000000815273ffffffffffffffffffffffffffffffffffffffff861660048201526024810182905260448101849052606401610b88565b73ffffffffffffffffffffffffffffffffffffffff851660009081526020839052604090209083900390555b73ffffffffffffffffffffffffffffffffffffffff8316614008576002810180548390039055614034565b73ffffffffffffffffffffffffffffffffffffffff831660009081526020829052604090208054830190555b8273ffffffffffffffffffffffffffffffffffffffff168473ffffffffffffffffffffffffffffffffffffffff167fddf252ad1be2c89b69c2b068fc378daa952ba7f163c4a11628f55a4df523b3ef8460405161409391815260200190565b60405180910390a350505050565b7fe8b26c30fad74198956032a3533d903385d56dd795af560196f9c78d4af40d0073ffffffffffffffffffffffffffffffffffffffff84166140f3576140f0816002016142ec613a2e85614253565b50505b73ffffffffffffffffffffffffffffffffffffffff83166141245761412181600201614247613a2e85614253565b50505b73ffffffffffffffffffffffffffffffffffffffff84811660009081527fe8b26c30fad74198956032a3533d903385d56dd795af560196f9c78d4af40d006020526040808220548684168352912054612f7c9291821691168461398a565b600080608083901c1561419757608092831c92015b604083901c156141a957604092831c92015b602083901c156141bb57602092831c92015b601083901c156141cd57601092831c92015b600883901c156141df57600892831c92015b600483901c156141f157600492831c92015b600283901c1561420357600292831c92015b600183901c15610a025760010192915050565b600081831061422557816127ec565b5090919050565b600061423b6002848418614c80565b6127ec90848416614cbb565b60006127ec8284614ecd565b600079ffffffffffffffffffffffffffffffffffffffffffffffffffff821115612c0a576040517f6dfcc65000000000000000000000000000000000000000000000000000000000815260d0600482015260248101839052604401610b88565b6000806142df6142c161213f565b6142d76142cd88613429565b868863ffffffff16565b879190614446565b915091505b935093915050565b60006127ec8284614f07565b7ff0c57e16840df040f15088dc2f81fe391c3923bec73e23a9662efc9c229c6a005468010000000000000000900460ff16610ac3576040517fd7e6bcf800000000000000000000000000000000000000000000000000000000815260040160405180910390fd5b6127fb6142f8565b612e456142f8565b6143776142f8565b7f52c63247e1f47db19d5ce0460030c497f067ca4cebf71ba98eeadabe20bace007f52c63247e1f47db19d5ce0460030c497f067ca4cebf71ba98eeadabe20bace036143c38482614f80565b5060048101612f7c8382614f80565b60007f8b73c3c69bb8fe3d512ecc4cf759cc79239f7b179b0ffacaa9a75d522b39400f6143fd614454565b6144056144d0565b60408051602081019490945283019190915260608201524660808201523060a082015260c00160405160208183030381529060405280519060200120905090565b6000806142df858585614526565b60007fa16a46d94261c7517cc8ff89f61c0ce93598e3c849801011dee649a6a557d100816144806133ae565b80519091501561449857805160209091012092915050565b815480156144a7579392505050565b7fc5d2460186f7233c927e7db2dcc703c0e500b653ca82273b7bfad8045d85a470935050505090565b60007fa16a46d94261c7517cc8ff89f61c0ce93598e3c849801011dee649a6a557d100816144fc6133ff565b80519091501561451457805160209091012092915050565b600182015480156144a7579392505050565b8254600090819080156146a057600061454487612c92600185614c27565b60408051808201909152905465ffffffffffff808216808452660100000000000090920479ffffffffffffffffffffffffffffffffffffffffffffffffffff16602084015291925090871610156145c7576040517f2520601d00000000000000000000000000000000000000000000000000000000815260040160405180910390fd5b805165ffffffffffff80881691160361462957846145ea88612c92600186614c27565b805479ffffffffffffffffffffffffffffffffffffffffffffffffffff9290921666010000000000000265ffffffffffff909216919091179055614690565b6040805180820190915265ffffffffffff808816825279ffffffffffffffffffffffffffffffffffffffffffffffffffff80881660208085019182528b54600181018d5560008d815291909120945191519092166601000000000000029216919091179101555b6020015192508391506142e49050565b50506040805180820190915265ffffffffffff808516825279ffffffffffffffffffffffffffffffffffffffffffffffffffff80851660208085019182528854600181018a5560008a81529182209551925190931666010000000000000291909316179201919091559050816142e4565b82805482825590600052602060002090810192821561474c579160200282015b8281111561474c578251825591602001919060010190614731565b50612c0a9291505b80821115612c0a5760008155600101614754565b73ffffffffffffffffffffffffffffffffffffffff81168114611bd157600080fd5b60006020828403121561479c57600080fd5b81356127ec81614768565b6000815180845260005b818110156147cd576020818501810151868301820152016147b1565b5060006020828601015260207fffffffffffffffffffffffffffffffffffffffffffffffffffffffffffffffe0601f83011685010191505092915050565b6020815260006127ec60208301846147a7565b60006020828403121561483057600080fd5b5035919050565b6000806040838503121561484a57600080fd5b823561485581614768565b946020939093013593505050565b60008060008060006080868803121561487b57600080fd5b853561488681614768565b9450602086013561489681614768565b935060408601359250606086013567ffffffffffffffff808211156148ba57600080fd5b818801915088601f8301126148ce57600080fd5b8135818111156148dd57600080fd5b8960208285010111156148ef57600080fd5b9699959850939650602001949392505050565b60008060006060848603121561491757600080fd5b833561492281614768565b9250602084013561493281614768565b929592945050506040919091013590565b6000806040838503121561495657600080fd5b50508035926020909101359150565b60008060008060008060c0878903121561497e57600080fd5b863561498981614768565b9550602087013561499981614768565b945060408701356149a981614768565b93506060870135925060808701356149c081614768565b915060a08701356149d081614768565b809150509295509295509295565b600081518084526020808501945080840160005b83811015614a0e578151875295820195908201906001016149f2565b509495945050505050565b7fff000000000000000000000000000000000000000000000000000000000000008816815260e060208201526000614a5460e08301896147a7565b8281036040840152614a6681896147a7565b905086606084015273ffffffffffffffffffffffffffffffffffffffff861660808401528460a084015282810360c0840152614aa281856149de565b9a9950505050505050505050565b60006040808352614ac3818401866149de565b83810360208581019190915285518083528682019282019060005b81811015614b1857845180518452848101518585015286810151878501526060908101519084015293830193608090920191600101614ade565b509098975050505050505050565b60008060008060008060c08789031215614b3f57600080fd5b8635614b4a81614768565b95506020870135945060408701359350606087013560ff81168114614b6e57600080fd5b9598949750929560808101359460a0909101359350915050565b60008060408385031215614b9b57600080fd5b8235614ba681614768565b91506020830135614bb681614768565b809150509250929050565b60008060408385031215614bd457600080fd5b8235614bdf81614768565b9150602083013563ffffffff81168114614bb657600080fd5b7f4e487b7100000000000000000000000000000000000000000000000000000000600052601160045260246000fd5b81810381811115610a0257610a02614bf8565b8082028115828204841417610a0257610a02614bf8565b7f4e487b7100000000000000000000000000000000000000000000000000000000600052601260045260246000fd5b600082614cb6577f4e487b7100000000000000000000000000000000000000000000000000000000600052601260045260246000fd5b500490565b80820180821115610a0257610a02614bf8565b600181811c90821680614ce257607f821691505b602082108103614d1b577f4e487b7100000000000000000000000000000000000000000000000000000000600052602260045260246000fd5b50919050565b600060208284031215614d3357600080fd5b81516127ec81614768565b8015158114611bd157600080fd5b600060208284031215614d5e57600080fd5b81516127ec81614d3e565b600060208284031215614d7b57600080fd5b5051919050565b7f4e487b7100000000000000000000000000000000000000000000000000000000600052604160045260246000fd5b7f4e487b7100000000000000000000000000000000000000000000000000000000600052603260045260246000fd5b600060808284031215614df257600080fd5b6040516080810181811067ffffffffffffffff82111715614e1557614e15614d82565b8060405250825181526020830151602082015260408301516040820152606083015160608201528091505092915050565b600080600060608486031215614e5b57600080fd5b833561492281614d3e565b60007fffffffffffffffffffffffffffffffffffffffffffffffffffffffffffffffff8203614e9757614e97614bf8565b5060010190565b7f4e487b7100000000000000000000000000000000000000000000000000000000600052602160045260246000fd5b79ffffffffffffffffffffffffffffffffffffffffffffffffffff828116828216039080821115614f0057614f00614bf8565b5092915050565b79ffffffffffffffffffffffffffffffffffffffffffffffffffff818116838216019080821115614f0057614f00614bf8565b601f82111561286157600081815260208120601f850160051c81016020861015614f615750805b601f850160051c820191505b818110156113e057828155600101614f6d565b815167ffffffffffffffff811115614f9a57614f9a614d82565b614fae81614fa88454614cce565b84614f3a565b602080601f8311600181146150015760008415614fcb5750858301515b7fffffffffffffffffffffffffffffffffffffffffffffffffffffffffffffffff600386901b1c1916600185901b1785556113e0565b6000858152602081207fffffffffffffffffffffffffffffffffffffffffffffffffffffffffffffffe08616915b8281101561504e5788860151825594840194600190910190840161502f565b508582101561508a57878501517fffffffffffffffffffffffffffffffffffffffffffffffffffffffffffffffff600388901b60f8161c191681555b5050505050600190811b0190555056fea2646970667358221220a95b6e036b270d0ac1b860cf1e8f6d7526788aaff3948957d7227ecf48456d0164736f6c63430008140033",
  "devdoc": {
    "errors": {
      "CheckpointUnorderedInsertion()": [
        {
          "details": "A value was attempted to be inserted on a past checkpoint."
        }
      ],
      "ECDSAInvalidSignature()": [
        {
          "details": "The signature derives the `address(0)`."
        }
      ],
      "ECDSAInvalidSignatureLength(uint256)": [
        {
          "details": "The signature has an invalid length."
        }
      ],
      "ECDSAInvalidSignatureS(bytes32)": [
        {
          "details": "The signature has an S value that is in the upper half order."
        }
      ],
      "ERC20ExceededSafeSupply(uint256,uint256)": [
        {
          "details": "Total supply cap has been exceeded, introducing a risk of votes overflowing."
        }
      ],
      "ERC20InsufficientAllowance(address,uint256,uint256)": [
        {
          "details": "Indicates a failure with the `spender`s `allowance`. Used in transfers.",
          "params": {
            "allowance": "Amount of tokens a `spender` is allowed to operate with.",
            "needed": "Minimum amount required to perform a transfer.",
            "spender": "Address that may be allowed to operate on tokens without being their owner."
          }
        }
      ],
      "ERC20InsufficientBalance(address,uint256,uint256)": [
        {
          "details": "Indicates an error related to the current `balance` of a `sender`. Used in transfers.",
          "params": {
            "balance": "Current balance for the interacting account.",
            "needed": "Minimum amount required to perform a transfer.",
            "sender": "Address whose tokens are being transferred."
          }
        }
      ],
      "ERC20InvalidApprover(address)": [
        {
          "details": "Indicates a failure with the `approver` of a token to be approved. Used in approvals.",
          "params": {
            "approver": "Address initiating an approval operation."
          }
        }
      ],
      "ERC20InvalidReceiver(address)": [
        {
          "details": "Indicates a failure with the token `receiver`. Used in transfers.",
          "params": {
            "receiver": "Address to which tokens are being transferred."
          }
        }
      ],
      "ERC20InvalidSender(address)": [
        {
          "details": "Indicates a failure with the token `sender`. Used in transfers.",
          "params": {
            "sender": "Address whose tokens are being transferred."
          }
        }
      ],
      "ERC20InvalidSpender(address)": [
        {
          "details": "Indicates a failure with the `spender` to be approved. Used in approvals.",
          "params": {
            "spender": "Address that may be allowed to operate on tokens without being their owner."
          }
        }
      ],
      "ERC5805FutureLookup(uint256,uint48)": [
        {
          "details": "Lookup to future votes is not available."
        }
      ],
      "ERC6372InconsistentClock()": [
        {
          "details": "The clock was incorrectly modified."
        }
      ],
      "InvalidAccountNonce(address,uint256)": [
        {
          "details": "The nonce used for an `account` is not the expected current nonce."
        }
      ],
      "InvalidInitialization()": [
        {
          "details": "The contract is already initialized."
        }
      ],
      "NotInitializing()": [
        {
          "details": "The contract is not initializing."
        }
      ],
      "OwnableInvalidOwner(address)": [
        {
          "details": "The owner is not a valid owner account. (eg. `address(0)`)"
        }
      ],
      "OwnableUnauthorizedAccount(address)": [
        {
          "details": "The caller account is not authorized to perform an operation."
        }
      ],
      "ReentrancyGuardReentrantCall()": [
        {
          "details": "Unauthorized reentrant call."
        }
      ],
      "SafeCastOverflowedUintDowncast(uint8,uint256)": [
        {
          "details": "Value doesn't fit in an uint of `bits` size."
        }
      ],
      "VotesExpiredSignature(uint256)": [
        {
          "details": "The signature used has expired."
        }
      ]
    },
    "events": {
      "Approval(address,address,uint256)": {
        "details": "Emitted when the allowance of a `spender` for an `owner` is set by a call to {approve}. `value` is the new allowance."
      },
      "DelegateChanged(address,address,address)": {
        "details": "Emitted when an account changes their delegate."
      },
      "DelegateVotesChanged(address,uint256,uint256)": {
        "details": "Emitted when a token transfer or delegate change results in changes to a delegate's number of voting units."
      },
      "EIP712DomainChanged()": {
        "details": "MAY be emitted to signal that the domain could have changed."
      },
      "Initialized(uint64)": {
        "details": "Triggered when the contract has been initialized or reinitialized."
      },
      "Transfer(address,address,uint256)": {
        "details": "Emitted when `value` tokens are moved from one account (`from`) to another (`to`). Note that `value` may be zero."
      }
    },
    "kind": "dev",
    "methods": {
      "CLOCK_MODE()": {
        "details": "Machine-readable description of the clock as specified in EIP-6372."
      },
      "allowance(address,address)": {
        "details": "See {IERC20-allowance}."
      },
      "approve(address,uint256)": {
        "details": "See {IERC20-approve}. NOTE: If `value` is the maximum `uint256`, the allowance is not updated on `transferFrom`. This is semantically equivalent to an infinite approval. Requirements: - `spender` cannot be the zero address."
      },
      "balanceOf(address)": {
        "details": "See {IERC20-balanceOf}."
      },
      "checkpoints(address,uint32)": {
        "details": "Get the `pos`-th checkpoint for `account`."
      },
      "clock()": {
        "details": "Clock used for flagging checkpoints. Can be overridden to implement timestamp based checkpoints (and voting), in which case {CLOCK_MODE} should be overridden as well to match."
      },
      "decimals()": {
        "details": "Returns the number of decimals used to get its user representation. For example, if `decimals` equals `2`, a balance of `505` tokens should be displayed to a user as `5.05` (`505 / 10 ** 2`). Tokens usually opt for a value of 18, imitating the relationship between Ether and Wei. This is the default value returned by this function, unless it's overridden. NOTE: This information is only used for _display_ purposes: it in no way affects any of the arithmetic of the contract, including {IERC20-balanceOf} and {IERC20-transfer}."
      },
      "delegate(address)": {
        "details": "Delegates votes from the sender to `delegatee`."
      },
      "delegateBySig(address,uint256,uint256,uint8,bytes32,bytes32)": {
        "details": "Delegates votes from signer to `delegatee`."
      },
      "delegates(address)": {
        "details": "Returns the delegate that `account` has chosen."
      },
      "deletePowerOnChain(uint256,uint256)": {
        "details": "Deletes the voting power on a different chain.",
        "params": {
          "chainId": "The ID of the chain to delete the voting power on.",
          "tokenId": "The ID of the NFT for which voting power is being deleted."
        }
      },
      "earned(address)": {
        "details": "Calculates the amount of rewards earned by an account.",
        "params": {
          "account": "The address of the account."
        },
        "returns": {
          "_0": "The amount of rewards earned."
        }
      },
      "eip712Domain()": {
        "details": "See {IERC-5267}."
      },
      "getLockedNftDetails(address)": {
        "details": "Gets the details of locked NFTs for a given user.",
        "params": {
          "_user": "The address of the user."
        },
        "returns": {
          "_0": "lockedTokenIds The array of locked NFT IDs.",
          "_1": "tokenDetails The array of locked NFT details."
        }
      },
      "getPastTotalSupply(uint256)": {
        "details": "Returns the total supply of votes available at a specific moment in the past. If the `clock()` is configured to use block numbers, this will return the value at the end of the corresponding block. NOTE: This value is the sum of all available votes, which is not necessarily the sum of all delegated votes. Votes that have not been delegated are still part of total supply, even though they would not participate in a vote. Requirements: - `timepoint` must be in the past. If operating using block numbers, the block must be already mined."
      },
      "getPastVotes(address,uint256)": {
        "details": "Returns the amount of votes that `account` had at a specific moment in the past. If the `clock()` is configured to use block numbers, this will return the value at the end of the corresponding block. Requirements: - `timepoint` must be in the past. If operating using block numbers, the block must be already mined."
      },
      "getReward()": {
        "details": "Transfers rewards to the caller."
      },
      "getVotes(address)": {
        "details": "Returns the current amount of votes that `account` has."
      },
      "increaseLockAmount(uint256,uint256)": {
        "details": "Updates the lock amount for a specific NFT.",
        "params": {
          "newLockAmount": "The new lock amount in tokens.",
          "tokenId": "The ID of the NFT for which to update the lock amount."
        }
      },
      "increaseLockDuration(uint256,uint256)": {
        "details": "Updates the lock duration for a specific NFT.",
        "params": {
          "newLockDuration": "The new lock duration in seconds.",
          "tokenId": "The ID of the NFT for which to update the lock duration."
        }
      },
      "lastTimeRewardApplicable()": {
        "details": "Calculates the last time rewards were applicable.",
        "returns": {
          "_0": "The last time rewards were applicable."
        }
      },
      "name()": {
        "details": "Returns the name of the token."
      },
      "nonces(address)": {
        "details": "Returns the next unused nonce for an address."
      },
      "numCheckpoints(address)": {
        "details": "Get number of checkpoints for `account`."
      },
      "owner()": {
        "details": "Returns the address of the current owner."
      },
      "renounceOwnership()": {
        "details": "Leaves the contract without owner. It will not be possible to call `onlyOwner` functions. Can only be called by the current owner. NOTE: Renouncing ownership will leave the contract without an owner, thereby disabling any functionality that is only available to the owner."
      },
      "rewardPerToken()": {
        "details": "Calculates the reward per token.",
        "returns": {
          "_0": "The reward per token."
        }
      },
      "symbol()": {
        "details": "Returns the symbol of the token, usually a shorter version of the name."
      },
      "totalSupply()": {
        "details": "See {IERC20-totalSupply}."
      },
      "transfer(address,uint256)": {
        "details": "Prevents transfers of voting power."
      },
      "transferFrom(address,address,uint256)": {
        "details": "Prevents transfers of voting power."
      },
      "transferOwnership(address)": {
        "details": "Transfers ownership of the contract to a new account (`newOwner`). Can only be called by the current owner."
      },
      "unstakeToken(uint256)": {
        "details": "Unstakes a regular token NFT and transfers it back to the user.",
        "params": {
          "tokenId": "The ID of the regular token NFT to unstake."
        }
      },
      "updatePowerOnChain(uint256,uint256)": {
        "details": "Updates the voting power on a different chain.",
        "params": {
          "chainId": "The ID of the chain to update the voting power on.",
          "tokenId": "The ID of the NFT for which voting power is being updated."
        }
      },
      "updateRewardFor(address)": {
        "details": "Updates the reward for a given account.",
        "params": {
          "account": "The address of the account."
        }
      },
      "updateSupplyFromLZ()": {
        "details": "Updates the veStaked supply from the mainnet via LayerZero."
      },
      "updateSupplyToMainnetViaLZ()": {
        "details": "Updates the veStaked supply to the mainnet via LayerZero."
      }
    },
    "version": 1
  },
  "userdoc": {
    "kind": "user",
    "methods": {},
    "version": 1
  },
  "storageLayout": {
    "storage": [
      {
        "astId": 16152,
        "contract": "contracts/locker/staking/OmnichainStakingLP.sol:OmnichainStakingLP",
        "label": "locker",
        "offset": 0,
        "slot": "0",
        "type": "t_contract(ILocker)13508"
      },
      {
        "astId": 16155,
        "contract": "contracts/locker/staking/OmnichainStakingLP.sol:OmnichainStakingLP",
        "label": "poolVoter",
        "offset": 0,
        "slot": "1",
        "type": "t_contract(IPoolVoter)14259"
      },
      {
        "astId": 16158,
        "contract": "contracts/locker/staking/OmnichainStakingLP.sol:OmnichainStakingLP",
        "label": "rewardsToken",
        "offset": 0,
        "slot": "2",
        "type": "t_contract(IZeroLend)14587"
      },
      {
        "astId": 16160,
        "contract": "contracts/locker/staking/OmnichainStakingLP.sol:OmnichainStakingLP",
        "label": "periodFinish",
        "offset": 0,
        "slot": "3",
        "type": "t_uint256"
      },
      {
        "astId": 16162,
        "contract": "contracts/locker/staking/OmnichainStakingLP.sol:OmnichainStakingLP",
        "label": "rewardRate",
        "offset": 0,
        "slot": "4",
        "type": "t_uint256"
      },
      {
        "astId": 16164,
        "contract": "contracts/locker/staking/OmnichainStakingLP.sol:OmnichainStakingLP",
        "label": "rewardsDuration",
        "offset": 0,
        "slot": "5",
        "type": "t_uint256"
      },
      {
        "astId": 16166,
        "contract": "contracts/locker/staking/OmnichainStakingLP.sol:OmnichainStakingLP",
        "label": "lastUpdateTime",
        "offset": 0,
        "slot": "6",
        "type": "t_uint256"
      },
      {
        "astId": 16168,
        "contract": "contracts/locker/staking/OmnichainStakingLP.sol:OmnichainStakingLP",
        "label": "rewardPerTokenStored",
        "offset": 0,
        "slot": "7",
        "type": "t_uint256"
      },
      {
        "astId": 16172,
        "contract": "contracts/locker/staking/OmnichainStakingLP.sol:OmnichainStakingLP",
        "label": "lpPower",
        "offset": 0,
        "slot": "8",
        "type": "t_mapping(t_uint256,t_uint256)"
      },
      {
        "astId": 16176,
        "contract": "contracts/locker/staking/OmnichainStakingLP.sol:OmnichainStakingLP",
        "label": "tokenPower",
        "offset": 0,
        "slot": "9",
        "type": "t_mapping(t_uint256,t_uint256)"
      },
      {
        "astId": 16180,
        "contract": "contracts/locker/staking/OmnichainStakingLP.sol:OmnichainStakingLP",
        "label": "lockedByToken",
        "offset": 0,
        "slot": "10",
        "type": "t_mapping(t_uint256,t_address)"
      },
      {
        "astId": 16185,
        "contract": "contracts/locker/staking/OmnichainStakingLP.sol:OmnichainStakingLP",
        "label": "lockedTokenIdNfts",
        "offset": 0,
        "slot": "11",
        "type": "t_mapping(t_address,t_array(t_uint256)dyn_storage)"
      },
      {
        "astId": 16189,
        "contract": "contracts/locker/staking/OmnichainStakingLP.sol:OmnichainStakingLP",
        "label": "userRewardPerTokenPaid",
        "offset": 0,
        "slot": "12",
        "type": "t_mapping(t_address,t_uint256)"
      },
      {
        "astId": 16193,
        "contract": "contracts/locker/staking/OmnichainStakingLP.sol:OmnichainStakingLP",
        "label": "rewards",
        "offset": 0,
        "slot": "13",
        "type": "t_mapping(t_address,t_uint256)"
      },
      {
        "astId": 17189,
        "contract": "contracts/locker/staking/OmnichainStakingLP.sol:OmnichainStakingLP",
        "label": "lpOracle",
        "offset": 0,
        "slot": "14",
        "type": "t_contract(ILPOracle)13370"
      },
      {
        "astId": 17192,
        "contract": "contracts/locker/staking/OmnichainStakingLP.sol:OmnichainStakingLP",
        "label": "zeroAggregator",
        "offset": 0,
        "slot": "15",
        "type": "t_contract(IPythAggregatorV3)14350"
      }
    ],
    "types": {
      "t_address": {
        "encoding": "inplace",
        "label": "address",
        "numberOfBytes": "20"
      },
      "t_array(t_uint256)dyn_storage": {
        "base": "t_uint256",
        "encoding": "dynamic_array",
        "label": "uint256[]",
        "numberOfBytes": "32"
      },
      "t_contract(ILPOracle)13370": {
        "encoding": "inplace",
        "label": "contract ILPOracle",
        "numberOfBytes": "20"
      },
      "t_contract(ILocker)13508": {
        "encoding": "inplace",
        "label": "contract ILocker",
        "numberOfBytes": "20"
      },
      "t_contract(IPoolVoter)14259": {
        "encoding": "inplace",
        "label": "contract IPoolVoter",
        "numberOfBytes": "20"
      },
      "t_contract(IPythAggregatorV3)14350": {
        "encoding": "inplace",
        "label": "contract IPythAggregatorV3",
        "numberOfBytes": "20"
      },
      "t_contract(IZeroLend)14587": {
        "encoding": "inplace",
        "label": "contract IZeroLend",
        "numberOfBytes": "20"
      },
      "t_mapping(t_address,t_array(t_uint256)dyn_storage)": {
        "encoding": "mapping",
        "key": "t_address",
        "label": "mapping(address => uint256[])",
        "numberOfBytes": "32",
        "value": "t_array(t_uint256)dyn_storage"
      },
      "t_mapping(t_address,t_uint256)": {
        "encoding": "mapping",
        "key": "t_address",
        "label": "mapping(address => uint256)",
        "numberOfBytes": "32",
        "value": "t_uint256"
      },
      "t_mapping(t_uint256,t_address)": {
        "encoding": "mapping",
        "key": "t_uint256",
        "label": "mapping(uint256 => address)",
        "numberOfBytes": "32",
        "value": "t_address"
      },
      "t_mapping(t_uint256,t_uint256)": {
        "encoding": "mapping",
        "key": "t_uint256",
        "label": "mapping(uint256 => uint256)",
        "numberOfBytes": "32",
        "value": "t_uint256"
      },
      "t_uint256": {
        "encoding": "inplace",
        "label": "uint256",
        "numberOfBytes": "32"
      }
    }
  }
}