{
  "address": "0xC343dbc9e270D4Ffa145520f73860Ae0E7541dA5",
  "abi": [
    {
      "inputs": [],
      "name": "CheckpointUnorderedInsertion",
      "type": "error"
    },
    {
      "inputs": [],
      "name": "ECDSAInvalidSignature",
      "type": "error"
    },
    {
      "inputs": [
        {
          "internalType": "uint256",
          "name": "length",
          "type": "uint256"
        }
      ],
      "name": "ECDSAInvalidSignatureLength",
      "type": "error"
    },
    {
      "inputs": [
        {
          "internalType": "bytes32",
          "name": "s",
          "type": "bytes32"
        }
      ],
      "name": "ECDSAInvalidSignatureS",
      "type": "error"
    },
    {
      "inputs": [
        {
          "internalType": "uint256",
          "name": "increasedSupply",
          "type": "uint256"
        },
        {
          "internalType": "uint256",
          "name": "cap",
          "type": "uint256"
        }
      ],
      "name": "ERC20ExceededSafeSupply",
      "type": "error"
    },
    {
      "inputs": [
        {
          "internalType": "address",
          "name": "spender",
          "type": "address"
        },
        {
          "internalType": "uint256",
          "name": "allowance",
          "type": "uint256"
        },
        {
          "internalType": "uint256",
          "name": "needed",
          "type": "uint256"
        }
      ],
      "name": "ERC20InsufficientAllowance",
      "type": "error"
    },
    {
      "inputs": [
        {
          "internalType": "address",
          "name": "sender",
          "type": "address"
        },
        {
          "internalType": "uint256",
          "name": "balance",
          "type": "uint256"
        },
        {
          "internalType": "uint256",
          "name": "needed",
          "type": "uint256"
        }
      ],
      "name": "ERC20InsufficientBalance",
      "type": "error"
    },
    {
      "inputs": [
        {
          "internalType": "address",
          "name": "approver",
          "type": "address"
        }
      ],
      "name": "ERC20InvalidApprover",
      "type": "error"
    },
    {
      "inputs": [
        {
          "internalType": "address",
          "name": "receiver",
          "type": "address"
        }
      ],
      "name": "ERC20InvalidReceiver",
      "type": "error"
    },
    {
      "inputs": [
        {
          "internalType": "address",
          "name": "sender",
          "type": "address"
        }
      ],
      "name": "ERC20InvalidSender",
      "type": "error"
    },
    {
      "inputs": [
        {
          "internalType": "address",
          "name": "spender",
          "type": "address"
        }
      ],
      "name": "ERC20InvalidSpender",
      "type": "error"
    },
    {
      "inputs": [
        {
          "internalType": "uint256",
          "name": "timepoint",
          "type": "uint256"
        },
        {
          "internalType": "uint48",
          "name": "clock",
          "type": "uint48"
        }
      ],
      "name": "ERC5805FutureLookup",
      "type": "error"
    },
    {
      "inputs": [],
      "name": "ERC6372InconsistentClock",
      "type": "error"
    },
    {
      "inputs": [
        {
          "internalType": "address",
          "name": "account",
          "type": "address"
        },
        {
          "internalType": "uint256",
          "name": "currentNonce",
          "type": "uint256"
        }
      ],
      "name": "InvalidAccountNonce",
      "type": "error"
    },
    {
      "inputs": [],
      "name": "InvalidInitialization",
      "type": "error"
    },
    {
      "inputs": [
        {
          "internalType": "address",
          "name": "",
          "type": "address"
        },
        {
          "internalType": "address",
          "name": "",
          "type": "address"
        }
      ],
      "name": "InvalidUnstaker",
      "type": "error"
    },
    {
      "inputs": [],
      "name": "NotInitializing",
      "type": "error"
    },
    {
      "inputs": [
        {
          "internalType": "address",
          "name": "owner",
          "type": "address"
        }
      ],
      "name": "OwnableInvalidOwner",
      "type": "error"
    },
    {
      "inputs": [
        {
          "internalType": "address",
          "name": "account",
          "type": "address"
        }
      ],
      "name": "OwnableUnauthorizedAccount",
      "type": "error"
    },
    {
      "inputs": [],
      "name": "ReentrancyGuardReentrantCall",
      "type": "error"
    },
    {
      "inputs": [
        {
          "internalType": "uint8",
          "name": "bits",
          "type": "uint8"
        },
        {
          "internalType": "uint256",
          "name": "value",
          "type": "uint256"
        }
      ],
      "name": "SafeCastOverflowedUintDowncast",
      "type": "error"
    },
    {
      "inputs": [
        {
          "internalType": "uint256",
          "name": "expiry",
          "type": "uint256"
        }
      ],
      "name": "VotesExpiredSignature",
      "type": "error"
    },
    {
      "anonymous": false,
      "inputs": [
        {
          "indexed": true,
          "internalType": "address",
          "name": "owner",
          "type": "address"
        },
        {
          "indexed": true,
          "internalType": "address",
          "name": "spender",
          "type": "address"
        },
        {
          "indexed": false,
          "internalType": "uint256",
          "name": "value",
          "type": "uint256"
        }
      ],
      "name": "Approval",
      "type": "event"
    },
    {
      "anonymous": false,
      "inputs": [
        {
          "indexed": true,
          "internalType": "address",
          "name": "delegator",
          "type": "address"
        },
        {
          "indexed": true,
          "internalType": "address",
          "name": "fromDelegate",
          "type": "address"
        },
        {
          "indexed": true,
          "internalType": "address",
          "name": "toDelegate",
          "type": "address"
        }
      ],
      "name": "DelegateChanged",
      "type": "event"
    },
    {
      "anonymous": false,
      "inputs": [
        {
          "indexed": true,
          "internalType": "address",
          "name": "delegate",
          "type": "address"
        },
        {
          "indexed": false,
          "internalType": "uint256",
          "name": "previousVotes",
          "type": "uint256"
        },
        {
          "indexed": false,
          "internalType": "uint256",
          "name": "newVotes",
          "type": "uint256"
        }
      ],
      "name": "DelegateVotesChanged",
      "type": "event"
    },
    {
      "anonymous": false,
      "inputs": [],
      "name": "EIP712DomainChanged",
      "type": "event"
    },
    {
      "anonymous": false,
      "inputs": [
        {
          "indexed": false,
          "internalType": "uint64",
          "name": "version",
          "type": "uint64"
        }
      ],
      "name": "Initialized",
      "type": "event"
    },
    {
      "anonymous": false,
      "inputs": [
        {
          "indexed": true,
          "internalType": "address",
          "name": "oldLpOracle",
          "type": "address"
        },
        {
          "indexed": true,
          "internalType": "address",
          "name": "newLpOracle",
          "type": "address"
        }
      ],
      "name": "LpOracleSet",
      "type": "event"
    },
    {
      "anonymous": false,
      "inputs": [
        {
          "indexed": true,
          "internalType": "address",
          "name": "previousOwner",
          "type": "address"
        },
        {
          "indexed": true,
          "internalType": "address",
          "name": "newOwner",
          "type": "address"
        }
      ],
      "name": "OwnershipTransferred",
      "type": "event"
    },
    {
      "anonymous": false,
      "inputs": [
        {
          "indexed": false,
          "internalType": "address",
          "name": "token",
          "type": "address"
        },
        {
          "indexed": false,
          "internalType": "uint256",
          "name": "amount",
          "type": "uint256"
        }
      ],
      "name": "Recovered",
      "type": "event"
    },
    {
      "anonymous": false,
      "inputs": [
        {
          "indexed": false,
          "internalType": "uint256",
          "name": "reward",
          "type": "uint256"
        }
      ],
      "name": "RewardAdded",
      "type": "event"
    },
    {
      "anonymous": false,
      "inputs": [
        {
          "indexed": true,
          "internalType": "address",
          "name": "user",
          "type": "address"
        },
        {
          "indexed": false,
          "internalType": "uint256",
          "name": "reward",
          "type": "uint256"
        }
      ],
      "name": "RewardPaid",
      "type": "event"
    },
    {
      "anonymous": false,
      "inputs": [
        {
          "indexed": false,
          "internalType": "uint256",
          "name": "newDuration",
          "type": "uint256"
        }
      ],
      "name": "RewardsDurationUpdated",
      "type": "event"
    },
    {
      "anonymous": false,
      "inputs": [
        {
          "indexed": false,
          "internalType": "address",
          "name": "previousToken",
          "type": "address"
        },
        {
          "indexed": false,
          "internalType": "address",
          "name": "_zeroToken",
          "type": "address"
        }
      ],
      "name": "RewardsTokenUpdated",
      "type": "event"
    },
    {
      "anonymous": false,
      "inputs": [
        {
          "indexed": false,
          "internalType": "address",
          "name": "previousLocker",
          "type": "address"
        },
        {
          "indexed": false,
          "internalType": "address",
          "name": "_tokenLocker",
          "type": "address"
        }
      ],
      "name": "TokenLockerUpdated",
      "type": "event"
    },
    {
      "anonymous": false,
      "inputs": [
        {
          "indexed": true,
          "internalType": "address",
          "name": "from",
          "type": "address"
        },
        {
          "indexed": true,
          "internalType": "address",
          "name": "to",
          "type": "address"
        },
        {
          "indexed": false,
          "internalType": "uint256",
          "name": "value",
          "type": "uint256"
        }
      ],
      "name": "Transfer",
      "type": "event"
    },
    {
      "anonymous": false,
      "inputs": [
        {
          "indexed": false,
          "internalType": "address",
          "name": "previousVotingPowerCombined",
          "type": "address"
        },
        {
          "indexed": false,
          "internalType": "address",
          "name": "_votingPowerCombined",
          "type": "address"
        }
      ],
      "name": "VotingPowerCombinedUpdated",
      "type": "event"
    },
    {
      "anonymous": false,
      "inputs": [
        {
          "indexed": true,
          "internalType": "address",
          "name": "oldZeroAggregator",
          "type": "address"
        },
        {
          "indexed": true,
          "internalType": "address",
          "name": "newZeroAggregator",
          "type": "address"
        }
      ],
      "name": "ZeroAggregatorSet",
      "type": "event"
    },
    {
      "inputs": [],
      "name": "CLOCK_MODE",
      "outputs": [
        {
          "internalType": "string",
          "name": "",
          "type": "string"
        }
      ],
      "stateMutability": "view",
      "type": "function"
    },
    {
      "inputs": [],
      "name": "__",
      "outputs": [
        {
          "internalType": "contract ILocker",
          "name": "",
          "type": "address"
        }
      ],
      "stateMutability": "view",
      "type": "function"
    },
    {
      "inputs": [
        {
          "internalType": "address",
          "name": "owner",
          "type": "address"
        },
        {
          "internalType": "address",
          "name": "spender",
          "type": "address"
        }
      ],
      "name": "allowance",
      "outputs": [
        {
          "internalType": "uint256",
          "name": "",
          "type": "uint256"
        }
      ],
      "stateMutability": "view",
      "type": "function"
    },
    {
      "inputs": [
        {
          "internalType": "address",
          "name": "spender",
          "type": "address"
        },
        {
          "internalType": "uint256",
          "name": "value",
          "type": "uint256"
        }
      ],
      "name": "approve",
      "outputs": [
        {
          "internalType": "bool",
          "name": "",
          "type": "bool"
        }
      ],
      "stateMutability": "nonpayable",
      "type": "function"
    },
    {
      "inputs": [
        {
          "internalType": "address",
          "name": "account",
          "type": "address"
        }
      ],
      "name": "balanceOf",
      "outputs": [
        {
          "internalType": "uint256",
          "name": "",
          "type": "uint256"
        }
      ],
      "stateMutability": "view",
      "type": "function"
    },
    {
      "inputs": [
        {
          "internalType": "address",
          "name": "account",
          "type": "address"
        },
        {
          "internalType": "uint32",
          "name": "pos",
          "type": "uint32"
        }
      ],
      "name": "checkpoints",
      "outputs": [
        {
          "components": [
            {
              "internalType": "uint48",
              "name": "_key",
              "type": "uint48"
            },
            {
              "internalType": "uint208",
              "name": "_value",
              "type": "uint208"
            }
          ],
          "internalType": "struct Checkpoints.Checkpoint208",
          "name": "",
          "type": "tuple"
        }
      ],
      "stateMutability": "view",
      "type": "function"
    },
    {
      "inputs": [],
      "name": "clock",
      "outputs": [
        {
          "internalType": "uint48",
          "name": "",
          "type": "uint48"
        }
      ],
      "stateMutability": "view",
      "type": "function"
    },
    {
      "inputs": [],
      "name": "decimals",
      "outputs": [
        {
          "internalType": "uint8",
          "name": "",
          "type": "uint8"
        }
      ],
      "stateMutability": "view",
      "type": "function"
    },
    {
      "inputs": [
        {
          "internalType": "address",
          "name": "delegatee",
          "type": "address"
        }
      ],
      "name": "delegate",
      "outputs": [],
      "stateMutability": "nonpayable",
      "type": "function"
    },
    {
      "inputs": [
        {
          "internalType": "address",
          "name": "delegatee",
          "type": "address"
        },
        {
          "internalType": "uint256",
          "name": "nonce",
          "type": "uint256"
        },
        {
          "internalType": "uint256",
          "name": "expiry",
          "type": "uint256"
        },
        {
          "internalType": "uint8",
          "name": "v",
          "type": "uint8"
        },
        {
          "internalType": "bytes32",
          "name": "r",
          "type": "bytes32"
        },
        {
          "internalType": "bytes32",
          "name": "s",
          "type": "bytes32"
        }
      ],
      "name": "delegateBySig",
      "outputs": [],
      "stateMutability": "nonpayable",
      "type": "function"
    },
    {
      "inputs": [
        {
          "internalType": "address",
          "name": "account",
          "type": "address"
        }
      ],
      "name": "delegates",
      "outputs": [
        {
          "internalType": "address",
          "name": "",
          "type": "address"
        }
      ],
      "stateMutability": "view",
      "type": "function"
    },
    {
      "inputs": [],
      "name": "distributor",
      "outputs": [
        {
          "internalType": "address",
          "name": "",
          "type": "address"
        }
      ],
      "stateMutability": "view",
      "type": "function"
    },
    {
      "inputs": [
        {
          "internalType": "address",
          "name": "account",
          "type": "address"
        }
      ],
      "name": "earned",
      "outputs": [
        {
          "internalType": "uint256",
          "name": "",
          "type": "uint256"
        }
      ],
      "stateMutability": "view",
      "type": "function"
    },
    {
      "inputs": [],
      "name": "eip712Domain",
      "outputs": [
        {
          "internalType": "bytes1",
          "name": "fields",
          "type": "bytes1"
        },
        {
          "internalType": "string",
          "name": "name",
          "type": "string"
        },
        {
          "internalType": "string",
          "name": "version",
          "type": "string"
        },
        {
          "internalType": "uint256",
          "name": "chainId",
          "type": "uint256"
        },
        {
          "internalType": "address",
          "name": "verifyingContract",
          "type": "address"
        },
        {
          "internalType": "bytes32",
          "name": "salt",
          "type": "bytes32"
        },
        {
          "internalType": "uint256[]",
          "name": "extensions",
          "type": "uint256[]"
        }
      ],
      "stateMutability": "view",
      "type": "function"
    },
    {
      "inputs": [
        {
          "internalType": "address",
          "name": "_user",
          "type": "address"
        }
      ],
      "name": "getLockedNftDetails",
      "outputs": [
        {
          "internalType": "uint256[]",
          "name": "",
          "type": "uint256[]"
        },
        {
          "components": [
            {
              "internalType": "uint256",
              "name": "amount",
              "type": "uint256"
            },
            {
              "internalType": "uint256",
              "name": "end",
              "type": "uint256"
            },
            {
              "internalType": "uint256",
              "name": "start",
              "type": "uint256"
            },
            {
              "internalType": "uint256",
              "name": "power",
              "type": "uint256"
            }
          ],
          "internalType": "struct ILocker.LockedBalance[]",
          "name": "",
          "type": "tuple[]"
        }
      ],
      "stateMutability": "view",
      "type": "function"
    },
    {
      "inputs": [
        {
          "internalType": "uint256",
          "name": "timepoint",
          "type": "uint256"
        }
      ],
      "name": "getPastTotalSupply",
      "outputs": [
        {
          "internalType": "uint256",
          "name": "",
          "type": "uint256"
        }
      ],
      "stateMutability": "view",
      "type": "function"
    },
    {
      "inputs": [
        {
          "internalType": "address",
          "name": "account",
          "type": "address"
        },
        {
          "internalType": "uint256",
          "name": "timepoint",
          "type": "uint256"
        }
      ],
      "name": "getPastVotes",
      "outputs": [
        {
          "internalType": "uint256",
          "name": "",
          "type": "uint256"
        }
      ],
      "stateMutability": "view",
      "type": "function"
    },
    {
      "inputs": [],
      "name": "getReward",
      "outputs": [],
      "stateMutability": "nonpayable",
      "type": "function"
    },
    {
      "inputs": [],
      "name": "getRewardETH",
      "outputs": [],
      "stateMutability": "nonpayable",
      "type": "function"
    },
    {
      "inputs": [
        {
          "internalType": "uint256",
          "name": "amount",
          "type": "uint256"
        }
      ],
      "name": "getTokenPower",
      "outputs": [
        {
          "internalType": "uint256",
          "name": "power",
          "type": "uint256"
        }
      ],
      "stateMutability": "view",
      "type": "function"
    },
    {
      "inputs": [
        {
          "internalType": "address",
          "name": "account",
          "type": "address"
        }
      ],
      "name": "getVotes",
      "outputs": [
        {
          "internalType": "uint256",
          "name": "",
          "type": "uint256"
        }
      ],
      "stateMutability": "view",
      "type": "function"
    },
    {
      "inputs": [
        {
          "internalType": "uint256",
          "name": "tokenId",
          "type": "uint256"
        },
        {
          "internalType": "uint256",
          "name": "newLockAmount",
          "type": "uint256"
        }
      ],
      "name": "increaseLockAmount",
      "outputs": [],
      "stateMutability": "nonpayable",
      "type": "function"
    },
    {
      "inputs": [
        {
          "internalType": "uint256",
          "name": "tokenId",
          "type": "uint256"
        },
        {
          "internalType": "uint256",
          "name": "newLockDuration",
          "type": "uint256"
        }
      ],
      "name": "increaseLockDuration",
      "outputs": [],
      "stateMutability": "nonpayable",
      "type": "function"
    },
    {
      "inputs": [
        {
          "internalType": "address",
          "name": "_locker",
          "type": "address"
        },
        {
          "internalType": "address",
          "name": "_zeroToken",
          "type": "address"
        },
        {
          "internalType": "address",
          "name": "_poolVoter",
          "type": "address"
        },
        {
          "internalType": "uint256",
          "name": "_rewardsDuration",
          "type": "uint256"
        },
        {
          "internalType": "address",
          "name": "_owner",
          "type": "address"
        },
        {
          "internalType": "address",
          "name": "_distributor",
          "type": "address"
        }
      ],
      "name": "init",
      "outputs": [],
      "stateMutability": "nonpayable",
      "type": "function"
    },
    {
      "inputs": [
        {
          "internalType": "address[]",
          "name": "who",
          "type": "address[]"
        }
      ],
      "name": "initDelegates",
      "outputs": [],
      "stateMutability": "nonpayable",
      "type": "function"
    },
    {
      "inputs": [],
      "name": "lastTimeRewardApplicable",
      "outputs": [
        {
          "internalType": "uint256",
          "name": "",
          "type": "uint256"
        }
      ],
      "stateMutability": "view",
      "type": "function"
    },
    {
      "inputs": [],
      "name": "lastUpdateTime",
      "outputs": [
        {
          "internalType": "uint256",
          "name": "",
          "type": "uint256"
        }
      ],
      "stateMutability": "view",
      "type": "function"
    },
    {
      "inputs": [
        {
          "internalType": "uint256",
          "name": "",
          "type": "uint256"
        }
      ],
      "name": "lockedByToken",
      "outputs": [
        {
          "internalType": "address",
          "name": "",
          "type": "address"
        }
      ],
      "stateMutability": "view",
      "type": "function"
    },
    {
      "inputs": [
        {
          "internalType": "address",
          "name": "",
          "type": "address"
        },
        {
          "internalType": "uint256",
          "name": "",
          "type": "uint256"
        }
      ],
      "name": "lockedTokenIdNfts",
      "outputs": [
        {
          "internalType": "uint256",
          "name": "",
          "type": "uint256"
        }
      ],
      "stateMutability": "view",
      "type": "function"
    },
    {
      "inputs": [],
      "name": "locker",
      "outputs": [
        {
          "internalType": "contract ILocker",
          "name": "",
          "type": "address"
        }
      ],
      "stateMutability": "view",
      "type": "function"
    },
    {
      "inputs": [
        {
          "internalType": "uint256",
          "name": "",
          "type": "uint256"
        }
      ],
      "name": "lpPower",
      "outputs": [
        {
          "internalType": "uint256",
          "name": "",
          "type": "uint256"
        }
      ],
      "stateMutability": "view",
      "type": "function"
    },
    {
      "inputs": [],
      "name": "name",
      "outputs": [
        {
          "internalType": "string",
          "name": "",
          "type": "string"
        }
      ],
      "stateMutability": "view",
      "type": "function"
    },
    {
      "inputs": [
        {
          "internalType": "address",
          "name": "owner",
          "type": "address"
        }
      ],
      "name": "nonces",
      "outputs": [
        {
          "internalType": "uint256",
          "name": "",
          "type": "uint256"
        }
      ],
      "stateMutability": "view",
      "type": "function"
    },
    {
      "inputs": [
        {
          "internalType": "uint256",
          "name": "reward",
          "type": "uint256"
        }
      ],
      "name": "notifyRewardAmount",
      "outputs": [],
      "stateMutability": "nonpayable",
      "type": "function"
    },
    {
      "inputs": [
        {
          "internalType": "address",
          "name": "account",
          "type": "address"
        }
      ],
      "name": "numCheckpoints",
      "outputs": [
        {
          "internalType": "uint32",
          "name": "",
          "type": "uint32"
        }
      ],
      "stateMutability": "view",
      "type": "function"
    },
    {
      "inputs": [
        {
          "internalType": "address",
          "name": "to",
          "type": "address"
        },
        {
          "internalType": "address",
          "name": "from",
          "type": "address"
        },
        {
          "internalType": "uint256",
          "name": "tokenId",
          "type": "uint256"
        },
        {
          "internalType": "bytes",
          "name": "data",
          "type": "bytes"
        }
      ],
      "name": "onERC721Received",
      "outputs": [
        {
          "internalType": "bytes4",
          "name": "",
          "type": "bytes4"
        }
      ],
      "stateMutability": "nonpayable",
      "type": "function"
    },
    {
      "inputs": [],
      "name": "owner",
      "outputs": [
        {
          "internalType": "address",
          "name": "",
          "type": "address"
        }
      ],
      "stateMutability": "view",
      "type": "function"
    },
    {
      "inputs": [],
      "name": "periodFinish",
      "outputs": [
        {
          "internalType": "uint256",
          "name": "",
          "type": "uint256"
        }
      ],
      "stateMutability": "view",
      "type": "function"
    },
    {
      "inputs": [
        {
          "internalType": "address",
          "name": "tokenAddress",
          "type": "address"
        },
        {
          "internalType": "uint256",
          "name": "tokenAmount",
          "type": "uint256"
        }
      ],
      "name": "recoverERC20",
      "outputs": [],
      "stateMutability": "nonpayable",
      "type": "function"
    },
    {
      "inputs": [],
      "name": "renounceOwnership",
      "outputs": [],
      "stateMutability": "nonpayable",
      "type": "function"
    },
    {
      "inputs": [],
      "name": "rewardPerToken",
      "outputs": [
        {
          "internalType": "uint256",
          "name": "",
          "type": "uint256"
        }
      ],
      "stateMutability": "view",
      "type": "function"
    },
    {
      "inputs": [],
      "name": "rewardPerTokenStored",
      "outputs": [
        {
          "internalType": "uint256",
          "name": "",
          "type": "uint256"
        }
      ],
      "stateMutability": "view",
      "type": "function"
    },
    {
      "inputs": [],
      "name": "rewardRate",
      "outputs": [
        {
          "internalType": "uint256",
          "name": "",
          "type": "uint256"
        }
      ],
      "stateMutability": "view",
      "type": "function"
    },
    {
      "inputs": [
        {
          "internalType": "address",
          "name": "",
          "type": "address"
        }
      ],
      "name": "rewards",
      "outputs": [
        {
          "internalType": "uint256",
          "name": "",
          "type": "uint256"
        }
      ],
      "stateMutability": "view",
      "type": "function"
    },
    {
      "inputs": [],
      "name": "rewardsDuration",
      "outputs": [
        {
          "internalType": "uint256",
          "name": "",
          "type": "uint256"
        }
      ],
      "stateMutability": "view",
      "type": "function"
    },
    {
      "inputs": [],
      "name": "rewardsToken",
      "outputs": [
        {
          "internalType": "contract IZeroLend",
          "name": "",
          "type": "address"
        }
      ],
      "stateMutability": "view",
      "type": "function"
    },
    {
      "inputs": [
        {
          "internalType": "address",
          "name": "what",
          "type": "address"
        }
      ],
      "name": "setRewardDistributor",
      "outputs": [],
      "stateMutability": "nonpayable",
      "type": "function"
    },
    {
      "inputs": [
        {
          "internalType": "address",
          "name": "what",
          "type": "address"
        }
      ],
      "name": "setVotingPowerCombined",
      "outputs": [],
      "stateMutability": "nonpayable",
      "type": "function"
    },
    {
      "inputs": [],
      "name": "symbol",
      "outputs": [
        {
          "internalType": "string",
          "name": "",
          "type": "string"
        }
      ],
      "stateMutability": "view",
      "type": "function"
    },
    {
      "inputs": [
        {
          "internalType": "uint256",
          "name": "",
          "type": "uint256"
        }
      ],
      "name": "tokenPower",
      "outputs": [
        {
          "internalType": "uint256",
          "name": "",
          "type": "uint256"
        }
      ],
      "stateMutability": "view",
      "type": "function"
    },
    {
      "inputs": [
        {
          "internalType": "address",
          "name": "who",
          "type": "address"
        }
      ],
      "name": "totalNFTStaked",
      "outputs": [
        {
          "internalType": "uint256",
          "name": "",
          "type": "uint256"
        }
      ],
      "stateMutability": "view",
      "type": "function"
    },
    {
      "inputs": [],
      "name": "totalSupply",
      "outputs": [
        {
          "internalType": "uint256",
          "name": "",
          "type": "uint256"
        }
      ],
      "stateMutability": "view",
      "type": "function"
    },
    {
      "inputs": [
        {
          "internalType": "address",
          "name": "to",
          "type": "address"
        },
        {
          "internalType": "uint256",
          "name": "value",
          "type": "uint256"
        }
      ],
      "name": "transfer",
      "outputs": [
        {
          "internalType": "bool",
          "name": "",
          "type": "bool"
        }
      ],
      "stateMutability": "nonpayable",
      "type": "function"
    },
    {
      "inputs": [
        {
          "internalType": "address",
          "name": "from",
          "type": "address"
        },
        {
          "internalType": "address",
          "name": "to",
          "type": "address"
        },
        {
          "internalType": "uint256",
          "name": "value",
          "type": "uint256"
        }
      ],
      "name": "transferFrom",
      "outputs": [
        {
          "internalType": "bool",
          "name": "",
          "type": "bool"
        }
      ],
      "stateMutability": "nonpayable",
      "type": "function"
    },
    {
      "inputs": [
        {
          "internalType": "address",
          "name": "newOwner",
          "type": "address"
        }
      ],
      "name": "transferOwnership",
      "outputs": [],
      "stateMutability": "nonpayable",
      "type": "function"
    },
    {
      "inputs": [
        {
          "internalType": "uint256",
          "name": "tokenId",
          "type": "uint256"
        }
      ],
      "name": "unstakeAndWithdraw",
      "outputs": [],
      "stateMutability": "nonpayable",
      "type": "function"
    },
    {
      "inputs": [
        {
          "internalType": "uint256",
          "name": "tokenId",
          "type": "uint256"
        }
      ],
      "name": "unstakeToken",
      "outputs": [],
      "stateMutability": "nonpayable",
      "type": "function"
    },
    {
      "inputs": [
        {
          "internalType": "address",
          "name": "account",
          "type": "address"
        }
      ],
      "name": "updateRewardFor",
      "outputs": [],
      "stateMutability": "nonpayable",
      "type": "function"
    },
    {
      "inputs": [
        {
          "internalType": "address",
          "name": "",
          "type": "address"
        }
      ],
      "name": "userRewardPerTokenPaid",
      "outputs": [
        {
          "internalType": "uint256",
          "name": "",
          "type": "uint256"
        }
      ],
      "stateMutability": "view",
      "type": "function"
    },
    {
      "inputs": [],
      "name": "votingPowerCombined",
      "outputs": [
        {
          "internalType": "contract IVotingPowerCombined",
          "name": "",
          "type": "address"
        }
      ],
      "stateMutability": "view",
      "type": "function"
    }
  ],
  "transactionHash": "0x28fe9d6cdb81fd03669781a045d42a4fd4ca300803380fb7ff12c99d3adec76b",
  "args": [],
  "numDeployments": 1,
  "solcInputHash": "084ef92be6e83b38d12051781ac1b5c3",
  "bytecode": "0x60806040523480156200001157600080fd5b506200001c62000022565b620000d6565b7ff0c57e16840df040f15088dc2f81fe391c3923bec73e23a9662efc9c229c6a00805468010000000000000000900460ff1615620000735760405163f92ee8a960e01b815260040160405180910390fd5b80546001600160401b0390811614620000d35780546001600160401b0319166001600160401b0390811782556040519081527fc7f505b2f371ae2175ee4913f4499e1f2633a7b5936321eed1cdaeb6115181d29060200160405180910390a15b50565b61597480620000e66000396000f3fe608060405234801561001057600080fd5b50600436106103a35760003560e01c806380faa57d116101e9578063a9059cbb1161010f578063d7b96d4e116100ad578063eea11ca91161007c578063eea11ca914610961578063f1127ed814610981578063f2fde38b146109d3578063f892c9fc146109e657600080fd5b8063d7b96d4e146108ca578063dd62ed3e146108ea578063df136d651461094f578063ebe2b12b1461095857600080fd5b8063c3cda520116100e9578063c3cda52014610886578063c8f33c9114610899578063cd3daf9d146108a2578063d1af0c7d146108aa57600080fd5b8063a9059cbb14610832578063aa88151614610845578063bfe109281461086657600080fd5b80638da5cb5b116101875780639ab24eb0116101565780639ab24eb0146107d95780639ee91fea146107ec5780639fb55e0e146107ff578063a1809b951461081f57600080fd5b80638da5cb5b146107625780638e539e8c1461079f57806391ddadf4146107b257806395d89b41146107d157600080fd5b806384b0196e116101c357806384b0196e1461070157806387c5d8321461071c5780638980f11f1461072f5780638b8763471461074257600080fd5b806380faa57d146106d3578063819b434c146106db57806381b72684146106ee57600080fd5b8063386a9525116102ce57806357d4b12a1161026c57806370a082311161023b57806370a082311461069c578063715018a6146106af5780637b0a47ee146106b75780637ecebe00146106c057600080fd5b806357d4b12a146105f6578063587cde1e146106095780635c19a95c146106615780636fcfff451461067457600080fd5b80633c6b16ab116102a85780633c6b16ab1461059d5780633d18b912146105b05780634bf5d7e9146105b857806356981ac5146105c057600080fd5b8063386a95251461056e5780633a46b1a8146105775780633b6240321461058a57600080fd5b8063126565b51161034657806323b872dd1161031557806323b872dd146104f4578063262f965a146105075780632cfb66881461054c578063313ce5671461055f57600080fd5b8063126565b51461046e578063150b7a021461047657806318160ddd146104ba5780631fd54bde146104e157600080fd5b806308fab5cc1161038257806308fab5cc14610403578063095ea7b3146104235780630acde15d146104465780630d0986031461045b57600080fd5b80628cc262146103a857806306fdde03146103ce5780630700037d146103e3575b600080fd5b6103bb6103b6366004614ef6565b610a1c565b6040519081526020015b60405180910390f35b6103d6610a96565b6040516103c59190614f77565b6103bb6103f1366004614ef6565b600e6020526000908152604090205481565b6103bb610411366004614f8a565b60096020526000908152604090205481565b610436610431366004614fa3565b610b51565b60405190151581526020016103c5565b610459610454366004614f8a565b610b69565b005b610459610469366004614ef6565b610d68565b610459610e0b565b610489610484366004614fcf565b611050565b6040517fffffffff0000000000000000000000000000000000000000000000000000000090911681526020016103c5565b7f52c63247e1f47db19d5ce0460030c497f067ca4cebf71ba98eeadabe20bace02546103bb565b6103bb6104ef366004614fa3565b611069565b61043661050236600461506e565b61109a565b6002546105279073ffffffffffffffffffffffffffffffffffffffff1681565b60405173ffffffffffffffffffffffffffffffffffffffff90911681526020016103c5565b61045961055a366004614f8a565b6110be565b604051601281526020016103c5565b6103bb60065481565b6103bb610585366004614fa3565b611188565b6104596105983660046150af565b611266565b6104596105ab366004614f8a565b611703565b610459611a57565b6103d6611bf9565b6105276105ce366004614f8a565b600b6020526000908152604090205473ffffffffffffffffffffffffffffffffffffffff1681565b61045961060436600461514f565b611c8a565b610527610617366004614ef6565b73ffffffffffffffffffffffffffffffffffffffff90811660009081527fe8b26c30fad74198956032a3533d903385d56dd795af560196f9c78d4af40d0060205260409020541690565b61045961066f366004614ef6565b611de4565b610687610682366004614ef6565b611def565b60405163ffffffff90911681526020016103c5565b6103bb6106aa366004614ef6565b611dfa565b610459611e4c565b6103bb60055481565b6103bb6106ce366004614ef6565b611e5e565b6103bb611e87565b6104596106e9366004615201565b611ea2565b6104596106fc366004614ef6565b612051565b6107096120c7565b6040516103c597969594939291906152b5565b6103bb61072a366004614f8a565b6121c3565b61045961073d366004614fa3565b6121cb565b6103bb610750366004614ef6565b600d6020526000908152604090205481565b7f9016d09d72d40fdae2fd8ceac6b6234c7706214fd39c1cd1e609a0528c1993005473ffffffffffffffffffffffffffffffffffffffff16610527565b6103bb6107ad366004614f8a565b6123c2565b6107ba61247c565b60405165ffffffffffff90911681526020016103c5565b6103d661248b565b6103bb6107e7366004614ef6565b6124dc565b6104596107fa3660046150af565b61256e565b6103bb61080d366004614f8a565b600a6020526000908152604090205481565b61045961082d366004614ef6565b612738565b610436610840366004614fa3565b612787565b610858610853366004614ef6565b612795565b6040516103c592919061534c565b600f546105279073ffffffffffffffffffffffffffffffffffffffff1681565b6104596108943660046153c2565b6129e3565b6103bb60075481565b6103bb612abd565b6003546105279073ffffffffffffffffffffffffffffffffffffffff1681565b6000546105279073ffffffffffffffffffffffffffffffffffffffff1681565b6103bb6108f8366004615424565b73ffffffffffffffffffffffffffffffffffffffff91821660009081527f52c63247e1f47db19d5ce0460030c497f067ca4cebf71ba98eeadabe20bace016020908152604080832093909416825291909152205490565b6103bb60085481565b6103bb60045481565b6001546105279073ffffffffffffffffffffffffffffffffffffffff1681565b61099461098f36600461545d565b612b78565b60408051825165ffffffffffff16815260209283015179ffffffffffffffffffffffffffffffffffffffffffffffffffff1692810192909252016103c5565b6104596109e1366004614ef6565b612b9d565b6103bb6109f4366004614ef6565b73ffffffffffffffffffffffffffffffffffffffff166000908152600c602052604090205490565b73ffffffffffffffffffffffffffffffffffffffff81166000908152600e6020908152604080832054600d909252822054670de0b6b3a764000090610a5f612abd565b610a6991906154c3565b610a7285611dfa565b610a7c91906154d6565b610a86919061551c565b610a909190615557565b92915050565b606060007f52c63247e1f47db19d5ce0460030c497f067ca4cebf71ba98eeadabe20bace005b9050806003018054610acd9061556a565b80601f0160208091040260200160405190810160405280929190818152602001828054610af99061556a565b8015610b465780601f10610b1b57610100808354040283529160200191610b46565b820191906000526020600020905b815481529060010190602001808311610b2957829003601f168201915b505050505091505090565b600033610b5f818585612bfe565b5060019392505050565b610b71612c0b565b610b7a81612c8c565b600080546040517fb45a3c0e0000000000000000000000000000000000000000000000000000000081526004810184905273ffffffffffffffffffffffffffffffffffffffff9091169063b45a3c0e90602401608060405180830381865afa158015610bea573d6000803e3d6000fd5b505050506040513d601f19601f82011682018060405250810190610c0e91906155bd565b516000546040517f2e1a7d4d0000000000000000000000000000000000000000000000000000000081526004810185905291925073ffffffffffffffffffffffffffffffffffffffff1690632e1a7d4d90602401600060405180830381600087803b158015610c7c57600080fd5b505af1158015610c90573d6000803e3d6000fd5b50506003546040517fa9059cbb0000000000000000000000000000000000000000000000000000000081523360048201526024810185905273ffffffffffffffffffffffffffffffffffffffff909116925063a9059cbb91506044016020604051808303816000875af1158015610d0b573d6000803e3d6000fd5b505050506040513d601f19601f82011682018060405250810190610d2f9190615631565b610d3b57610d3b61564e565b50610d6560017f9b779b17422d0df92223018b32b4d1fa46e071723d6817e2486d003becc55f0055565b50565b610d70612fec565b6002546040805173ffffffffffffffffffffffffffffffffffffffff928316815291831660208301527fbbad92e565c82e52f6bbfe9fc4d045850cf58b348bed9f5f432686cbde48bba2910160405180910390a1600280547fffffffffffffffffffffffff00000000000000000000000000000000000000001673ffffffffffffffffffffffffffffffffffffffff92909216919091179055565b610e13612c0b565b33610e1c612abd565b600855610e27611e87565b60075573ffffffffffffffffffffffffffffffffffffffff811615610e8857610e4f81610a1c565b73ffffffffffffffffffffffffffffffffffffffff82166000908152600e6020908152604080832093909355600854600d909152919020555b336000908152600e6020526040902054801561102357336000908152600e60205260408082209190915560035490517f2e1a7d4d0000000000000000000000000000000000000000000000000000000081526004810183905273ffffffffffffffffffffffffffffffffffffffff90911690632e1a7d4d90602401600060405180830381600087803b158015610f1d57600080fd5b505af1158015610f31573d6000803e3d6000fd5b50506040516000925033915083908381818185875af1925050503d8060008114610f77576040519150601f19603f3d011682016040523d82523d6000602084013e610f7c565b606091505b5050905080610fec576040517f08c379a000000000000000000000000000000000000000000000000000000000815260206004820152600f60248201527f6574682073656e64206661696c6564000000000000000000000000000000000060448201526064015b60405180910390fd5b60405182815233907fe2403640ba68fed3a2f88b7557551d1993f84b99bb10ff833f0cf8db0c5e04869060200160405180910390a2505b505061104e60017f9b779b17422d0df92223018b32b4d1fa46e071723d6817e2486d003becc55f0055565b565b600061105f868686868661307a565b9695505050505050565b600c602052816000526040600020818154811061108557600080fd5b90600052602060002001600091509150505481565b6000336110a8858285613264565b6110b385858561334c565b506001949350505050565b6110c6612c0b565b6110cf81612c8c565b6000546040517f23b872dd0000000000000000000000000000000000000000000000000000000081523060048201523360248201526044810183905273ffffffffffffffffffffffffffffffffffffffff909116906323b872dd90606401600060405180830381600087803b15801561114757600080fd5b505af115801561115b573d6000803e3d6000fd5b50505050610d6560017f9b779b17422d0df92223018b32b4d1fa46e071723d6817e2486d003becc55f0055565b60007fe8b26c30fad74198956032a3533d903385d56dd795af560196f9c78d4af40d00816111b461247c565b90508065ffffffffffff168410611208576040517fecd3f81e0000000000000000000000000000000000000000000000000000000081526004810185905265ffffffffffff82166024820152604401610fe3565b611241611214856133f7565b73ffffffffffffffffffffffffffffffffffffffff87166000908152600185016020526040902090613447565b79ffffffffffffffffffffffffffffffffffffffffffffffffffff1695945050505050565b3361126f612abd565b60085561127a611e87565b60075573ffffffffffffffffffffffffffffffffffffffff8116156112db576112a281610a1c565b73ffffffffffffffffffffffffffffffffffffffff82166000908152600e6020908152604080832093909355600854600d909152919020555b60008211611345576040517f08c379a000000000000000000000000000000000000000000000000000000000815260206004820152600e60248201527f216e65774c6f636b416d6f756e740000000000000000000000000000000000006044820152606401610fe3565b6000838152600b602052604090205473ffffffffffffffffffffffffffffffffffffffff1633146113d2576040517f08c379a000000000000000000000000000000000000000000000000000000000815260206004820152600860248201527f21746f6b656e49640000000000000000000000000000000000000000000000006044820152606401610fe3565b60008054906101000a900473ffffffffffffffffffffffffffffffffffffffff1673ffffffffffffffffffffffffffffffffffffffff16636f307dc36040518163ffffffff1660e01b8152600401602060405180830381865afa15801561143d573d6000803e3d6000fd5b505050506040513d601f19601f82011682018060405250810190611461919061567d565b6040517f23b872dd0000000000000000000000000000000000000000000000000000000081523360048201523060248201526044810184905273ffffffffffffffffffffffffffffffffffffffff91909116906323b872dd906064016020604051808303816000875af11580156114dc573d6000803e3d6000fd5b505050506040513d601f19601f820116820180604052508101906115009190615631565b506000546040517fb2383e55000000000000000000000000000000000000000000000000000000008152600481018590526024810184905273ffffffffffffffffffffffffffffffffffffffff9091169063b2383e55906044015b600060405180830381600087803b15801561157557600080fd5b505af1158015611589573d6000803e3d6000fd5b5050506000848152600a60205260409020546115a791503390613513565b6000546040517fe7e242d4000000000000000000000000000000000000000000000000000000008152600481018590526116409173ffffffffffffffffffffffffffffffffffffffff169063e7e242d4906024015b602060405180830381865afa158015611619573d6000803e3d6000fd5b505050506040513d601f19601f8201168201806040525081019061163d919061569a565b90565b6000848152600a6020526040902081905561165c90339061356f565b60025473ffffffffffffffffffffffffffffffffffffffff16156116fe576002546040517f6b8ab97d00000000000000000000000000000000000000000000000000000000815233600482015273ffffffffffffffffffffffffffffffffffffffff90911690636b8ab97d90602401600060405180830381600087803b1580156116e557600080fd5b505af11580156116f9573d6000803e3d6000fd5b505050505b505050565b600061170d612abd565b600855611718611e87565b60075573ffffffffffffffffffffffffffffffffffffffff8116156117795761174081610a1c565b73ffffffffffffffffffffffffffffffffffffffff82166000908152600e6020908152604080832093909355600854600d909152919020555b600f5473ffffffffffffffffffffffffffffffffffffffff1633146117fa576040517f08c379a000000000000000000000000000000000000000000000000000000000815260206004820152600c60248201527f216469737472696275746f7200000000000000000000000000000000000000006044820152606401610fe3565b6003546040517f23b872dd0000000000000000000000000000000000000000000000000000000081523360048201523060248201526044810184905273ffffffffffffffffffffffffffffffffffffffff909116906323b872dd906064016020604051808303816000875af1158015611877573d6000803e3d6000fd5b505050506040513d601f19601f8201168201806040525081019061189b9190615631565b5060045442106118ba576006546118b2908361551c565b6005556118fc565b6000426004546118ca91906154c3565b90506000600554826118dc91906154d6565b6006549091506118ec8286615557565b6118f6919061551c565b60055550505b6003546040517f70a0823100000000000000000000000000000000000000000000000000000000815230600482015260009173ffffffffffffffffffffffffffffffffffffffff16906370a0823190602401602060405180830381865afa15801561196b573d6000803e3d6000fd5b505050506040513d601f19601f8201168201806040525081019061198f919061569a565b90506006548161199f919061551c565b6005541115611a0a576040517f08c379a000000000000000000000000000000000000000000000000000000000815260206004820152601860248201527f50726f76696465642072657761726420746f6f206869676800000000000000006044820152606401610fe3565b426007819055600654611a1c91615557565b6004556040518381527fde88a922e0d3b88b24e9623efeb464919c6bf9f66857a65e2bfcf2ce87a9433d9060200160405180910390a1505050565b611a5f612c0b565b33611a68612abd565b600855611a73611e87565b60075573ffffffffffffffffffffffffffffffffffffffff811615611ad457611a9b81610a1c565b73ffffffffffffffffffffffffffffffffffffffff82166000908152600e6020908152604080832093909355600854600d909152919020555b336000908152600e6020526040902054801561102357336000818152600e60205260408082209190915560035490517fa9059cbb00000000000000000000000000000000000000000000000000000000815260048101929092526024820183905273ffffffffffffffffffffffffffffffffffffffff169063a9059cbb906044016020604051808303816000875af1158015611b74573d6000803e3d6000fd5b505050506040513d601f19601f82011682018060405250810190611b989190615631565b5060405181815233907fe2403640ba68fed3a2f88b7557551d1993f84b99bb10ff833f0cf8db0c5e04869060200160405180910390a2505061104e60017f9b779b17422d0df92223018b32b4d1fa46e071723d6817e2486d003becc55f0055565b6060611c036135cb565b65ffffffffffff16611c1361247c565b65ffffffffffff1614611c52576040517f6ff0714000000000000000000000000000000000000000000000000000000000815260040160405180910390fd5b5060408051808201909152601d81527f6d6f64653d626c6f636b6e756d6265722666726f6d3d64656661756c74000000602082015290565b60005b8151811015611de057600073ffffffffffffffffffffffffffffffffffffffff16611d15838381518110611cc357611cc36156b3565b602002602001015173ffffffffffffffffffffffffffffffffffffffff90811660009081527fe8b26c30fad74198956032a3533d903385d56dd795af560196f9c78d4af40d0060205260409020541690565b73ffffffffffffffffffffffffffffffffffffffff1614611d92576040517f08c379a000000000000000000000000000000000000000000000000000000000815260206004820152601460248201527f64656c656761746520616c7265616479207365740000000000000000000000006044820152606401610fe3565b611dce828281518110611da757611da76156b3565b6020026020010151838381518110611dc157611dc16156b3565b60200260200101516135d6565b80611dd8816156e2565b915050611c8d565b5050565b33611de081836135d6565b6000610a90826136dc565b6000807f52c63247e1f47db19d5ce0460030c497f067ca4cebf71ba98eeadabe20bace005b73ffffffffffffffffffffffffffffffffffffffff90931660009081526020939093525050604090205490565b611e54612fec565b61104e600061374c565b6000807f5ab42ced628888259c08ac98db1eb0cf702fc1501344311d8b100cd1bfe4bb00611e1f565b6000806004544210611e9b57600454610a90565b4292915050565b7ff0c57e16840df040f15088dc2f81fe391c3923bec73e23a9662efc9c229c6a0080546006919068010000000000000000900460ff1680611ef15750805467ffffffffffffffff808416911610155b15611f28576040517ff92ee8a900000000000000000000000000000000000000000000000000000000815260040160405180910390fd5b80547fffffffffffffffffffffffffffffffffffffffffffffff0000000000000000001667ffffffffffffffff83161768010000000000000000178155604080518082018252601181527f5a45524f20566f74696e6720506f7765720000000000000000000000000000006020808301919091528251808401909352600683527f5a45524f7670000000000000000000000000000000000000000000000000000090830152611fdb918a8a8a8a896137e2565b611fe48461374c565b80547fffffffffffffffffffffffffffffffffffffffffffffff00ffffffffffffffff16815560405167ffffffffffffffff831681527fc7f505b2f371ae2175ee4913f4499e1f2633a7b5936321eed1cdaeb6115181d29060200160405180910390a15050505050505050565b612059612abd565b600855612064611e87565b60075573ffffffffffffffffffffffffffffffffffffffff811615610d655761208c81610a1c565b73ffffffffffffffffffffffffffffffffffffffff82166000908152600e6020908152604080832093909355600854600d9091529190205550565b600060608082808083817fa16a46d94261c7517cc8ff89f61c0ce93598e3c849801011dee649a6a557d100805490915015801561210657506001810154155b61216c576040517f08c379a000000000000000000000000000000000000000000000000000000000815260206004820152601560248201527f4549503731323a20556e696e697469616c697a656400000000000000000000006044820152606401610fe3565b6121746139ea565b61217c613a3b565b604080516000808252602082019092527f0f000000000000000000000000000000000000000000000000000000000000009c939b5091995046985030975095509350915050565b600081610a90565b6121d3612fec565b60035473ffffffffffffffffffffffffffffffffffffffff9081169083160361227e576040517f08c379a000000000000000000000000000000000000000000000000000000000815260206004820152602160248201527f43616e6e6f7420776974686472617720746865207374616b696e6720746f6b6560448201527f6e000000000000000000000000000000000000000000000000000000000000006064820152608401610fe3565b8173ffffffffffffffffffffffffffffffffffffffff1663a9059cbb6122d87f9016d09d72d40fdae2fd8ceac6b6234c7706214fd39c1cd1e609a0528c1993005473ffffffffffffffffffffffffffffffffffffffff1690565b6040517fffffffff0000000000000000000000000000000000000000000000000000000060e084901b16815273ffffffffffffffffffffffffffffffffffffffff9091166004820152602481018490526044016020604051808303816000875af115801561234a573d6000803e3d6000fd5b505050506040513d601f19601f8201168201806040525081019061236e9190615631565b506040805173ffffffffffffffffffffffffffffffffffffffff84168152602081018390527f8c1256b8896378cd5044f80c202f9772b9d77dc85c8a6eb51967210b09bfaa28910160405180910390a15050565b60007fe8b26c30fad74198956032a3533d903385d56dd795af560196f9c78d4af40d00816123ee61247c565b90508065ffffffffffff168410612442576040517fecd3f81e0000000000000000000000000000000000000000000000000000000081526004810185905265ffffffffffff82166024820152604401610fe3565b61245861244e856133f7565b6002840190613447565b79ffffffffffffffffffffffffffffffffffffffffffffffffffff16949350505050565b60006124866135cb565b905090565b7f52c63247e1f47db19d5ce0460030c497f067ca4cebf71ba98eeadabe20bace0480546060917f52c63247e1f47db19d5ce0460030c497f067ca4cebf71ba98eeadabe20bace0091610acd9061556a565b73ffffffffffffffffffffffffffffffffffffffff811660009081527fe8b26c30fad74198956032a3533d903385d56dd795af560196f9c78d4af40d01602052604081207fe8b26c30fad74198956032a3533d903385d56dd795af560196f9c78d4af40d009061254b90613a65565b79ffffffffffffffffffffffffffffffffffffffffffffffffffff169392505050565b33612577612abd565b600855612582611e87565b60075573ffffffffffffffffffffffffffffffffffffffff8116156125e3576125aa81610a1c565b73ffffffffffffffffffffffffffffffffffffffff82166000908152600e6020908152604080832093909355600854600d909152919020555b6000821161264d576040517f08c379a000000000000000000000000000000000000000000000000000000000815260206004820152600e60248201527f216e65774c6f636b416d6f756e740000000000000000000000000000000000006044820152606401610fe3565b6000838152600b602052604090205473ffffffffffffffffffffffffffffffffffffffff1633146126da576040517f08c379a000000000000000000000000000000000000000000000000000000000815260206004820152600860248201527f21746f6b656e49640000000000000000000000000000000000000000000000006044820152606401610fe3565b6000546040517f9d507b8b000000000000000000000000000000000000000000000000000000008152600481018590526024810184905273ffffffffffffffffffffffffffffffffffffffff90911690639d507b8b9060440161155b565b612740612fec565b600f80547fffffffffffffffffffffffff00000000000000000000000000000000000000001673ffffffffffffffffffffffffffffffffffffffff92909216919091179055565b600033610b5f81858561334c565b73ffffffffffffffffffffffffffffffffffffffff81166000908152600c6020908152604080832080548251818502810185019093528083526060948594919390929091849083018282801561280a57602002820191906000526020600020905b8154815260200190600101908083116127f6575b5050505050905060008267ffffffffffffffff81111561282c5761282c6150d1565b604051908082528060200260200182016040528015612855578160200160208202803683370190505b50905060008367ffffffffffffffff811115612873576128736150d1565b6040519080825280602002602001820160405280156128cf57816020015b6128bc6040518060800160405280600081526020016000815260200160008152602001600081525090565b8152602001906001900390816128915790505b50905060005b848110156129d657600054845173ffffffffffffffffffffffffffffffffffffffff9091169063b45a3c0e90869084908110612913576129136156b3565b60200260200101516040518263ffffffff1660e01b815260040161293991815260200190565b608060405180830381865afa158015612956573d6000803e3d6000fd5b505050506040513d601f19601f8201168201806040525081019061297a91906155bd565b82828151811061298c5761298c6156b3565b60200260200101819052508381815181106129a9576129a96156b3565b60200260200101518382815181106129c3576129c36156b3565b60209081029190910101526001016128d5565b5090969095509350505050565b83421115612a20576040517f4683af0e00000000000000000000000000000000000000000000000000000000815260048101859052602401610fe3565b604080517fe48329057bfd03d55e49b547132e39cffd9c1820ad7b9d4c5307691425d15adf602082015273ffffffffffffffffffffffffffffffffffffffff8816918101919091526060810186905260808101859052600090612aa790612a9f9060a00160405160208183030381529060405280519060200120613ab4565b858585613afc565b9050612ab38187613b2a565b6116f981886135d6565b6000612ae77f52c63247e1f47db19d5ce0460030c497f067ca4cebf71ba98eeadabe20bace025490565b600003612af5575060085490565b6000600754612b02611e87565b612b0c91906154c3565b90506000612b387f52c63247e1f47db19d5ce0460030c497f067ca4cebf71ba98eeadabe20bace025490565b600554612b4590846154d6565b612b5790670de0b6b3a76400006154d6565b612b61919061551c565b905080600854612b719190615557565b9250505090565b6040805180820190915260008082526020820152612b968383613bcf565b9392505050565b612ba5612fec565b73ffffffffffffffffffffffffffffffffffffffff8116612bf5576040517f1e4fbdf700000000000000000000000000000000000000000000000000000000815260006004820152602401610fe3565b610d658161374c565b6116fe8383836001613c59565b7f9b779b17422d0df92223018b32b4d1fa46e071723d6817e2486d003becc55f0080547ffffffffffffffffffffffffffffffffffffffffffffffffffffffffffffffffe01612c86576040517f3ee5aeb500000000000000000000000000000000000000000000000000000000815260040160405180910390fd5b60029055565b33612c95612abd565b600855612ca0611e87565b60075573ffffffffffffffffffffffffffffffffffffffff811615612d0157612cc881610a1c565b73ffffffffffffffffffffffffffffffffffffffff82166000908152600e6020908152604080832093909355600854600d909152919020555b6000828152600b6020526040902054339073ffffffffffffffffffffffffffffffffffffffff16612d8e576040517f08c379a000000000000000000000000000000000000000000000000000000000815260206004820152600860248201527f21746f6b656e49640000000000000000000000000000000000000000000000006044820152606401610fe3565b6000838152600b602052604090205473ffffffffffffffffffffffffffffffffffffffff9081169082168114612e10576040517f8e6324b000000000000000000000000000000000000000000000000000000000815273ffffffffffffffffffffffffffffffffffffffff808416600483015282166024820152604401610fe3565b6000848152600b6020908152604080832080547fffffffffffffffffffffffff000000000000000000000000000000000000000016905573ffffffffffffffffffffffffffffffffffffffff85168352600c8252918290208054835181840281018401909452808452612eb89392830182828015612ead57602002820191906000526020600020905b815481526020019060010190808311612e99575b505050505085613dc6565b73ffffffffffffffffffffffffffffffffffffffff83166000908152600c602090815260409091208251612ef29391929190910190614e7d565b506000848152600a6020526040902054612f0d908390613513565b6000848152600a602052604081205560025473ffffffffffffffffffffffffffffffffffffffff1615612fc0576002546040517f6b8ab97d00000000000000000000000000000000000000000000000000000000815273ffffffffffffffffffffffffffffffffffffffff848116600483015290911690636b8ab97d90602401600060405180830381600087803b158015612fa757600080fd5b505af1158015612fbb573d6000803e3d6000fd5b505050505b50505050565b60017f9b779b17422d0df92223018b32b4d1fa46e071723d6817e2486d003becc55f0055565b3361302b7f9016d09d72d40fdae2fd8ceac6b6234c7706214fd39c1cd1e609a0528c1993005473ffffffffffffffffffffffffffffffffffffffff1690565b73ffffffffffffffffffffffffffffffffffffffff161461104e576040517f118cdaa7000000000000000000000000000000000000000000000000000000008152336004820152602401610fe3565b6000805473ffffffffffffffffffffffffffffffffffffffff1633146130fc576040517f08c379a000000000000000000000000000000000000000000000000000000000815260206004820152600b60248201527f6f6e6c79206c6f636b65720000000000000000000000000000000000000000006044820152606401610fe3565b81156131135761310e8284018461571a565b509550505b61311c85612051565b6000848152600b6020908152604080832080547fffffffffffffffffffffffff00000000000000000000000000000000000000001673ffffffffffffffffffffffffffffffffffffffff8a8116918217909255808552600c845282852080546001810182559086528486200189905584527fe8b26c30fad74198956032a3533d903385d56dd795af560196f9c78d4af40d0090925290912054166131c4576131c485866135d6565b6000546040517fe7e242d40000000000000000000000000000000000000000000000000000000081526004810186905261321d9173ffffffffffffffffffffffffffffffffffffffff169063e7e242d4906024016115fc565b6000858152600a6020526040902081905561323990869061356f565b507f150b7a020000000000000000000000000000000000000000000000000000000095945050505050565b73ffffffffffffffffffffffffffffffffffffffff83811660009081527f52c63247e1f47db19d5ce0460030c497f067ca4cebf71ba98eeadabe20bace0160209081526040808320938616835292905220547fffffffffffffffffffffffffffffffffffffffffffffffffffffffffffffffff8114612fc0578181101561333d576040517ffb8f41b200000000000000000000000000000000000000000000000000000000815273ffffffffffffffffffffffffffffffffffffffff841660048201526024810182905260448101839052606401610fe3565b612fc084848484036000613c59565b73ffffffffffffffffffffffffffffffffffffffff831661339c576040517f96c6fd1e00000000000000000000000000000000000000000000000000000000815260006004820152602401610fe3565b73ffffffffffffffffffffffffffffffffffffffff82166133ec576040517fec442f0500000000000000000000000000000000000000000000000000000000815260006004820152602401610fe3565b6116fe838383613ee2565b600065ffffffffffff821115613443576040517f6dfcc6500000000000000000000000000000000000000000000000000000000081526030600482015260248101839052604401610fe3565b5090565b8154600090818160058111156134a657600061346284613fa1565b61346c90856154c3565b60008881526020902090915081015465ffffffffffff9081169087161015613496578091506134a4565b6134a1816001615557565b92505b505b60006134b487878585614089565b90508015613505576134d9876134cb6001846154c3565b600091825260209091200190565b546601000000000000900479ffffffffffffffffffffffffffffffffffffffffffffffffffff16613508565b60005b979650505050505050565b73ffffffffffffffffffffffffffffffffffffffff8216613563576040517f96c6fd1e00000000000000000000000000000000000000000000000000000000815260006004820152602401610fe3565b611de082600083613ee2565b73ffffffffffffffffffffffffffffffffffffffff82166135bf576040517fec442f0500000000000000000000000000000000000000000000000000000000815260006004820152602401610fe3565b611de060008383613ee2565b6000612486436133f7565b7fe8b26c30fad74198956032a3533d903385d56dd795af560196f9c78d4af40d0060006136478473ffffffffffffffffffffffffffffffffffffffff90811660009081527fe8b26c30fad74198956032a3533d903385d56dd795af560196f9c78d4af40d0060205260409020541690565b73ffffffffffffffffffffffffffffffffffffffff85811660008181526020869052604080822080547fffffffffffffffffffffffff000000000000000000000000000000000000000016898616908117909155905194955093928516927f3134e8a2e6d97e929a7e54011ea5485d7d196dd5f0ba4d4ef95803e8e3fc257f9190a4612fc081846136d7876140eb565b6140f6565b73ffffffffffffffffffffffffffffffffffffffff811660009081527fe8b26c30fad74198956032a3533d903385d56dd795af560196f9c78d4af40d0160205260408120547fe8b26c30fad74198956032a3533d903385d56dd795af560196f9c78d4af40d0090612b9690614329565b7f9016d09d72d40fdae2fd8ceac6b6234c7706214fd39c1cd1e609a0528c19930080547fffffffffffffffffffffffff0000000000000000000000000000000000000000811673ffffffffffffffffffffffffffffffffffffffff848116918217845560405192169182907f8be0079c531659141344cd1fd0a4f28419497f9722a3daafe3b4186f6b6457e090600090a3505050565b6137ea614373565b6137f33361437b565b6137fb61438c565b613805878761439c565b6000805473ffffffffffffffffffffffffffffffffffffffff8088167fffffffffffffffffffffffff000000000000000000000000000000000000000092831681179093556002805487831690841617905560038054918816919092161790556006839055604080517f6f307dc30000000000000000000000000000000000000000000000000000000081529051636f307dc3916004808201926020929091908290030181865afa1580156138be573d6000803e3d6000fd5b505050506040513d601f19601f820116820180604052508101906138e2919061567d565b6040517f095ea7b300000000000000000000000000000000000000000000000000000000815273ffffffffffffffffffffffffffffffffffffffff87811660048301527fffffffffffffffffffffffffffffffffffffffffffffffffffffffffffffffff6024830152919091169063095ea7b3906044016020604051808303816000875af1158015613978573d6000803e3d6000fd5b505050506040513d601f19601f8201168201806040525081019061399c9190615631565b50600f80547fffffffffffffffffffffffff00000000000000000000000000000000000000001673ffffffffffffffffffffffffffffffffffffffff92909216919091179055505050505050565b7fa16a46d94261c7517cc8ff89f61c0ce93598e3c849801011dee649a6a557d10280546060917fa16a46d94261c7517cc8ff89f61c0ce93598e3c849801011dee649a6a557d10091610acd9061556a565b606060007fa16a46d94261c7517cc8ff89f61c0ce93598e3c849801011dee649a6a557d100610abc565b80546000908015613aab57613a7f836134cb6001846154c3565b546601000000000000900479ffffffffffffffffffffffffffffffffffffffffffffffffffff16612b96565b60009392505050565b6000610a90613ac16143ae565b836040517f19010000000000000000000000000000000000000000000000000000000000008152600281019290925260228201526042902090565b600080600080613b0e888888886143b8565b925092509250613b1e82826144b2565b50909695505050505050565b73ffffffffffffffffffffffffffffffffffffffff821660009081527f5ab42ced628888259c08ac98db1eb0cf702fc1501344311d8b100cd1bfe4bb00602052604090208054600181019091558181146116fe576040517f752d88c000000000000000000000000000000000000000000000000000000000815273ffffffffffffffffffffffffffffffffffffffff8416600482015260248101829052604401610fe3565b6040805180820182526000808252602080830182905273ffffffffffffffffffffffffffffffffffffffff861682527fe8b26c30fad74198956032a3533d903385d56dd795af560196f9c78d4af40d019052919091207fe8b26c30fad74198956032a3533d903385d56dd795af560196f9c78d4af40d0090613c5190846145b6565b949350505050565b7f52c63247e1f47db19d5ce0460030c497f067ca4cebf71ba98eeadabe20bace0073ffffffffffffffffffffffffffffffffffffffff8516613cca576040517fe602df0500000000000000000000000000000000000000000000000000000000815260006004820152602401610fe3565b73ffffffffffffffffffffffffffffffffffffffff8416613d1a576040517f94280d6200000000000000000000000000000000000000000000000000000000815260006004820152602401610fe3565b73ffffffffffffffffffffffffffffffffffffffff808616600090815260018301602090815260408083209388168352929052208390558115613dbf578373ffffffffffffffffffffffffffffffffffffffff168573ffffffffffffffffffffffffffffffffffffffff167f8c5be1e5ebec7d5bd14f71427d1e84f3dd0314c0f7b2291e5b200ac8c7c3b92585604051613db691815260200190565b60405180910390a35b5050505050565b81516060906000805b82811015613e175784868281518110613dea57613dea6156b3565b602002602001015114613e055781613e01816156e2565b9250505b80613e0f816156e2565b915050613dcf565b5060008167ffffffffffffffff811115613e3357613e336150d1565b604051908082528060200260200182016040528015613e5c578160200160208202803683370190505b5090506000805b84811015613b1e5786888281518110613e7e57613e7e6156b3565b602002602001015114613ed057878181518110613e9d57613e9d6156b3565b6020026020010151838381518110613eb757613eb76156b3565b602090810291909101015281613ecc816156e2565b9250505b80613eda816156e2565b915050613e63565b613eed83838361463c565b73ffffffffffffffffffffffffffffffffffffffff8316613f96576000613f327f52c63247e1f47db19d5ce0460030c497f067ca4cebf71ba98eeadabe20bace025490565b905079ffffffffffffffffffffffffffffffffffffffffffffffffffff80821115613f93576040517f1cb15d260000000000000000000000000000000000000000000000000000000081526004810183905260248101829052604401610fe3565b50505b6116fe83838361480d565b600081600003613fb357506000919050565b60006001613fc0846148ee565b901c6001901b90506001818481613fd957613fd96154ed565b048201901c90506001818481613ff157613ff16154ed565b048201901c90506001818481614009576140096154ed565b048201901c90506001818481614021576140216154ed565b048201901c90506001818481614039576140396154ed565b048201901c90506001818481614051576140516154ed565b048201901c90506001818481614069576140696154ed565b048201901c9050612b9681828581614083576140836154ed565b04614982565b60005b818310156140e35760006140a08484614998565b60008781526020902090915065ffffffffffff86169082015465ffffffffffff1611156140cf578092506140dd565b6140da816001615557565b93505b5061408c565b509392505050565b6000610a9082611dfa565b7fe8b26c30fad74198956032a3533d903385d56dd795af560196f9c78d4af40d0073ffffffffffffffffffffffffffffffffffffffff848116908416148015906141405750600082115b15612fc05773ffffffffffffffffffffffffffffffffffffffff8416156142375773ffffffffffffffffffffffffffffffffffffffff841660009081526001820160205260408120819061419f906149b361419a876149bf565b614a1f565b79ffffffffffffffffffffffffffffffffffffffffffffffffffff16915079ffffffffffffffffffffffffffffffffffffffffffffffffffff1691508573ffffffffffffffffffffffffffffffffffffffff167fdec2bacdd2f05b59de34da9b523dff8be42e5e38e818c82fdb0bae774387a724838360405161422c929190918252602082015260400190565b60405180910390a250505b73ffffffffffffffffffffffffffffffffffffffff831615612fc05773ffffffffffffffffffffffffffffffffffffffff831660009081526001820160205260408120819061428c90614a5861419a876149bf565b79ffffffffffffffffffffffffffffffffffffffffffffffffffff16915079ffffffffffffffffffffffffffffffffffffffffffffffffffff1691508473ffffffffffffffffffffffffffffffffffffffff167fdec2bacdd2f05b59de34da9b523dff8be42e5e38e818c82fdb0bae774387a7248383604051614319929190918252602082015260400190565b60405180910390a2505050505050565b600063ffffffff821115613443576040517f6dfcc6500000000000000000000000000000000000000000000000000000000081526020600482015260248101839052604401610fe3565b61104e614a64565b614383614a64565b610d6581614acb565b614394614a64565b61104e614ad3565b6143a4614a64565b611de08282614adb565b6000612486614b3e565b600080807f7fffffffffffffffffffffffffffffff5d576e7357a4501ddfe92f46681b20a08411156143f357506000915060039050826144a8565b604080516000808252602082018084528a905260ff891692820192909252606081018790526080810186905260019060a0016020604051602081039080840390855afa158015614447573d6000803e3d6000fd5b50506040517fffffffffffffffffffffffffffffffffffffffffffffffffffffffffffffffe0015191505073ffffffffffffffffffffffffffffffffffffffff811661449e575060009250600191508290506144a8565b9250600091508190505b9450945094915050565b60008260038111156144c6576144c661573a565b036144cf575050565b60018260038111156144e3576144e361573a565b0361451a576040517ff645eedf00000000000000000000000000000000000000000000000000000000815260040160405180910390fd5b600282600381111561452e5761452e61573a565b03614568576040517ffce698f700000000000000000000000000000000000000000000000000000000815260048101829052602401610fe3565b600382600381111561457c5761457c61573a565b03611de0576040517fd78bce0c00000000000000000000000000000000000000000000000000000000815260048101829052602401610fe3565b6040805180820190915260008082526020820152826000018263ffffffff16815481106145e5576145e56156b3565b60009182526020918290206040805180820190915291015465ffffffffffff811682526601000000000000900479ffffffffffffffffffffffffffffffffffffffffffffffffffff16918101919091529392505050565b7f52c63247e1f47db19d5ce0460030c497f067ca4cebf71ba98eeadabe20bace0073ffffffffffffffffffffffffffffffffffffffff8416614697578181600201600082825461468c9190615557565b909155506147499050565b73ffffffffffffffffffffffffffffffffffffffff84166000908152602082905260409020548281101561471d576040517fe450d38c00000000000000000000000000000000000000000000000000000000815273ffffffffffffffffffffffffffffffffffffffff861660048201526024810182905260448101849052606401610fe3565b73ffffffffffffffffffffffffffffffffffffffff851660009081526020839052604090209083900390555b73ffffffffffffffffffffffffffffffffffffffff83166147745760028101805483900390556147a0565b73ffffffffffffffffffffffffffffffffffffffff831660009081526020829052604090208054830190555b8273ffffffffffffffffffffffffffffffffffffffff168473ffffffffffffffffffffffffffffffffffffffff167fddf252ad1be2c89b69c2b068fc378daa952ba7f163c4a11628f55a4df523b3ef846040516147ff91815260200190565b60405180910390a350505050565b7fe8b26c30fad74198956032a3533d903385d56dd795af560196f9c78d4af40d0073ffffffffffffffffffffffffffffffffffffffff841661485f5761485c81600201614a5861419a856149bf565b50505b73ffffffffffffffffffffffffffffffffffffffff83166148905761488d816002016149b361419a856149bf565b50505b73ffffffffffffffffffffffffffffffffffffffff84811660009081527fe8b26c30fad74198956032a3533d903385d56dd795af560196f9c78d4af40d006020526040808220548684168352912054612fc0929182169116846140f6565b600080608083901c1561490357608092831c92015b604083901c1561491557604092831c92015b602083901c1561492757602092831c92015b601083901c1561493957601092831c92015b600883901c1561494b57600892831c92015b600483901c1561495d57600492831c92015b600283901c1561496f57600292831c92015b600183901c15610a905760010192915050565b60008183106149915781612b96565b5090919050565b60006149a7600284841861551c565b612b9690848416615557565b6000612b968284615769565b600079ffffffffffffffffffffffffffffffffffffffffffffffffffff821115613443576040517f6dfcc65000000000000000000000000000000000000000000000000000000000815260d0600482015260248101839052604401610fe3565b600080614a4b614a2d61247c565b614a43614a3988613a65565b868863ffffffff16565b879190614bb2565b915091505b935093915050565b6000612b9682846157a3565b7ff0c57e16840df040f15088dc2f81fe391c3923bec73e23a9662efc9c229c6a005468010000000000000000900460ff1661104e576040517fd7e6bcf800000000000000000000000000000000000000000000000000000000815260040160405180910390fd5b612ba5614a64565b612fc6614a64565b614ae3614a64565b7f52c63247e1f47db19d5ce0460030c497f067ca4cebf71ba98eeadabe20bace007f52c63247e1f47db19d5ce0460030c497f067ca4cebf71ba98eeadabe20bace03614b2f8482615824565b5060048101612fc08382615824565b60007f8b73c3c69bb8fe3d512ecc4cf759cc79239f7b179b0ffacaa9a75d522b39400f614b69614bc0565b614b71614c3c565b60408051602081019490945283019190915260608201524660808201523060a082015260c00160405160208183030381529060405280519060200120905090565b600080614a4b858585614c92565b60007fa16a46d94261c7517cc8ff89f61c0ce93598e3c849801011dee649a6a557d10081614bec6139ea565b805190915015614c0457805160209091012092915050565b81548015614c13579392505050565b7fc5d2460186f7233c927e7db2dcc703c0e500b653ca82273b7bfad8045d85a470935050505090565b60007fa16a46d94261c7517cc8ff89f61c0ce93598e3c849801011dee649a6a557d10081614c68613a3b565b805190915015614c8057805160209091012092915050565b60018201548015614c13579392505050565b825460009081908015614e0c576000614cb0876134cb6001856154c3565b60408051808201909152905465ffffffffffff808216808452660100000000000090920479ffffffffffffffffffffffffffffffffffffffffffffffffffff1660208401529192509087161015614d33576040517f2520601d00000000000000000000000000000000000000000000000000000000815260040160405180910390fd5b805165ffffffffffff808816911603614d955784614d56886134cb6001866154c3565b805479ffffffffffffffffffffffffffffffffffffffffffffffffffff9290921666010000000000000265ffffffffffff909216919091179055614dfc565b6040805180820190915265ffffffffffff808816825279ffffffffffffffffffffffffffffffffffffffffffffffffffff80881660208085019182528b54600181018d5560008d815291909120945191519092166601000000000000029216919091179101555b602001519250839150614a509050565b50506040805180820190915265ffffffffffff808516825279ffffffffffffffffffffffffffffffffffffffffffffffffffff80851660208085019182528854600181018a5560008a8152918220955192519093166601000000000000029190931617920191909155905081614a50565b828054828255906000526020600020908101928215614eb8579160200282015b82811115614eb8578251825591602001919060010190614e9d565b506134439291505b808211156134435760008155600101614ec0565b73ffffffffffffffffffffffffffffffffffffffff81168114610d6557600080fd5b600060208284031215614f0857600080fd5b8135612b9681614ed4565b6000815180845260005b81811015614f3957602081850181015186830182015201614f1d565b5060006020828601015260207fffffffffffffffffffffffffffffffffffffffffffffffffffffffffffffffe0601f83011685010191505092915050565b602081526000612b966020830184614f13565b600060208284031215614f9c57600080fd5b5035919050565b60008060408385031215614fb657600080fd5b8235614fc181614ed4565b946020939093013593505050565b600080600080600060808688031215614fe757600080fd5b8535614ff281614ed4565b9450602086013561500281614ed4565b935060408601359250606086013567ffffffffffffffff8082111561502657600080fd5b818801915088601f83011261503a57600080fd5b81358181111561504957600080fd5b89602082850101111561505b57600080fd5b9699959850939650602001949392505050565b60008060006060848603121561508357600080fd5b833561508e81614ed4565b9250602084013561509e81614ed4565b929592945050506040919091013590565b600080604083850312156150c257600080fd5b50508035926020909101359150565b7f4e487b7100000000000000000000000000000000000000000000000000000000600052604160045260246000fd5b604051601f82017fffffffffffffffffffffffffffffffffffffffffffffffffffffffffffffffe016810167ffffffffffffffff81118282101715615147576151476150d1565b604052919050565b6000602080838503121561516257600080fd5b823567ffffffffffffffff8082111561517a57600080fd5b818501915085601f83011261518e57600080fd5b8135818111156151a0576151a06150d1565b8060051b91506151b1848301615100565b81815291830184019184810190888411156151cb57600080fd5b938501935b838510156151f557843592506151e583614ed4565b82825293850193908501906151d0565b98975050505050505050565b60008060008060008060c0878903121561521a57600080fd5b863561522581614ed4565b9550602087013561523581614ed4565b9450604087013561524581614ed4565b935060608701359250608087013561525c81614ed4565b915060a087013561526c81614ed4565b809150509295509295509295565b600081518084526020808501945080840160005b838110156152aa5781518752958201959082019060010161528e565b509495945050505050565b7fff000000000000000000000000000000000000000000000000000000000000008816815260e0602082015260006152f060e0830189614f13565b82810360408401526153028189614f13565b905086606084015273ffffffffffffffffffffffffffffffffffffffff861660808401528460a084015282810360c084015261533e818561527a565b9a9950505050505050505050565b6000604080835261535f8184018661527a565b83810360208581019190915285518083528682019282019060005b818110156153b45784518051845284810151858501528681015187850152606090810151908401529383019360809092019160010161537a565b509098975050505050505050565b60008060008060008060c087890312156153db57600080fd5b86356153e681614ed4565b95506020870135945060408701359350606087013560ff8116811461540a57600080fd5b9598949750929560808101359460a0909101359350915050565b6000806040838503121561543757600080fd5b823561544281614ed4565b9150602083013561545281614ed4565b809150509250929050565b6000806040838503121561547057600080fd5b823561547b81614ed4565b9150602083013563ffffffff8116811461545257600080fd5b7f4e487b7100000000000000000000000000000000000000000000000000000000600052601160045260246000fd5b81810381811115610a9057610a90615494565b8082028115828204841417610a9057610a90615494565b7f4e487b7100000000000000000000000000000000000000000000000000000000600052601260045260246000fd5b600082615552577f4e487b7100000000000000000000000000000000000000000000000000000000600052601260045260246000fd5b500490565b80820180821115610a9057610a90615494565b600181811c9082168061557e57607f821691505b6020821081036155b7577f4e487b7100000000000000000000000000000000000000000000000000000000600052602260045260246000fd5b50919050565b6000608082840312156155cf57600080fd5b6040516080810181811067ffffffffffffffff821117156155f2576155f26150d1565b8060405250825181526020830151602082015260408301516040820152606083015160608201528091505092915050565b8015158114610d6557600080fd5b60006020828403121561564357600080fd5b8151612b9681615623565b7f4e487b7100000000000000000000000000000000000000000000000000000000600052600160045260246000fd5b60006020828403121561568f57600080fd5b8151612b9681614ed4565b6000602082840312156156ac57600080fd5b5051919050565b7f4e487b7100000000000000000000000000000000000000000000000000000000600052603260045260246000fd5b60007fffffffffffffffffffffffffffffffffffffffffffffffffffffffffffffffff820361571357615713615494565b5060010190565b60008060006060848603121561572f57600080fd5b833561508e81615623565b7f4e487b7100000000000000000000000000000000000000000000000000000000600052602160045260246000fd5b79ffffffffffffffffffffffffffffffffffffffffffffffffffff82811682821603908082111561579c5761579c615494565b5092915050565b79ffffffffffffffffffffffffffffffffffffffffffffffffffff81811683821601908082111561579c5761579c615494565b601f8211156116fe57600081815260208120601f850160051c810160208610156157fd5750805b601f850160051c820191505b8181101561581c57828155600101615809565b505050505050565b815167ffffffffffffffff81111561583e5761583e6150d1565b6158528161584c845461556a565b846157d6565b602080601f8311600181146158a5576000841561586f5750858301515b7fffffffffffffffffffffffffffffffffffffffffffffffffffffffffffffffff600386901b1c1916600185901b17855561581c565b6000858152602081207fffffffffffffffffffffffffffffffffffffffffffffffffffffffffffffffe08616915b828110156158f2578886015182559484019460019091019084016158d3565b508582101561592e57878501517fffffffffffffffffffffffffffffffffffffffffffffffffffffffffffffffff600388901b60f8161c191681555b5050505050600190811b0190555056fea2646970667358221220f91ab660f1ecc9e42b0c19b0bdc667cb3d84c942d93ca6e6b22b0bbdabcd606164736f6c63430008140033",
  "devdoc": {
    "errors": {
      "CheckpointUnorderedInsertion()": [
        {
          "details": "A value was attempted to be inserted on a past checkpoint."
        }
      ],
      "ECDSAInvalidSignature()": [
        {
          "details": "The signature derives the `address(0)`."
        }
      ],
      "ECDSAInvalidSignatureLength(uint256)": [
        {
          "details": "The signature has an invalid length."
        }
      ],
      "ECDSAInvalidSignatureS(bytes32)": [
        {
          "details": "The signature has an S value that is in the upper half order."
        }
      ],
      "ERC20ExceededSafeSupply(uint256,uint256)": [
        {
          "details": "Total supply cap has been exceeded, introducing a risk of votes overflowing."
        }
      ],
      "ERC20InsufficientAllowance(address,uint256,uint256)": [
        {
          "details": "Indicates a failure with the `spender`s `allowance`. Used in transfers.",
          "params": {
            "allowance": "Amount of tokens a `spender` is allowed to operate with.",
            "needed": "Minimum amount required to perform a transfer.",
            "spender": "Address that may be allowed to operate on tokens without being their owner."
          }
        }
      ],
      "ERC20InsufficientBalance(address,uint256,uint256)": [
        {
          "details": "Indicates an error related to the current `balance` of a `sender`. Used in transfers.",
          "params": {
            "balance": "Current balance for the interacting account.",
            "needed": "Minimum amount required to perform a transfer.",
            "sender": "Address whose tokens are being transferred."
          }
        }
      ],
      "ERC20InvalidApprover(address)": [
        {
          "details": "Indicates a failure with the `approver` of a token to be approved. Used in approvals.",
          "params": {
            "approver": "Address initiating an approval operation."
          }
        }
      ],
      "ERC20InvalidReceiver(address)": [
        {
          "details": "Indicates a failure with the token `receiver`. Used in transfers.",
          "params": {
            "receiver": "Address to which tokens are being transferred."
          }
        }
      ],
      "ERC20InvalidSender(address)": [
        {
          "details": "Indicates a failure with the token `sender`. Used in transfers.",
          "params": {
            "sender": "Address whose tokens are being transferred."
          }
        }
      ],
      "ERC20InvalidSpender(address)": [
        {
          "details": "Indicates a failure with the `spender` to be approved. Used in approvals.",
          "params": {
            "spender": "Address that may be allowed to operate on tokens without being their owner."
          }
        }
      ],
      "ERC5805FutureLookup(uint256,uint48)": [
        {
          "details": "Lookup to future votes is not available."
        }
      ],
      "ERC6372InconsistentClock()": [
        {
          "details": "The clock was incorrectly modified."
        }
      ],
      "InvalidAccountNonce(address,uint256)": [
        {
          "details": "The nonce used for an `account` is not the expected current nonce."
        }
      ],
      "InvalidInitialization()": [
        {
          "details": "The contract is already initialized."
        }
      ],
      "NotInitializing()": [
        {
          "details": "The contract is not initializing."
        }
      ],
      "OwnableInvalidOwner(address)": [
        {
          "details": "The owner is not a valid owner account. (eg. `address(0)`)"
        }
      ],
      "OwnableUnauthorizedAccount(address)": [
        {
          "details": "The caller account is not authorized to perform an operation."
        }
      ],
      "ReentrancyGuardReentrantCall()": [
        {
          "details": "Unauthorized reentrant call."
        }
      ],
      "SafeCastOverflowedUintDowncast(uint8,uint256)": [
        {
          "details": "Value doesn't fit in an uint of `bits` size."
        }
      ],
      "VotesExpiredSignature(uint256)": [
        {
          "details": "The signature used has expired."
        }
      ]
    },
    "events": {
      "Approval(address,address,uint256)": {
        "details": "Emitted when the allowance of a `spender` for an `owner` is set by a call to {approve}. `value` is the new allowance."
      },
      "DelegateChanged(address,address,address)": {
        "details": "Emitted when an account changes their delegate."
      },
      "DelegateVotesChanged(address,uint256,uint256)": {
        "details": "Emitted when a token transfer or delegate change results in changes to a delegate's number of voting units."
      },
      "EIP712DomainChanged()": {
        "details": "MAY be emitted to signal that the domain could have changed."
      },
      "Initialized(uint64)": {
        "details": "Triggered when the contract has been initialized or reinitialized."
      },
      "Transfer(address,address,uint256)": {
        "details": "Emitted when `value` tokens are moved from one account (`from`) to another (`to`). Note that `value` may be zero."
      }
    },
    "kind": "dev",
    "methods": {
      "CLOCK_MODE()": {
        "details": "Machine-readable description of the clock as specified in EIP-6372."
      },
      "allowance(address,address)": {
        "details": "See {IERC20-allowance}."
      },
      "approve(address,uint256)": {
        "details": "See {IERC20-approve}. NOTE: If `value` is the maximum `uint256`, the allowance is not updated on `transferFrom`. This is semantically equivalent to an infinite approval. Requirements: - `spender` cannot be the zero address."
      },
      "balanceOf(address)": {
        "details": "See {IERC20-balanceOf}."
      },
      "checkpoints(address,uint32)": {
        "details": "Get the `pos`-th checkpoint for `account`."
      },
      "clock()": {
        "details": "Clock used for flagging checkpoints. Can be overridden to implement timestamp based checkpoints (and voting), in which case {CLOCK_MODE} should be overridden as well to match."
      },
      "decimals()": {
        "details": "Returns the number of decimals used to get its user representation. For example, if `decimals` equals `2`, a balance of `505` tokens should be displayed to a user as `5.05` (`505 / 10 ** 2`). Tokens usually opt for a value of 18, imitating the relationship between Ether and Wei. This is the default value returned by this function, unless it's overridden. NOTE: This information is only used for _display_ purposes: it in no way affects any of the arithmetic of the contract, including {IERC20-balanceOf} and {IERC20-transfer}."
      },
      "delegate(address)": {
        "details": "Delegates votes from the sender to `delegatee`."
      },
      "delegateBySig(address,uint256,uint256,uint8,bytes32,bytes32)": {
        "details": "Delegates votes from signer to `delegatee`."
      },
      "delegates(address)": {
        "details": "Returns the delegate that `account` has chosen."
      },
      "earned(address)": {
        "details": "Calculates the amount of rewards earned by an account.",
        "params": {
          "account": "The address of the account."
        },
        "returns": {
          "_0": "The amount of rewards earned."
        }
      },
      "eip712Domain()": {
        "details": "See {IERC-5267}."
      },
      "getLockedNftDetails(address)": {
        "details": "Gets the details of locked NFTs for a given user.",
        "params": {
          "_user": "The address of the user."
        },
        "returns": {
          "_0": "lockedTokenIds The array of locked NFT IDs.",
          "_1": "tokenDetails The array of locked NFT details."
        }
      },
      "getPastTotalSupply(uint256)": {
        "details": "Returns the total supply of votes available at a specific moment in the past. If the `clock()` is configured to use block numbers, this will return the value at the end of the corresponding block. NOTE: This value is the sum of all available votes, which is not necessarily the sum of all delegated votes. Votes that have not been delegated are still part of total supply, even though they would not participate in a vote. Requirements: - `timepoint` must be in the past. If operating using block numbers, the block must be already mined."
      },
      "getPastVotes(address,uint256)": {
        "details": "Returns the amount of votes that `account` had at a specific moment in the past. If the `clock()` is configured to use block numbers, this will return the value at the end of the corresponding block. Requirements: - `timepoint` must be in the past. If operating using block numbers, the block must be already mined."
      },
      "getReward()": {
        "details": "Transfers rewards to the caller."
      },
      "getRewardETH()": {
        "details": "This is an ETH variant of the get rewards function. It unwraps the token and sends out raw ETH to the user."
      },
      "getTokenPower(uint256)": {
        "params": {
          "amount": "The amount of tokens to give voting power for."
        }
      },
      "getVotes(address)": {
        "details": "Returns the current amount of votes that `account` has."
      },
      "increaseLockAmount(uint256,uint256)": {
        "details": "Updates the lock amount for a specific NFT.",
        "params": {
          "newLockAmount": "The new lock amount in tokens.",
          "tokenId": "The ID of the NFT for which to update the lock amount."
        }
      },
      "increaseLockDuration(uint256,uint256)": {
        "details": "Updates the lock duration for a specific NFT.",
        "params": {
          "newLockDuration": "The new lock duration in seconds.",
          "tokenId": "The ID of the NFT for which to update the lock duration."
        }
      },
      "initDelegates(address[])": {
        "params": {
          "who": "The who for whom delegate should be called."
        }
      },
      "lastTimeRewardApplicable()": {
        "details": "Calculates the last time rewards were applicable.",
        "returns": {
          "_0": "The last time rewards were applicable."
        }
      },
      "name()": {
        "details": "Returns the name of the token."
      },
      "nonces(address)": {
        "details": "Returns the next unused nonce for an address."
      },
      "numCheckpoints(address)": {
        "details": "Get number of checkpoints for `account`."
      },
      "owner()": {
        "details": "Returns the address of the current owner."
      },
      "renounceOwnership()": {
        "details": "Leaves the contract without owner. It will not be possible to call `onlyOwner` functions. Can only be called by the current owner. NOTE: Renouncing ownership will leave the contract without an owner, thereby disabling any functionality that is only available to the owner."
      },
      "rewardPerToken()": {
        "details": "Calculates the reward per token.",
        "returns": {
          "_0": "The reward per token."
        }
      },
      "setRewardDistributor(address)": {
        "params": {
          "what": "The new address for the rewards distributor"
        }
      },
      "setVotingPowerCombined(address)": {
        "params": {
          "what": "The new address for the pool voter contract"
        }
      },
      "symbol()": {
        "details": "Returns the symbol of the token, usually a shorter version of the name."
      },
      "totalSupply()": {
        "details": "See {IERC20-totalSupply}."
      },
      "transfer(address,uint256)": {
        "details": "See {IERC20-transfer}. Requirements: - `to` cannot be the zero address. - the caller must have a balance of at least `value`."
      },
      "transferFrom(address,address,uint256)": {
        "details": "See {IERC20-transferFrom}. Emits an {Approval} event indicating the updated allowance. This is not required by the EIP. See the note at the beginning of {ERC20}. NOTE: Does not update the allowance if the current allowance is the maximum `uint256`. Requirements: - `from` and `to` cannot be the zero address. - `from` must have a balance of at least `value`. - the caller must have allowance for ``from``'s tokens of at least `value`."
      },
      "transferOwnership(address)": {
        "details": "Transfers ownership of the contract to a new account (`newOwner`). Can only be called by the current owner."
      },
      "unstakeAndWithdraw(uint256)": {
        "params": {
          "tokenId": "The ID of the regular token NFT to unstake and withdraw."
        }
      },
      "unstakeToken(uint256)": {
        "details": "Unstakes a regular token NFT and transfers it back to the user.",
        "params": {
          "tokenId": "The ID of the regular token NFT to unstake."
        }
      },
      "updateRewardFor(address)": {
        "details": "Updates the reward for a given account.",
        "params": {
          "account": "The address of the account."
        }
      }
    },
    "version": 1
  },
  "userdoc": {
    "kind": "user",
    "methods": {
      "distributor()": {
        "notice": "Account that distributes staking rewards"
      },
      "getTokenPower(uint256)": {
        "notice": "Returns how much max voting power this locker will give out for the given amount of tokens. This varies for the instance of locker."
      },
      "initDelegates(address[])": {
        "notice": "Temporary fix to init the delegate variable for a given user. This is an admin only function as it's a temporary fix. This can be permissionless."
      },
      "setRewardDistributor(address)": {
        "notice": "Admin only function to set the rewards distributor"
      },
      "setVotingPowerCombined(address)": {
        "notice": "Admin only function to set the VotingPowerCombined contract address"
      },
      "unstakeAndWithdraw(uint256)": {
        "notice": "A single withdraw function to unstake NFT, transfer it back to the user, and also withdraw all tokens for `tokenId` from the locker."
      }
    },
    "version": 1
  },
  "storageLayout": {
    "storage": [
      {
        "astId": 12228,
        "contract": "contracts/locker/staking/OmnichainStakingToken.sol:OmnichainStakingToken",
        "label": "locker",
        "offset": 0,
        "slot": "0",
        "type": "t_contract(ILocker)11803"
      },
      {
        "astId": 12231,
        "contract": "contracts/locker/staking/OmnichainStakingToken.sol:OmnichainStakingToken",
        "label": "__",
        "offset": 0,
        "slot": "1",
        "type": "t_contract(ILocker)11803"
      },
      {
        "astId": 12234,
        "contract": "contracts/locker/staking/OmnichainStakingToken.sol:OmnichainStakingToken",
        "label": "votingPowerCombined",
        "offset": 0,
        "slot": "2",
        "type": "t_contract(IVotingPowerCombined)12148"
      },
      {
        "astId": 12237,
        "contract": "contracts/locker/staking/OmnichainStakingToken.sol:OmnichainStakingToken",
        "label": "rewardsToken",
        "offset": 0,
        "slot": "3",
        "type": "t_contract(IZeroLend)12196"
      },
      {
        "astId": 12239,
        "contract": "contracts/locker/staking/OmnichainStakingToken.sol:OmnichainStakingToken",
        "label": "periodFinish",
        "offset": 0,
        "slot": "4",
        "type": "t_uint256"
      },
      {
        "astId": 12241,
        "contract": "contracts/locker/staking/OmnichainStakingToken.sol:OmnichainStakingToken",
        "label": "rewardRate",
        "offset": 0,
        "slot": "5",
        "type": "t_uint256"
      },
      {
        "astId": 12243,
        "contract": "contracts/locker/staking/OmnichainStakingToken.sol:OmnichainStakingToken",
        "label": "rewardsDuration",
        "offset": 0,
        "slot": "6",
        "type": "t_uint256"
      },
      {
        "astId": 12245,
        "contract": "contracts/locker/staking/OmnichainStakingToken.sol:OmnichainStakingToken",
        "label": "lastUpdateTime",
        "offset": 0,
        "slot": "7",
        "type": "t_uint256"
      },
      {
        "astId": 12247,
        "contract": "contracts/locker/staking/OmnichainStakingToken.sol:OmnichainStakingToken",
        "label": "rewardPerTokenStored",
        "offset": 0,
        "slot": "8",
        "type": "t_uint256"
      },
      {
        "astId": 12251,
        "contract": "contracts/locker/staking/OmnichainStakingToken.sol:OmnichainStakingToken",
        "label": "lpPower",
        "offset": 0,
        "slot": "9",
        "type": "t_mapping(t_uint256,t_uint256)"
      },
      {
        "astId": 12255,
        "contract": "contracts/locker/staking/OmnichainStakingToken.sol:OmnichainStakingToken",
        "label": "tokenPower",
        "offset": 0,
        "slot": "10",
        "type": "t_mapping(t_uint256,t_uint256)"
      },
      {
        "astId": 12259,
        "contract": "contracts/locker/staking/OmnichainStakingToken.sol:OmnichainStakingToken",
        "label": "lockedByToken",
        "offset": 0,
        "slot": "11",
        "type": "t_mapping(t_uint256,t_address)"
      },
      {
        "astId": 12264,
        "contract": "contracts/locker/staking/OmnichainStakingToken.sol:OmnichainStakingToken",
        "label": "lockedTokenIdNfts",
        "offset": 0,
        "slot": "12",
        "type": "t_mapping(t_address,t_array(t_uint256)dyn_storage)"
      },
      {
        "astId": 12268,
        "contract": "contracts/locker/staking/OmnichainStakingToken.sol:OmnichainStakingToken",
        "label": "userRewardPerTokenPaid",
        "offset": 0,
        "slot": "13",
        "type": "t_mapping(t_address,t_uint256)"
      },
      {
        "astId": 12272,
        "contract": "contracts/locker/staking/OmnichainStakingToken.sol:OmnichainStakingToken",
        "label": "rewards",
        "offset": 0,
        "slot": "14",
        "type": "t_mapping(t_address,t_uint256)"
      },
      {
        "astId": 12275,
        "contract": "contracts/locker/staking/OmnichainStakingToken.sol:OmnichainStakingToken",
        "label": "distributor",
        "offset": 0,
        "slot": "15",
        "type": "t_address"
      }
    ],
    "types": {
      "t_address": {
        "encoding": "inplace",
        "label": "address",
        "numberOfBytes": "20"
      },
      "t_array(t_uint256)dyn_storage": {
        "base": "t_uint256",
        "encoding": "dynamic_array",
        "label": "uint256[]",
        "numberOfBytes": "32"
      },
      "t_contract(ILocker)11803": {
        "encoding": "inplace",
        "label": "contract ILocker",
        "numberOfBytes": "20"
      },
      "t_contract(IVotingPowerCombined)12148": {
        "encoding": "inplace",
        "label": "contract IVotingPowerCombined",
        "numberOfBytes": "20"
      },
      "t_contract(IZeroLend)12196": {
        "encoding": "inplace",
        "label": "contract IZeroLend",
        "numberOfBytes": "20"
      },
      "t_mapping(t_address,t_array(t_uint256)dyn_storage)": {
        "encoding": "mapping",
        "key": "t_address",
        "label": "mapping(address => uint256[])",
        "numberOfBytes": "32",
        "value": "t_array(t_uint256)dyn_storage"
      },
      "t_mapping(t_address,t_uint256)": {
        "encoding": "mapping",
        "key": "t_address",
        "label": "mapping(address => uint256)",
        "numberOfBytes": "32",
        "value": "t_uint256"
      },
      "t_mapping(t_uint256,t_address)": {
        "encoding": "mapping",
        "key": "t_uint256",
        "label": "mapping(uint256 => address)",
        "numberOfBytes": "32",
        "value": "t_address"
      },
      "t_mapping(t_uint256,t_uint256)": {
        "encoding": "mapping",
        "key": "t_uint256",
        "label": "mapping(uint256 => uint256)",
        "numberOfBytes": "32",
        "value": "t_uint256"
      },
      "t_uint256": {
        "encoding": "inplace",
        "label": "uint256",
        "numberOfBytes": "32"
      }
    }
  }
}