{
  "address": "0x67c78e9Aa3DC3a1C4EB2E0De0D324D2398791017",
  "abi": [
    {
      "inputs": [
        {
          "internalType": "address",
          "name": "_incentivesController",
          "type": "address"
        }
      ],
      "stateMutability": "nonpayable",
      "type": "constructor"
    },
    {
      "anonymous": false,
      "inputs": [
        {
          "indexed": true,
          "internalType": "address",
          "name": "caller",
          "type": "address"
        },
        {
          "indexed": true,
          "internalType": "address",
          "name": "token",
          "type": "address"
        },
        {
          "indexed": true,
          "internalType": "address",
          "name": "to",
          "type": "address"
        },
        {
          "indexed": false,
          "internalType": "uint256",
          "name": "amount",
          "type": "uint256"
        }
      ],
      "name": "EmergencyWithdrawal",
      "type": "event"
    },
    {
      "anonymous": false,
      "inputs": [
        {
          "indexed": true,
          "internalType": "address",
          "name": "previousOwner",
          "type": "address"
        },
        {
          "indexed": true,
          "internalType": "address",
          "name": "newOwner",
          "type": "address"
        }
      ],
      "name": "OwnershipTransferred",
      "type": "event"
    },
    {
      "inputs": [
        {
          "internalType": "address",
          "name": "token",
          "type": "address"
        },
        {
          "internalType": "address",
          "name": "to",
          "type": "address"
        },
        {
          "internalType": "uint256",
          "name": "amount",
          "type": "uint256"
        }
      ],
      "name": "emergencyWithdrawal",
      "outputs": [],
      "stateMutability": "nonpayable",
      "type": "function"
    },
    {
      "inputs": [],
      "name": "getIncentivesController",
      "outputs": [
        {
          "internalType": "address",
          "name": "",
          "type": "address"
        }
      ],
      "stateMutability": "view",
      "type": "function"
    },
    {
      "inputs": [],
      "name": "getRewardsAdmin",
      "outputs": [
        {
          "internalType": "address",
          "name": "",
          "type": "address"
        }
      ],
      "stateMutability": "view",
      "type": "function"
    },
    {
      "inputs": [],
      "name": "owner",
      "outputs": [
        {
          "internalType": "address",
          "name": "",
          "type": "address"
        }
      ],
      "stateMutability": "view",
      "type": "function"
    },
    {
      "inputs": [
        {
          "internalType": "address",
          "name": "to",
          "type": "address"
        },
        {
          "internalType": "address",
          "name": "reward",
          "type": "address"
        },
        {
          "internalType": "uint256",
          "name": "amount",
          "type": "uint256"
        }
      ],
      "name": "performTransfer",
      "outputs": [
        {
          "internalType": "bool",
          "name": "",
          "type": "bool"
        }
      ],
      "stateMutability": "nonpayable",
      "type": "function"
    },
    {
      "inputs": [],
      "name": "renounceOwnership",
      "outputs": [],
      "stateMutability": "nonpayable",
      "type": "function"
    },
    {
      "inputs": [
        {
          "internalType": "address",
          "name": "newOwner",
          "type": "address"
        }
      ],
      "name": "transferOwnership",
      "outputs": [],
      "stateMutability": "nonpayable",
      "type": "function"
    }
  ],
  "transactionHash": "0x229625f670ef3dcb0a65d072ee42fc2eceb7addf2293487a5bcb6b88a27a1207",
  "args": [
    "0x28F6899fF643261Ca9766ddc251b359A2d00b945"
  ],
  "numDeployments": 1,
  "solcInputHash": "f8ef1c5a01748937e03e28acfbd94b3a",
  "bytecode": "0x60a060405234801561001057600080fd5b5060405161087638038061087683398101604081905261002f91610081565b600080546001600160a01b031916339081178255604051909182917f8be0079c531659141344cd1fd0a4f28419497f9722a3daafe3b4186f6b6457e0908290a3506001600160a01b03166080526100b1565b60006020828403121561009357600080fd5b81516001600160a01b03811681146100aa57600080fd5b9392505050565b6080516107a46100d26000396000818160b6015261014301526107a46000f3fe608060405234801561001057600080fd5b506004361061007d5760003560e01c80638d8e5da71161005b5780638d8e5da7146100fb5780638da5cb5b1461010e578063c62554431461010e578063f2fde38b1461012c57600080fd5b806316beb98214610082578063715018a6146100aa57806375d26413146100b4575b600080fd5b6100956100903660046106ee565b61013f565b60405190151581526020015b60405180910390f35b6100b2610286565b005b7f00000000000000000000000000000000000000000000000000000000000000005b60405173ffffffffffffffffffffffffffffffffffffffff90911681526020016100a1565b6100b26101093660046106ee565b610376565b60005473ffffffffffffffffffffffffffffffffffffffff166100d6565b6100b261013a36600461072a565b610514565b60007f000000000000000000000000000000000000000000000000000000000000000073ffffffffffffffffffffffffffffffffffffffff1633146101e5576040517f08c379a000000000000000000000000000000000000000000000000000000000815260206004820181905260248201527f43414c4c45525f4e4f545f494e43454e54495645535f434f4e54524f4c4c455260448201526064015b60405180910390fd5b6040517fa9059cbb00000000000000000000000000000000000000000000000000000000815273ffffffffffffffffffffffffffffffffffffffff85811660048301526024820184905284169063a9059cbb906044016020604051808303816000875af115801561025a573d6000803e3d6000fd5b505050506040513d601f19601f8201168201806040525081019061027e919061074c565b949350505050565b60005473ffffffffffffffffffffffffffffffffffffffff163314610307576040517f08c379a000000000000000000000000000000000000000000000000000000000815260206004820181905260248201527f4f776e61626c653a2063616c6c6572206973206e6f7420746865206f776e657260448201526064016101dc565b6000805460405173ffffffffffffffffffffffffffffffffffffffff909116907f8be0079c531659141344cd1fd0a4f28419497f9722a3daafe3b4186f6b6457e0908390a3600080547fffffffffffffffffffffffff0000000000000000000000000000000000000000169055565b60005473ffffffffffffffffffffffffffffffffffffffff1633146103f7576040517f08c379a000000000000000000000000000000000000000000000000000000000815260206004820181905260248201527f4f776e61626c653a2063616c6c6572206973206e6f7420746865206f776e657260448201526064016101dc565b6040517fa9059cbb00000000000000000000000000000000000000000000000000000000815273ffffffffffffffffffffffffffffffffffffffff83811660048301526024820183905284169063a9059cbb906044016020604051808303816000875af115801561046c573d6000803e3d6000fd5b505050506040513d601f19601f82011682018060405250810190610490919061074c565b508173ffffffffffffffffffffffffffffffffffffffff168373ffffffffffffffffffffffffffffffffffffffff163373ffffffffffffffffffffffffffffffffffffffff167f7dc4ea712e6400e67a5abca1a983e5c420c386c19936dc120cd860b50b8e25798460405161050791815260200190565b60405180910390a4505050565b60005473ffffffffffffffffffffffffffffffffffffffff163314610595576040517f08c379a000000000000000000000000000000000000000000000000000000000815260206004820181905260248201527f4f776e61626c653a2063616c6c6572206973206e6f7420746865206f776e657260448201526064016101dc565b73ffffffffffffffffffffffffffffffffffffffff8116610638576040517f08c379a000000000000000000000000000000000000000000000000000000000815260206004820152602660248201527f4f776e61626c653a206e6577206f776e657220697320746865207a65726f206160448201527f646472657373000000000000000000000000000000000000000000000000000060648201526084016101dc565b6000805460405173ffffffffffffffffffffffffffffffffffffffff808516939216917f8be0079c531659141344cd1fd0a4f28419497f9722a3daafe3b4186f6b6457e091a3600080547fffffffffffffffffffffffff00000000000000000000000000000000000000001673ffffffffffffffffffffffffffffffffffffffff92909216919091179055565b803573ffffffffffffffffffffffffffffffffffffffff811681146106e957600080fd5b919050565b60008060006060848603121561070357600080fd5b61070c846106c5565b925061071a602085016106c5565b9150604084013590509250925092565b60006020828403121561073c57600080fd5b610745826106c5565b9392505050565b60006020828403121561075e57600080fd5b8151801515811461074557600080fdfea2646970667358221220b0e270904d3fad33c5368422f9ebba1210036ac8f1b4aa08afeaf2720810e11a64736f6c634300080c0033",
  "devdoc": {
    "kind": "dev",
    "methods": {
      "emergencyWithdrawal(address,address,uint256)": {
        "details": "Perform an emergency token withdrawal only callable by the Rewards admin",
        "params": {
          "amount": "Amount of the withdrawal",
          "to": "Address of the recipient of the withdrawal",
          "token": "Address of the token to withdraw funds from this contract"
        }
      },
      "getIncentivesController()": {
        "returns": {
          "_0": "Returns the address of the Incentives Controller"
        }
      },
      "getRewardsAdmin()": {
        "returns": {
          "_0": "Returns the address of the Rewards admin"
        }
      },
      "owner()": {
        "details": "Returns the address of the current owner."
      },
      "performTransfer(address,address,uint256)": {
        "details": "Perform custom transfer logic via delegate call from source contract to a TransferStrategy implementation",
        "params": {
          "amount": "Amount to transfer to the \"to\" address parameter",
          "reward": "Address of the reward token",
          "to": "Account to transfer rewards"
        },
        "returns": {
          "_0": "Returns true bool if transfer logic succeeds"
        }
      },
      "renounceOwnership()": {
        "details": "Leaves the contract without owner. It will not be possible to call `onlyOwner` functions anymore. Can only be called by the current owner. NOTE: Renouncing ownership will leave the contract without an owner, thereby removing any functionality that is only available to the owner."
      },
      "transferOwnership(address)": {
        "details": "Transfers ownership of the contract to a new account (`newOwner`). Can only be called by the current owner."
      }
    },
    "version": 1
  },
  "userdoc": {
    "kind": "user",
    "methods": {},
    "version": 1
  },
  "storageLayout": {
    "storage": [
      {
        "astId": 111,
        "contract": "contracts/voter/gauge/aave/TransferStrategySimple.sol:TransferStrategySimple",
        "label": "_owner",
        "offset": 0,
        "slot": "0",
        "type": "t_address"
      }
    ],
    "types": {
      "t_address": {
        "encoding": "inplace",
        "label": "address",
        "numberOfBytes": "20"
      }
    }
  }
}