{
  "address": "0xBA92B73287289b06Da58FDc3388619A86061fBb4",
  "abi": [
    {
      "inputs": [
        {
          "internalType": "address",
          "name": "_vestedZeroNFT",
          "type": "address"
        },
        {
          "internalType": "address",
          "name": "_omnichainStaking",
          "type": "address"
        },
        {
          "internalType": "address",
          "name": "_omnichainStakingLp",
          "type": "address"
        }
      ],
      "stateMutability": "nonpayable",
      "type": "constructor"
    },
    {
      "inputs": [
        {
          "internalType": "address",
          "name": "_userAddress",
          "type": "address"
        }
      ],
      "name": "getLPLockDetails",
      "outputs": [
        {
          "components": [
            {
              "internalType": "uint256",
              "name": "id",
              "type": "uint256"
            },
            {
              "internalType": "uint256",
              "name": "amount",
              "type": "uint256"
            },
            {
              "internalType": "uint256",
              "name": "end",
              "type": "uint256"
            },
            {
              "internalType": "uint256",
              "name": "start",
              "type": "uint256"
            },
            {
              "internalType": "uint256",
              "name": "power",
              "type": "uint256"
            },
            {
              "internalType": "uint256",
              "name": "apr",
              "type": "uint256"
            }
          ],
          "internalType": "struct VestUiHelper.LockedBalanceWithApr[]",
          "name": "",
          "type": "tuple[]"
        }
      ],
      "stateMutability": "view",
      "type": "function"
    },
    {
      "inputs": [
        {
          "internalType": "address",
          "name": "_userAddress",
          "type": "address"
        }
      ],
      "name": "getLockDetails",
      "outputs": [
        {
          "components": [
            {
              "internalType": "uint256",
              "name": "id",
              "type": "uint256"
            },
            {
              "internalType": "uint256",
              "name": "amount",
              "type": "uint256"
            },
            {
              "internalType": "uint256",
              "name": "end",
              "type": "uint256"
            },
            {
              "internalType": "uint256",
              "name": "start",
              "type": "uint256"
            },
            {
              "internalType": "uint256",
              "name": "power",
              "type": "uint256"
            },
            {
              "internalType": "uint256",
              "name": "apr",
              "type": "uint256"
            }
          ],
          "internalType": "struct VestUiHelper.LockedBalanceWithApr[]",
          "name": "",
          "type": "tuple[]"
        }
      ],
      "stateMutability": "view",
      "type": "function"
    },
    {
      "inputs": [
        {
          "internalType": "address",
          "name": "_userAddress",
          "type": "address"
        }
      ],
      "name": "getVestedNFTData",
      "outputs": [
        {
          "components": [
            {
              "internalType": "uint256",
              "name": "id",
              "type": "uint256"
            },
            {
              "internalType": "uint256",
              "name": "cliffDuration",
              "type": "uint256"
            },
            {
              "internalType": "uint256",
              "name": "unlockDate",
              "type": "uint256"
            },
            {
              "internalType": "uint256",
              "name": "pendingClaimed",
              "type": "uint256"
            },
            {
              "internalType": "uint256",
              "name": "pending",
              "type": "uint256"
            },
            {
              "internalType": "uint256",
              "name": "upfrontClaimed",
              "type": "uint256"
            },
            {
              "internalType": "uint256",
              "name": "upfront",
              "type": "uint256"
            },
            {
              "internalType": "uint256",
              "name": "linearDuration",
              "type": "uint256"
            },
            {
              "internalType": "uint256",
              "name": "createdAt",
              "type": "uint256"
            },
            {
              "internalType": "bool",
              "name": "hasPenalty",
              "type": "bool"
            },
            {
              "internalType": "enum IVestedZeroNFT.VestCategory",
              "name": "category",
              "type": "uint8"
            },
            {
              "internalType": "uint256",
              "name": "claimable",
              "type": "uint256"
            },
            {
              "internalType": "uint256",
              "name": "unClaimed",
              "type": "uint256"
            },
            {
              "internalType": "uint256",
              "name": "penalty",
              "type": "uint256"
            },
            {
              "internalType": "bool",
              "name": "isFrozen",
              "type": "bool"
            }
          ],
          "internalType": "struct VestUiHelper.VestDetails[]",
          "name": "",
          "type": "tuple[]"
        }
      ],
      "stateMutability": "view",
      "type": "function"
    },
    {
      "inputs": [],
      "name": "omnichainStaking",
      "outputs": [
        {
          "internalType": "contract OmnichainStakingToken",
          "name": "",
          "type": "address"
        }
      ],
      "stateMutability": "view",
      "type": "function"
    },
    {
      "inputs": [],
      "name": "omnichainStakingLp",
      "outputs": [
        {
          "internalType": "contract OmnichainStakingLP",
          "name": "",
          "type": "address"
        }
      ],
      "stateMutability": "view",
      "type": "function"
    },
    {
      "inputs": [],
      "name": "vestedZero",
      "outputs": [
        {
          "internalType": "contract VestedZeroNFT",
          "name": "",
          "type": "address"
        }
      ],
      "stateMutability": "view",
      "type": "function"
    },
    {
      "inputs": [],
      "name": "zeroToETH",
      "outputs": [
        {
          "internalType": "uint256",
          "name": "",
          "type": "uint256"
        }
      ],
      "stateMutability": "pure",
      "type": "function"
    }
  ],
  "transactionHash": "0x63a59fdf8937a4725f10c3d67ca0deff9c7a471a4236e60cec49e240aa18d320",
  "args": [
    "0x9FA72ea96591e486FF065E7C8A89282dEDfA6C12",
    "0xf374229a18ff691406f99CCBD93e8a3f16B68888",
    "0x0374ae8e866723adae4a62dce376129f292369b4"
  ],
  "numDeployments": 1,
  "solcInputHash": "78c26b5533427e20c531171fcd44a263",
  "bytecode": "0x60806040523480156200001157600080fd5b506040516200185f3803806200185f833981016040819052620000349162000094565b600080546001600160a01b039485166001600160a01b031991821617909155600180549385169382169390931790925560028054919093169116179055620000de565b80516001600160a01b03811681146200008f57600080fd5b919050565b600080600060608486031215620000aa57600080fd5b620000b58462000077565b9250620000c56020850162000077565b9150620000d56040850162000077565b90509250925092565b61177180620000ee6000396000f3fe608060405234801561001057600080fd5b506004361061007d5760003560e01c80634ef6b8231161005b5780634ef6b823146101105780635efc1f25146101235780636f374dc9146101345780638f4032b01461015457600080fd5b806315056b54146100825780632fc63446146100ab5780634858b968146100cb575b600080fd5b610095610090366004611144565b610174565b6040516100a29190611181565b60405180910390f35b6100be6100b9366004611144565b61060d565b6040516100a29190611263565b6002546100eb9073ffffffffffffffffffffffffffffffffffffffff1681565b60405173ffffffffffffffffffffffffffffffffffffffff90911681526020016100a2565b61009561011e366004611144565b610c1d565b60405162670e9581526020016100a2565b6001546100eb9073ffffffffffffffffffffffffffffffffffffffff1681565b6000546100eb9073ffffffffffffffffffffffffffffffffffffffff1681565b6001546040517faa88151600000000000000000000000000000000000000000000000000000000815273ffffffffffffffffffffffffffffffffffffffff838116600483015260609260009283929091169063aa88151690602401600060405180830381865afa1580156101ec573d6000803e3d6000fd5b505050506040513d6000823e601f3d9081017fffffffffffffffffffffffffffffffffffffffffffffffffffffffffffffffe016820160405261023291908101906114ac565b915091506000600160009054906101000a900473ffffffffffffffffffffffffffffffffffffffff1673ffffffffffffffffffffffffffffffffffffffff16637b0a47ee6040518163ffffffff1660e01b8152600401602060405180830381865afa1580156102a5573d6000803e3d6000fd5b505050506040513d601f19601f820116820180604052508101906102c99190611568565b90506000600160009054906101000a900473ffffffffffffffffffffffffffffffffffffffff1673ffffffffffffffffffffffffffffffffffffffff166318160ddd6040518163ffffffff1660e01b8152600401602060405180830381865afa15801561033a573d6000803e3d6000fd5b505050506040513d601f19601f8201168201806040525081019061035e9190611568565b845190915060008167ffffffffffffffff81111561037e5761037e61133e565b6040519080825280602002602001820160405280156103e857816020015b6103d56040518060c001604052806000815260200160008152602001600081526020016000815260200160008152602001600081525090565b81526020019060019003908161039c5790505b50905060005b828110156106015761042f6040518060c001604052806000815260200160008152602001600081526020016000815260200160008152602001600081525090565b600087838151811061044357610443611581565b602090810291909101015160015481516040517f87c5d83200000000000000000000000000000000000000000000000000000000815292935060009273ffffffffffffffffffffffffffffffffffffffff909216916387c5d832916104ae9160040190815260200190565b602060405180830381865afa1580156104cb573d6000803e3d6000fd5b505050506040513d601f19601f820116820180604052508101906104ef9190611568565b9050600082606001516000141580156105085750825115155b61051a57670de0b6b3a764000061053d565b8251606084015161053390670de0b6b3a76400006115df565b61053d91906115fc565b9050600061054f8a6301e133806115df565b9050600089610560836103e86115df565b61056a91906115fc565b905060006103e861057b85846115df565b61058591906115fc565b90508d888151811061059957610599611581565b602090810291909101810151885286518882015260408088015160608a015290870151908801526080870185905260a08701819052885187908a908a9081106105e4576105e4611581565b6020026020010181905250876001019750505050505050506103ee565b50979650505050505050565b600080546040517f70a0823100000000000000000000000000000000000000000000000000000000815273ffffffffffffffffffffffffffffffffffffffff84811660048301526060939216906370a0823190602401602060405180830381865afa158015610680573d6000803e3d6000fd5b505050506040513d601f19601f820116820180604052508101906106a49190611568565b905060008167ffffffffffffffff8111156106c1576106c161133e565b6040519080825280602002602001820160405280156106fa57816020015b6106e76110b9565b8152602001906001900390816106df5790505b50905060005b82811015610c15576107106110b9565b600080546040517f2f745c5900000000000000000000000000000000000000000000000000000000815273ffffffffffffffffffffffffffffffffffffffff89811660048301526024820186905290911690632f745c5990604401602060405180830381865afa158015610788573d6000803e3d6000fd5b505050506040513d601f19601f820116820180604052508101906107ac9190611568565b6000546040517f447412c40000000000000000000000000000000000000000000000000000000081526004810183905291925073ffffffffffffffffffffffffffffffffffffffff169063447412c49060240161014060405180830381865afa15801561081d573d6000803e3d6000fd5b505050506040513d601f19601f82011682018060405250810190610841919061164c565b505050505060a087015260808601526060850152604080850191909152602084019190915260005490517f447412c40000000000000000000000000000000000000000000000000000000081526004810183905273ffffffffffffffffffffffffffffffffffffffff9091169063447412c49060240161014060405180830381865afa1580156108d5573d6000803e3d6000fd5b505050506040513d601f19601f820116820180604052508101906108f9919061164c565b93985091965094509250905060c0870160e0880161010089016101208a016101408b0185600381111561092e5761092e6111f9565b600381111561093f5761093f6111f9565b9052941515909452939092525091905252600080546040517fd1d58b2500000000000000000000000000000000000000000000000000000000815260048101849052829173ffffffffffffffffffffffffffffffffffffffff169063d1d58b25906024016040805180830381865afa1580156109bf573d6000803e3d6000fd5b505050506040513d601f19601f820116820180604052508101906109e391906116d6565b8486526000546040517f6f9064d70000000000000000000000000000000000000000000000000000000081526004810187905292945090925073ffffffffffffffffffffffffffffffffffffffff1690636f9064d790602401602060405180830381865afa158015610a59573d6000803e3d6000fd5b505050506040513d601f19601f82011682018060405250810190610a7d9190611568565b6101a0850152606084015160a0850151610a9791906116fa565b610aa182846116fa565b610aab919061170d565b6101608501526000546040517f8092a3b10000000000000000000000000000000000000000000000000000000081526004810185905273ffffffffffffffffffffffffffffffffffffffff90911690638092a3b190602401602060405180830381865afa158015610b20573d6000803e3d6000fd5b505050506040513d601f19601f82011682018060405250810190610b449190611568565b6101808501526000546040517fe9ac04400000000000000000000000000000000000000000000000000000000081526004810185905273ffffffffffffffffffffffffffffffffffffffff9091169063e9ac044090602401602060405180830381865afa158015610bb9573d6000803e3d6000fd5b505050506040513d601f19601f82011682018060405250810190610bdd9190611720565b15156101c085015285518490879087908110610bfb57610bfb611581565b602002602001018190525084600101945050505050610700565b509392505050565b6002546040517faa88151600000000000000000000000000000000000000000000000000000000815273ffffffffffffffffffffffffffffffffffffffff838116600483015260609260009283929091169063aa88151690602401600060405180830381865afa158015610c95573d6000803e3d6000fd5b505050506040513d6000823e601f3d9081017fffffffffffffffffffffffffffffffffffffffffffffffffffffffffffffffe0168201604052610cdb91908101906114ac565b915091506000600260009054906101000a900473ffffffffffffffffffffffffffffffffffffffff1673ffffffffffffffffffffffffffffffffffffffff16637b0a47ee6040518163ffffffff1660e01b8152600401602060405180830381865afa158015610d4e573d6000803e3d6000fd5b505050506040513d601f19601f82011682018060405250810190610d729190611568565b90506000600260009054906101000a900473ffffffffffffffffffffffffffffffffffffffff1673ffffffffffffffffffffffffffffffffffffffff166318160ddd6040518163ffffffff1660e01b8152600401602060405180830381865afa158015610de3573d6000803e3d6000fd5b505050506040513d601f19601f82011682018060405250810190610e079190611568565b845190915060008167ffffffffffffffff811115610e2757610e2761133e565b604051908082528060200260200182016040528015610e9157816020015b610e7e6040518060c001604052806000815260200160008152602001600081526020016000815260200160008152602001600081525090565b815260200190600190039081610e455790505b50905060005b8281101561060157610ed86040518060c001604052806000815260200160008152602001600081526020016000815260200160008152602001600081525090565b6000878381518110610eec57610eec611581565b602090810291909101015160025481516040517f87c5d83200000000000000000000000000000000000000000000000000000000815292935060009273ffffffffffffffffffffffffffffffffffffffff909216916387c5d83291610f579160040190815260200190565b602060405180830381865afa158015610f74573d6000803e3d6000fd5b505050506040513d601f19601f82011682018060405250810190610f989190611568565b905060008260600151600014158015610fb15750825115155b610fc357670de0b6b3a7640000610fe6565b82516060840151610fdc90670de0b6b3a76400006115df565b610fe691906115fc565b905062670e956000610ffc8b6301e133806115df565b905060008a61100d836103e86115df565b61101790856115df565b61102191906115fc565b905060006103e861103286846115df565b61103c91906115fc565b90508e898151811061105057611050611581565b602090810291909101810151895287518982015260408089015160608b015290880151908901526080880186905260a08801819052895188908b908b90811061109b5761109b611581565b60200260200101819052508860010198505050505050505050610e97565b604051806101e0016040528060008152602001600081526020016000815260200160008152602001600081526020016000815260200160008152602001600081526020016000815260200160001515815260200160006003811115611120576111206111f9565b81526020016000815260200160008152602001600081526020016000151581525090565b60006020828403121561115657600080fd5b813573ffffffffffffffffffffffffffffffffffffffff8116811461117a57600080fd5b9392505050565b602080825282518282018190526000919060409081850190868401855b828110156111ec5781518051855286810151878601528581015186860152606080820151908601526080808201519086015260a0908101519085015260c0909301929085019060010161119e565b5091979650505050505050565b7f4e487b7100000000000000000000000000000000000000000000000000000000600052602160045260246000fd5b6004811061125f577f4e487b7100000000000000000000000000000000000000000000000000000000600052602160045260246000fd5b9052565b602080825282518282018190526000919060409081850190868401855b828110156111ec5781518051855286810151878601528581015186860152606080820151908601526080808201519086015260a0808201519086015260c0808201519086015260e08082015190860152610100808201519086015261012080820151151590860152610140808201516112fb82880182611228565b5050610160818101519086015261018080820151908601526101a080820151908601526101c0908101511515908501526101e09093019290850190600101611280565b7f4e487b7100000000000000000000000000000000000000000000000000000000600052604160045260246000fd5b6040516080810167ffffffffffffffff811182821017156113905761139061133e565b60405290565b604051601f82017fffffffffffffffffffffffffffffffffffffffffffffffffffffffffffffffe016810167ffffffffffffffff811182821017156113dd576113dd61133e565b604052919050565b600067ffffffffffffffff8211156113ff576113ff61133e565b5060051b60200190565b600082601f83011261141a57600080fd5b8151602061142f61142a836113e5565b611396565b82815260079290921b8401810191818101908684111561144e57600080fd5b8286015b848110156114a1576080818903121561146b5760008081fd5b61147361136d565b8151815284820151858201526040808301519082015260608083015190820152835291830191608001611452565b509695505050505050565b600080604083850312156114bf57600080fd5b825167ffffffffffffffff808211156114d757600080fd5b818501915085601f8301126114eb57600080fd5b815160206114fb61142a836113e5565b82815260059290921b8401810191818101908984111561151a57600080fd5b948201945b838610156115385785518252948201949082019061151f565b9188015191965090935050508082111561155157600080fd5b5061155e85828601611409565b9150509250929050565b60006020828403121561157a57600080fd5b5051919050565b7f4e487b7100000000000000000000000000000000000000000000000000000000600052603260045260246000fd5b7f4e487b7100000000000000000000000000000000000000000000000000000000600052601160045260246000fd5b80820281158282048414176115f6576115f66115b0565b92915050565b600082611632577f4e487b7100000000000000000000000000000000000000000000000000000000600052601260045260246000fd5b500490565b8051801515811461164757600080fd5b919050565b6000806000806000806000806000806101408b8d03121561166c57600080fd5b8a51995060208b0151985060408b0151975060608b0151965060808b0151955060a08b0151945060c08b0151935060e08b015192506116ae6101008c01611637565b91506101208b0151600481106116c357600080fd5b809150509295989b9194979a5092959850565b600080604083850312156116e957600080fd5b505080516020909101519092909150565b808201808211156115f6576115f66115b0565b818103818111156115f6576115f66115b0565b60006020828403121561173257600080fd5b61117a8261163756fea26469706673582212207b65d9b77a9fba1843afcaa58c31c54bd124c7594a2493a8c18e29af92f6b10764736f6c63430008140033",
  "devdoc": {
    "kind": "dev",
    "methods": {},
    "title": "VestedZeroNFT is a NFT based contract to hold all the user vests",
    "version": 1
  },
  "userdoc": {
    "kind": "user",
    "methods": {},
    "version": 1
  },
  "storageLayout": {
    "storage": [
      {
        "astId": 30686,
        "contract": "contracts/ui-helpers/VestUiHelper.sol:VestUiHelper",
        "label": "vestedZero",
        "offset": 0,
        "slot": "0",
        "type": "t_contract(VestedZeroNFT)32869"
      },
      {
        "astId": 30689,
        "contract": "contracts/ui-helpers/VestUiHelper.sol:VestUiHelper",
        "label": "omnichainStaking",
        "offset": 0,
        "slot": "1",
        "type": "t_contract(OmnichainStakingToken)30227"
      },
      {
        "astId": 30692,
        "contract": "contracts/ui-helpers/VestUiHelper.sol:VestUiHelper",
        "label": "omnichainStakingLp",
        "offset": 0,
        "slot": "2",
        "type": "t_contract(OmnichainStakingLP)30168"
      }
    ],
    "types": {
      "t_contract(OmnichainStakingLP)30168": {
        "encoding": "inplace",
        "label": "contract OmnichainStakingLP",
        "numberOfBytes": "20"
      },
      "t_contract(OmnichainStakingToken)30227": {
        "encoding": "inplace",
        "label": "contract OmnichainStakingToken",
        "numberOfBytes": "20"
      },
      "t_contract(VestedZeroNFT)32869": {
        "encoding": "inplace",
        "label": "contract VestedZeroNFT",
        "numberOfBytes": "20"
      }
    }
  }
}