{
  "address": "0x2709181Bd1Af7C578030A1459b37A9BF122F94Da",
  "abi": [
    {
      "inputs": [],
      "name": "InvalidInitialization",
      "type": "error"
    },
    {
      "inputs": [],
      "name": "NotInitializing",
      "type": "error"
    },
    {
      "inputs": [
        {
          "internalType": "address",
          "name": "owner",
          "type": "address"
        }
      ],
      "name": "OwnableInvalidOwner",
      "type": "error"
    },
    {
      "inputs": [
        {
          "internalType": "address",
          "name": "account",
          "type": "address"
        }
      ],
      "name": "OwnableUnauthorizedAccount",
      "type": "error"
    },
    {
      "anonymous": false,
      "inputs": [
        {
          "indexed": false,
          "internalType": "uint64",
          "name": "version",
          "type": "uint64"
        }
      ],
      "name": "Initialized",
      "type": "event"
    },
    {
      "anonymous": false,
      "inputs": [
        {
          "indexed": true,
          "internalType": "address",
          "name": "previousOwner",
          "type": "address"
        },
        {
          "indexed": true,
          "internalType": "address",
          "name": "newOwner",
          "type": "address"
        }
      ],
      "name": "OwnershipTransferred",
      "type": "event"
    },
    {
      "inputs": [
        {
          "internalType": "uint256",
          "name": "timepoint",
          "type": "uint256"
        }
      ],
      "name": "getPastTotalSupply",
      "outputs": [
        {
          "internalType": "uint256",
          "name": "",
          "type": "uint256"
        }
      ],
      "stateMutability": "view",
      "type": "function"
    },
    {
      "inputs": [
        {
          "internalType": "address",
          "name": "account",
          "type": "address"
        },
        {
          "internalType": "uint256",
          "name": "timepoint",
          "type": "uint256"
        }
      ],
      "name": "getPastVotes",
      "outputs": [
        {
          "internalType": "uint256",
          "name": "",
          "type": "uint256"
        }
      ],
      "stateMutability": "view",
      "type": "function"
    },
    {
      "inputs": [
        {
          "internalType": "address",
          "name": "account",
          "type": "address"
        }
      ],
      "name": "getVotes",
      "outputs": [
        {
          "internalType": "uint256",
          "name": "",
          "type": "uint256"
        }
      ],
      "stateMutability": "view",
      "type": "function"
    },
    {
      "inputs": [
        {
          "internalType": "address",
          "name": "_owner",
          "type": "address"
        },
        {
          "internalType": "address",
          "name": "_tokenStaking",
          "type": "address"
        },
        {
          "internalType": "address",
          "name": "_lpStaking",
          "type": "address"
        },
        {
          "internalType": "address",
          "name": "_voter",
          "type": "address"
        }
      ],
      "name": "init",
      "outputs": [],
      "stateMutability": "nonpayable",
      "type": "function"
    },
    {
      "inputs": [],
      "name": "lpStaking",
      "outputs": [
        {
          "internalType": "contract IOmnichainStaking",
          "name": "",
          "type": "address"
        }
      ],
      "stateMutability": "view",
      "type": "function"
    },
    {
      "inputs": [],
      "name": "owner",
      "outputs": [
        {
          "internalType": "address",
          "name": "",
          "type": "address"
        }
      ],
      "stateMutability": "view",
      "type": "function"
    },
    {
      "inputs": [],
      "name": "renounceOwnership",
      "outputs": [],
      "stateMutability": "nonpayable",
      "type": "function"
    },
    {
      "inputs": [
        {
          "internalType": "address",
          "name": "_who",
          "type": "address"
        }
      ],
      "name": "reset",
      "outputs": [],
      "stateMutability": "nonpayable",
      "type": "function"
    },
    {
      "inputs": [
        {
          "internalType": "address",
          "name": "_tokenStaking",
          "type": "address"
        },
        {
          "internalType": "address",
          "name": "_lpStaking",
          "type": "address"
        },
        {
          "internalType": "address",
          "name": "_voter",
          "type": "address"
        }
      ],
      "name": "setAddresses",
      "outputs": [],
      "stateMutability": "nonpayable",
      "type": "function"
    },
    {
      "inputs": [],
      "name": "tokenStaking",
      "outputs": [
        {
          "internalType": "contract IOmnichainStaking",
          "name": "",
          "type": "address"
        }
      ],
      "stateMutability": "view",
      "type": "function"
    },
    {
      "inputs": [
        {
          "internalType": "address",
          "name": "newOwner",
          "type": "address"
        }
      ],
      "name": "transferOwnership",
      "outputs": [],
      "stateMutability": "nonpayable",
      "type": "function"
    },
    {
      "inputs": [],
      "name": "voter",
      "outputs": [
        {
          "internalType": "contract IPoolVoter",
          "name": "",
          "type": "address"
        }
      ],
      "stateMutability": "view",
      "type": "function"
    }
  ],
  "transactionHash": "0x8577c2e13d7ab142d1268bb0b1a62c80078973c64e4a4ba7798cec453875494c",
  "args": [],
  "numDeployments": 1,
  "solcInputHash": "666e1b617ff9a412369d3cc50f55a063",
  "bytecode": "0x608060405234801561001057600080fd5b50610cbc806100206000396000f3fe608060405234801561001057600080fd5b50600436106100d45760003560e01c80637dc30ede116100815780639ab24eb01161005b5780639ab24eb0146101f75780639bf1401c1461020a578063f2fde38b1461022a57600080fd5b80637dc30ede146101875780638da5cb5b146101a75780638e539e8c146101e457600080fd5b806346c96aac116100b257806346c96aac146101275780636b8ab97d1461016c578063715018a61461017f57600080fd5b806306552ff3146100d9578063363bf964146100ee5780633a46b1a814610101575b600080fd5b6100ec6100e7366004610b3e565b61023d565b005b6100ec6100fc366004610b92565b6103d6565b61011461010f366004610bd5565b610440565b6040519081526020015b60405180910390f35b6002546101479073ffffffffffffffffffffffffffffffffffffffff1681565b60405173ffffffffffffffffffffffffffffffffffffffff909116815260200161011e565b6100ec61017a366004610bff565b61058a565b6100ec6106da565b6001546101479073ffffffffffffffffffffffffffffffffffffffff1681565b7f9016d09d72d40fdae2fd8ceac6b6234c7706214fd39c1cd1e609a0528c1993005473ffffffffffffffffffffffffffffffffffffffff16610147565b6101146101f2366004610c1a565b6106ee565b610114610205366004610bff565b610820565b6000546101479073ffffffffffffffffffffffffffffffffffffffff1681565b6100ec610238366004610bff565b61090d565b7ff0c57e16840df040f15088dc2f81fe391c3923bec73e23a9662efc9c229c6a0080546001919068010000000000000000900460ff168061028c5750805467ffffffffffffffff808416911610155b156102c3576040517ff92ee8a900000000000000000000000000000000000000000000000000000000815260040160405180910390fd5b80547fffffffffffffffffffffffffffffffffffffffffffffff0000000000000000001667ffffffffffffffff831617680100000000000000001781556000805473ffffffffffffffffffffffffffffffffffffffff8087167fffffffffffffffffffffffff00000000000000000000000000000000000000009283161790925560018054888416908316179055600280549286169290911691909117905561036b86610971565b80547fffffffffffffffffffffffffffffffffffffffffffffff00ffffffffffffffff16815560405167ffffffffffffffff831681527fc7f505b2f371ae2175ee4913f4499e1f2633a7b5936321eed1cdaeb6115181d29060200160405180910390a1505050505050565b6103de610982565b600080547fffffffffffffffffffffffff000000000000000000000000000000000000000090811673ffffffffffffffffffffffffffffffffffffffff9485161790915560018054821694841694909417909355600280549093169116179055565b6001546040517f3a46b1a800000000000000000000000000000000000000000000000000000000815273ffffffffffffffffffffffffffffffffffffffff8481166004830152602482018490526000921690633a46b1a890604401602060405180830381865afa1580156104b8573d6000803e3d6000fd5b505050506040513d601f19601f820116820180604052508101906104dc9190610c33565b6000546040517f3a46b1a800000000000000000000000000000000000000000000000000000000815273ffffffffffffffffffffffffffffffffffffffff86811660048301526024820186905290911690633a46b1a890604401602060405180830381865afa158015610553573d6000803e3d6000fd5b505050506040513d601f19601f820116820180604052508101906105779190610c33565b6105819190610c4c565b90505b92915050565b3373ffffffffffffffffffffffffffffffffffffffff821614806105c5575060005473ffffffffffffffffffffffffffffffffffffffff1633145b806105e7575060015473ffffffffffffffffffffffffffffffffffffffff1633145b610652576040517f08c379a000000000000000000000000000000000000000000000000000000000815260206004820152601760248201527f696e76616c696420726573657420706572666f726d656400000000000000000060448201526064015b60405180910390fd5b6002546040517f6b8ab97d00000000000000000000000000000000000000000000000000000000815273ffffffffffffffffffffffffffffffffffffffff838116600483015290911690636b8ab97d90602401600060405180830381600087803b1580156106bf57600080fd5b505af11580156106d3573d6000803e3d6000fd5b5050505050565b6106e2610982565b6106ec6000610a10565b565b6001546040517f8e539e8c0000000000000000000000000000000000000000000000000000000081526004810183905260009173ffffffffffffffffffffffffffffffffffffffff1690638e539e8c90602401602060405180830381865afa15801561075e573d6000803e3d6000fd5b505050506040513d601f19601f820116820180604052508101906107829190610c33565b6000546040517f8e539e8c0000000000000000000000000000000000000000000000000000000081526004810185905273ffffffffffffffffffffffffffffffffffffffff90911690638e539e8c906024015b602060405180830381865afa1580156107f2573d6000803e3d6000fd5b505050506040513d601f19601f820116820180604052508101906108169190610c33565b6105849190610c4c565b6001546040517f9ab24eb000000000000000000000000000000000000000000000000000000000815273ffffffffffffffffffffffffffffffffffffffff83811660048301526000921690639ab24eb090602401602060405180830381865afa158015610891573d6000803e3d6000fd5b505050506040513d601f19601f820116820180604052508101906108b59190610c33565b6000546040517f9ab24eb000000000000000000000000000000000000000000000000000000000815273ffffffffffffffffffffffffffffffffffffffff858116600483015290911690639ab24eb0906024016107d5565b610915610982565b73ffffffffffffffffffffffffffffffffffffffff8116610965576040517f1e4fbdf700000000000000000000000000000000000000000000000000000000815260006004820152602401610649565b61096e81610a10565b50565b610979610aa6565b61096e81610b0d565b336109c17f9016d09d72d40fdae2fd8ceac6b6234c7706214fd39c1cd1e609a0528c1993005473ffffffffffffffffffffffffffffffffffffffff1690565b73ffffffffffffffffffffffffffffffffffffffff16146106ec576040517f118cdaa7000000000000000000000000000000000000000000000000000000008152336004820152602401610649565b7f9016d09d72d40fdae2fd8ceac6b6234c7706214fd39c1cd1e609a0528c19930080547fffffffffffffffffffffffff0000000000000000000000000000000000000000811673ffffffffffffffffffffffffffffffffffffffff848116918217845560405192169182907f8be0079c531659141344cd1fd0a4f28419497f9722a3daafe3b4186f6b6457e090600090a3505050565b7ff0c57e16840df040f15088dc2f81fe391c3923bec73e23a9662efc9c229c6a005468010000000000000000900460ff166106ec576040517fd7e6bcf800000000000000000000000000000000000000000000000000000000815260040160405180910390fd5b610915610aa6565b803573ffffffffffffffffffffffffffffffffffffffff81168114610b3957600080fd5b919050565b60008060008060808587031215610b5457600080fd5b610b5d85610b15565b9350610b6b60208601610b15565b9250610b7960408601610b15565b9150610b8760608601610b15565b905092959194509250565b600080600060608486031215610ba757600080fd5b610bb084610b15565b9250610bbe60208501610b15565b9150610bcc60408501610b15565b90509250925092565b60008060408385031215610be857600080fd5b610bf183610b15565b946020939093013593505050565b600060208284031215610c1157600080fd5b61058182610b15565b600060208284031215610c2c57600080fd5b5035919050565b600060208284031215610c4557600080fd5b5051919050565b80820180821115610584577f4e487b7100000000000000000000000000000000000000000000000000000000600052601160045260246000fdfea2646970667358221220d34d77e167d5ab26d81f2e54f725098637ab8e61d9509d184c6344e24e0c79f764736f6c63430008140033",
  "devdoc": {
    "errors": {
      "InvalidInitialization()": [
        {
          "details": "The contract is already initialized."
        }
      ],
      "NotInitializing()": [
        {
          "details": "The contract is not initializing."
        }
      ],
      "OwnableInvalidOwner(address)": [
        {
          "details": "The owner is not a valid owner account. (eg. `address(0)`)"
        }
      ],
      "OwnableUnauthorizedAccount(address)": [
        {
          "details": "The caller account is not authorized to perform an operation."
        }
      ]
    },
    "events": {
      "Initialized(uint64)": {
        "details": "Triggered when the contract has been initialized or reinitialized."
      }
    },
    "kind": "dev",
    "methods": {
      "owner()": {
        "details": "Returns the address of the current owner."
      },
      "renounceOwnership()": {
        "details": "Leaves the contract without owner. It will not be possible to call `onlyOwner` functions. Can only be called by the current owner. NOTE: Renouncing ownership will leave the contract without an owner, thereby disabling any functionality that is only available to the owner."
      },
      "transferOwnership(address)": {
        "details": "Transfers ownership of the contract to a new account (`newOwner`). Can only be called by the current owner."
      }
    },
    "version": 1
  },
  "userdoc": {
    "kind": "user",
    "methods": {},
    "version": 1
  },
  "storageLayout": {
    "storage": [
      {
        "astId": 1221,
        "contract": "contracts/locker/staking/VotingPowerCombined.sol:VotingPowerCombined",
        "label": "lpStaking",
        "offset": 0,
        "slot": "0",
        "type": "t_contract(IOmnichainStaking)1054"
      },
      {
        "astId": 1224,
        "contract": "contracts/locker/staking/VotingPowerCombined.sol:VotingPowerCombined",
        "label": "tokenStaking",
        "offset": 0,
        "slot": "1",
        "type": "t_contract(IOmnichainStaking)1054"
      },
      {
        "astId": 1227,
        "contract": "contracts/locker/staking/VotingPowerCombined.sol:VotingPowerCombined",
        "label": "voter",
        "offset": 0,
        "slot": "2",
        "type": "t_contract(IPoolVoter)1208"
      }
    ],
    "types": {
      "t_contract(IOmnichainStaking)1054": {
        "encoding": "inplace",
        "label": "contract IOmnichainStaking",
        "numberOfBytes": "20"
      },
      "t_contract(IPoolVoter)1208": {
        "encoding": "inplace",
        "label": "contract IPoolVoter",
        "numberOfBytes": "20"
      }
    }
  }
}