{
  "address": "0x1B2C40244969fF116f6404b4068874AbEbCE3d2F",
  "abi": [
    {
      "inputs": [],
      "name": "EthNotSent",
      "type": "error"
    },
    {
      "inputs": [],
      "name": "EthSendFailed",
      "type": "error"
    },
    {
      "inputs": [],
      "name": "InvalidInitialization",
      "type": "error"
    },
    {
      "inputs": [],
      "name": "NotInitializing",
      "type": "error"
    },
    {
      "inputs": [],
      "name": "OdosSwapFailed",
      "type": "error"
    },
    {
      "inputs": [
        {
          "internalType": "address",
          "name": "owner",
          "type": "address"
        }
      ],
      "name": "OwnableInvalidOwner",
      "type": "error"
    },
    {
      "inputs": [
        {
          "internalType": "address",
          "name": "account",
          "type": "address"
        }
      ],
      "name": "OwnableUnauthorizedAccount",
      "type": "error"
    },
    {
      "inputs": [],
      "name": "ZeroTransferFailed",
      "type": "error"
    },
    {
      "anonymous": false,
      "inputs": [
        {
          "indexed": false,
          "internalType": "uint64",
          "name": "version",
          "type": "uint64"
        }
      ],
      "name": "Initialized",
      "type": "event"
    },
    {
      "anonymous": false,
      "inputs": [
        {
          "indexed": true,
          "internalType": "address",
          "name": "previousOwner",
          "type": "address"
        },
        {
          "indexed": true,
          "internalType": "address",
          "name": "newOwner",
          "type": "address"
        }
      ],
      "name": "OwnershipTransferred",
      "type": "event"
    },
    {
      "inputs": [
        {
          "internalType": "address",
          "name": "_owner",
          "type": "address"
        },
        {
          "internalType": "address payable",
          "name": "_odosRouter",
          "type": "address"
        },
        {
          "internalType": "address",
          "name": "_nileLP",
          "type": "address"
        },
        {
          "internalType": "address",
          "name": "_lpTokenLocker",
          "type": "address"
        },
        {
          "internalType": "address",
          "name": "_zeroToken",
          "type": "address"
        },
        {
          "internalType": "uint256",
          "name": "_slippage",
          "type": "uint256"
        }
      ],
      "name": "init",
      "outputs": [],
      "stateMutability": "nonpayable",
      "type": "function"
    },
    {
      "inputs": [],
      "name": "lpTokenLocker",
      "outputs": [
        {
          "internalType": "contract ILocker",
          "name": "",
          "type": "address"
        }
      ],
      "stateMutability": "view",
      "type": "function"
    },
    {
      "inputs": [],
      "name": "nileRouter",
      "outputs": [
        {
          "internalType": "contract INileRouter",
          "name": "",
          "type": "address"
        }
      ],
      "stateMutability": "view",
      "type": "function"
    },
    {
      "inputs": [],
      "name": "odosRouter",
      "outputs": [
        {
          "internalType": "address payable",
          "name": "",
          "type": "address"
        }
      ],
      "stateMutability": "view",
      "type": "function"
    },
    {
      "inputs": [],
      "name": "owner",
      "outputs": [
        {
          "internalType": "address",
          "name": "",
          "type": "address"
        }
      ],
      "stateMutability": "view",
      "type": "function"
    },
    {
      "inputs": [],
      "name": "renounceOwnership",
      "outputs": [],
      "stateMutability": "nonpayable",
      "type": "function"
    },
    {
      "inputs": [
        {
          "internalType": "uint256",
          "name": "_slippage",
          "type": "uint256"
        }
      ],
      "name": "setSlippage",
      "outputs": [],
      "stateMutability": "nonpayable",
      "type": "function"
    },
    {
      "inputs": [],
      "name": "slippage",
      "outputs": [
        {
          "internalType": "uint256",
          "name": "",
          "type": "uint256"
        }
      ],
      "stateMutability": "view",
      "type": "function"
    },
    {
      "inputs": [
        {
          "internalType": "address",
          "name": "newOwner",
          "type": "address"
        }
      ],
      "name": "transferOwnership",
      "outputs": [],
      "stateMutability": "nonpayable",
      "type": "function"
    },
    {
      "inputs": [
        {
          "internalType": "uint256",
          "name": "duration",
          "type": "uint256"
        },
        {
          "internalType": "bytes",
          "name": "odosSwapData",
          "type": "bytes"
        }
      ],
      "name": "zapAndStake",
      "outputs": [],
      "stateMutability": "payable",
      "type": "function"
    },
    {
      "inputs": [],
      "name": "zeroToken",
      "outputs": [
        {
          "internalType": "contract IZeroLend",
          "name": "",
          "type": "address"
        }
      ],
      "stateMutability": "view",
      "type": "function"
    }
  ],
  "transactionHash": "0xe4963318d83e0684baafb7f5700465d690c13971bf1e61fb2244d1613a1a2573",
  "args": [],
  "numDeployments": 1,
  "solcInputHash": "892a4b33fcaad89f0d4306f88903b283",
  "bytecode": "0x608060405234801561001057600080fd5b50610f29806100206000396000f3fe6080604052600436106100bc5760003560e01c8063715018a611610074578063f0fa55a91161004e578063f0fa55a91461022a578063f294bd921461024a578063f2fde38b1461027757600080fd5b8063715018a61461019e5780638321928d146101b35780638da5cb5b146101e057600080fd5b806328da6bf0116100a557806328da6bf01461012d5780633e032a3b1461015a578063544b08b51461017e57600080fd5b806304379707146100c15780631fbbd4e014610118575b600080fd5b3480156100cd57600080fd5b506002546100ee9073ffffffffffffffffffffffffffffffffffffffff1681565b60405173ffffffffffffffffffffffffffffffffffffffff90911681526020015b60405180910390f35b61012b610126366004610c79565b610297565b005b34801561013957600080fd5b506001546100ee9073ffffffffffffffffffffffffffffffffffffffff1681565b34801561016657600080fd5b5061017060045481565b60405190815260200161010f565b34801561018a57600080fd5b5061012b610199366004610d17565b610852565b3480156101aa57600080fd5b5061012b610a4b565b3480156101bf57600080fd5b506000546100ee9073ffffffffffffffffffffffffffffffffffffffff1681565b3480156101ec57600080fd5b507f9016d09d72d40fdae2fd8ceac6b6234c7706214fd39c1cd1e609a0528c1993005473ffffffffffffffffffffffffffffffffffffffff166100ee565b34801561023657600080fd5b5061012b610245366004610d90565b610a5f565b34801561025657600080fd5b506003546100ee9073ffffffffffffffffffffffffffffffffffffffff1681565b34801561028357600080fd5b5061012b610292366004610da9565b610a6c565b346000036102d1576040517f8689d99100000000000000000000000000000000000000000000000000000000815260040160405180910390fd5b6003546040517f70a08231000000000000000000000000000000000000000000000000000000008152306004820152479160009173ffffffffffffffffffffffffffffffffffffffff909116906370a0823190602401602060405180830381865afa158015610344573d6000803e3d6000fd5b505050506040513d601f19601f820116820180604052508101906103689190610dcd565b6000805491925090819073ffffffffffffffffffffffffffffffffffffffff16610393600234610e15565b87876040516103a3929190610e50565b60006040518083038185875af1925050503d80600081146103e0576040519150601f19603f3d011682016040523d82523d6000602084013e6103e5565b606091505b509150915081610421576040517f45d4013e00000000000000000000000000000000000000000000000000000000815260040160405180910390fd5b6000818060200190518101906104379190610dcd565b905060006127106004548361044c9190610e60565b6104569190610e15565b6104609083610e7d565b60015490915060009073ffffffffffffffffffffffffffffffffffffffff1663b7e0d4c061048f600234610e15565b60035473ffffffffffffffffffffffffffffffffffffffff16600087876104b7600234610e15565b306104c342603c610e90565b60405160e08a901b7fffffffff0000000000000000000000000000000000000000000000000000000016815273ffffffffffffffffffffffffffffffffffffffff9788166004820152951515602487015260448601949094526064850192909252608484015290921660a482015260c481019190915260e40160606040518083038185885af115801561055a573d6000803e3d6000fd5b50505050506040513d601f19601f8201168201806040525081019061057f9190610ea3565b6002546040517f0a2abdb300000000000000000000000000000000000000000000000000000000815260048101839052602481018f90523360448201526001606482015291945073ffffffffffffffffffffffffffffffffffffffff169250630a2abdb391506084016020604051808303816000875af1158015610607573d6000803e3d6000fd5b505050506040513d601f19601f8201168201806040525081019061062b9190610dcd565b506003546040517f70a08231000000000000000000000000000000000000000000000000000000008152306004820152479160009173ffffffffffffffffffffffffffffffffffffffff909116906370a0823190602401602060405180830381865afa15801561069f573d6000803e3d6000fd5b505050506040513d601f19601f820116820180604052508101906106c39190610dcd565b905060006106d18a84610e7d565b9050801561075d57604051600090339083908381818185875af1925050503d806000811461071b576040519150601f19603f3d011682016040523d82523d6000602084013e610720565b606091505b505090508061075b576040517f98248e6400000000000000000000000000000000000000000000000000000000815260040160405180910390fd5b505b60006107698a84610e7d565b90508015610842576003546040517fa9059cbb0000000000000000000000000000000000000000000000000000000081523360048201526024810183905273ffffffffffffffffffffffffffffffffffffffff9091169063a9059cbb906044016020604051808303816000875af11580156107e8573d6000803e3d6000fd5b505050506040513d601f19601f8201168201806040525081019061080c9190610ed1565b610842576040517f5a91840400000000000000000000000000000000000000000000000000000000815260040160405180910390fd5b5050505050505050505050505050565b7ff0c57e16840df040f15088dc2f81fe391c3923bec73e23a9662efc9c229c6a00805468010000000000000000810460ff16159067ffffffffffffffff1660008115801561089d5750825b905060008267ffffffffffffffff1660011480156108ba5750303b155b9050811580156108c8575080155b156108ff576040517ff92ee8a900000000000000000000000000000000000000000000000000000000815260040160405180910390fd5b84547fffffffffffffffffffffffffffffffffffffffffffffffff000000000000000016600117855583156109605784547fffffffffffffffffffffffffffffffffffffffffffffff00ffffffffffffffff16680100000000000000001785555b6109698b610ad5565b6000805473ffffffffffffffffffffffffffffffffffffffff808d167fffffffffffffffffffffffff000000000000000000000000000000000000000092831617909255600180548c8416908316179055600280548b841690831617905560038054928a169290911691909117905560048690558315610a3e5784547fffffffffffffffffffffffffffffffffffffffffffffff00ffffffffffffffff168555604051600181527fc7f505b2f371ae2175ee4913f4499e1f2633a7b5936321eed1cdaeb6115181d29060200160405180910390a15b5050505050505050505050565b610a53610ae6565b610a5d6000610b74565b565b610a67610ae6565b600455565b610a74610ae6565b73ffffffffffffffffffffffffffffffffffffffff8116610ac9576040517f1e4fbdf7000000000000000000000000000000000000000000000000000000008152600060048201526024015b60405180910390fd5b610ad281610b74565b50565b610add610c0a565b610ad281610c71565b33610b257f9016d09d72d40fdae2fd8ceac6b6234c7706214fd39c1cd1e609a0528c1993005473ffffffffffffffffffffffffffffffffffffffff1690565b73ffffffffffffffffffffffffffffffffffffffff1614610a5d576040517f118cdaa7000000000000000000000000000000000000000000000000000000008152336004820152602401610ac0565b7f9016d09d72d40fdae2fd8ceac6b6234c7706214fd39c1cd1e609a0528c19930080547fffffffffffffffffffffffff0000000000000000000000000000000000000000811673ffffffffffffffffffffffffffffffffffffffff848116918217845560405192169182907f8be0079c531659141344cd1fd0a4f28419497f9722a3daafe3b4186f6b6457e090600090a3505050565b7ff0c57e16840df040f15088dc2f81fe391c3923bec73e23a9662efc9c229c6a005468010000000000000000900460ff16610a5d576040517fd7e6bcf800000000000000000000000000000000000000000000000000000000815260040160405180910390fd5b610a74610c0a565b600080600060408486031215610c8e57600080fd5b83359250602084013567ffffffffffffffff80821115610cad57600080fd5b818601915086601f830112610cc157600080fd5b813581811115610cd057600080fd5b876020828501011115610ce257600080fd5b6020830194508093505050509250925092565b73ffffffffffffffffffffffffffffffffffffffff81168114610ad257600080fd5b60008060008060008060c08789031215610d3057600080fd5b8635610d3b81610cf5565b95506020870135610d4b81610cf5565b94506040870135610d5b81610cf5565b93506060870135610d6b81610cf5565b92506080870135610d7b81610cf5565b8092505060a087013590509295509295509295565b600060208284031215610da257600080fd5b5035919050565b600060208284031215610dbb57600080fd5b8135610dc681610cf5565b9392505050565b600060208284031215610ddf57600080fd5b5051919050565b7f4e487b7100000000000000000000000000000000000000000000000000000000600052601160045260246000fd5b600082610e4b577f4e487b7100000000000000000000000000000000000000000000000000000000600052601260045260246000fd5b500490565b8183823760009101908152919050565b8082028115828204841417610e7757610e77610de6565b92915050565b81810381811115610e7757610e77610de6565b80820180821115610e7757610e77610de6565b600080600060608486031215610eb857600080fd5b8351925060208401519150604084015190509250925092565b600060208284031215610ee357600080fd5b81518015158114610dc657600080fdfea264697066735822122083aa424ed99a64872760146c1000b2a8668f2ea7418d804cb50789774ce4ccfc64736f6c63430008140033",
  "devdoc": {
    "details": "This contract allows users to perform a Zap operation by swapping ETH for Zero tokens, adding liquidity to Nile LP, and locking LP tokens.",
    "errors": {
      "InvalidInitialization()": [
        {
          "details": "The contract is already initialized."
        }
      ],
      "NotInitializing()": [
        {
          "details": "The contract is not initializing."
        }
      ],
      "OwnableInvalidOwner(address)": [
        {
          "details": "The owner is not a valid owner account. (eg. `address(0)`)"
        }
      ],
      "OwnableUnauthorizedAccount(address)": [
        {
          "details": "The caller account is not authorized to perform an operation."
        }
      ]
    },
    "events": {
      "Initialized(uint64)": {
        "details": "Triggered when the contract has been initialized or reinitialized."
      }
    },
    "kind": "dev",
    "methods": {
      "init(address,address,address,address,address,uint256)": {
        "details": "Initializes the contract with required parameters.",
        "params": {
          "_lpTokenLocker": "The address of the LP Token Locker contract.",
          "_nileLP": "The address of the Nile LP contract.",
          "_odosRouter": "The address of the Odos Router contract.",
          "_owner": "The address that will initially own the contract.",
          "_slippage": "The slippage value used in token swaps.",
          "_zeroToken": "The address of the Zero Token contract."
        }
      },
      "owner()": {
        "details": "Returns the address of the current owner."
      },
      "renounceOwnership()": {
        "details": "Leaves the contract without owner. It will not be possible to call `onlyOwner` functions. Can only be called by the current owner. NOTE: Renouncing ownership will leave the contract without an owner, thereby disabling any functionality that is only available to the owner."
      },
      "setSlippage(uint256)": {
        "details": "Sets the slippage value used in token swaps. Only callable by the owner of the contract.",
        "params": {
          "_slippage": "The new slippage value."
        }
      },
      "transferOwnership(address)": {
        "details": "Transfers ownership of the contract to a new account (`newOwner`). Can only be called by the current owner."
      },
      "zapAndStake(uint256,bytes)": {
        "details": "Executes the Zap operation by swapping ETH for Zero tokens, adding liquidity to Nile LP, and locking LP tokens.",
        "params": {
          "duration": "The duration for which the LP tokens will be locked.",
          "odosSwapData": "The data required for the Odos swap."
        }
      }
    },
    "title": "Zap",
    "version": 1
  },
  "userdoc": {
    "kind": "user",
    "methods": {},
    "version": 1
  },
  "storageLayout": {
    "storage": [
      {
        "astId": 15750,
        "contract": "contracts/locker/Zap.sol:Zap",
        "label": "odosRouter",
        "offset": 0,
        "slot": "0",
        "type": "t_address_payable"
      },
      {
        "astId": 15753,
        "contract": "contracts/locker/Zap.sol:Zap",
        "label": "nileRouter",
        "offset": 0,
        "slot": "1",
        "type": "t_contract(INileRouter)13882"
      },
      {
        "astId": 15756,
        "contract": "contracts/locker/Zap.sol:Zap",
        "label": "lpTokenLocker",
        "offset": 0,
        "slot": "2",
        "type": "t_contract(ILocker)13405"
      },
      {
        "astId": 15759,
        "contract": "contracts/locker/Zap.sol:Zap",
        "label": "zeroToken",
        "offset": 0,
        "slot": "3",
        "type": "t_contract(IZeroLend)14484"
      },
      {
        "astId": 15761,
        "contract": "contracts/locker/Zap.sol:Zap",
        "label": "slippage",
        "offset": 0,
        "slot": "4",
        "type": "t_uint256"
      }
    ],
    "types": {
      "t_address_payable": {
        "encoding": "inplace",
        "label": "address payable",
        "numberOfBytes": "20"
      },
      "t_contract(ILocker)13405": {
        "encoding": "inplace",
        "label": "contract ILocker",
        "numberOfBytes": "20"
      },
      "t_contract(INileRouter)13882": {
        "encoding": "inplace",
        "label": "contract INileRouter",
        "numberOfBytes": "20"
      },
      "t_contract(IZeroLend)14484": {
        "encoding": "inplace",
        "label": "contract IZeroLend",
        "numberOfBytes": "20"
      },
      "t_uint256": {
        "encoding": "inplace",
        "label": "uint256",
        "numberOfBytes": "32"
      }
    }
  }
}