{
  "address": "0xC8f4562037eCcEfb8E96675701bAb111C90071C5",
  "abi": [
    {
      "inputs": [
        {
          "internalType": "address",
          "name": "_odos",
          "type": "address"
        },
        {
          "internalType": "address",
          "name": "_locker",
          "type": "address"
        },
        {
          "internalType": "address",
          "name": "_zero",
          "type": "address"
        },
        {
          "internalType": "address",
          "name": "_weth",
          "type": "address"
        }
      ],
      "stateMutability": "nonpayable",
      "type": "constructor"
    },
    {
      "inputs": [],
      "name": "EthSendFailed",
      "type": "error"
    },
    {
      "inputs": [],
      "name": "OdosSwapFailed",
      "type": "error"
    },
    {
      "inputs": [],
      "name": "ZeroTransferFailed",
      "type": "error"
    },
    {
      "inputs": [],
      "name": "locker",
      "outputs": [
        {
          "internalType": "contract ILocker",
          "name": "",
          "type": "address"
        }
      ],
      "stateMutability": "view",
      "type": "function"
    },
    {
      "inputs": [],
      "name": "lp",
      "outputs": [
        {
          "internalType": "contract IERC20",
          "name": "",
          "type": "address"
        }
      ],
      "stateMutability": "view",
      "type": "function"
    },
    {
      "inputs": [],
      "name": "odos",
      "outputs": [
        {
          "internalType": "address",
          "name": "",
          "type": "address"
        }
      ],
      "stateMutability": "view",
      "type": "function"
    },
    {
      "inputs": [],
      "name": "sweep",
      "outputs": [],
      "stateMutability": "nonpayable",
      "type": "function"
    },
    {
      "inputs": [],
      "name": "weth",
      "outputs": [
        {
          "internalType": "contract IWETH",
          "name": "",
          "type": "address"
        }
      ],
      "stateMutability": "view",
      "type": "function"
    },
    {
      "inputs": [
        {
          "internalType": "uint256",
          "name": "duration",
          "type": "uint256"
        },
        {
          "internalType": "uint256",
          "name": "zeroAmount",
          "type": "uint256"
        },
        {
          "internalType": "uint256",
          "name": "wethAmount",
          "type": "uint256"
        },
        {
          "internalType": "bytes",
          "name": "odosSwapData",
          "type": "bytes"
        }
      ],
      "name": "zapAndStake",
      "outputs": [],
      "stateMutability": "payable",
      "type": "function"
    },
    {
      "inputs": [],
      "name": "zero",
      "outputs": [
        {
          "internalType": "contract IERC20",
          "name": "",
          "type": "address"
        }
      ],
      "stateMutability": "view",
      "type": "function"
    }
  ],
  "transactionHash": "0x4b2b0551519a6a07d109c64536d9015a758acf8843f85f4360facc9405c0fd04",
  "args": [
    "0x2d8879046f1559E53eb052E949e9544bCB72f414",
    "0x8bB8B092f3f872a887F377f73719c665Dd20Ab06",
    "0x78354f8DcCB269a615A7e0a24f9B0718FDC3C7A7",
    "0xe5d7c2a44ffddf6b295a15c148167daaaf5cf34f"
  ],
  "numDeployments": 1,
  "solcInputHash": "5ea4fcf9c50edf4b15fbc1502e39cfb1",
  "bytecode": "0x60806040523480156200001157600080fd5b5060405162000d8e38038062000d8e8339810160408190526200003491620002a9565b600080546001600160a01b038087166001600160a01b03199283161790925560018054868416908316811790915560028054868516908416179055600380549385169390921692909217905560408051636f307dc360e01b81529051636f307dc3916004808201926020929091908290030181865afa158015620000bc573d6000803e3d6000fd5b505050506040513d601f19601f82011682018060405250810190620000e2919062000311565b600480546001600160a01b0319166001600160a01b0392831617815560035460005460405163095ea7b360e01b81529084169281019290925260001960248301529091169063095ea7b3906044016020604051808303816000875af115801562000150573d6000803e3d6000fd5b505050506040513d601f19601f8201168201806040525081019062000176919062000338565b5060025460005460405163095ea7b360e01b81526001600160a01b039182166004820152600019602482015291169063095ea7b3906044016020604051808303816000875af1158015620001ce573d6000803e3d6000fd5b505050506040513d601f19601f82011682018060405250810190620001f4919062000338565b506004805460405163095ea7b360e01b81526001600160a01b0386811693820193909352600019602482015291169063095ea7b3906044016020604051808303816000875af11580156200024c573d6000803e3d6000fd5b505050506040513d601f19601f8201168201806040525081019062000272919062000338565b5050600580546001600160a01b03191630179055506200035c915050565b6001600160a01b0381168114620002a657600080fd5b50565b60008060008060808587031215620002c057600080fd5b8451620002cd8162000290565b6020860151909450620002e08162000290565b6040860151909350620002f38162000290565b6060860151909250620003068162000290565b939692955090935050565b6000602082840312156200032457600080fd5b8151620003318162000290565b9392505050565b6000602082840312156200034b57600080fd5b815180151581146200033157600080fd5b610a22806200036c6000396000f3fe6080604052600436106100705760003560e01c806335faa4161161004e57806335faa4161461010d5780633fc8cef314610122578063bc1b392d1461014f578063d7b96d4e1461017c57600080fd5b80631eba02ec146100755780632ee2b12b146100cb578063313c06a0146100e0575b600080fd5b34801561008157600080fd5b506000546100a29073ffffffffffffffffffffffffffffffffffffffff1681565b60405173ffffffffffffffffffffffffffffffffffffffff909116815260200160405180910390f35b6100de6100d936600461090d565b6101a9565b005b3480156100ec57600080fd5b506004546100a29073ffffffffffffffffffffffffffffffffffffffff1681565b34801561011957600080fd5b506100de61058f565b34801561012e57600080fd5b506003546100a29073ffffffffffffffffffffffffffffffffffffffff1681565b34801561015b57600080fd5b506002546100a29073ffffffffffffffffffffffffffffffffffffffff1681565b34801561018857600080fd5b506001546100a29073ffffffffffffffffffffffffffffffffffffffff1681565b341561023357600360009054906101000a900473ffffffffffffffffffffffffffffffffffffffff1673ffffffffffffffffffffffffffffffffffffffff1663d0e30db0346040518263ffffffff1660e01b81526004016000604051808303818588803b15801561021957600080fd5b505af115801561022d573d6000803e3d6000fd5b50505050505b83156102e0576002546005546040517f23b872dd00000000000000000000000000000000000000000000000000000000815233600482015273ffffffffffffffffffffffffffffffffffffffff9182166024820152604481018790529116906323b872dd906064016020604051808303816000875af11580156102ba573d6000803e3d6000fd5b505050506040513d601f19601f820116820180604052508101906102de919061099a565b505b821561038d576003546005546040517f23b872dd00000000000000000000000000000000000000000000000000000000815233600482015273ffffffffffffffffffffffffffffffffffffffff9182166024820152604481018690529116906323b872dd906064016020604051808303816000875af1158015610367573d6000803e3d6000fd5b505050506040513d601f19601f8201168201806040525081019061038b919061099a565b505b6000805460405173ffffffffffffffffffffffffffffffffffffffff909116906103ba90859085906109c3565b6000604051808303816000865af19150503d80600081146103f7576040519150601f19603f3d011682016040523d82523d6000602084013e6103fc565b606091505b5050905080610437576040517f45d4013e00000000000000000000000000000000000000000000000000000000815260040160405180910390fd5b600480546040517f70a08231000000000000000000000000000000000000000000000000000000008152309281019290925260009173ffffffffffffffffffffffffffffffffffffffff909116906370a0823190602401602060405180830381865afa1580156104ab573d6000803e3d6000fd5b505050506040513d601f19601f820116820180604052508101906104cf91906109d3565b600180546040517f0a2abdb300000000000000000000000000000000000000000000000000000000815260048101849052602481018b9052336044820152606481019290925291925073ffffffffffffffffffffffffffffffffffffffff90911690630a2abdb3906084016020604051808303816000875af1158015610559573d6000803e3d6000fd5b505050506040513d601f19601f8201168201806040525081019061057d91906109d3565b5061058661058f565b50505050505050565b6002546040517f70a08231000000000000000000000000000000000000000000000000000000008152306004820152479160009173ffffffffffffffffffffffffffffffffffffffff909116906370a0823190602401602060405180830381865afa158015610602573d6000803e3d6000fd5b505050506040513d601f19601f8201168201806040525081019061062691906109d3565b6003546040517f70a0823100000000000000000000000000000000000000000000000000000000815230600482015291925060009173ffffffffffffffffffffffffffffffffffffffff909116906370a0823190602401602060405180830381865afa15801561069a573d6000803e3d6000fd5b505050506040513d601f19601f820116820180604052508101906106be91906109d3565b9050821561074a57604051600090339085908381818185875af1925050503d8060008114610708576040519150601f19603f3d011682016040523d82523d6000602084013e61070d565b606091505b5050905080610748576040517f98248e6400000000000000000000000000000000000000000000000000000000815260040160405180910390fd5b505b6000821180156107f257506002546040517fa9059cbb0000000000000000000000000000000000000000000000000000000081523360048201526024810184905273ffffffffffffffffffffffffffffffffffffffff9091169063a9059cbb906044016020604051808303816000875af11580156107cc573d6000803e3d6000fd5b505050506040513d601f19601f820116820180604052508101906107f0919061099a565b155b15610829576040517f5a91840400000000000000000000000000000000000000000000000000000000815260040160405180910390fd5b6000811180156108d157506003546040517fa9059cbb0000000000000000000000000000000000000000000000000000000081523360048201526024810183905273ffffffffffffffffffffffffffffffffffffffff9091169063a9059cbb906044016020604051808303816000875af11580156108ab573d6000803e3d6000fd5b505050506040513d601f19601f820116820180604052508101906108cf919061099a565b155b15610908576040517f98248e6400000000000000000000000000000000000000000000000000000000815260040160405180910390fd5b505050565b60008060008060006080868803121561092557600080fd5b853594506020860135935060408601359250606086013567ffffffffffffffff8082111561095257600080fd5b818801915088601f83011261096657600080fd5b81358181111561097557600080fd5b89602082850101111561098757600080fd5b9699959850939650602001949392505050565b6000602082840312156109ac57600080fd5b815180151581146109bc57600080fd5b9392505050565b8183823760009101908152919050565b6000602082840312156109e557600080fd5b505191905056fea264697066735822122052593306e68182d2f0756459cf3f2407effc8afc6775256957d4e87ff4c67c6c64736f6c63430008140033",
  "devdoc": {
    "details": "This contract allows users to perform a Zap operation by swapping ETH for Zero tokens, adding liquidity to Nile LP, and locking LP tokens.",
    "kind": "dev",
    "methods": {
      "constructor": {
        "details": "Initializes the contract with required parameters.",
        "params": {
          "_locker": "The address of the LP Token Locker contract.",
          "_odos": "The address of the Odos Router contract.",
          "_weth": "The address of WETH.",
          "_zero": "The address of the Zero Token contract."
        }
      },
      "zapAndStake(uint256,uint256,uint256,bytes)": {
        "details": "Executes the Zap operation by swapping ETH for Zero tokens, adding liquidity to Nile LP, and locking LP tokens.",
        "params": {
          "duration": "The duration for which the LP tokens will be locked.",
          "odosSwapData": "The data required for the Odos swap.",
          "wethAmount": "How much WETH the user will pass into the LP token",
          "zeroAmount": "How much ZERO the user will pass into the LP token"
        }
      }
    },
    "title": "ZapLockerLP",
    "version": 1
  },
  "userdoc": {
    "kind": "user",
    "methods": {},
    "version": 1
  },
  "storageLayout": {
    "storage": [
      {
        "astId": 17414,
        "contract": "contracts/zaps/ZapLockerLP.sol:ZapLockerLP",
        "label": "odos",
        "offset": 0,
        "slot": "0",
        "type": "t_address"
      },
      {
        "astId": 17417,
        "contract": "contracts/zaps/ZapLockerLP.sol:ZapLockerLP",
        "label": "locker",
        "offset": 0,
        "slot": "1",
        "type": "t_contract(ILocker)12810"
      },
      {
        "astId": 17420,
        "contract": "contracts/zaps/ZapLockerLP.sol:ZapLockerLP",
        "label": "zero",
        "offset": 0,
        "slot": "2",
        "type": "t_contract(IERC20)5355"
      },
      {
        "astId": 17423,
        "contract": "contracts/zaps/ZapLockerLP.sol:ZapLockerLP",
        "label": "weth",
        "offset": 0,
        "slot": "3",
        "type": "t_contract(IWETH)13318"
      },
      {
        "astId": 17426,
        "contract": "contracts/zaps/ZapLockerLP.sol:ZapLockerLP",
        "label": "lp",
        "offset": 0,
        "slot": "4",
        "type": "t_contract(IERC20)5355"
      },
      {
        "astId": 17428,
        "contract": "contracts/zaps/ZapLockerLP.sol:ZapLockerLP",
        "label": "me",
        "offset": 0,
        "slot": "5",
        "type": "t_address"
      }
    ],
    "types": {
      "t_address": {
        "encoding": "inplace",
        "label": "address",
        "numberOfBytes": "20"
      },
      "t_contract(IERC20)5355": {
        "encoding": "inplace",
        "label": "contract IERC20",
        "numberOfBytes": "20"
      },
      "t_contract(ILocker)12810": {
        "encoding": "inplace",
        "label": "contract ILocker",
        "numberOfBytes": "20"
      },
      "t_contract(IWETH)13318": {
        "encoding": "inplace",
        "label": "contract IWETH",
        "numberOfBytes": "20"
      }
    }
  }
}